S01200006E6361705F77696C6D612E73726563F7
S2840000000C9477020C94BD020C94BD020C94BD020C94BD020C94F9B70C940BAB0C94A6B90C9477B90C94BD020C94BD020C94BD020C94BD020C947ABB0C94BD020C94C4BB0C94BD020C94BD020C94BD020C94BD020C94BD020C94BD020C94BD020C94BD020C94BD020C94BAB80C941AB90C94ECB80C94BD020C9461BC0C944FBA0C94BD025E
S2840000800C94BD020C94BD020C94BD020C94BD020C942CB80C948CB80C945EB80C94D5B90C94BD020C94BD020C9440B70C9433AB0C94BD020C94BD020C94BD020C94BD020C94BD020C94BD020C94BD0220252D25512563256A25772583258E259625AA25D63A053B6B3D2F3B9E3CB43C6B3D033C553C813C843C933CC93C6B3D6B3D3D3D63
S284000100A549D249D249D249AA49BF49B449B949D749AF49C449C449C949D2490E4A114A144A144A174A234A1D4A204A334A1A4A264A294A2C4A2F4A424B464B684B4A4B4E4B684B524B684B594B5D4B654B1451F251055286509152915200520552085262523552915291526252EB50675251714571E670947194712D713A7194719471B1
S284000180947159716871067112719471E370EE864E8785876E87628785879287E287E287E287E287E287E287E287E287E2876E878587E287E28677875C8722882788BC880A8920890A8A3C8AEE8AEE8AEE8AEE8AEE8AEE8AEE8AEE8AEE8AE289CB89EE8A1188E989A888FE9292926D936D936D9397929C9214936D939F92A292BA92BF92B3
S2840002006D93C292C592C8926D93CD92D0921493D592F39207936D93F692F9929592FC92FC9214931493149314931493149314931493149314931493149314931493149314931493DA9214936D936D936D936D936D936D936D936D936D936D936D936D936D936D9314930A930D93A594A593A794A794A794A993B093A794A794B793BB9373
S284000280D493DB93A794DF93E693EF93A794F693FA93A794019421943094A79425942C94A594A594A5943894389438943894389438943894389438943894389438943894389438943894389408943894A794A794A794A794A794A794A794A794A794A794A794A794A794A79438943494A59428962696269655965C966F9677967A967D9640
S2840003008096839692979997A897B097B297B497B697B997D79FDA9FDD9FE09FE39FE69FE99FEC9FEF9FF29FF59FF89FFB9FFE9F01A004A007A00AA00FA03CA138A1CAA140A1E1A0C8A08BA092A099A09DA003A110A1AFA044A1A6A0CAA1CAA1CAA1CAA151A1FAA019A134A15EA166A16FA1CAA1CAA1CAA1CAA1CAA12CA130A1BEA188A1C8
S2840003808FA193A1B3A19AA1A3A179A1ABA1CAA1CAA180A18FA28FA200A2CBA28BA2CDA2CDA28DA2CDA28DA2CDA20BA20EA28BA211A214A22CA2E5A1EAA1F1A1A4A245A24EA251A2F7A1DEA15AA25CA2CBA2CBA202A2F4A15FA26EA271A276A27CA28BA28BA28DA28DA28FA291A294A297A2AAA2AEA2B1A2D1A2B6A2BFA283A2C5A2CBA21B
S284000400CDA288A2CFA2500893410000931B181CEC35921FE07CD56ECF630A63A42F00008F5E04750632F55DD41D1926C47A137D19692263000000000000C2307630E55BBE5E000039244E32F45B1034E026E227AE2F227D8E621D6421734D6E58762A63971F0000000002400305000000010864000C0164000000FFFFFFFFFFFFFFFFE8BF
S2840004800300008F2B842A81304D750000E56CEA6F967800000000170400100C001514001618001919001F1A00201B00231C00241D00311E00332F002F31003233002134001135001437002D3800123900133B000F3C002E440000FFFF004500111D01093C0131B056AF5AAF2DB05EAF62AF112480910A16823141F084B78F7180930A163C
S28400050080FF05C081E001C081E180930A1614BE809160008861809360001092600011241FBECFEFD1E2DEBFCDBF12E0A0E0B2E0E0EDFFE701E00BBF02C007900D92A23FB107D9F716E1A2EFB2E001C01D92AA30B107E1F70E9484AA0E9464362FB7F8948091940590919505806190939505809394052FBF0E943937FDCF0C9400007F93CC
S2840005807FB7F8949D9AA5988AEF0E941E038AEF0E941E039D9886E40E941E0381E0959980E08F9380EF0E941E038F917FBF7F9108957F937FB7F8949D9AA59886E00E941E039D988AE00E941E03889495990894881F8F9384E60E941E038F917FBF7F9108959F937F9398E00E94D902879577959A959923C9F7872F7F919F9108957F932D
S2840006007FB7F894A5989D9A8F9386E00E941E038F91879508F49D988F9384E60E941E038F919D987FBF7F9108959F9398E00E94FF029A959923D9F79F91089500000000000000008A958823C9F708955F937F937FB7F894CF93DF93C0E0D0E07F935091B2007091B2007517E1F3739521965091B2005717D9F77F91CE01DF91CF917FBFDD
S2840006807F915F910895EF92FF920F93DF93CF93CDB7DEB760970FB6F894DEBF0FBECDBFA82F002309F461C07E010894E11CF11C88E0F70111928A95E9F729833A834B835C836D837E83AF83988780E2801BE82FFF27E7FDF0954D815E816F817885181684F01D861E861F86188A882799278E1B9F0B04C076956795579547958A95D2F738
S28400070028C0202F332727FD3095DB01CA01022E04C0B695A795979587950A94D2F78D879E87AF87B88B04C0440F551F661F771FEA95D2F789819A81AB81BC8104C0B695A795979587952A95D2F7482B592B6A2B7B2B49875A876B877C8729853A854B855C856D857E85AF8598898A2F60960FB6F894DEBF0FBECDBFCF91DF910F91FF90AB
S284000780EF900895EF92FF920F93DF93CF93CDB7DEB760970FB6F894DEBF0FBECDBFA82F002309F461C07E010894E11CF11C88E0F70111928A95E9F729833A834B835C836D837E83AF83988780E2801BE82FFF27E7FDF09549815A816B817C81181684F019861A861B861C86882799278E1B9F0B04C0440F551F661F771F8A95D2F728C0D5
S284000800202F332727FD3095DB01CA01022E04C0880F991FAA1FBB1F0A94D2F789879A87AB87BC8704C07695679557954795EA95D2F78D819E81AF81B88504C0880F991FAA1FBB1F2A95D2F7482B592B6A2B7B2B4D875E876F87788B29853A854B855C856D857E85AF8598898A2F60960FB6F894DEBF0FBECDBFCF91DF910F91FF90EF90D4
S2840008800895A0E0B0E0E7E4F4E00C9498BFEC01A880B980CA80DB80A114B104C104D10441F484E2A82E89EDB82E8BE5C82E87E0D82EC601B5012DE133EF41E050E00E94CDBF27EA31E440E050E00E941CBF7B018C01C601B5012DE133EF41E050E00E94CDBFCA01B9012CEE34EF4FEF5FEF0E941CBF6E0D7F1D801F911F97FF04C0615089
S284000900704080409048688379838A839B839B013F77C901CDB7DEB7EAE00C94B4BF0E94410408958EEE92E00E9441040895A0E0B0E08093EE029093EF02A093F002B093F1020895FB01DC0102C005900D9241505040D8F70895FB01DC0104C08D910190801921F441505040C8F7881B990B0895FB01DC0102C001900D9241505040D8F71C
S2840009800895DC0101C06D9341505040E0F7089552E05093060320911A03246020931A03A1E0B0E0B0931503A093140341E040931103E091F902F091FA022181328130931303209312034093160310921B0325E135E030931D0320931C039093F5028093F4025093250380913903846080933903B0933403A093330350933003E0910003AE
S284000A00F09101038181928190933203809331035093350310923A0330933C0320933B037093F3026093F20208952FB7F8948091940590919505926090939505809394052FBF0895E091F402F091F502309709F009950895E091F202F091F302309709F009950895782F6133D8F45093270340932603A7EBB3E09C01F90102C081918D93A2
S284000A808E2F871B8617D0F36093360387EB93E0909338038093370383E293E00E94AE140895782F6133D8F45093080340930703A4E6B3E09C01F90102C081918D938E2F871B8617D0F36093170384E693E0909319038093180384E093E00E94AE14089580E092E09093FA028093F90282E295E09093FC028093FB0286EF92E00E94E508B6
S284000B008CE092E090930103809300038AE295E090930303809302038DEF92E00E94E50808958091E803823039F4809101048093F7038F5F809301040895089508958091E803882319F0813049F51EC080E090E00E947F0788E192E00E9468070E949E068EE292E00E94680781E08093E8032FB7F8948091940590919505926090939505BF
S284000B80809394052FBF08958FEC95E0909313048093120482E094E00E94013908950F931F938C0188E392E00E946807F8018785882361F58AE492E00E9468070E94700580E090E069E176E00E94C8048AE896E00E9484A888EE93E0A0E0B0E080931A0490931B04A0931C04B0931D0410921E0481E995E09093200480931F0484E194E08A
S284000C000E9426AC82E08093E80304C084E592E00E9468072FB7F8948091940590919505926090939505809394052FBF1F910F910895DC015D96ED91FC915E97808191819936D9F09A3618F49336D9F405C09E3679F09337B1F406C0805362E876E00E9477A6089580536AE776E00E9449A6089582E496E00E94A1A6089581E596E00E9463
S284000C80C6A608959EE69093E9038093EA031092EB0389EE93E062E040E050E00E9432050895FC0189E68093EC0380818093ED0381818093EE0382818093EF0383818093F00384818093F10385818093F20386818093F30387818093F40380858093F5031092F6038CEE93E06AE040E050E00E943205089581E692E062E040E050E00E9456
S284000D003205089584E692E062E040E050E00E9432050895DC019C91692F6F73693268F48091E803823049F4FD01E60FF11D1182CD0140E050E00E945105089580E169E672E00E947DA085E161E772E00E947DA081E165E772E00E947DA089E167E772E00E947DA084E167E672E00E947DA08FE168E672E00E947DA0089540912804242F82
S284000D8030E0F901EE0FFF1FE20FF31FE75BFB4F91838083628380912604873059F4463010F020E002C0242F2F5F209328042093270408958F5F80932604463010F020E002C0242F2F5F209328040895A6E0B0E0ECEEF6E00C94A0BF30912704832F90E0FC01EE0FFF1FE80FF91FDE011196E75BFB4F23E001900D922150E1F729814A81CF
S284000E00FC01EE0FFF1FE80FF91FE75BFB4F1182108280912604882319F420E030E00EC0363010F090E002C0932F9F5F90932704815080932604822F942F9C013A832983DE011496FE01319683E001900D928150E1F76C817D818E8190E02696E2E00C94BCBFA6E0B0E0E7E3F7E00C94A0BF80912504882301F5809126048823E1F00E941E
S284000E80E6066C837D838E83DE011196FE01349683E001900D928150E1F769817A816115710549F04B8189E294E050E00E94DCAD81E0809325042696E2E00C94BCBF1092250480912604882311F00E94310708959C0160E070E0F901E60FF71F8081882341F4662331F0C9010E94BD060E94310708956F5F7F4F6C33710569F7089528ECE2
S284000F0030E030933304209332041092340429E130E0309336042093350426E020933704109238041092390410924104109240041092430410924204109245041092440410923D0410923C0410923F0410923E042FE537E0309347042093460410924804909322048093210489E294E00E9435B00895482FA0917802B091790205C08C9182
S284000F8011969C919C01D901109739F01396ED91FC9114978081481791F7CD01089580917802909179020895E0915E04F0915F0420813181CF010296F90109950895009729F488E792E00E94E53608950E942F370895CF93DF93EC011A8290935F0480935E040E94521C833091F484E00E944B1C0E9495ABC901BA01209366049093670401
S28400100040936804709369040E94F00A02C083EA8A831092600410926104109262041092630480E00E94871C8091600490916104A0916204B091630483608093600490936104A0936204B0936304DF91CF91089590E080959095AA2797FDA095BA2F2091600430916104409162045091630482239323A423B5238093600490936104A09342
S2840010806204B09363040097A105B10541F480E00E94791785E00E944B1C0E94D40708950E94521C853021F00E94521C843019F480E00E9428080895CF93DF93EC011A820E94521C823011F0853021F483E00E944B1C02C083EA8A830E94480AE881F981CE0102960995DF91CF9108950F931F938C01909365048093640481E00E944B1CF6
S284001100F801808180936C0481E998E090936E0480936D048AE694E00E9409261F910F9108951F93CF93DF93EC01E0916404F091650410810E94551C882311F00E94B710812F0E94581C10925F0410925E04109260041092610410926204109263040E94A31C0E94944181E00E947917812F0E94191C812F0E941942E0916404F091650412
S2840011808081882311F083E001C082E00E944B1CE0916404F09165048881838321813281CF010396F90109951092650410926404DF91CF911F9108950E94F82588E792E00E94D0360E9494410895CF93DF93EC01EB81FC814081842F8150803FE0F4A0917802B091790205C08C9111969C919C01D901109741F01396ED91FC9114978081AA
S284001200481791F708C08A818E7F8A8388E792E0BE010E94D636DF91CF910895809173048150809373040895EF92FF920F931F93E82E90917A0440917F045091800410E060E070E082C0FA0187814A5D5F4F9B012A5D3F4F882309F076C082E0E816E1F0E81620F084E0E81609F072C090917E0480917C04981708F06BC09F5F90937E046C
S2840012801382148215821682E0917F04F0918004E60FF71F128644C090917D0480917B04981708F055C0F0907704A0917804B091790400E020E030E02DC0FD01E20FF31FA9014D5D5F4F808180FD22C09F5F90937D04808181608083E0917804F0917904E20FF31F110F110F80818370812B8083E0917F04F0918004E60FF71F8091780472
S28400130090917904820F931F4796938B828B04C00F5F9A010F1588F2809177048017C1F0E0917F04F0918004E60FF71F118681E08783E0861182108220917F0430918004260F371F07C01F5FB901191708F47BCF20E030E0C9011F910F91FF90EF900895CF93DF9320917F04309180048217930708F45DC0821B930B66E270E00E9447BF4D
S28400138080917A04681708F052C086E2689FE0011124F901EC0FFD1F11868085823061F0823010F08430E1F580917E048823C1F1815080937E0434C080917D04882319F0815080937D04209178043091790482899389821B930B63E270E00E9447BF80917B046817A8F483E2689FB0011124F901E60FF71F808180FF0BC08E7F8083E09192
S2840014007804F0917904E60FF71F80818D7F8083E0917F04F0918004EC0FFD1F138A128AE0917F04F0918004EC0FFD1F1782DF91CF910895FC01138A8091760481508093760421893289CF014396F90109950895FC01DA010097D9F0628F4115510551F08D919D910D90BC91A02D838F948FA58FB68F04C0138E148E158E168E208D318D2D
S2840014802115310521F0CF014A96F90109950895A5E0B0E0EEE4FAE00C949CBF80E3BE016F5F7F4F0E94CDA18E010E5F1F4F88E1B8010E94CDA12A813B814C815D81898190E0A0E0B0E082179307A407B50760F0220F331F441F551F2A833B834C835D8388E1B8010E947DA0898190E00796AA2797FDA095BA2F7C018D0124E0EE0CFF1CC6
S284001500001F111F2A95D1F7E81AF90A0A0B1B0B8A819B81AC81BD81E80EF91E0A1F1B1FE0929E04F0929F040093A0041093A10470919D0460E020E030E040E050E00FC0D801C701062E04C0880F991FAA1FBB1F0A94D2F7280F391F4A1F5B1F6F5F671778F3CA01B90124EF31E040E050E00E946EBF2E5F2093A20481E894E060E024EF8C
S28400158031E040E050E006ED1AE00E94F71C8FE894E060E02AE030E040E050E004E11CE00E94F71C2596E6E00C94B8BF3091A304E0917004F091710490E021E008C08381882319F08150838320E09F5F35969317B0F3222321F081E894E00E94EE1C08958FE894E00E94EE1C81E894E00E94EE1C83E00E94871C0895209173042F5F2093B5
S28400160073040E94CB1F0895A1E0B0E0EAE0FBE00C949BBF7C018B0180917504DB0154968C9354978F5F80937504F701878955968C935597DD24D3945796DC92579758961C92589782E994E15A969C938E935997838951968C9351978489958953969C938E93529782E2BE016F5F7F4F0E94CDA189818823D9F582E0D8011E968C931E9792
S2840016808DEF9FEF50969C938E931F9751968C915197875F51968C9351975296ED91FC91539739975396FC93EE93529756961C92D70113968D919C9114979283818350968D919C915197948383831E968D919C911F979683858352968C9187838091740480878F5F8093740483E035C0F801D686D70113968D919C911497908B878753961C
S2840017008C915397885F818B5496ED91FC9155973897D8015396FC93EE9352978091911056968C938FEF8183D70150968D919C915197938382831E968D919C911F979583848352968C9186838091740487838F5F8093740480E0D8015296ED91FC915397880F880F8083C8010B960E94FC0A80E02196E7E00C94B7BF82E88093D204809115
S284001780BA048093D3048091B6049091B7049093D5048093D4048091B8049091B9049093D7048093D6048091B5048093D8048091BB048093D90482E08093DA048091B1048093DB048091B2048093DC0482E08093E10482ED94E02091B3043091B4043093E3042093E2042BE02093E4049093E6048093E504209175042093E7042F5F2093C1
S28400180075041092E8041092E90421E02093EA041092EB042EE039E03093ED042093EC040C960E94FC0A0895DF92EF92FF920F931F9301E010E0F6E2DF2EE3E0EE2E77E0F72E3AC01D9D90011124E0917F04F0918004E20FF31F8781882369F18185823051F58085813011F0843029F583819481A581B6818A309105A105B10548F00A9748
S284001880A109B10983839483A583B68300E013C0E1861382148215821682E0917F04F0918004E20FF31F8085843011F4F092770583E00E94871C1F5F80917A04181710F28091AB049091AC04A091AD04B091AE040097A105B105E9F08A309105A105B10560F00A97A109B1098093AB049093AC04A093AD04B093AE0412C01092AB04109289
S284001900AC041092AD041092AE041092A4040E94BC0B002321F08FE894E00E94EE1C1F910F91FF90EF90DF900895CF93DF93EC01A0917004B09171049091A30485E0989F900111242A0F3B1FE0E0F0E04DC013964C911397442309F440C08D919C9111978C179D07D1F512962C911297261B2830D0F414963C911497832F90E0022E02C078
S284001980959587950A94E2F780FF02C081E03FC081E090E002C0880F991F2A95E2F7382B14963C9333C0219512966C931297283010F080E009C014968C91149790E002C0880F991F2A95E2F7816014968C9314978091A20413968C9319C0309719F08381481708F4FD011596A217B30708F4AFCF309761F0D183C08362838091A204838366
S284001A0081E0848381E894E00E94191D80E0DF91CF9108950F931F93CF93DF938C01C0E0D0E014C0EB81FC818081882379F08A8180FD0CC021813281F801808D918D2817390721F4ED81FE81C8010995CE010E94DF07EC01009731F7DF91CF911F910F910895A7E2B0E0E7E3FDE00C9499BF8C01B62EDC011D968C91882329F18F3F19F1B8
S284001A800E94B9076C01009769F0DC011396ED91FC91149721813281F801868597852817390741F0D80156968C9182FF10C0B7EAEB2E06C0F601828180FF09C0A1EBEA2EFF24F39406C0EE24CC24DD2401C0EE24FF24BB2031F0C8016E2D40E050E00E94280AFF2009F06BC0D80112968C911297898315968C9115978C8316968C911697AC
S284001B008D8317968C9117978E8318968C9118978F8319968C91199788871A968C911A9789871B968C911B978A871C968C911C978B871D968C918C8787E1BE01605F7F4F0E94CDA182E08D878091591090915A109F878E87F8018289888F868597859A8F898F808991899C8F8B8F83898D8F848995899F8F8E8F8FEA89A38FEF8AA31BA20A
S284001B801CA21DA21EA28FA38C85882329F4CE0101960E94813E13C0D8011D968C919E012F5F3F4F8F3F21F4C9010E940A0D07C0D6011596ED91FC911697C90109958E2DA796E9E00C94B5BFA0E0B0E0EAEEFDE00C949BBFEC017B0182E0DB011E968C931E978B819C8150969C938E931F978E8983FF40C04B894D35E8F180917505282F49
S284001C0030E08091780590E001972817390719F01CE5D12E0CC084EA9FEFFC012E9FC0012F9F900D3E9F900D1124D42ED80E08E115E08CE590E0AC01249FC001259F900D349F900D11242C893D89280F391FC801B9014D2D50E00E94B8045AE0D50ED7015196DC9251970A50104053961C930E93529709C08B89885FF701818B8C899D8950
S284001C800897938B828B80917504D70154968C9354978F5F809375048F8955968C93559756961C92569781E057968C93579758961C92589782E994E15A969C938E9359975296ED91FC9153972081822F8C7F80838B819C81207F875F9F4F08F0286020832081922F9F7D90838E8982FD03C02F79208315C09064908381E0D70119968C93A6
S284001D0019978E8983FF06C08B898D3518F080917A0503C080919D04D7011A968C938E8983FF17C08B898D35A0F0808180688083909175058085992339F48C7F8160808780917805818708C08C7F82608087918703C080818F7780838D85818388899989938382838E859F85958384838A8986838E8983FF07C08B898D3520F080917905A5
S284001D80878306C08091740487838F5F80937404C7010B960E94FC0A80E0CDB7DEB7E7E00C94B7BFFC0182818130B1F181E08283838181508383809175048F5F8093750481508587809173048F5F809373048181813049F4CF0104960E94CB1F8FE894E00E94191D08958430B9F4809177058E7F80937705809176058093750580917A05AD
S284001E00815080937A05E0918805F091890580819181BF010E94E40D08950F931F93CF93DF930E94521C843019F410E006E229C00E94521C8530C9F329C0109FE0011124E0917F04F0918004EC0FFD1F87818823B9F080858130A1F481858250823080F48081918163EA40E050E00E94280A80917F04909180048C0F9D1F4B960E94B009FC
S284001E801F5F80917A041817C0F238C00E94521C8330A1F510E006E22DC0109FE0011124E0917F04F0918004EC0FFD1F8781882301F181858330E9F48085813011F08430C1F48285882329F0CF0107960E94D20E10C08081918167EA7F96AF010E94280A80917F04909180048C0F9D1F4B960E94B0091F5F80917A04181778F2DF91CF91E0
S284001F001F910F910895A0E0B0E0E9E8FFE00C9497BF6C01FC01C085D18510E086E2982E01E0A02EB12C06E00EC1199D70011124A0917F04B0918004AE0DBF1D17968C911797882309F4FEC019968C911997823009F0F8C018968C911897813009F055C052966C91529753967C9153974D915C911197F60125813681FA018381948128172B
S284001F80390709F0DFC0FB019F818781981709F0D9C02C813D81848195812817390709F0D1C02A813B81828193812817390709F0C9C099818681981709F0C4C09E818181981709F0BFC088818370823021F45F96CA0160E00DC01A968C911A97882329F0CD0107960E94D20EB3C05F96CA0161EBAD010E94280A80917F04909180048E0D68
S2840020009F1D4B960E94B009A3C0843009F09AC052964C91529753965C9153978D919C911197F60125813681FC01838194812817390709F087C0FA019F818781981709F081C02C813D81848195812817390709F079C02A813B81828193812817390709F071C099818681981709F06CC09E818181981709F067C0498580917605481709F06E
S28400208061C08A858F3F69F52091750530E08091780590E0019728173907B1F410928905109288058D919C91119760E05F96AD010E94280A80917F04909180048E0D9F1D4B960E94B0093EC0942F9D5F9093760580919D0480937A05909375050093770528C0382F30953093770530FF05C020E080E090E010E00FC031FF05C021E081E03D
S28400210090E011E008C032FD02C013E012C022E082E090E012E0240F20937505A50102C0440F551F8A95E2F7CA018095832380937705E0918805F091890580819181BF010E94E40D1F5F80917A04181708F4EDCECDB7DEB7EBE00C94B3BFE0918805F091890580819181BF010E94E40D08950F931F93CF93DF930AC08CE792E00E94ED3611
S284002180CE0163EA40E050E00E94280A8CE792E00E94E536EC01009779F731C084E892E0BE010E94023720917F0430918004CE01821B930B66E270E00E9447BF80917A046817F0F4619FF0011124E20FF31F808191816085613051F0613018F0623081F40AC0AE014C5F5F4F6A8103C067EA40E050E00E94280ACE010E94B00901C016E27B
S28400220084E892E00E94E536EC01009739F610E006E225C0109FC0011124E0917F04F0918004E80FF91F87818823C1F0808191812085213051F0213018F0223079F40AC06091020044E050E003C067EA40E050E00E94280A80E090E00E94B0091F5F80917A041817B8F2DF91CF911F910F910895AAE0B0E0EEE3F1E10C9493BF83E00E9410
S284002280671C782E0E94521C8450823008F450C10E94231D9A838983B6E05B2EA3E08A2E912C8C0E9D1EF2E06F2E5E010894A11CB11C2AC1772019F4E3EAFE2E1AC1F801868983FF1AC08091880590918905892BA1F083898D3588F083E00E94871CC8010E942F37FC018C01009709F43DC1868983FF03C083898D3590F7F8018689982FF6
S284002300969596959695917011F082FF36C0F801868980FD32C081FD30C082958F7069F583898D3528F0992319F470EAF72EE1C0F8018289882329F00E94B907892B09F410C1F8012281223031F483819481885F9F4F18F406C0213021F4F801868982FD00C1822F8250823008F0EAC0F8018585815F8E3008F4F5C0E3C06AEAF62EB9C04C
S284002380F801868982FF07C083FF05C083898D3510F084E001C080E00E9414097C0156E3C52E57E1D52ED8C080E00E9414097C0144E0C42E4BE0D42ECFC087E1B4010E94CDA19B81F80185819817F1F49C8186819817D1F49D8187819817B1F49E818085981791F49F818185981771F498858285981751F499858385981731F49A8584858B
S284002400981711F4F5010AC0C80105960E94341FFC01009719F439EAF32E6BC080819181F801948383836282F8012381348189819A812817390751F48CE792E0B8010E940237C80161E00E94310D5EC0F801868982FF10C083FF05C083898D3510F084E001C081E00E9414097C0124EEC22E2DE0D22E72C080E0F6CF8CE792E0B8010E94DB
S2840024800237F801868982FF2AC083FF28C083898D3528F1F0928905E0928805109275051092760580919D0480937A052389822F6CE50E943BBF382F80937805822F0E943BBF992319F03F5F309378055092770580917404809379058F5F80937404F70111830083C801B701F6010995F82E882359F08CE792E0B8010E940237C8016F2D0F
S28400250040E050E00E94280A8CE792E00E94E5368C01009709F0CECE27C08CE792E0B8010E940237C80163EA40E050E00E94280A8CE792E00E94E5368C01009771F714C0213009F431CF213008F41ACF223009F46BCF233031F431CFE114F10409F08CCF03C096EAF92EC5CF2A96EFE00C94AFBFEF92FF920F931F93CF93DF93EC018981AC
S2840025809A8160E070E00E94AF1B8C01009759F11B8660E00E94EB1BE82EFF2422C0C8016F2D0E94FE1BFC0180810E94B907DC010097B1F012968C91129780FD11C01396ED91FC91149721813281888D998D2817390731F41596ED91FC911697CE010995F394FE14E0F2CDB7DEB7E6E00C94B8BFA7E2B0E0EEEFF2E10C949ABF8C01C62E55
S284002600FC01E084F18485819681F70160850E94950C882309F056C081E08983F701818192819B838A8382E0D82EDD86F801858196810E94FD1EFC01009799F083E08D878081888B8181898B82818A8B83818B8B84818C8B85818D8B86818E8B87818F8B01C0DD86F801858196819F878E87F7018781888F858196819A8F898F83819481D6
S2840026809C8F8B8FF8012781822F89508D8F18A230E0281B310980859185820F931F9F8F8E8FC9A282858AA384859585A685B7858BA39CA3ADA3BEA383858FA3CE0101960E94B81281E0A796E8E00C94B6BFA0E0B0E0EDE6F3E10C949ABF7C01C62EFC0100851185F801808186FFCCC08370813019F097E0D92E02C0DD24D39450917A0493
S284002700A0917F04B091800440E06D2D70E0E801C60FD71F21C017968C9117978130D1F418968C9118978230A9F4F701258136811F968D919C9150972817390759F45296ED91FC915397E60FF71F98818081981709F496C04F5F96964517E8F299C0F701858196810E943621FC01009749F0828D80FF06C0EA89FB897797808182608083F6
S28400278019821882AA89BB8982E08E87F70185819681988B8F87809175048F5F8093750481508C8B1D8A1E8A81E08F8B188E82E994E19A8F898F8C91CC2019F48C7F826001C083608C93F80190819C708C91837F892B8C93908190718F7E892B982F9F799C93908190788F71892B8C9380812D2D30E084FF0BC0F70180859185820F931F3C
S284002800FC01808111968C9382E02CC088E0898BF801868111968C9311978281938113969C938E9312978481958115969C938E931497818116968C931697F70180859185820F931FFC01808117968C931797F801808187FF11C08085837031F418961C9289898F5F898B08C089898D5F898BF8018085837018968C93CE010B960E94FC0A07
S28400288081E001C080E0CDB7DEB7E8E00C94B6BF82E00E941409EC01009709F060CFF2CFFC010097A9F0808191810E943621DC01009781F05A968C915A9780FD09C030917704E0917804F091790420E090E00BC0A0E0B0E060E00BC0808180FD02C081FD9F5F2F5FB3962317B8F3632F691B50917D0480917A0490E040917E04252F30E048
S284002900240F311D281739075CF480917B04581738F4AB2B19F080E0623018F081E0089580E00895BC018091730481508093730484E892E00E94D63683E00E94871C0895BC0180E892E00E94D63683E00E94871C809176048F5F809376040895BC018CE792E00E94D63683E00E94871C0895A2E0B0E0EDEBF4E10C9491BF7C018B0180E154
S284002980BE016F5F7F4F0E94CD9FE981FA813080418052806380748085809680C780F5E0AF2EB12CAE0CBF1CE8EADE2ED80193968D919C91949795966C910E94FE41F80185A38F3F09F4CDC0A3A1B4A190E09C0173E0220F331F7A95E1F7880F991F280F391FA20FB31FFD013C961C968C91D70115968C931597818116968C9316978281DE
S284002A0017968C931797838118968C931897848119968C93199785811A968C931A9786811B968C931B9787811C968C93D8019396ED91FC91949795968C91959790E09C0153E0220F331F5A95E1F7880F991F280F391FE20FF31F8489F70185871183008393962D913C91949795964C91842F90E0FC0173E0EE0FFF1F7A95E1F7880F991F02
S284002A80E80FF91FE20FF31F8385833009F059C0842F90E0FC0153E0EE0FFF1F5A95E1F7880F991FE80FF91FE20FF31FDF011C968485831599F511968C911197841571F512968C911297851549F513968C911397861521F514968C9114978715F9F415968C9115978815D1F416968C9116978915A9F417968C918C1589F4C70160E00E94B5
S284002B00310DD82E90E0882309F491E0D80195968C9195978F5F95968C9319C0C5010E94341FFC01009719F429EAD22E0FC080819181F70194838383C701B8010E94E40D04C0C701B8010E94040BD82E91E0D80195968C9195978F5F95968C93992309F425CF8D2D2296E1E10C94ADBFA3E0B0E0ECEBF5E10C9491BF0E94521C782E8823BB
S284002B8009F470C142E0841709F46CC184E892E00E94E5369B838A830E942F374C0186E2382E572D54505983B1E04B2E512CA2E06A2E53C1E0917F04F09180048A819B818E1B9F0B66E270E00E9447BF80917A04681708F031C1639D50011124EA0DFB1D00811181E085E130A9F1E13038F0E23009F418C1E43009F01FC183C089818230A9
S284002C0008F482C093E0791609F016C184E892E06A817B810E940237F8018281882389F4EA81FB818281882361F460917F04709180046A0D7B1DC8010E94B714883A09F0FBC04A815B814C5F5F4FC801EA81FB81628166C0F981F23008F456C043E0741609F0EAC084E892E06A817B810E940237C0907F04D0908004CA0CDB1CF601818505
S284002C80813009F0D9C060919D0470E02285621B7109A20102C0440F551F6A95E2F7BA01882777FD8095982F20919E0430919F044091A0045091A1040E941CBF7B018C01EA81FB818281882331F4F601E382F482058316830FC00E949204A0E0B0E0BC01CD01A80197010E946EBFF6016383748385839683E0917F04F0918004EA0DFB1DBA
S284002D008BC0F981F23078F484E892E06A817B810E9402374A815B814C5F5F4FC80163EA0E94280A85C043E0741609F085C084E892E06A817B810E940237A0917F04B0918004F501EA0FFB1F8185813009F074C02091750530E08091780590E001972817390739F14091770540FF03C020E030E00CC041FF03C021E030E007C042FD03C0B9
S284002D8083E090E018C022E030E080917605820F80937505C20102C0880F991F2A95E2F780958423809377058BE795E00E9426AC43C080E090E0009188051091890560919D0470E026E230E0F9018E9F90018F9F300D9E9F300D1124A20FB31F1A962C91621B7109A20102C0440F551F6A95E2F7BA01882777FD8095982F20919E043091B0
S284002E009F044091A0045091A1040E941CBFF801638374838583968361868FE894E00E94191D0AC084E892E06A817B810E9402378A819B810E94B0098114910419F4382D292D05C0C4010E942F37382F292F9B828A82832F922F9C0149014A815B81452B09F0A8CE2396E1E10C94ADBFADE0B0E0ECE3F7E10C949CBF8C017B0180E1BE01EA
S284002E806F5F7F4F0E94CD9FE981FA8180818B8381818C8382818D8383818E8384818F83858188878681898787818A87F80182898B87808991899D878C87CE0103960E949D41F70194A383A3892B11F418EA09C0F70115A2C801B7010E94B714182F882319F0C7010E94B009812F2D96E6E00C94B8BF882359F01092750410927404109293
S284002F0073041092760483E080939D04109272048CE792E00E94D03680E892E00E94D03684E892E00E94D03688E892E00E94D0368AE067E774E00E94CDA184E068E774E00E94CD9F20E043E250E014C0822F90E0BC01649FC001659F900D749F900D1124E0917804F0917904E80FF91F80818E7F80832F5F80917704281740F388E06AE799
S284002F8074E00E94CDA183E06FE774E00E94CD9F90917A04E0917F04F091800480E003C017828F5FB6968917D8F38091770480937B04915090937C0410927D0410927E048AE163EA74E00E94CDA187E060E774E00E94CD9F2091A30485E0289F90011124809170049091710460E070E0A9010E94C10482E165EA74E00E94CD9F88E369EA67
S28400300074E00E94CDA12091A9048CE5289F900111248091A5049091A604820F931F9093A8048093A7048AE090E0A0E0B0E08093810590938205A0938305B09384058DEA90E1909387058093860581E0809385050E94480A08951092B2041092BB041092AF041092B0041092B7041092B6041092B1041092B5041092B9041092B804109290
S284003080B4041092B3041092BA041092A4041092AB041092AC041092AD041092AE041092AA04E2EDF4E08BE0DF011D928A95E9F73C9688E1DF011D928A95E9F72091A9048DE5289F90011124F9978081918160E070E0A9010E94C1040895A0E0B0E0E3E7F8E10C949ABF7C01FC01C085D1854781D9849091A904992309F43BC126EFC22E65
S284003100C40E8091A404813009F443C0813038F0823009F42EC1833009F02DC13AC08885182F1370113009F024C18695869509F020C19D1508F41DC1FCE5FC1508F419C10E942B181093A40489858093AF04F701858196819093B4048093B30489818093B5048A819B819093B7048093B6048C819D819093B9048093B8048E818093BA0489
S2840031808F818093BB041092B10488EF8093B204DD2488858370823019F0DD2009F0E9C088858695869509F0E4C08091AF048D1508F4DFC02091B3043091B404F701858196812817390709F0D4C09091B5048981981709F0CEC02091B6043091B7048A819B812817390709F0C4C02091B8043091B9048C819D812817390709F0BAC09091C6
S284003200BA048E81981709F0B4C09091BB048F81981709F0AEC00D2D10E08091B10490E002968017910724F482E08093A404A1C08CE590E09C01029FC001039F900D129F900D11242091A5043091A604280F391FF70140855185465F5F4FC901BA014C2D50E00E94B804E091A704F091A804E00FF11FC0828091B0048F5F8093B004809120
S284003280B1048D1569F48F5F8093B00488EF8093B2048091A404833019F481E08093A4048D2D63E00E943BBFC92FD0E081E090E00C2E02C0880F991F0A94E2F72091B204282B2093B20460919D0470E080E090E020919E0430919F044091A0045091A1042C5E3F4F4F4F5F4F0E941CBF6093AB047093AC048093AD049093AE048FE894E076
S2840033000E94191D8091AF0490E098012F5F3F4F82179307F9F48091B10490E00196801791076CF021968FEF90E002C0880F991FCA95E2F72091B204282B2093B2040E94BC0B8091B2048F3FB1F483E08093A40482E012C08091B10490E002968017910751F40E94BC0B8091B1048D5F8093B10402C081E001C080E0CDB7DEB7E8E00C941F
S284003380B6BFA7E2B0E0E7ECF9E10C9499BF7C01B62EDC0118960D911C911997F8019181892F81508E3F18F0CC24DD2404C0892F0E94B9076C01D80111968C9181508E3F20F4C114D10421F435C0C114D10469F0D6011396ED91FC91149721813281F801848195812817390729F5D8019C91892F869586958370823011F496FD1BC0F801C2
S284003400208126FF19C0D70115968D919C911697885F9F4F78F427FD0FC0C114D10421F0F601828180FD06C0C70160E00E946713982F03C090E001C091E0D8018C9187FF15C018968C91837089F0C7010E946D18823009F0EBC01092A4041092AB041092AC041092AD041092AE0403C0992309F4DDC0F70185819681D80117966C910E94FD
S284003480950C882309F0D2C0F801818181508E3F20F4C114D10409F4C9C0D70112968C91129713962D913C911497813009F082E089833B832A83F80181818C87D70115968D919C9116970E94FD1EFC01009799F083E08D878081888B8181898B82818A8B83818B8B84818C8B85818D8B86818E8B87818F8B02C082E08D87F701858196816C
S2840035009F878E87D80116968C911697888F14968D919C9115979A8F898F12968D919C9113979C8F8B8F27812A502D8F265F18A28C9187FD04C028502D8F285F09C082EA88A3F8018085837019F429502D8F275F30E08D8D281B3109D70118968D919C911997820F931F9F8F8E8FB9A21A968C911A978AA31C968D919D910D90BC91A02D1A
S2840035808BA39CA3ADA3BEA3F70183858FA3D8018C9187FF27C018968C918370823011F58091AF04682F70E04091A7045091A80420E030E00BC0FA01E20FF31F80819091AA04890F8093AA042F5F3F4F2617370794F38091AA048D8F8091A5049091A6049F8F8E8FC114D10449F0D6011596ED91FC911697CE010196099518C0F70182812A
S284003600813029F4CE0101960E94B8120FC0D80111968C919E012F5F3F4F8F3F21F4C9010E940A0D03C0C9010E94813EA796E9E00C94B5BFFC01A085B1858C91282F269526952370213051F185FF2AC027C08370823021F1223011F1233001F16F3A19F4808981116CEA8281813069F08230B1F48C91837090E0009721F00297029770F43A
S2840036800AC0233021F0CF010E94C11907C0CF010E94F81203C0CF010E94830F81E0089586FFDCCFD4CF0F931F93CF93DF930BC00E94521C182F80E892E00E94ED36812F8450823010F401E022C0133031F0E885F985808183708130D1F4E885F985E081E295E695E695E17041F0E13059F4CE0105960E945014882329F0CE016FEA0E943A
S2840037001A1B082F002319F0CE010E941A0A80E892E00E94E536EC01009751F6DF91CF911F910F9108950E94B6150E94531B0E9438110E940D0F0E94521C843021F480917304882339F080917204882339F010927204089583E00E942808F5CF0895CF93DF93EC01DB01E0918E05F0918F0560918A0520918C0530918D05220F331F220F78
S284003780331F40E05FEF12C08081882349F0818192818C179D0739F4109779F04C930DC05F3F09F4542FE20FF31F4F5F461760F3109709F05C93E0E0F0E0CF01DF91CF91089560E070E00E94AF1B20E0892B09F021E0822F089540918B0520E009C0FC01E20FF11D3381631739F0332319F02F5F2417A8F361112FEF822F0895DC010097A3
S28400380099F08C91882381F080918B05681760F470E0FD01E60FF71F8381882329F06D5F7F4F6A0F7B1F02C060E070E0CB01089508951F93182F8CE16BE875E00E94CDA18DE16AE875E00E94CDA189E06EE875E00E94CD9F80918B05482F50E04D5F5F4F50938D0540938C05112399F480918A0590E0489F9001499F300D589F300D112430
S28400388080918E0590918F0560E070E0A9010E94C1041F910895909190059093910580939005089580919005089580919105089590919005882331F09093910583E080939005089590939105109290050895282F90919005923069F0933018F4992331F012C0933091F0953071F408C0813059F40CC0813051F0843031F407C080E02130E8
S28400390029F481E0089580E0089581E00895482F30919205332361F42FB7F8948091940590919505806290939505809394052FBF81E090E002C0880F991F4A95E2F7382B309392050895109292050895A2E0B0E0ECEAFCE10C94A0BF409192054423D1F160E0242F30E001C06F5FC901062E02C0959587950A94E2F780FFF6CF81E090E0BF
S284003980062E02C0880F991F0A94E2F7809584238093920570E0660F771F6A5F7B4FCE01019642E050E00E94A20480919205882361F02FB7F8948091940590919505806290939505809394052FBFE981FA81309709F009952296E2E00C94BCBFFC018081813021F41192CF010E94BCAB08959F92AF92BF92CF92DF92EF92FF920F931F934E
S284003A007C01962E59016A010E94EE1CF70110829386A782B086C186D286158704871F910F91FF90EF90DF90CF90BF90AF909F900895FC018081882329F481E08193CF010E9426AC08958091F40D9091F50D0895482F60910C0E8091F00D82958F7020910D0E841718F440E050E034C0260F613071F490E0841B910930E0829FA001839F2E
S284003A80500D929F500D11244F5F5F4F23C0841B41E050E070E009C0FA01E69FA001E79F500DF69F500D112481508823A9F730E061507040CB01821B930BF9014E9F90014F9F300D5E9F300D1124820F931F0E9447BFAB01CA010895FF920F931F93CF93DF939091EE0D95FD59C09695969593709230D9F41091090F4FEF683F740710F404
S284003B00EB0103C00E949204EC011F5F5FEFC83FD50710F0C1E0D0E0CE010E943621892BA9F11150C9F12196F1CF9923A9F5882361F0F0900C0E0091120E1091130EC091F40DD091F50D219625C0F0900D0EC091F40DD091F50D219680910C0E90E02091120E3091130EAC01429FC001439F900D529F900D1124C80FD91F01E010E00AC0C0
S284003B80CE010E943621FA94892B11F4BE0106C0C00FD11FFF20A1F76FEF7FEFCB01CDB7DEB7E5E00C94B9BF86E26CEE7EE00E94CDA18BE06EEE7EE00E94CD9F81EA8093EB0E1092ED0E20E04BE050E014C0822F90E0BC01649FC001659F900D749F900D1124E091EE0EF091EF0EE80FF91F80818E7F80832F5F8091EC0E281740F31092A2
S284003C00F40E88E09EE19093F60E8093F50E08956091EC0E50E07BE01BC0579FC0011124E091EE0EF091EF0EE80FF91F408140FF0EC02091F20E3091F30E818192812817390719F44E7F408302C041FD652F5F5F8091EC0E581708F36817F0F4262F30E08BE090E0AC01249FC001259F900D349F900D1124E091EE0EF091EF0EE80FF91F38
S284003C80818192819093F30E8093F20E80EF9EE00E94645D87E601C081EA8093EB0E0895BF92CF92DF92EF92FF920F931F93DC01F22EE32ED42E8FEFA83FB80708F095C0CC2440E08BE0B82E4CC04B9D90011124E091EE0EF091EF0EE20FF31F808180FF3FC08381801791F58481811779F585818F1561F586818E1549F587818D1531F56B
S284003D008085851719F58185861701F582858717E9F403831483F582E682D782508761877287E091EE0EF091EF0EE20FF31FB283A183808181608083E091EE0EF091EF0EE20FF31F80818D7F80834FC081819281A817B90729F4808182608083CC24C3944F5F8091EC0E481708F4AFCFCC2081F08091EB0E813AC9F5B093F30EA093F20E67
S284003D8080EF9EE00E94645D87E68093EB0E2DC02091ED0E8BE0289F90011124E091EE0EF091EF0EE20FF31F03831483F582E682D782508761877287B283A183808181608083E091EE0EF091EF0EE20FF31F80818D7F80838091ED0E90E06091EC0E019670E00E945BBF8093ED0E1F910F91FF90EF90DF90CF90BF900895AC013091EC0E95
S284003E00E091EE0EF091EF0E20E00EC0808180FF09C0818192814817590721F49F012D5F3F4F20C02F5F3B96231780F3CA010E943621FC010097A1F080859185892B9285892B9385892B9485892B9585892B9685892B9785892B21F09F01285F3F4F02C020E030E0C9010895FC013091EC0EA091EE0EB091EF0E20E039C08C9180FF34C078
S284003E80908113968C911397981771F5918114968C911497981741F5928115968C911597981711F5938116968C9116979817E1F4948117968C9117979817B1F4958118968C911897981781F4968119968C911997981751F497811A968C911A97981721F49D012F5F3F4F1CC02F5F1B96231728F220813181428153816481758186819781F1
S284003F000E945321FC01009749F084819581885F9F4F20F49F012C5F3F4F02C020E030E0C901089585EB9EE00E94D03608950F931F9385EB9EE00E94E5368C0185EB9EE00E94ED3685EB9EE00E94ED36D8011E96ED91FC911F97C8014096099585EB9EE00E94E536892B19F08EE00E94BE321F910F910895FC01628B8185838B148A158A23
S284003F80168A178A85EB9EE0BF010E94D6368EE00E94BE320895FF920F931F93CF93DF938C018091EC0D80FD03C0C80162EC72C0F8018381813019F098E0F92E02C089E0F82EF801C781D085CF19D109CE010E94C020F8018485882321F088818F7380648883F801848195819B838A838091F00D82958F709285992321F0880F8917E0F152
S2840040009E83F80183819981813011F591609983848195810E94E11B9885882329F09C7F9160988721E003C09C7F988720E0F80183858770880F880F9885937E982B988783858295880F807E9F71982B988703C09E7F998320E0F8018381813081F084819581FFEF883F9F0750F02FEF8F3F920741F00596039728F0C80161EC0BC02223A6
S28400408061F08C819D816F810E94285E823029F4C80162ED0E94BA1F05C0F801F282C8010E94E335CDB7DEB7E5E00C94B9BFCF93DF93EC01DB019C01285F3F4F19963C932E931897898183FF0AC011963C932E93285F3F4F19963C932E93189703C011961C921E92898184FF0EC018968D919C91199713969C938E931297089619969C9363
S2840041008E93189704C013961C921E921297898180FF0EC018968D919C91199715969C938E931497019619969C938E93189704C015961C921E921497898182FF14C01896ED91FC9119971796FC93EE931697808190E00196880F991FE80FF91F1996FC93EE93189704C017961C921E92169718968C9118978C1B1A968C93DF91CF910895B4
S284004180FC01118210829081892F8C7F80838091EF0D82958F70880F880F907C982B9083138212828091F40D9091F50D958384838091F00D82958F7090E0880F991F86838091F10D87838F5F8093F10D0895582FE091050FF091060F40E076E06BE18081882311F4552311F070834F5F7B962091090F269F900111248091050F9091060F81
S284004200820F931FE817F90750F3442319F480E090E009C090E080910C0E882309F491E081E09827892F982F9170990F990F8091630E8B7F892B8093630E442319F480E090E009C090E080910D0E882309F491E081E09827892F982F9795992797958091630E8F77892B8093630E0895AC01E091050FF091060F9091090F8BE1989F900134
S28400428011242E0F3F1F8081863029F0848195814817590731F07B96E217F307A0F3E0E0F0E0CF0108950F931F938901382F292FE091050FF091060F9091090F8BE1989FD0011124AE0FBF1F80818630C1F080858017A9F48185811791F48285841779F48385851761F48485861749F48585871731F48685831719F48785821731F07B9650
S284004300EA17FB0708F3E0E0F0E0CF011F910F910895009779F0FC017B968091090F2BE1829FC00111242091050F3091060F280F391F13C0E091050FF091060FEECF8081813011F0853041F4828D80FF05C0848195816817790731F47B96E217F30778F3E0E0F0E0CF010895282F8091090F962F861708F4982F891B982F281708F4922F17
S284004380382F391B19F480E090E009C090E080910C0E681708F091E081E09827892F982F9170990F990F8091630E8B7F892B8093630E332319F480E090E009C090E080910D0E281708F091E081E09827892F982F9795992797958091630E8F77892B8093630E08952091050F3091060F9091090F8BE1989FA0011124420F531FF90130E0B2
S28400440020E08081863051F0813011F0853031F48181823011F43F5F01C02F5F7B96E417F50778F3892F291708F4822F981B892F391708F4932F482F491B19F480E090E009C090E080910C0E281708F091E081E09827892F982F9170990F990F8091630E8B7F892B8093630E442319F480E090E009C090E080910D0E381708F091E081E042
S2840044809827892F982F9795992797958091630E8F77892B8093630E08952091050F3091060F821B930B23E13AEDF9018E9F90018F9F300D9E9F300D1124C901880F991F880F991F820F931FE091070FF091080FE80FF91F43838281882341F08695962F96959695682F6695680F690F6283ACE8B2E090E08C91681720F49F5F1196963066
S284004500C9F79F5F9770990F990F990F8481877C892B84830895FC018081813011F0853061F48181823021F48091630E806803C08091630E84608093630E86E080830895282FECE8F2E090E08081281720F49F5F31969630C9F7892F8F5F089585E09FE008952091050F3091060F821B930B23E13AEDA901849F9001859F300D949F300D79
S2840045801124C901880F991F880F991F820F931FE091070FF091080FE80FF91F82810895A9E0B0E0E6EDF2E20C9496BF6C01A090070FB090080F8090050F9090060FFC0181818E010F5F1F4F823009F58EE1BE016E5F7F4F0E94CDA188E1BE016A5F7F4F0E94CDA18BE2B8010E94CDA1698170E080E090E02E813F8148855985EA80FB80EF
S2840046000C811D812E0D3F1D401F511F0CC08AE2B8010E94CDA1698170E080E090E028E93AE340E050E00E941CBFAB01BC01C818D90883E19AEDC89E9001C99E300DD89E300D1124C901880F991F880F991F820F931FA80EB91EEBE07695679557954795EA95D1F7F501518340832996ECE00C94B2BFCF93DF93FC01C091050FD091060F18
S2840046809091090F8BE1989F900111242C0F3D1F8881863029F08C819D81E817F90729F06B96C217D307A0F308C0209731F0CE010E944D22CE010E94D022DF91CF910895AC01662321F00E94E11B982F2EC08091F40D9091F50D4817590721F1E091050FF091060F9091090F8BE1989F900111242E0F3F1F6081663029F0848195814817C8
S284004700590729F07B96E217F307A0F30DC0309759F0613011F0653039F4828D982F917080FF03C091E001C090E0892F089580EB93E29093160F8093150F80E098E0A0E0B0E08093100F9093110FA093120FB093130F1092140F8AE09FE00E9426AC0895FF920F931F93CF93DF93C091050FD091060F03E11AEDBBE1FB2E8881863051F16A
S2840047808091050F9091060F9E01281B390BC901809F9001819F300D909F300D1124C901880F991F880F991F820F931FE091070FF091080FE80FF91F80819181009719F001979183808380819181892B19F4CE010E9436756B962091090F2F9D900111248091050F9091060F820F931FC817D90720F2CDB7DEB7E5E00C94B9BF1F93CF93BB
S284004800DF93182F80E069E07FE00E94CDA180E065E07FE00E94CD9F8FE067E07FE00E94CD9F1123D9F0C091050FD091060F1BE18881863019F0CE010E94D0226B962091090F219F900111248091050F9091060F820F931FC817D90758F303C081E00E94E7208AE09FE00E94BCABDF91CF911F910895CF93DF938091720E823CD1F583E707
S2840048809EE00E94E536EC0183E79EE00E94ED368A818823F1F08091000E9091010E892B9091020E892B9091030E892B9091040E892B9091050E892B9091060E892B9091070E892B31F08FEF9DEF9093ED0D8093EC0DEB81FC81CE010596099583E79EE00E94E536892B11F081EC01C089E18093720E8091720E813C81F481E080937A0E4E
S28400490084EA94E290937C0E80937B0E87E79EE00E94694983EC8093720EDF91CF910895FF920F931F938C01F62E01960E94E536FC01F58280E00E94BE3282ECF80180831F910F91FF900895A2E0B0E0EAEAF4E20C9499BFFC01B080BB2009F04AC083E79EE00E94E5367C01FC0182810E94AC6800E114E06E010894C11CD11CC601B8015F
S28400498042E050E00E94A204E981FA81309709F009950E5F1F4FF4E004341F0779F70E94E03280E09FE19093ED0D8093EC0DF70182818823F1F081E164EF7DE00E94CDA183E580937A0E8091F40D9091F50D90937C0E80937B0E89E095E29093840E8093830E87E79EE00E943F4985EC8093720E05C082E79EE06B2D0E9490242296E9E003
S284004A000C94B5BFFC0182E79EE060810E9490240895FC016081662329F082E79EE00E94902408958091720E90E0FC01E55CF040EA30F10508F0B8C0EA59FF4F0C94C7BF8BE480937A0E8091080E9091090E90937C0E80937B0E86EC70C08AE480937A0E8091080E9091090E0E943621FC01808580937B0E818580937C0E828580937D0ECA
S284004A80838580937E0E848580937F0E85858093800E86858093810E87858093820E87EC4CC08FE266EF7DE00E94CDA180E580937A0E8091F60D9091F70D90937C0E80937B0E88EC3AC086E580937A0E10927B0E89EC33C08EE263EF7DE00E94CDA110927A0E8091F30D80937B0E8AEC26C082E580937A0E90E08091100E83FD91E0909308
S284004B007B0E8BEC1AC085E480937A0E81E69EE090937C0E80937B0E8CEC0FC086E480937A0E8FE080937B0E8DEC07C081E480937A0E81E080937B0E8EEC8093720E89E095E29093840E8093830E87E79EE00E943F492AC08091F60D9091F70D90937B0E80937A0E8091F30D80937C0E8091F20D80937D0E20E08091F40D9091F50D892B85
S284004B8009F421E020937E0E10927F0E85ED95E29093810E8093800E87E79EE00E9438498FEC8093720E08950895FC0160816623D1F48FEF9FEFAFEFB0E080937A0E90937B0EA0937C0EB0937D0E82E095E290937F0E80937E0E87E79EE00E944D4984EC8093720E089582E79EE00E9490240895E2E7FEE085E1DF011D928A95E9F789E1AE
S284004C008093720ECF0101960E94D0360E94E0320895BC0183E79EE00E94D6368091720E893131F480E00E94BE3281EC8093720E08950E943B2F8AED9FE00E94D0361092EA0F1092E90F1092EC0F1092EB0F1092ED0F8091D90F8C7F8093D90F81EF9FE00E94BCAB80ED97E0A0E0B0E08093F70F9093F80FA093F90FB093FA0F81E080930B
S284004C80FB0F88E996E29093FD0F8093FC0F88E26EEE7FE00E94CDA18DE06FEE7FE00E94CD9F20E037E011C0239FC0011124E091EF0FF091F00FE80FF91F12821182108213821482158216822F5F8091EE0F281758F30895A0E0B0E0E0E7F6E20C949BBF7C01C091EF0FD091F00F9091EE0F87E0989F800111240C0F1D1F82E0D82E10C0B9
S284004D008881813061F4E981FA81838194818E159F0529F4D882118684E00E94BE322796C017D10768F3CDB7DEB7E7E00C94B7BFFF920F931F938091D90F8D7F8093D90F10E097E0F92E02E02BC01F9DC0011124E091EF0FF091F00FE80FF91F80818130F1F483819481A581B681803D27E0920720E0A20720E0B20728F4008384E00E94B8
S284004D80BE320DC0805D9740A040B04083839483A583B6838091D90F82608093D90F1F5F8091EE0F181788F28091D90F81FF04C081EF9FE00E9426AC1F910F91FF900895A0E0B0E0E6EEF6E20C9492BF10E067E0562E50ED452E42E0742E6624639430EA832E3FE0932EA12CB12CDEC0159DC0011124C090EF0FD090F00FC80ED91ED6017F
S284004E008C91882309F0B3C08AED9FE00E94E536F60192838183009709F4C5C08AED9FE00E94ED36D6011196ED91FC91129741862381348160E08281813009F461E0C9010E94D32E7C01009779F0FC019081892F8770813009F476C08823D9F08430C9F0987F9160908315C00E946C2E7C01009709F4A0C0DC018C91887F81608C93D601FD
S284004E801196ED91FC91129783819481F701928381830E944C2EEC01009759F4D7019C91892F8770813009F085C0987F93609C9381C00E9495AB2A960AE00E94430381E090E1BE012A97A9010E94C55DD6011196ED91FC9112978281813021F4F701808180688083D6011196ED91FC9112978281882329F4F7018081877C88618083CE0157
S284004F00B7010E94122D0E94DB2C88838091F40D9091F50D9A8389838091F40D9091F50D9C838B831D821E828091F00D82958F7090E0880F991F89878F8181608F8385E00E94BE32D6016C928091D90F81FD09C081EF9FE00E9426AC8091D90F82608093D90FF60183829482A582B6821CC0D6018C918230C1F41196ED91FC9112972781FA
S284004F803085CF010996F9010995F601128211821082D60113961D921D921D921C92169784E00E94BE321F5F8091EE0F181708F41DCF03C0F6017082DACFCDB7DEB7E0E10C94AEBF8091D90F80FD72C089EE9FE06BEE7FE00E94E22C8091E90F9091EA0F892B09F465C0E091EB0FF091EC0F309709F45EC0878181FF22C087E08093E00FE8
S2840050008FEA98E29093E40F8093E30F82E698E29093E60F8093E50F86E798E29093E80F8093E70F8091D90F81608093D90F87818D7F87838EED9FE00E940E5F089580FF37C086E08093E00F218132818091F40D9091F50D2817390719F488E08093E00F80EC8093E10F8FE78093E20F83E09BE29093E40F8093E30F8EEE9AE29093E60F27
S2840050808093E50F83EF9AE29093E80F8093E70F8091D90F81608093D90FE091EB0FF091EC0F87818E7F87838EED9FE00E940E5F0895BC018AED9FE00E94D63684E00E94BE320895DC018091ED0F54968C935497E091EB0FF091EC0F838194811D969C938E931C9781E058968C9308958091EE0D84FF25C0E091EB0FF091EC0F818192810F
S28400510060E00E94D32EDC01009729F40E946C2EDC010097A1F08C91887F8C93E091EB0FF091EC0F8181928112969C938E9311978381948114969C938E9313971C928091D90F8E7F8093D90FE091EB0FF091EC0F87818D7F878385E00E94BE320895FF920F931F93CF93DF938C01E091EB0FF091EC0F6381748180E090E00E945A2DF82E6C
S284005180882311F487E0F82EC8010E94C020E091E90FF091EA0F21813281D80115963C932E9314978C918C7F81608C9311964C911197842F806111968C931197E091EB0FF091EC0F8181928113969C938E931297E091E90FF091EA0F808187FDC9C0486111964C93C9010E94FD1EFC018091F80DD80150968C9350978091F90D51968C939B
S28400520051978091FA0D52968C9352978091FB0D53968C9353978091FC0D54968C9354978091FD0D55968C9355978091FE0D56968C9356978091FF0D57968C935797309701F1808150968C935097818151968C935197828152968C935297838153968C935397848154968C935497858155968C935597868156968C935697878157968C935D
S28400528009C0F801108A118A128A138A148A158A168A178AE091EB0FF091EC0F838194810E94FD1EFC01009709F18081D80118968C931897818119968C93199782811A968C931A9783811B968C931B9784811C968C931C9785811D968C931D9786811E968C931E9787811F968C9309C0F8011086118612861386148615861686178682E061
S284005300D80158968C935897E8016996F801118EE091E90FF091EA0F818192819D838C8380E259968C93E091E90FF091EA0F818192810E94FD1EFC01009789F080818F878181888B8281898B83818A8B84818B8B85818C8B86818D8B87818E8B69C01F86188A198A1A8A1B8A1C8A1D8A1E8A60C0C9010E94FD1EFC018091F80DD8015096DC
S2840053808C9350978091F90D51968C9351978091FA0D52968C9352978091FB0D53968C9353978091FC0D54968C9354978091FD0D55968C9355978091FE0D56968C9356978091FF0D57968C935797309701F1808118968C931897818119968C93199782811A968C931A9783811B968C931B9784811C968C931C9785811D968C931D97868165
S2840054001E968C931E9787811F968C9309C0F8011086118612861386148615861686178682E0D80150968C93E8016196F801118A90E0E091E90FF091EA0F808187FD91E09295990F990F907C48814F7B492B4883E091EB0FF091EC0F80818983A091EB0FB091EC0F11968D919C9112979B838A83E091E90FF091EA0F218132813D832C831B
S28400548016962C912F0D2E83406148830E94FD1EFC01009789F080818F83818188878281898783818A8784818B8785818C8786818D8787818E8708C01F82188619861A861B861C861D861E8688E28093ED0F888184FD03C080E28093ED0F888185FD05C08091ED0F88508093ED0FD80111968C9183FF05C08091ED0F885F8093ED0FCDB7B1
S284005500DEB7E5E00C94B9BFAF92BF92CF92DF92EF92FF920F93CF93DF935A017C01FC012481358160E0808186FD61E0C9010E94D32E6C01009709F446C0F7014281538161810E94952EEC010097E9F10E9495AB2A960AE00E94430381E090E1BE012A97A9010E94C55DF60180818770813039F09E81F7018681891710F09923F9F4F60190
S2840055808081887F8083F50184859585F60194838383F70186818E8329813A8160E0F601808187FD61E0C9010E946023882331F48F8182608F8385E00E94BE32F701848195810E946A2681E0DF91CF910F91FF90EF90DF90CF90BF90AF9008952091ED0FFC01248B08958091D90F8E7F8093D90FE091EB0FF091EC0F87818E7F878385E0C3
S2840056000E94BE320895CF93DF93EC010E94C02088818C7F816088838981806189838DEF9FEF9B838A83E091EB0FF091EC0F81858E83E091EB0FF091EC0F818192819D838C830E94FD1EFC01009789F0808188878181898782818A8783818B8784818C8785818D8786818E8787818F8708C0188619861A861B861C861D861E861F8681E0A7
S284005680888BDE015196198AE091E90FF091EA0FE0818E2F8295837061F0E3FD02C091E001C092E0990F990F990F8C91877E892B8C9390E0E091E90FF091EA0F808187FD91E09295990F990F907C8C918F7B892B8C93E091EB0FF091EC0F808111968C931197E091E90FF091EA0F8181928113969C938E931297E091EB0FF091EC0F8581F7
S28400570014968C9314978EE18093ED0F8C9185FD03C086E18093ED0FDF91CF9108958F929F92AF92BF92CF92DF92EF92FF920F93CF93DF93082FD92E5B014A01DA0112968D919C911397892B09F425C1FB018481958160E00E946023882309F01CC1E02EFD2CD70112962D913C91139760E08C9186FD61E0C9010E94D32E6C01F4016485F9
S2840057807585D50114968D919C9115970E945A2D082F882309F407E0C114D10431F40E946C2E6C01009709F4F6C0F50144815581C601D70111966C910E94952EEC01009729F50E944C2EEC01009799F4F7012281338160E0808186FD61E0C9010E946023882309F4D8C00E94CE2DEC01009709F4D2C0D6018C91982F977009F4D9C094302B
S28400580009F4D6C0887F81608C93D2C0F701248130E0200F311D8D8190E0281739070CF0BAC0D70112968D919C911397F6019283818390E08C9186FD91E0979599279795D6018C918F77892B8C93CE01B6010E94122DF70181818883D50116968C911697898714968D919C9115979A838983F401848595859C838B83D70114968C91800F6A
S2840058808D830E9495AB2A960AE00E94430381E090E1BE012A97A9010E94C55DF7018081869586958695837009F457C0D6019C919F7C292F20652C9380818695869586958370823019F498659C9303C0277FF6012083D50114968D919C91159760E00E94D32EFC01009729F40E946C2EFC010097A1F18081887F8083D50114968D919C91DD
S284005900159792838183D4011C968D919C911D979483838320E0D7018C9186FD21E027952227279590819F74922B892F80658083D7018C918695869586958370823011F498659083D7018C918695869586958370813019F48081877F8083F7012281338160E0D6018C9187FD61E0C9010E946023882329F08F8182608F831E8209C090E026
S284005980F5018681811191E08F818E7F892B8F8385E00E94BE3280E0DF91CF910F91FF90EF90DF90CF90BF90AF909F908F900895209789F336CF80910A108F5F80930A1081500895CF93DF93EC01DB011982188211961C921E9220910010E091FE0FF091FF0F90E01AC0828587FD15C0878180FD02C081FF10C0ED93FC93808527E0829F95
S284005A00C00111242091071030910810280F391F3983288304C09F5F3B96921720F3DF91CF9108952091071030910810621B730B27EB3DE6A901649F9001659F300D749F300D1124FC0120870895AC0120E037E010C0239FC0011124E0910710F0910810E80FF91F838194814817590709F415822F5F80910910281760F30895AC0120E046
S284005A8037E013C0239FC0011124E0910710F0910810E80FF91F818192814817590721F48081887F836080832F5F80910910281748F30895CB010E943621AC01009711F450E02CC08091050F9091060F481B590B83E19AED489F9001499F300D589F300D1124C901880F991F880F991F820F931FE091070FF091080FE80FF91F8481582F87
S284005B005770482F4695469546954770242F30E0852F90E0821793070CF4542F852F0895EF92FF920F931F93CF93DF937C0110E007E02BC0109FE0011124E0910710F0910810EC0FFD1F83819481E816F906E1F485818F5F858381508430B0F0C7010E943621FC01009731F0828D80FF03C0CF010E943675E0910710F0910810EC0FFD1F6E
S284005B808081887F836080831F5F80910910181788F2CDB7DEB7E6E00C94B8BF81E090E10E94A45DFC013A9731F08BE0DF011D928A95E9F71286CF010895FF920F931F93CF93DF930E9495AB0AE00E944303122F032F81E090E1612F702F0E948B5D8BE090E1612F702F0E948B5D50E08BE0F82EA0EBB4E007E01FEF45C05F9DB00111244D
S284005C00E091FE0FF091FF0FE60FF71F4285842F90E020910F0E30E0E901CA9F9001CB9F300DDA9F300D1124232F3327269526958217930710F040684287E091FE0FF091FF0FE60FF71F828587FF1BC080858F3FC1F0809FC0011124E0910710F0910810E80FF91F9081892F8770813019F4987F93609083E091FE0FF091FF0FE60FF71F07
S284005C8010875F5F80910010581708F4B6CFCDB7DEB7E5E00C94B9BF0E94DD2D409100102091FE0F3091FF0F90E007C0F901255F3F4F828587FD06C09F5F9417B8F3E0E0F0E008C0309731F08BE0DF011D928A95E9F71286CF0108950E94DD2D40910910209107103091081090E008C0F901295F3F4F80818770833021F09F5F9417B0F37C
S284005D0002C0309739F48BE090E10E94A45DFC01369749F087E0DF011D928A95E9F78081887F83608083CF010895FF920F931F93CF93DF938C01F62EEA010E94DD2D509100108091071090910810081B190B87EB9DE6089FB001099F700D189F700D1124E091FE0FF091FF0F40E013C09F01828587FD0DC0818192818C179D0741F4808197
S284005D808F1529F4808590E08617970731F04F5F3B96451758F320E030E0C901CDB7DEB7E5E00C94B9BF1F93CF93DF93EC01162F0E94DD2DA0910910E0910710F091081050E0612F70E019C09F014081842F8770833089F0818192818C179D0761F44423842F992787FD90958827990F881F99278617970731F05F5F37965A1728F320E0C2
S284005E0030E0C901DF91CF911F910895EF92FF920F931F93CF93DF938C01EB01E42EF22ECB01642F0E94D32EFC01009779F0838194810817190711F4168218C0FF20B1F087E0DF011D928A95E9F705C00E946C2EFC01009759F08081887F8083D283C18314830383EE2011F080688083CDB7DEB7E6E00C94B8BF85E269E070E10E94CDA120
S284005E808AE067E070E10E94CD9F87E260E070E10E94CDA18CE06EEF7FE00E94CD9F40E015C0242F30E0C90153E0880F991F5A95E1F7821B930BE0910710F0910810E80FF91F8081887F836080834F5F80910910481738F36091FE0F7091FF0FAB014B5E5F4F81E090E1665F7F4F209100100E94745D20E04BE050E03FEF12C0822F90E002
S284005F00BC01649FC001659F900D749F900D1124E091FE0FF091FF0FE80FF91F30872F5F80910010281750F36091071070910810AB01435F5F4F8BE090E16A5F7F4F209109100E94745D08958AE98093460F87E49FE00E94D03610924B0F0895CF93DF938091460F853469F587E49FE00E94E536FC018091EE0D83708130F1F48091EC0D0D
S284005F809091ED0D96FF18C08091F60D9091F70D968385838091F30D87838091F20D80871186128685E190E394878387CF0102960E94384986E434C082EC808B87E48093460F8091460F873469F587E49FE00E94E536EC0180E00E94E72087E49FE00E94ED368889882349F480914B0F882311F40E94972381E080934B0FEE85FF85CE0157
S2840060004096099587E49FE00E94E536892B39F085E48093460F86E00E94BE3203C08AE98093460FDF91CF9108950F931F938C0187E49FE00E94E536F8012081FC01208B87E48093460F86E00E94BE321F910F910895BC0187E49FE00E94D6368091460F8A3931F485E48093460F86E00E94BE3208958AE6809311100895A3E0B0E0E3E4A9
S284006080F0E30C94A0BF9C018091EE0D8370823049F43A83298383E18B83CE0101960E94213803C0C9010E94252D2396E2E00C94BCBFA3E0B0E0EFE5F0E30C949EBF8C018091EE0D8370823011F489E004C0C8010E94902D80E01A8309838B83CE0101960E9421382396E4E00C94BABF89E0E1E1F0E1DF011D928A95E9F78AE680931110E0
S2840061000895FA01908521858091EC0D84FF2DC08385843051F5E92FF22F8081882349F4828193812FEF883F9207F8F40E943E2D1CC08D30D1F4809111108A36B1F481E08093161082819381909315108093141089E390E3909318108093171082E190E10E94645D8EED8093111081E0089520912A10FC01248B82E280931A1008951092B7
S2840061802B10089588E780931A108BE190E10E94D03686E080932110109222108FE38093231085E191E3909325108093241087EB90E3909327108093261088EE90E3909329108093281010922A1010922B100895EF92FF921F93182F8BE190E10E94E5367C018BE190E10E94ED36D70119961C9319971796ED91FC911897C701099609955E
S2840062008BE190E10E94E536892B41F080E280931A108FE190E10E940E5F03C088E780931A101F91FF90EF9008950F931F93CF93DF93EC018BE190E10E94E5368C01CE010E94C02088818C7F81608883D80113968D919C9114979B838A8389818061898313968D919C911497BFEF883F9B07A0F50E94FD1EFC01009779F189818860898316
S2840062808091F80D888B8091F90D898B8091FA0D8A8B8091FB0D8B8B8091FC0D8C8B8091FD0D8D8B8091FE0D8E8B8091FF0D8F8B808188878181898782818A8783818B8784818C8785818D8786818E8787818F87FE01789688E11EC08981877F89838091F80D88878091F90D89878091FA0D8A878091FB0D8B878091FC0D8C878091FD0D09
S2840063008D878091FE0D8E878091FF0D8F87FE01709680E180932A1083E08083D80112968C911297818315968D919C9116979383828380912A108C5F80932A1081E280931A10DF91CF911F910F910895BC018BE190E10E94D63680911A10883739F480E280931A108FE190E10E940E5F0895CF93DF939C01EB018FEF683F7807F0F480910D
S2840063802B108823B9F481E080932B1010922E103093301020932F1070933210609331108FEB90E390933410809333108CE290E10E94A631CE010E943E2DDF91CF9108950F931F93CF93DF93EC018881823029F48B819C810E9436210AC02B813C814D815E816F81788589859A850E9453218C01009739F06B854D850E944D22C8010E9413
S284006400D022DF91CF911F910F91089581E3809336101092371088E390E10E94D03689E192E390934B1080934A1082E080933F1008950F931F938C0188E390E10E94E536FC01D8010C91013EF9F4209137102430D8F48091F60D9091F70D90934110809340108091080E9091090E909343108093421084EA809336102F5F209337108CE3DA
S28400648090E10E94314907C0058385EA8093361081E00E94BE321F910F9108950F931F9380913610833A91F588E390E10E94E536FC0115828091EC0D81FD02C082EC85838281882311F081EC858385818823D9F48091F60D9091F70D90934110809340108091080E9091090E909343108093421084EA8093361081E0809337108CE390E1EA
S2840065000E94314928C085EA8093361080913610853A09F588E390E10E94E5368C0188E390E10E94ED36D8011396ED91FC911497C8010596099588E390E10E94E536892B39F083EA8093361081E00E94BE3203C081E3809336101F910F910895BC0188E390E10E94D63680913610813331F483EA8093361081E00E94BE32089521E030E0BB
S28400658040E050E004C0220F331F441F551F8A95D2F78091700E9091710E822B932B9093710E8093700E2FB7F8948091940590919505886090939505809394052FBF08951092710E1092700E1092930581E090E090939302809392020895A2E0B0E0E3EFF2E30C94A0BFE091700EF091710E20919202309193026091930540E06F5F220F8E
S284006600331F6F3018F021E030E060E0C9018E239F23892BD9F02093920230939302609393052E273F273093710E2093700E70E0660F771F6C5B7B4FCE01019642E050E00E94A204E981FA81099509C04F5F4F30A9F63093930220939202609393058091700E9091710E892B61F02FB7F8948091940590919505886090939505809394052F
S2840066802FBF2296E2E00C94BCBF20E04FE235E010C0249FC0011124E091980EF091990EE80FF91F8081882319F08B3009F030832F5F80919A0E281760F30E94192683E00E94BE32089520E04FE234E00EC0249FC0011124E091980EF091990EE80FF91F80818D3009F430832F5F80919A0E281770F383E00E94BE3280919C0E8D7F80934D
S2840067009C0E0895DC01FC01B09785E08083858D82FD17C0848181508483882391F011968C911197813E11F484E0808311968C91893E11F486E08083818183FF02C086E080838081853059F482819381892B39F08181877F818381E0848384E0808383E00E94BE320895A1E0B0E0E9EBF3E30C949EBF8C01DC015A96ED91FC915B97198286
S284006780818180FF08C081E0898380858370813011F483E0898382819381BE016F5F7F4F0E94867DF801928B818B898182FF03C0858D8460858FD80151968D919C9152978F5F9F4F29F4F80181818860818307C0D8015D968C915D9781605D968C932196E4E00C94BABFCF93DF93FC01EC01AD978081882359F4CE010E94B33389899A89AA
S2840068008E5F9F4F19F083E0888305C080ED89A385E0888383E00E94BE32DF91CF910895A0E0B0E0E6E1F4E30C9490BFEE2455E0C52EFF24F39443E6242E43E3342E3BE0832E912CA12CB12C22E0D22E9EEF692E9FEF792E83EF482E83E3582E98C12FE2E29EC0011124C091980ED091990EC80FD91F8881833009F4BDC0843030F4882344
S28400688071F0813009F082C13AC0853009F4E9C0853008F4C7C0863009F078C132C184E99EE00E94E536009749F0F8829BA38AA389818460898384E99EE01EC08CE89EE00E94E536009749F0F8829BA38AA38981816089838CE89EE00FC080E99EE00E94E536009709F452C1F8829BA38AA389818260898380E99EE00E94ED36F882898149
S28400690080FF0CC0EAA1FBA182819681890F898F828107811085081B110906C0EAA1FBA18681898F0481158182E893E39F8F8E8F1B8F0A8FDE867A8A698ADD868091F60D9091F70D988B8F871C8E1D8E898182FF20C0EAA1FBA10280F381E02D87819085892BB9F0F093A50FE093A40FEAA1FBA10280F381E02D0780F085E02DCE01059656
S2840069800995EAA1FBA10280F381E02D828186958C8389899A898E5F9F4F51F5CE010E94B33389899A898E5F9F4F11F5F80180818295869586958370B9F0818180FF02C0FEA201C0DEA2F8018281938198A78FA3868189A7FAA65CA64BA6F9E0F883CE0184960E945928D2C021ED29A3C88285C083E0888389818F7D89831B821A8283FFE2
S284006A000FC0EA8DFB8D828193818F5F9F4F41F46481758180E090E00E9489219B838A8384E08883AA81BB811097A1F0898183FD11C014968D919C9115979A8B898BCD8EEA8DFB8D64817581CD010E9489219B838A8319A2CE0105960E942A499BE0988395C089A129893A89882379F0C9010E945930898181FF0CC0EA8DFB8D6281738143
S284006A80848195810E94B73103C0C9010E943D30898180FF16C0EAA1FBA18185838BEAA1FBA189A1828BEAA1FBA1148A158A168A178AEAA1FBA126853785CF014096F9010995898181FF04C08AA19BA10E94057D898182FF05C08AA19BA169A10E94C35E80919B0E8C838981807E89831B821A8218821D8E83E00E94BE3283E00E94BE3245
S284006B0045C080919C0E81FD3FC00E9492049C01898182FF10C0EAA1FBA10280F381E02D848190E0282339238381280F311DC901A0E0B0E009C083FF10C0C901A0E0B0E08F739070A070B0708093A30E9093A40EA093A50EB093A60E08C08092A30E9092A40EA092A50EB092A60EF092A70E3092A90E2092A80E80919C0E826080939C0EB1
S284006B808DE99EE00E9426ACEDE0E883E39480919A0EE81608F463CECDB7DEB7E2E10C94ACBFBC0184E99EE00E94D63683E00E94BE320895BC0180E99EE00E94D63683E00E94BE320895BC018CE89EE00E94D63683E00E94BE3208950F931F9383E080939B0E86E06AE97EE00E94CDA181E068E97EE00E94CD9F8DE99EE00E94BCAB80912D
S284006C009C0E8C7F80939C0E10E00FE217C0109FC0011124E091980EF091990EE80FF91F80919B0E84838181807E8183138212821082158E83E00E94BE321F5F80919A0E181728F38CE89EE00E94D03680E99EE00E94D03684E99EE00E94D0361F910F910895A1E0B0E0E7E3F6E30C94A0BF19820E94CCAA823051F0833018F4882391F06C
S284006C8014C0833039F0843081F408C08981887F82600EC08981887F83600AC08981887F846006C08981887F03C08981887F8160898369816F7C6061698383E00E94C4362196E2E00C94BCBF0E94BFAA8FEF0E94DDAA8FEF0E94DDAA0E94BDAA86E00E94DDAA0E94BBAA82E068E00E94C4368FEF0E94DDAA8FEF0E94DDAA81E00E94B63652
S284006D008F718830D1F70E9431368EE060E00E94C4360E948FAB0E94B2AA0E94B5AA08951F93CF93DF93EC01162F289880E60E949DAA04C089910E949DAA11501123D1F7289ADF91CF911F9108951F93CF93DF93EC01162F05C080E20E949DAA899311501123C9F7DF91CF911F9108951F932898182F1F731068812F0E949DAA812F0E94F5
S284006D809DAA289A1F9108951F93162F2898806C0E949DAA812F0E949DAA289A1F910895FC0111821082938382830895CF93DF93FB01EC01AA81BB816D937C937B836A8311821082DF91CF910895FC01808191810895FC01808191810895FC01A081B181109711F480E008958D919C9191838083892B11F081E0089511821082F383E28312
S284006E0081E00895CF93DF93EC01A881B981109719F1CB01A617B70759F48D919C9199838883892BC9F419821882DB83CA8314C09D010D90BC91A02DA817B907C9F7F9018D919C911197918380838A819B818A179B0711F43B832A83DF91CF910895FC01009719F420E030E002C020813181C9010895E0E0F0E021E030E0B9010E2E02C0AA
S284006E80660F771F0A94E2F7809194059091950586239723892BC9F04FB7F8942091940530919505CB01809590958223932390939505809394054FBFEE0FFF1FEC56FD4F0190F081E02D099504C03196EB30F105A1F6809194059091950520E0892B09F021E0822F08950E943937089510926D120895A8E0B0E0EFE7F7E30C94A0BF909386
S284006F00EA128093E91283E190E090937512809374128DEF9FEF909378128093771287E1BE016F5F7F4F0E94CDA189818093A4128A818093A5128B818093A6128C818093A7128D818093A8128E818093A9128F818093AA1288858093AB120E9453678093AC120E94231D9093A3128093A2128EE692E10E94A8402896E2E00C94BCBFAAE2B3
S284006F80B0E0E5ECF7E30C949EBF8C018091E7108D3071F584E00E94D185882349F1F80180817181872B6281862B5381852B4481842B3581832B2681822B9781892B21F480850E94703D14C083E98983F80180818C837D836E835F83488739872A879B878EEF9FEF9B838A83CE0101960E949D05AA96E4E00C94BABFAAE2B0E0E2E0F8E304
S2840070000C94A0BFFC0182E9898382818C8383818D8384818E8385818F83868188878781898780858A8781858B87808191819B838A83CE0101960E949D05AA96E2E00C94BCBFAAE2B0E0E7E2F8E30C949EBF8C0184E00E94D185882309F46EC0F80182818031E1F0813130F4893051F08F3009F063C03AC08331A9F1853109F05DC051C019
S28400708080916D128F5F80936D12833009F054C010926D1281E00E94703D4EC0F8012081318130935A10209359108EE8898380916C1090916D109B838A8338872F8380915B108E8380916E1090916F109D838C83CE0101960E949D0580E090E00E9479372BC010926D1228C00E943D6790936F1080936E10F8014081518150935A1040932E
S28400710059102EE8298320916C1030916D103B832A8358874F8320915B102E839D838C8307C085E98983F801808191819B838A83CE0101960E949D05AA96E4E00C94BABF81E08093E71080E00E94C23D0895FC01E081E0932211EE2321F0EA3F11F0EA3E11F48AE001C08CE08093E71080E00E94C23D0895FC01808180932211882341F434
S28400718080917410877011F484E003C08BE001C08CE08093E71080E00E94C23D0895FC01808180932211882311F484E001C08CE08093E71080E00E94C23D0895FC01808180932211882311F485E001C08CE08093E71080E00E94C23D089580932211883049F4809174108770823011F484E003C08AE001C08CE08093E71080E00E94C23DF0
S284007200089590931E1180931D118091E710823031F483E08093E71080E00E94C23D089580E00E94C23D089580E00E94C23D08950E94231D90935A10809359100E94566780935B100E94386790936D1080936C100E943D6790936F1080936E100E944267E1E5F0E12083318342835383648375838683978308950F931F936093161170931E
S2840072801711809318119093191181E080931A1180E199E390931C1180931B1100E111E1C8010E94BCABC8010E9426AC1F910F910895A8E0B0E0EFE5F9E30C94A0BFFC01808180932211882321F40E94183989E01AC080910F11843038F468EE73E080E090E00E943B3914C019821A821B821C821D821E821F8218868FE0BE016F5F7F4FCF
S2840073000E947DA08CE08093E71080E00E94C23D2896E2E00C94BCBFA2E0B0E0E2E9F9E30C94A0BFFC01808180932211882311F08A3F41F50380F481E02DF0930E11E0930D1181858F708130C9F490917410892F8770813099F482E08983987F92609093741089E1BE016F5F7F4F0E947DA01A828FE1BE016E5F7F4F0E947DA010920F11CA
S28400738087E00CC080910F11843038F464EF71E080E090E00E943B3906C08CE08093E71080E00E94C23D2296E2E00C94BCBFA8E0B0E0EDEDF9E30C94A0BF19821A821B821C821D821E821F8218868FE0BE016F5F7F4F0E947DA080E191E10E94BCAB10920E1110920D1110920F111092201110921F110E9476370E94E6400E94A6900E944D
S284007400EE8F2896E2E00C94BCBF80912111882361F00E94E6400E94183980917410877011F48AE033C089E031C00E94D73980917410877090E0009719F003979CF51FC080914D1090914E10A0914F10B09150108093DF109093E010A093E110B093E210809183108093E31087EA98E39093E5108093E41086EB90E10E94286708951092C2
S2840074800F118091E810813039F487E08093E71080E00E94C23D089588E08093E71080E00E94C23D08950E94D739E0911F11F09120111082218132812115310519F0CF01F90109951092201110921F1182E08093E7100895ABE2B0E0E0E7FAE30C94A0BF809174108770823059F484E3BE016F5F7F4F0E94CDA18981882311F00E948E9057
S2840075008FE061E570E10E947DA080911D1190911E11892B49F0109222118CE08093E71080E00E94C23D1EC08FE88A8380916C1090916D109C838B838091591090915A109987888780915B108F8380916E1090916F109E838D83CE0102960E949D058DE08093E710AB96E2E00C94BCBFAAEBB0E0ECEBFAE30C9490BF80911F119091201102
S284007580892B41F081E18093E7101092B61083E59AE330C18091E710E82FF0E0E031F10508F099C2E059FF4F0C94C7BF0E947AA00E94EE8F0E94DC088E01015F1F4F87E1B8010E94CDA18F859889892B9989892B9A89892B9B89892B9C89892B9D89892B9E89892B39F4C8010E94E0AA87E1B8010E947DA080EA98E39093BC108093BB1062
S28400760086EB90E10E942B4566C20E949F058091B9109091BA100097F9F48E01015F1F4F87E1B8010E94CDA12F843888F8016280738084809580468057800E9495AB59016A017B018C01C3018825992582259325842595258A259B250E94970439C20E940E4180917410877009F03EC08091511090915210892B90915310892B90915410B3
