S016000052616E67655465737452663233302E7372656334
S18300000C9429010C9459010C9459010C9459010C9459010C94F41F0C94600D0C9493210C9427210C9459010C9459010C9459010C9459010C943C230C9459010C9459010C9459010C9421080C9459010C9459010C9459010C9459010C9459010C9459010C9459010C949C200C94401F0C946D1F0C9459010C94FC240C947A220C945901E3
S18300800C9459010C9459010C9459010C9459010C945F200C949A1F0C94C71F0C9408220C9459010C9459010C94A51E0C9459010C9459010C9459010C9459010C9459010C9459010C9459010C945901646464646464646464646464646463636363636363636363636363626262626262626161616161606060605F5F5F5E5E5D5D5D5C47
S18301005C5B5B5A5959585757565554535251504F4E4D4B4A4947454442403E3C3A383634312F2C2A2928282727262625252524242423232323222222222121212120202020201F1F1F1F1F1E1E1E1E1E00000100020003000400050006000700080009000A000B000C000D000E000F00100012001400160018001A001C001E0020002223
S1830180002400260028002A002C002E003100350039003D004100450049004D005100550059005D006100650069006D0073007B0083008B0093009B00A300AB00B300BB00C300CB00D300DB00E300EB00F7000701170127013701470157016701770187019701A701B701C701D701E701FF011F023F025F027F029F02BF02DF02FF021F7F
S1830200033F035F037F039F03BF03DF030F044F048F04CF040F054F058F05CF050F064F068F06CF060F074F078F07CF072F08AF082F09AF092F0AAF0A2F0BAF0B2F0CAF0C2F0DAF0D2F0EAF0E2F0FAF0F020304050680910406823111F084B701C081E18093040614BE809160008861809360001092600011241FBECFEFD1E2DEBFCDBF70
S183028012E0A0E0B2E0E2E4FDE400E00BBF02C007900D92AE3CB107D9F716E0AEECB2E001C01D92A430B107E1F70E94D50D0C94A0260C9400007F937FB7F8949D9AA5988AEF0E94BA018AEF0E94BA019D9886E40E94BA0181E0959980E08F9380EF0E94BA018F917FBF7F9108957F937FB7F8949D9AA59882E00E94BA019D988AE00E949B
S1830300BA01889495990894881F8F9384E60E94BA018F917FBF7F9108959F937F9398E00E947501879577959A959923C9F7872F7F919F9108957F937FB7F894A5989D9A8F9382E00E94BA018F91879508F49D988F9384E60E94BA018F919D987FBF7F9108959F9398E00E949B019A959923D9F79F9108958A958823E9F70895FB01DC01B4
S183038002C005900D9241505040D8F70895FB01DC0101900D920020E1F708950F931F93CF93DF93CDB7DEB760970FB6F894DEBF0FBECDBF0F89188D86E08E831C830B838FEF9FE798878F83AE01455E5F4F5A834983698D7A8DCE0103960E94000229853A85020F131FF801108260960FB6F894DEBF0FBECDBFDF91CF911F910F9108955C
S18304002F923F924F925F926F927F928F929F92AF92BF92CF92DF92EF92FF920F931F93CF93DF93CDB7DEB764970FB6F894DEBF0FBECDBFCC24DD2476011C017C8B6B8B2A01FC0117821682838181FD03C08FEF9FEF88C2AA24BB2472C2A0FE57C28A8980538A30E8F4FA89F03341F42D85222329F4A3FC03C080E091E06FC08AE0ED8500
S1830480E802C0011124FA89F80FF053FD87F7FF02C02FE72D87A3FC4CC23D853E8749C2C50188709070A3FE05C0ED85EE2311F4F1E0FD872A89283624F525360CF05BC0233509F480C024358CF42B32C1F12C3234F42032C1F1233209F00DC23CC03A893D32B1F13E3209F006C23AC08A89833609F449C084360CF081C0883509F0FBC10F
S18305001BC0EA89E03709F4A3C0E13744F4EC3669F1EF3671F0E93609F0EDC16FC0FA89F53709F49DC0F83739F0F33709F0E3C134C028E0298B94C030E1398B91C080E190E0A82AB92AE0E2F0E0AE2ABF2AF1C120E830E00DC080E490E0A82AB92AE9C1E8E0F0E0AE2ABF2A1D86E3C124E030E0A22AB32ADEC14FE3C42E3E8531503E874D
S183058083E68A8B44C1F201C080FE85F150FE8722E030E0420E531E3AC1F201C080D180892B49F0FD856F2F772767FD7095C6010E94DF0419C0F60101900020E9F73197EC19E98B12C0F201C080D180892B49F0FD856F2F772767FD7095C6010E94D40403C0C6010E94CB04898B22E030E0420E531E3E858989381B3E8709C1A2FE08C0F8
S1830600F20180819181A281B38124E030E009C0F20180819181AA2797FDA095BA2F22E030E0420E531E6C017D01B7FF0CC082E090E0A82AB92AF094E094D094C094C11CD11CE11CF11CEFEBFFEFAE22BF2221C020E430E0A22AB32A38E73A8B80E1898BA2FE08C0F20180819181A281B38124E030E007C0F20180819181AA27BB2722E09D
S183068030E0420E531E6C017D018FEC9FEFA822B92287017601FE013196F88BEF87F9896F2E772488249924C801B701A40193010E9463266A3024F02A89620F615201C0605DEF85F8896193F88BEF87C801B701A40193010E94632679018A01211531054105510509F7CC24DD247601CE010196CF84C81AC50182739070892B19F0FE85F1
S1830700F150FE87A6FE09C02989203111F482E001C081E03E85381B3E8738E0832E912C8A209B20A3FE1BC08D85282F332727FD30958C2D99278217930754F0E7EFFFEFAE22BF2228E0822E912C8A209B2007C0FD85FC19FD872E852F1B2E8703C03E853C193E87C50180789170892B69F48E8506C0B10180E290E00E94EA04812F182FA1
S183078011501816B4F31E87A1FE04C0B1018DE290E00BC0A4FE04C0B1018BE290E005C0A5FE05C0B10180E290E00E94EA04A6FE10C0B10180E390E00E94EA048989803141F4B101EA898E2F992787FD90950E94EA04B0FE0DC08E8506C0B10180E390E00E94EA04812F182F11501816B4F31E87892869F02D8506C0B10180E390E00E94E5
S1830800EA04212F122F11501216B4F31D8790E8692E712C6A207B20A7FC0DC08E8506C0B10180E290E00E94EA04812F182F11501816B4F31E87FA89F33641F4B1018C2D992787FD90950E94EA0445C02A892337B1F446015601198909C0F50181915F01B101992787FD90950E94EA041150A8F76401F989CF0ED11C2FEF298B2CC03A89D7
S1830880333519F00F8518891FC046018601B98808C0F8018491B10199270E94EA040F5F1F4FBA94FFEFBF16A1F764012989C20ED11CF98B10C0F80182918F01B101992787FD90950E94EA04CE0101960817190791F7188B0F876728B1F08E8506C0B10180E290E00E94EA04812F182F11501816B4F31E8708C0B101FA898F2F992787FD40
S183090090950E94EA04AA24BB2413C02A89253241F43AE0398B1E861D8681E0A82EB12C08C0B101EA898E2F992787FD90950E94EA042B893C892F5F3F4F3C8B2B8BF101838183FF04C0EB89FC89F49103C0EB89FC89F081FA8B2A89222309F07ECDF1018681978164960FB6F894DEBF0FBECDBFDF91CF911F910F91FF90EF90DF90CF901B
S1830980BF90AF909F908F907F906F905F904F903F902F900895FC0105900020E9F7809590958E0F9F1F0895FC010590615070400110D8F7809590958E0F9F1F0895FC016150704001900110D8F7809590958E0F9F1F08950F931F93CF93DF938C01EB018B81992781FF1BC082FF0DC02E813F818C819D812817390764F4E881F981019348
S1830A00F983E88306C0E885F985802F0995892B31F48E819F8101969F838E8302C00FEF1FEFC801DF91CF911F910F9108958130910549F08130910518F0029731F508C06093780208957093E1026093E00208957093B6036093B5031092E3021092E4021092E5021092E6021092E7021092E8021092E9021092EA021092DF021092E202EB
S1830A801092EC0281E08093770208954FB7F8948091D30388608093D3032FB7F894332780916A0590916B05926090936B0580936A052FBF4FBF089581E08093770208951F93CF93DF93182F82E00E94550E81E00E94550E80E00E94550EC12FDD27C0FF03C082E00E94480EC1FF03C081E00E94480EC2FF03C080E00E94480EDF91CF9130
S1830B001F91089580917802E0E4F2E0E80FF11D80810E9460050895EF92FF920F931F93CF93DF93CDB7DEB760970FB6F894DEBF0FBECDBF8091DF028F5F8093DF028091B5039091B603009709F05FC08091E0029091E102019779F58E010F5F1F4FC8010E94270A89819A81AB81BC81805D9740A040B04040F08091DF0280FD1AC087E0AC
S1830B800E946005CAC08091E0029091E102019791F4C8010E94270A89819A81AB81BC8188509740A040B04030F08091DF0281FFE6CF80E0E5CF1091DF02123561F0133518F41035E1F405C0143561F01635B9F40BC080E012C08091E0029091E102892B59F008C082E009C08091E0029091E102892B11F484E001C081E00E946005809137
S1830C00DF02863508F481C07EC0019709F085C08091E2028F5F8093E202843109F043C01092E202CE0101960E94270A29813A814B815C818091E3029091E402B901681B790B8D819E81AF81B885E090E702F090E8020091E9021091EA022093E3023093E4024093E5025093E6028093E7029093E802A093E902B093EA026A3071051CF4CB
S1830C8081E090E00EC020E030E08E199F09880F991F880F991F6817790714F421E030E0C9018093EB028091EB02882369F08091DF0280FF02C080E001C087E00E9460058091EB02882349F51091DF02143591F0153528F4103551F0123589F40DC0183549F01A3549F0163551F402C080E005C084E003C082E001C081E00E9460058091B6
S1830D00DF028A3510F01092DF0280E0103508F481E0882311F00E9482058091EC028F5F8093EC028A30F9F41092EC02809177028823C9F01092B8031092B7034FB7F8948091D30380618093D3032FB7F894332780916A0590916B05926090936B0580936A052FBF4FBF60960FB6F894DEBF0FBECDBFDF91CF911F910F91FF90EF9008957E
S1830D800E94820E8BE592E00E94011989E792E00E943F1408951F938091B7039091B8038230910509F469C08330910530F4009781F0019709F0F6C040C08430910509F4A9C08430910508F484C0059709F0EAC0CCC08EEC92E00E94270A8091CE029091CF02A091D002B091D102BF93AF939F938F9380E092E09F938F938DEE92E09F934D
S1830E008F930E94CE018093DE028DB79EB708960FB6F8949EBF0FBE8DBF8091B5039091B603892B19F485E090E002C081E090E09093B8038093B703B5C01091DE028091D2029091D302A091D402B091D502BF93AF939F938F938AE092E09F938F93812F992783519D4F9F938F930E94CE01180F1093DE0282E090E01FC01091DE02809189
S1830E80D6029091D702A091D802B091D902BF93AF939F938F9385E192E09F938F93812F992783519D4F9F938F930E94CE01180F1093DE0283E090E09093B8038093B7038DB79EB708960FB6F8949EBF0FBE8DBF6FC01091DE028091DA029091DB029F938F9380E292E09F938F93812F992783519D4F9F938F930E94CE01180F1093DE0210
S1830F0084E090E09093B8038093B7038DB79EB70696D9CF2091DC023091DD021091DE02C90163E0969587956A95E1F79F938F9388ED92E0821B930B53E0969587955A95E1F79F938F9389E292E09F938F93812F992783519D4F9F938F930E94CE01180F1093DE0285E090E0A7CF8091DE0299276DE372E083519D4F0E94C7014091DE02E2
S1830F8055274E5F5F4F4093DE026DEE72E08BE592E00E946B171092B8031092B703109277021BC08091B7039091B803892BA9F04FB7F8948091D30380618093D3032FB7F894332780916A0590916B05926090936B0580936A052FBF4FBF1F9108951092BE031092BD039093BC038093BB037093BA036093B90389E08093810080EA9FE0D0
S18310009093890080938800109285001092840082E086BBEFE6F0E080818260808308958FB7F8949927B198EFE6F0E020812D7F20838FBF0895E091B903F091BA03099508951F920F920FB60F9211242F933F934F938F939F938091BD039091BE0301969093BE038093BD032091BB033091BC0382179307C9F41092BE031092BD034FB7AA
S1831080F8948091D30384608093D3032FB7F894332780916A0590916B05926090936B0580936A052FBF4FBF9F918F914F913F912F910F900FBE0F901F9018951F93CF93DF93EC01142F30E040E050E01FC0E32FFF27DE01AE0FBF1FE60FF71FAC918081A82799F0EA2FFF27EF70F070E957FD4F8081A295AF70EA2FFF27E957FD4F208110
S1831100820F912D911D480F591F3F5F3117F9F6CA01DF91CF911F910895CF93DF93EC0170E0A0E0B0E01EC0FE01E70FF11D20812A27822F8295807F8227282F3327522F4427AB2FBB27A42BB52B93E0220F331F9A95E1F782958F70992728273927A227B3277F5F761701F7CD01DF91CF910895DC01962F50E028E134E71AC040E061E082
S183118070ECFD01E50FF11D20FF09C02627372736952795306880818695806804C0369527958081869580834F5F483069F75F5F591721F708951092C3031092C4031092C5031092C6031092C7031092C8031092C9031092CA031092CB031092CC031092CD031092CE031092D0031092CF031092D2031092D1031092C0031092BF031092A3
S1831200C2031092C10308959C01742F8091C3039091C403A091C503B091C6030196A11DB11D8093C3039093C403A093C503B093C6032115310599F08091C7039091C803A091C903B091CA030196A11DB11D8093C7039093C803A093C903B093CA03442755278091CB039091CC03A091CD03B091CE03820F931FA41FB51F8093CB03909348
S1831280CC03A093CD03B093CE032091BF033091C003862F99279695982F882797958795A901481B590BCA01E5E095958795EA95E1F7281B390B3093C0032093BF03220F232F221F330B3093D0032093CF032F3F310539F030F08FEF90E09093D0038093CF038091C1039091C203272F33273695322F222737952795AC01421B530B9A0151
S183130045E0359527954A95E1F7821B930B9093C2038093C10324E0959587952A95E1F79093D2038093D1030895FC01A3ECB3E080E10D9001928150E1F708951F93CF93DF93EC01162F289880E601C089910E94C4131150D8F7289ADF91CF911F9108951F93CF93DF93EC01162F04C080E20E94C41389931150D0F7DF91CF911F910895C1
S18313801F93162F2898806C0E94C413812F0E94C413289A1F9108951F932898182F1F731068812F0E94C413812F0E94C413289A99271F910895289880E20E94C41308951092D30308950F931F93CF93DF93C0E0D0E007E912E08091D30399270C2E02C0959587950A94E2F780FF16C02FB7F89433274091D30381E090E00C2E02C0880F7E
S1831400991F0A94E2F7809548234093D3032FBFD801ED91FC91099521960E5F1F4FC530D105C9F6DF91CF911F910F9108950E94E30908958091D403882331F40E94CA0A81E08093D40308950E94E30908950E94950908950E94DB0861E070E082E090E00E94170508950E94FE0B08958091D703882321F00E9410081092D7030895CF9317
S1831480DF93CDB7DEB760970FB6F894DEBF0FBECDBF809158048823D1F0CE0101960E94950989819A81AB81BC81805D9740A040B04048F08091D5039091D603019719F40E94360A04C00E94F90B1092580460960FB6F894DEBF0FBECDBFDF91CF9108950E943F0A08950F931F938C019093D6038093D5030E94DB08B80181E090E00E94D9
S183150017050E94700A1F910F9108950E945F0C60E070E0682F80E090E00E9417058091590490915A04892B29F481E0809358040E94700A0895CF93DF93EC0190935A0480935904892BA1F481E08093580480E090E00E94AC0C0E94DB080E94E00960E070E082E090E00E9417050E94700A0FC00E94360A81E090E00E94AC0C0E94DB0897
S18315800E94E009BE0182E090E00E941705DF91CF9108950F931F9308ED13E060E8C8010E94B8088FE78093D8036DE7C80101960E948D0880935604892F99278093570460EF7AE08CE09BE00E94C10BC8010E94B60B0E94C0060E945E0B1F910F910895CF93DF93EC0188818F3719F080E092E007C04FE769ED73E0CE0101960E945E0846
S1831600FE01E050FF4FCF5FDE4F488160810E940409DF91CF91089581E08093580440E060E080E090E00E9404090E943F0A08950E949D139927837090708230910531F0039711F483E003C08FEE01C089EF992787FD909508950E949D13992796958795969587958170907008950E942B0B9C0180915B0490915C048217930739F03093EF
S18316805C0420935B04C9010E949B0A80915B0490915C04892B61F40E94180B982F80915D04891729F090935D04892F0E94330A80915E048F5F80935E04089560E87BE087E99BE00E940F0F86E10E94860A0E942B0B90935C0480935B04892B31F40E94180B80935D040E94330A80915B0490915C040E949B0A81EA92E00E943F140895D8
S1831700282F80915B0490915C04892B79F4213069F480915E04843028F081E090E00E94730A089580E090E00E94730A0895813061F480915B0490915C04019719F40E942A0A089510925E040895823071F48091AF028F5F8093AF028B3118F08BE08093AF028091AF020E94860A089590936204809361040895E0916304F091640409953A
S183178008959093640480936304709366046093650468E08EE00E94C00908950F931F930E94DF130E94DB0907E614E061E0C8010E94B00960916704C80101960E94B00961E087E695E00E94B009289A809169058093680566E082E00E94C0090E94DD13E0916504F0916604C80109951F910F9108950E94E4130E94091408951F93CF93EB
S1831800DF93CDB7DEB721970FB6F894DEBF0FBECDBF182F0E94DF1385E00E94CC09682F133014F080E039C0123011F482E035C0113011F484E031C0112311F486E02DC01F3F11F487E029C01E3F11F488E025C01D3F11F489E021C01C3F11F48AE01DC0812F8A5F823010F48BE017C0812F885F823010F48CE011C0812F865F823010F40D
S18318808DE00BC0812F825F843010F48EE005C0123F14F48FE001C085E0607F682B698385E00E94C0090E94DD1321960FB6F894DEBF0FBECDBFDF91CF911F9108951F93CF93DF93CDB7DEB721970FB6F894DEBF0FBECDBF182F8B3110F01AE103C08B3008F41BE00E94DF1363E082E00E94C00981E00E94CC0989838F718830C9F70E94B4
S1831900CC09912F9F71807E892B8983682F88E00E94C00980915F04909160048130910511F469E003C0029721F466E082E00E94C0098FE00E94CC090E94DA130E94DD13812F992721960FB6F894DEBF0FBECDBFDF91CF911F9108950F931F93CF93DF93CDB7DEB721970FB6F894DEBF0FBECDBF8C010E94DF1363E082E00E94C00981E020
S18319800E94CC0989838F718830C9F7012BA1F469E082E00E94C00981E090E09093600480935F04E0916104F091620460816F5FCF010E949E090AC066E082E00E94C00982E090E09093600480935F048FE00E94CC090E94DA130E94DD1321960FB6F894DEBF0FBECDBFDF91CF911F910F910895CF93DF93CDB7DEB721970FB6F894DEBFBD
S1831A000FBECDBF0E94EB138FEF0E9406148FEF0E9406140E94E91386E00E9406140E940D1468E082E00E94C0098FEF0E9406148FEF0E94061481E00E94CC098F718830D1F719820E94F8138230910561F08330910518F4892B99F015C08330910539F0049781F408C08981887F82600EC08981887F83600AC08981887F846006C08981BB
S1831A80887F03C08981887F8160898369816F7C6061698383E00E94C00960E08EE00E94C0090E94F2130E94DA130E94DD1321960FB6F894DEBF0FBECDBFDF91CF9108951F920F920FB60F9211242F933F934F938F939F9328989FB7F8948FE88EBD00000DB407FEFDCF892F99278FBF8EB59FB7F8948FE88EBD00000DB407FEFDCF892FDA
S1831B0099278FBF8EB5289A83FF40C028989FB7F89487E88EBD00000DB407FEFDCF892F99278FBF8EB59FB7F89487E88EBD00000DB407FEFDCF892F99278FBF8EB5289A8093690580915F04909160048130910541F00297D9F44FB7F8948091D303816005C04FB7F8948091D30382608093D3032FB7F894332780916A0590916B05816063
S1831B8090936B0580936A052FBF4FBF9F918F914F913F912F910F900FBE0F901F9018950E940F140E94F80C08950E94D00D2FB7F894332780916A0590916B05926090936B0580936A052FBF0E94ED0D8823E1F781E083BF889513BEF7CF4091B00250916C0520E030E0E1EBF2E061E070E0022E02C0660F771F0A94E2F780916A059091B1
S1831C006B0586239723892B61F1842F992787FD90958217930749F4852F8F5F8B30F8F44093B00280936C0504C02093B00210926C054FB7F894552720916A0530916B05CB01809590952823392330936B0520936A054FBF0190F081E02D09950DC04FEF50E02F5F3F4F32962A30310509F0BDCF4093B00250936C0580916A0590916B0533
S1831C80009711F081E090E008950E94ED0D0895813049F0813018F0823031F402C02D9A08952F9A08952E9A0895813049F0813018F0823031F402C02D9808952F9808952E980895813069F0813018F0823069F404C085B190E2892702C085B1805885B9089585B190E4892785B9089584E00E949F0E25982D9826982E9827982F9880E064
S1831D0090E00895259A269A279A84E00E948B0E80E090E00895382F20916D05222321F46B9A739A579A5F9A81E090E002C0880F991F3A95E2F7282B20936D05089521E030E002C0220F331F8A95E2F7209580916D05282320936D05222321F46B9A7398579A5F98089580916E0580FF05C08E7F80936E050E94950F80916E0581FF05C038
S1831D808D7F80936E050E943A1080916E0582FF05C08B7F80936E050E94221180916E0583FF05C0877F80936E050E94341380916E05882369F02FB7F894332780916A0590916B05916090936B0580936A052FBF08959091700591708091700581FD9260892F9927089580916F05813019F081E090E0089586E090E00E940B1A87E090E039
S1831E000E940B1A1092720510927105109274051092730510926F0580E090E008959C0180916F05882319F081E090E0089581E080936F053093720520937105709374056093730543E55FE060E070E086E090E00E94341A44E75FE060E070E087E090E00E94341A669B04C0809170058E7F03C080917005816080937005679B04C08091D9
S1831E8070058D7F03C08091700582608093700586E090E00E94ED1987E090E00E94ED1980E090E0089586E090E00E94651A809170058160809370058091700584608093700580916E05816080936E052FB7F894332780916A0590916B05916090936B0580936A052FBF089587E090E00E94651A80917005826080937005809170058860B9
S1831F008093700580916E05816080936E052FB7F894332780916A0590916B05916090936B0580936A052FBF08958091700582FF12C0809170058B7F8093700580917005806180937005E0917105F0917205309711F081E009958091700584FF2BC0669B17C0809170058F7E80937005809170058E7F80937005E0917305F091740530974A
S1831F8011F081E0099586E090E00E94ED1912C080916E05816080936E052FB7F894332780916A0590916B05916090936B0580936A052FBF8091700583FF12C080917005877F8093700580917005806280937005E0917105F0917205309711F082E009958091700585FF2BC0679B17C0809170058F7D80937005809170058D7F809370054A
S1832000E0917305F0917405309711F082E0099587E090E00E94ED19089580916E05816080936E052FB7F894332780916A0590916B05916090936B0580936A052FBF089520E08091750590917605892B09F421E081E02827822F9927089520E08091750590917605892B09F421E081E02827822F992708950E94841A109276051092750595
S18320806091AD057091AE05E091B205F091B3058091B105099508950F931F93CF93DF93CDB7DEB722970FB6F894DEBF0FBECDBF8C018091750590917605892B09F03DC001151105D1F188E190E09A838983CE0101960E94221B8F5F9F4F79F181E090E090937605809375051093B3050093B2058DEA95E09093B8058093B7058AEA90E1E7
S18321009093C2058093C10589E48093B40582E090E09093B6058093B50584EB95E00E94951A8F5F9F4F19F080E090E008C010927605109275050E94841A81E090E022960FB6F894DEBF0FBECDBFDF91CF911F910F9108958093B1058823D9F41092AD051092AE051092AF051092B00580916E05826080936E052FB7F894332780916A055B
S183218090916B05916090936B0580936A052FBF089580917505909176050197C1F52091AD053091AE054091AF055091B005622F772788279927982F872F762F6627232F332744275527622B732B842B952B20E830E040E050E00E9485262093AD053093AE054093AF055093B00580916E05826080936E052FB7F894332780916A059091D0
S18322006B05916090936B0580936A052FBF089520E08091770590917805892B09F421E081E02827822F9927089520E08091770590917805892B09F421E081E02827822F99270895CF93DF93CDB7DEB729970FB6F894DEBF0FBECDBF1E821F82188619861A821B821C821D820E94841A10927805109277056091C4058091C505862387FFFA
S183228066C08091C305813009F061C077276F777070660F771F635B7E4F42E050E0CE0106960E94BE016091C50577276F777070660F771F635B7E4F42E050E0CE0102960E94BE012E813F81488559852115310541055105D1F16A817B818C819D81621773078407950788F5E7E0660F771F881F991FEA95D1F70E946326CA01B9017727D6
S183230064537F4F41E050E0CE0101960E94BE016E817F81888599852A813B814C815D81621B730B840B950B29813327442755270E944426672F782F892F992787E06733780738F066E377E004C01092C30560E070E0E091C605F091C7058091C305099529960FB6F894DEBF0FBECDBFDF91CF9108950F931F93CF93DF93CDB7DEB7229747
S18323800FB6F894DEBF0FBECDBF8C018091770590917805892B09F03EC001151105D9F188E190E09A838983CE0101960E94221B8F5F9F4F81F121E030E0309378052093770583E48093C4051093C7050093C60584EC95E09093B8058093B70584EC92E19093C2058093C10589E38093B4053093B6052093B50584EB95E00E94D11B8F5F57
S18324009F4F19F080E090E008C010927805109277050E94841A81E090E022960FB6F894DEBF0FBECDBFDF91CF911F910F9108958093C30580916E05846080936E052FB7F894332780916A0590916B05916090936B0580936A052FBF08958093C305882399F480916E05846080936E052FB7F894332780916A0590916B05916090936B0526
S183248080936A052FBF089585EC95E09093B8058093B70588E192E19093C2058093C10589E38093B40581E090E09093B6058093B50584EB95E00E94951A8F5F9F4FB1F40E94841A1092C30580916E05846080936E052FB7F894332780916A0590916B05916090936B0580936A052FBF08958093C305882399F480916E05846080936E0526
S18325002FB7F894332780916A0590916B05916090936B0580936A052FBF089583E88093C50585EC95E09093B8058093B7058DE292E19093C2058093C10589E38093B40581E090E09093B6058093B50584EB95E00E94D11B8F5F9F4FB1F40E94841A1092C30580916E05846080936E052FB7F894332780916A0590916B05916090936B05C7
S183258080936A052FBF08958093C305882399F480916E05846080936E052FB7F894332780916A0590916B05916090936B0580936A052FBF089584EC95E09093B8058093B70587E792E19093C2058093C10589E38093B40581E090E09093B6058093B50584EB95E00E94951A8F5F9F4FB1F40E94841A1092C30580916E05846080936E0521
S18326002FB7F894332780916A0590916B05916090936B0580936A052FBF08956091D3057727882799272CED35E040E050E00E94442620E030E941E050E00E9463262093D30580916E05886080936E052FB7F894332780916A0590916B05916090936B0580936A052FBF089581E090E090937A0580937905E091D405F091D5058091D30576
S1832680099508959C018091790590917A05019719F081E090E0089582E090E090937A05809379053093D5052093D40580E090E00E940A1E80E090E008958091790590917A05892B19F481E090E0089510927A05109279050E94F81D80E090E008958091790590917A05892B19F081E090E0089583ED95E09093CE058093CD058EE093E1CC
S18327009093D2058093D1051092C80584E090E09093CA058093C90581E090E09093D0058093CF0590937A058093790588EC95E00E94271E80E090E008959898A098A09A9998A198A19A9A98A298A29A32B322B382B39898A0989998A1989A98A29831702270232B8470822B80959927877090700895289A23982B98229A219A209A80E5BF
S18327808CBD81E08DBD08958EBD000000000000000000000000000000000000000000000000000000000000000000008DB58EB59927089580E28CBB0895ED9A08958DB3ED988072992708952C9A089524982C980895179808952C98249A179A0F9A6D9875980895EAE6F0E080818C608083089589E0E0E0F0E080935700849181FF03C05A
S183280080E090E0089583E090E008950E94BA0108952C980895249A0895179A08950E94B9130E94E01E0E945C1E60E084E00E94D82078940895CF93DF93EC01892BD1F080917F05909180058C179D0719F460E070E008C0BE018FE795E00E942D1DBC01892B41F0AE018FE795E00E94111D80E090E002C08FEF9FEFDF91CF910895CF9336
S1832880DF93EC01892B71F0E0917F05F091800506C0EC17FD0751F10190F081E02D3097C1F703C08FEF9FEF23C08FB7F894992720917B0530917C0540917D0550917E058FBF198218828E819F81A885B985820F931FA41FB51F8A839B83AC83BD83BE018FE795E00E94051D0E945C1E80E090E0DF91CF910895CF92DF92EF92FF920F937C
S18329001F93CF93DF93C0917F05D09180056E0138C08FB7F894992720917B0530917C0540917D0550917E058FBFEA80FB800C811D812E153F0540075107F8F08A859B85019739F4AE01B6018FE795E00E94111D0CC08E819F81A885B985E80EF91E0A1F1B1FEA82FB820C831D83EC85FD85099580917F059091800503C0888199816E015F
S1832980EC01209731F6DF91CF911F910F91FF90EF90DF90CF9008958091820583FF0CC02FB7F894332780918205877F809382052FBF0E94411DAFC08091830587FF0CC02FB7F8943327809183058F77809383052FBF0E9447179FC08091840580FF0CC02FB7F8943327809184058E7F809384052FBF0E942F168FC08091840581FF0CC0EC
S1832A002FB7F8943327809184058D7F809384052FBF0E9459167FC08091840583FF0CC02FB7F894332780918405877F809384052FBF0E94E41D6FC08091840584FF0CC02FB7F8943327809184058F7E809384052FBF0E940D1C5FC08091850582FF0CC02FB7F8943327809185058B7F809385052FBF0E9489164FC08091850583FF0CC069
S1832A802FB7F894332780918505877F809385052FBF0E9444173FC08091850584FF0CC02FB7F8943327809185058F7E809385052FBF0E9471162FC08091850585FF0CC02FB7F8943327809185058F7D809385052FBF0E941B1B1FC08091850587FF0CC02FB7F8943327809185058F77809385052FBF0E947B140FC08091860587FF0BC06B
S1832B002FB7F8943327809186058F77809386052FBF0E948624809181058823A1F480918205882381F480918305882361F480918405882341F480918505882321F480918605882369F02FB7F894332780916A0590916B05826090936B0580936A052FBF0895DC01892B61F19C91892F8150823038F5E92FFF27EE0FFF1FEB57FA4F8081B2
S1832B809181892BE9F011821082EC91E150FF2783E0EE0FFF1F8A95E1F7EF53FF4F1082FD01838D992781FF02C06C98749880FF04C055985D9854985C9880E090E008958FEF9FEF0895FC01892B51F08081823039F4838D80FF04C05D9A80E090E008958FEF9FEF0895FC01892B51F08081823039F4838D80FF04C05D9880E090E00895AE
S1832C008FEF9FEF0895FC01892B81F08081823069F4838D80FF0AC089B1992724E0969587952A95E1F78170907008958FEF9FEF0895FC01892B81F08081823069F4838D81FF0AC08CB1992734E0969587953A95E1F78170907008958FEF9FEF08958091870590918805892B19F19091D9058091DA058917C1F0E091D705F091D805E90F5B
S1832C80F11D80818093C6009F5F9093D9058091D605981711F41092D9058091C10080628093C10008958091C10080648093C1000895E0918705F0918805309789F09091DA058091D905981729F48091C50281608093C502018CF28DE02D309709F009950895E0918905F0918A05309789F09091E4058091E305981729F48091C5028260F8
S1832D008093C502018CF28DE02D309709F009950895E0918905F0918A053097D1F08091E9052091E8058217A1F09FB7F894281710F4382F03C0281B3091E505321B892F99278FBF0788F08DE02D309711F0832F0995089581E080938B05089510928B050895FC01892B61F12081322F3150323038F5E22FFF27EE0FFF1FEB57FA4F808182
S1832D809181892BE9F0E32FFF27CF0153E0880F991F5A95E1F7EE0FFF1FE80FF91FEA52FA4F94818381981719F080E090E008958091C502213009F086958170992708958FEF9FEF08951F93E0918905F0918A05309709F457C0838D81FD02C010E004C0CF010E941916182FE0918905F0918A05838D80FD02C080E003C0CF010E9403162A
S1832E00112311F48823E9F08AE090E0A0E0B0E08093F0059093F105A093F205B093F30581E090E09093F5058093F40583EE96E19093F7058093F6058AEE95E00E943F1421C09091E3058091E4058917B1F0E091E105F091E205E90FF11D80818093CE009F5F9093E3058091E005981711F41092E3058091C900806203C08091C9008064EA
S1832E808093C9001F9108950E94E3160895E0918705F09188053097E9F0838D84FD1AC08091DF052091DE058217A1F09FB7F894281710F4382F03C0281B3091DB05321B892F99278FBF0788F08DE02D309711F0832F09950895CF92DF92EF92FF920F931F93CF93DF938C01F42E009709F47DC0DC01EC91E150E23008F077C0611571054C
S1832F0009F473C0442309F470C0EC018B899C894E2F5527892B09F59A0103E0220F331F0A95E1F7FA01EE0FFF1FE20FF31FEA52FA4F94818381981709F057C072836183F4821382F901EF53FF4F8081806280838F2D99274CC02C832CC08FB7F894C82EFA01EE0FFF1FCA01A3E0880F991FAA95E1F7E80FF91FEA52FA4FD480E38030E066
S1832F80EF012C81922F9F5F9C838881981709F41C829C818B819817F1F2E981FA81E20FF11DDB01A30FB11D8C9180833F5F3F1541F7DE14B1F4F80180812091C502813011F42E7F01C02D7F2093C502FA0173E0EE0FFF1F7A95E1F7EF53FF4F808180628083CFBE832F992702C08FEF9FEFDF91CF911F910F91FF90EF90DF90CF9008953B
S18330000F931F93CF93DF93C82FDD278E01000F111FA80149575A4FDA018D919C91009761F4FE01A3E0EE0FFF1FAA95E1F7EF53FF4F80818F77808365C0FC01838D9E0173E0220F331F7A95E1F784FF0EC0F801E20FF31FEA52FA4FA681B7816C93868197810196978386834DC0D801A20FB31FAA52BA4FFD0186819781892B09F442C034
S18330802185922F9F5F91878581981709F41186FD0191858085981711F4218733C0FD0186819781820F911DFC016083FA0120813181F901838D80FF25C08081823011F5FD0191858085891710F4492F03C0891BFD014581481BCE0133E0880F991F3A95E1F7CC0FDD1FC80FD91FCA52DA4F2D813327241B310980918C0599272817390705
S18331000CF45D9ADF91CF911F910F910895CF92DF92FF920F931F93CF93DF938C01009709F465C0FC0190819150923008F05FC06115710509F45BC0442309F458C08FB7F894C82EDD24FF24292F3327E901CC0FDD1FC90153E0880F991F5A95E1F7C80FD91FCA52DA4F11C0DB01AF0DB11DEE81FF81E50FF11D80818C9388858F5F8887A6
S18331809D81891709F41886F39458859985591711F0F41649F7F8018081823021F5838D80FF21C09517F1F0591710F4492F02C0591B4D81451BC90103E0880F991F0A95E1F7220F331F280F391F2A523A4FF90125813327241B310980918C059927281739070CF05D98CFBE8F2D992702C08FEF9FEFDF91CF911F910F91FF90DF90CF9003
S18332000895CF93DF93EC01892B09F4E1C09881892F8150823008F0DBC0E92FFF27EE0FFF1FEB57FA4F80819181892B09F0D0C0D183C083E881E23019F58B8D992781FF02C06C98749880FF1BC0559A54985C988F859889892B11F45D9A12C089899A898830910530F033E0969587953A95E1F704C0969587959695879580938C055D98C6
S183328089819A818034910549F48D859E85892B11F46A9A03C06A987298729AFF27CF01B3E0880F991FBA95E1F7EE0FFF1FE80FF91FE453FA4F8D898083E881FF27CF0173E0880F991F7A95E1F7EE0FFF1FE80FF91FE353FA4F8B899C8991838083E881FF27CF0153E0880F991F5A95E1F7EE0FFF1FE80FF91FE153FA4F1082E881FF273E
S1833300CF0133E0880F991F3A95E1F7EE0FFF1FE80FF91FE053FA4F10828F859889E881892B79F4FF27CF01B3E0880F991FBA95E1F7EE0FFF1FE80FF91FEF52FA4F10820FC0FF27CF0173E0880F991F7A95E1F7EE0FFF1FE80FF91FEF52FA4F89898083E881FF27CF0153E0880F991F5A95E1F7EE0FFF1FE80FF91FEE52FA4F8F8598898D
S183338091838083E881FF27CF0133E0880F991F3A95E1F7EE0FFF1FE80FF91FEC52FA4F1082E881FF27CF01B3E0880F991FBA95E1F7EE0FFF1FE80FF91FEB52FA4F10828881BE0181500E94FA1E8881992702C08FEF9FEFDF91CF910895382FE82FE650E230B0F4FF27EE0FFF1FED56FA4F80819181892B69F02DB381E090E002C0880FA5
S1833400991F3A95E2F7282B2DBB80E090E008958FEF9FEF0895CF93DF93AC0186508230F0F4C82FDD27CC0FDD1FCD56DA4F88819981892BA1F02DB381E090E0042E02C0880F991F0A94E2F7809528232DBB842F0E9408211982188280E090E002C08FEF9FEFDF91CF9108950F931F93CF93DF939C018A01E82FE650E23000F5CE2FDD270E
S1833480FE01EE0FFF1FED56FA4F80819181892BA9F46130710591F06115710511F460E001C06150822F0E94D820CC0FDD1FCD56DA4F1983088380E090E002C08FEF9FEFDF91CF911F910F910895382FE82FE650E230B8F4FF27EE0FFF1FED56FA4F80819181892B71F02DB381E090E002C0880F991F3A95E2F7809528232DBB80E090E0BA
S183350008958FEF9FEF08958091CB02882319F08FEF9FEF089581E08093CB021092F9051092F80580E090E00895FC018091F8059091F905892B31F58091CB02882311F5309701F180818093CA021092C90281818093C802838194819093C7028093C602858596859093CD028093CC0286E090E09093F9058093F80585EA8093BC0080E0E4
S183358090E008958FEF9FEF0895E091CC02F091CD02309711F080E0099508951092F9051092F805E091CC02F091CD02309711F081E009950895282F8091F8059091F905892B11F480E918C08091C902E091C602F091C702E80FF11D20838F5F8093C9029091C802891758F48091BC0080648093BC008091BC0085688093BC00089588E0B7
S183360090E09093F9058093F80584E98093BC00809185058062809385052FB7F894332780916A0590916B05826090936B0580936A052FBF08958091BC0084FDFCCF0E94CE1A08959C01892B91F08091CB02813071F4C9010E94FF211092F9051092F8051092C9021092CB0280E090E008958FEF9FEF08958091F8059091F90584309105B6
S183368051F485E090E09093F9058093F8058091CA02880F0CC0069781F487E090E09093F9058093F8058091CA02880F8F5F8093BB0085E88093BC0008951092F9051092F80580E98093BC000E94C51A08952091F8053091F9052115310511F480E954C0882309F454C02530310521F54091C9028091C802481708F04AC0E42FFF279F011A
S18337002F5F3F4F99272817390731F482E090E09093F9058093F8058091C6029091C702E80FF91F80814F5F4093C9028093BB0085E82AC022303105E1F483E090E09093F9058093F80584E98093BC00809185058062809385052FB7F894332780916A0590916B05826090936B0580936A052FBF08952730310559F48091BC0080648093CA
S1833780BC008091BC0085688093BC0008951092F9051092F80580E98093BC000E94C51A0895FC018091F8059091F905892B31F58091CB02882311F5309701F180818093CA02838194819093C7028093C6021092C90281818093C802858596859093CD028093CC0284E090E09093F9058093F80585EA8093BC0080E090E008958FEF9FEF42
S1833800089520E030E080918D0590918E05019711F421E030E0C90108958091FE059091FF05892B61F410928E0510928D05E0910006F0910106309719F109950895E091FC05F091FD054191F093FD05E093FC056091FA057091FB056F5F7F4F7093FB056093FA05615070408CE00E946D228091FE059091FF0501979093FF058093FE0527
S18338800895CF93DF93FC0180918D0590918E05892B19F08EEF9FEF71C0309709F46CC08081918124813581820F931F8050904108F062C081E090E090938E0580938D05AAEFB5E086E001900D928150E1F77093010660930006672B19F4C0E0D0E03DC0E091FC05F091FD054191F093FD05E093FC056091FA057091FB056F5F7F4F7093D2
S1833900FB056093FA05615070408CE00E946D228091FE059091FF0501979093FF058093FE0580E090E02AC0E091FC05F091FD054191F093FD05E093FC056091FA057091FB056F5F7F4F7093FB056093FA056150704084E00E946D2221968091FE059091FF05C817D90700F3F999FECF10928E0510928D05CE0102C08FEF9FEFDF91CF917C
S18339800895FC0180918D0590918E05892B19F08EEF9FEF08953097A9F18081918124813581820F931F8050904160F5AAEFB5E086E001900D928150E1F7F999FECF20E030E017C0E091FC05F091FD05E20FF31F8091FA059091FB0501969093FB058093FA05019792BD81BDF89A80B580832F5F3F4F8091FE059091FF052817390710F3F7
S1833A00C90108958FEF9FEF0895DC01FB018D919C911197009711F091838083ED93FC930895CF93DF93EC01DB01FA0188819981208131814817590731F4C901118210823983288307C011963C932E93118210828D919C91DF91CF910895FC010190F081E02D06C0808191818617970719F0FC013097C1F7CF0108951092900510928F0569
S1833A800895E0918F05F0919005309799F1809170008D7F809370008091B100887F8093B100828593850484F585E02D892BD9F4309739F0099580918F0590919005892BC9F00E94C322E0918F05F091900566817781808591850E94DB228091700082608093700008951092900510928F05309709F009950895EF92FF920F931F937B010F
S1833B008C010E942F23A80197010E94442628EE33E040E050E00E946326CA01B9011F910F91FF90EF9008959C01892BC1F080918F05909190052817390789F4809170008D7F809370008091B100887F8093B1001092900510928F0580E090E008958FEF9FEF0895CF93DF93EC01892B41F1198218828E819F81A885B9850097A105B1056D
S1833B80F1F08A839B83AC83BD8380918F0590919005892BA1F4D0939005C0938F050E94C3226E817F81888599850E94DB228091700082608093700080E090E002C08FEF9FEFDF91CF9108958091910590919205019769F482E090E09093920580939105E0910206F0910306309709F0099508958091910590919205892B19F48FEF9FEFDF
S1833C00089510929205109291050E94F52480E090E008959C018091910590919205029799F4C9010497049778F02031310560F481E090E09093920580939105822F0E945E2580E090E008958FEF9FEF0895CF93DF93EC018091910590919205892B39F5209729F18D819E81892B09F128812230F0F48B819C818F739070892BC1F4213013
S1833C8021F489819A81039790F082E090E09093920580939105CE010E94AB2589859A85909303068093020680E090E002C08FEF9FEFDF91CF9108958091A100882371F488E893E19093A9008093A8008AE08093A1008091720082608093720008951092A1000895CF92DF92EF92FF920F931F936C0160917B0570917C0580917D05909179
S1833D007E05E090A400F090A50028EE33E040E050E00E944426EE0CFF1CEE0CFF1C00271127E60EF71E081F191FF601E082F1820283138314821582168217821F910F91FF90EF90DF90CF9008951F920F920FB60F9211242F933F938F939F93AF93BF9380917B0590917C05A0917D05B0917E050A96A11DB11D80937B0590937C05A09356
S1833D807D05B0937E05809185058068809385052FB7F894332780916A0590916B05826090936B0580936A052FBFBF91AF919F918F913F912F910F900FBE0F901F90189589E0E0E0F0E080935700849181FF11C08FB7F89499275F9350E85093610051E0509361005F918FBF80E28093B6000E9433260895CF93DF93EB01A82FBB2783E0A3
S1833E00AA0FBB1F8A95E1F7AD014F535F4FFA011082AC53BF4F8B819C8111969C938E93A45CB04089819A81FD01E054FF4F9D012E533F4F892B29F482E08083F901108204C010828B85F9018083FD01EE53FF4F80819981892B80839D81982B90838F81892B80839985892B8083AA53BF4F8C91FA018081886180688083DF91CF91089541
S1833E801F920F920FB60F9211242F933F938F939F93EF93FF93E1ECF0E080818F7D8083809184058160809384052FB7F894332780916A0590916B05826090936B0580936A052FBFFF91EF919F918F913F912F910F900FBE0F901F9018951F920F920FB60F9211242F933F938F939F93EF93FF93E1ECF0E080818F7B8083809184058260E8
S1833F00809384052FB7F894332780916A0590916B05826090936B0580936A052FBFFF91EF919F918F913F912F910F900FBE0F901F9018951F920F920FB60F9211242F933F938F939F93EF93FF93E9ECF0E080818F7D8083809185058860809385052FB7F894332780916A0590916B05826090936B0580936A052FBFFF91EF919F918F91A8
S1833F803F912F910F900FBE0F901F9018951F920F920FB60F9211242F933F938F939F93EF93FF93E9ECF0E080818F7B8083809185058061809385052FB7F894332780916A0590916B05826090936B0580936A052FBFFF91EF919F918F913F912F910F900FBE0F901F9018951F920F920FB60F9211242F933F934F935F936F937F938F936D
S18340009F93AF93BF93EF93FF930E949F22882309F03EC00E941C2320917B0530917C0540917D0550917E05689414F8660F771F881F991F1694D1F7260F371F481F591F20937B0530937C0540937D0550937E05809185058068809385052FB7F894332780916A0590916B05826090936B0580936A052FBF0E945C1E8091B100887F8093F8
S1834080B100809170008D7F809370000E943C1D0E94D42480918B058111EC98FF91EF91BF91AF919F918F917F916F915F914F913F912F910F900FBE0F901F9018951F920F920FB60F9211242F933F934F935F936F937F938F939F93AF93BF93EF93FF938091C8006091CE008C71A9F481E00E940018809185058460809385052FB7F894A8
S1834100332780916A0590916B05826090936B0580936A052FBFFF91EF91BF91AF919F918F917F916F915F914F913F912F910F900FBE0F901F9018951F920F920FB60F9211242F933F934F935F936F937F938F939F93AF93BF93EF93FF938091C0006091C6008C71A1F40E940018809183058068809383052FB7F894332780916A05909162
S18341806B05826090936B0580936A052FBFFF91EF91BF91AF919F918F917F916F915F914F913F912F910F900FBE0F901F9018954DB121E030E0082E02C0220F331F0A94E2F7522F509545234DB94EB1422B4EB9EAE6F0E040818450880F992723E030E0082E02C0220F331F0A94E2F7209542234083208177276370707002C0660F771F2A
S18342008A95E2F7262B20838CB385238CBB08959DB121E030E0082E02C0220F331F0A94E2F7209592239DB99EB192239EB9EAE6F0E090818450880F23E030E002C0220F331F8A95E2F720959223908308951F920F920FB60F9211242F933F934F935F936F937F938F939F93AF93BF93EF93FF930E949F228823E9F50E941C2320917B052E
S183428030917C0540917D0550917E05E5E0660F771F881F991FEA95D1F7260F371F481F591F20937B0530937C0540937D0550937E05809185058068809385052FB7F894332780916A0590916B05826090936B0580936A052FBF0E945C1E8091B100887F8093B100809170008D7F809370000E943C1D0E94D424E0919505F0919605309791
S183430009F00995FF91EF91BF91AF919F918F917F916F915F914F913F912F910F900FBE0F901F9018951F920F920FB60F9211242F933F934F935F936F937F938F939F93AF93BF93EF93FF930E949F228823E9F50E941C2320917B0530917C0540917D0550917E05F5E0660F771F881F991FFA95D1F7260F371F481F591F20937B05309389
S18343807C0540937D0550937E05809185058068809385052FB7F894332780916A0590916B05826090936B0580936A052FBF0E945C1E8091B100887F8093B100809170008D7F809370000E943C1D0E94D424E0919305F0919405309709F00995FF91EF91BF91AF919F918F917F916F915F914F913F912F910F900FBE0F901F901895FC0108
S18344001092BC001092B90080818093B80008951F920F920FB60F9211242F933F934F935F936F937F938F939F93AF93BF93EF93FF938091B9009927887F907088329105A9F1893291058CF48031910541F1813191052CF40097E9F0089771F520C08831910521F1809741F51DC088349105D1F0893491053CF480339105A1F080349105EA
S1834480D9F414C08035910599F088359105A1F40FC080E98093BC000E94C51A0DC00E943A1B0AC080E00E94671B06C081E0FBCF8091BB000E94DB1AFF91EF91BF91AF919F918F917F916F915F914F913F912F910F900FBE0F901F901895282FF999FECF72BD61BD40BD8FB7F89499272FBBF99A8FBF08951F920F920FB60F9211242F93FD
S18345003F938F939F93FB98809184058061809384052FB7F894332780916A0590916B05826090936B0580936A052FBF9F918F913F912F910F900FBE0F901F9018958091B10020E030E0992787709070892B11F421E030E0C90108958091B60080628093B600109270001092B1001092B0001092B2001092B30083B5826083BD8091B600B1
S18345808B71E1F708958091B6008B71E1F78091B100992787709070892B61F48091B60080628093B6001092B0008091B10087608093B1000895EF92FF920F931F939B01AC01609398057093990580939A0590939B0510929C0510929D0510929E0510929F05E32EF42E052F1127E092A005F092A1050093A2051093A3051092B20080912C
S1834600B6008B71E1F7E114F1040105110519F42093B30002C01092B300B99A8091B10087608093B1008091B6008B71E1F71F910F91FF90EF9008958091B6008B71E1F72091B20060919C0570919D0580919E0590919F05620F711D811D911D089560E270E080E090E008951F93182F0E946F1E109397051F9108951F920F920FB60F92C7
S183468011242F933F934F935F936F937F938F939F93AF93BF93EF93FF931092B2008091A0059091A105A091A205B091A3050097A105B10509F449C020919C0530919D0540919E0550919F0520503F4F4F4F5F4F20939C0530939D0540939E0550939F050197A109B1098093A0059093A105A093A205B093A3050097A105B105F1F48091A5
S18347009805821B90919705882331F08093B300913009F090C016C08091B100887F8093B100913009F070C0109297050E94D4248091B6008B71E1F72AC080919705813009F079C00E942C2476C08091B100887F8093B1008091980590919905A0919A05B0919B0580939C0590939D05A0939E05B0939F0580919705813009F045C0109261
S183478097050E94D4248091B6008B71E1F76091B20020917B0530917C0540917D0550917E0580919C0590919D05A0919E05B0919F05860F911DA11DB11D65E0880F991FAA1FBB1F6A95D1F7280F391F4A1F5B1F20937B0530937C0540937D0550937E05809185058068809385052FB7F894332780916A0590916B05826090936B058093F3
S18348006A052FBF0E945C1E809170008D7F80937000809182058860809382052FB7F894332780916A0590916B05826090936B0580936A052FBFFF91EF91BF91AF919F918F917F916F915F914F913F912F910F900FBE0F901F90189589E0E0E0F0E080935700849181FD31C00E949F22813019F48FEF9FEF089524982C988091B6008B7114
S1834880E1F78091B000806C8093B0008091B6008B71E1F78091B10080688093B1008091B6008B71E1F78091B0008F738093B0008091B6008B71E1F78091B00080688093B0008091B6008B71E1F781E090E09093A5058093A4058FEF88B98091B6008B71E1F7809186058068809386052FB7F894332780916A0590916B05826090936B0578
S183490080936A052FBF80E090E008958091A4059091A505019709F046C081E00E94342380918B058111EC9AF999FECF89E0E0E0F0E080935700849181FF1EC02C9A249A0E949F22882329F487E083BF889513BE08958091B6008F7D8093B60085E083BF889513BE8091B60080628093B6000E9433260E945C1E0895909172002091BC00B8
S183498030917A00109272001092BC0010927A00249A87E083BF889513BE909372002093BC0030937A0008958091A4059091A5050197D1F41092A5051092A40589E0E0E0F0E080935700849181FF02C02C980BC024982C988091B0008F738093B0008091B6008B71E1F7249A089510927C0010927A0010927E0008951F920F920FB60F924A
S1834A0011242F933F938F939F93AF93BF93EF93FF938091A605A091A705B091A805882351F48091A9059091AA05A80FB91F209179002C930FC08091A9059091AA05FC01EE0FFF1FEA0FFB1F20917800309179003183208301969093AA058093A9052091A9053091AA058091AB059091AC0528173907B9F480917A00877F80937A008091C5
S1834A8084058860809384052FB7F894332780916A0590916B05826090936B0580936A052FBFFF91EF91BF91AF919F918F913F912F910F900FBE0F901F901895282F1092AA051092A905843048F481E090E0022E02C0880F991F0A94E2F717C0883011F08A3011F481E011C0893011F08B3011F483E00BC08C3011F08E3011F484E005C0B9
S1834B008D3011F08F3019F48CE080937E0080917C0090917C00907E90937C0090917C00922B90937C008F71821729F0243018F08DE70E94BA018091AB059091AC05029720F080917A00886603C080917A00886480937A000895CF93DF93CDB7DEB721970FB6F894DEBF0FBECDBFFC01878190859093AC058093AB0580818093A605858180
S1834B8096819093A8058093A705838180937C008091A605882329F480917C00806280937C0061817281635B7D4F41E050E0CE0101960E94BE018981806880937A0021960FB6F894DEBF0FBECDBFDF91CF91089540E85F935091B60050685093B60051E05093B1005F9180E090E02FB7F89433275F9350E05093B2005091B6005B71E1F750
S1834C0001965091B2005456DAF35F912FBF9C0186E0203D380728F080916600815080936600000086E02F3C380728F4809166008F5F8093660000002F5C364019F0415009F0C7CF1092B10087B3876087BB089589E0E0E0F0E080935700849181FF02C00E94E8250895CF93DF93C0E0D0E088EC0E94BA01219683E1C838D807C1F70E9463
S1834C802826DF91CF910895629FD001739FF001829FE00DF11D649FE00DF11D929FF00D839FF00D749FF00D659FF00D9927729FB00DE11DF91F639FB00DE11DF91FBD01CF0111240895A1E21A2EAA1BBB1BFD010DC0AA1FBB1FEE1FFF1FA217B307E407F50720F0A21BB30BE40BF50B661F771F881F991F1A9469F7609570958095909540
S1454D009B01AC01BD01CF01089597FB092E05260ED057FD04D0D7DF0AD0001C38F450954095309521953F4F4F4F5F4F0895F6F790958095709561957F4F8F4F9F4F0895FFCF54
S1834D4246433D252D31326C75004645433D252D31326C75004245433D252D31326C75004C51493D252D386400525353493D2D2530326464426D282530326429000D0A000001020304050607000102000102030405060700010203040506070200000C0006000000000000000000000000000000000000005C050001160000000000003231
S1514DC20000000000460500010102010202030102020302030304CE0BBB0B1B088C05CB06000000000000FA0000000000350B16FF170ACC14000000000000000000000000B30E1A0A030000000000010000D7
S9030000FC
