:100000000C943E000C9450000C9450000C94F80397
:100010000C9450000C9450000C9450000C948403E9
:100020000C9450000C9450000C9450000C94500010
:100030000C9450000C9450000C9450000C94500000
:100040000C9450000C9450000C94D4050C946D0545
:100050000C9450000C9450000C9450000C945000E0
:100060000C9450000C9450000C9450000C945000D0
:100070000C9450000C9450000C94500011241FBE9E
:10008000CFEFD8E0DEBFCDBF12E0A0E0B1E001C00D
:100090001D92A133B107E1F70E942F030C940206D1
:1000A0000C94000080E00895823071F0833028F4D1
:1000B000882331F0813061F405C0833049F406C0F3
:1000C0005D9808954098089541980895429808953C
:1000D000439808951F93182F0E945400123039F04E
:1000E000133028F4112319F48EE292E002C082E565
:1000F00090E09093150180931401E0911401F09128
:1001000015018FE80995E0911401F09115018FEF29
:100110000995982F123071F0133028F4112331F023
:10012000113061F405C0133049F406C05D9A07C070
:10013000409A05C0419A03C0429A01C0439A80E0A8
:100140009A3309F481E01F9108951F93182F0E949C
:100150005400123039F0133028F4112319F48EE2D0
:1001600092E002C082E590E0909315018093140123
:10017000E0911401F091150180E20995E0911401DC
:10018000F091150180E00995123071F0133028F4D8
:10019000112331F0113061F405C0133049F406C069
:1001A0005D9A07C0409A05C0419A03C0429A01C0B7
:1001B000439A80E01F9108950F931F93082F0E9488
:1001C0005400023039F0033028F4002319F48EE291
:1001D00092E002C082E590E09093150180931401B3
:1001E000E0911401F091150180E60995E091140168
:1001F000F091150187EC0995E0911401F09115013A
:1002000084E50995023081F0033028F4002341F0A1
:10021000013081F407C0033049F0043059F408C0BC
:100220005D9A0BC0409A0EC0419A0CC0429A0AC017
:10023000439A08C0439A002329F480917300806494
:1002400080937300802F0E945400E0911401F0917C
:10025000150188EE099510E0E0911401F091150167
:1002600080E009951F5F1630B9F7023071F0033056
:1002700028F4002331F0013061F405C0033049F463
:1002800006C05D9A07C0409A05C0419A03C0429AD1
:1002900001C0439A80E01F910F9108951F93182F7A
:1002A000882329F4809173008F7B80937300812FC2
:1002B0000E945400123039F0133028F4112319F43D
:1002C0008EE292E002C082E590E090931501809367
:1002D0001401E0911401F091150180E60995E09177
:1002E0001401F091150180E00995123071F013307E
:1002F00028F4112331F0113061F405C0133049F4B2
:1003000006C05D9A07C0409A05C0419A03C0429A50
:1003100001C0439A80E01F910895EF92FF921F93CE
:10032000CF93DF93182FF62EE72E0E945400123041
:1003300039F0133028F4112319F48EE292E002C050
:1003400082E590E09093150180931401E0911401EF
:10035000F091150188EE09958F2D9E2DEC0186E018
:10036000E82EF12CEC0EFD1EE0911401F091150128
:1003700080E009958993CE15DF05B1F7123071F051
:10038000133028F4112331F0113061F405C013301B
:1003900049F406C05D9A07C0409A05C0419A03C05F
:1003A000429A01C0439ADF91CF911F91FF90EF9045
:1003B00008950E941902559A5D9A389A409A399A7E
:1003C000419A3A9A429A3B9A439A56985E9A3C9836
:1003D000449A3D98459A3E98469A3F98479AE8E64F
:1003E000F0E08081886080830895089580E008951A
:1003F0005098589A519A59981092C5008CE0809361
:10040000C40088E18093C10086E08093C200089513
:10041000FC0108C08091C00085FFFCCF81918093D2
:10042000C60061506623B1F78091C00085FFFCCF04
:100430000895ECECF0E01182108252985A9A539A87
:100440005B98549A5C9A83EC8093CA0088E180930D
:10045000C90087E090E0918380830895982F809170
:10046000C80085FFFCCF9093CE008091C80087FF25
:10047000FCCF8091CE0008950895FC01A281B38144
:1004800087E08C93A081B18187E58C93A081B181B5
:1004900089E611968C93A081B1818CE612968C939B
:1004A000A081B1818DE613968C93A081B18181E604
:1004B00014968C93A081B1818DE015968C93A081C8
:1004C000B1818AE016968C9380E884830895CF9357
:1004D000DF93EC012091CB013091CC014091CD0113
:1004E0005091CE018091CF019091D001A091D10186
:1004F000B091D201281739074A075B0719F060E06D
:1005000070E04AC0EA81FB8110821C827AC0AB0194
:1005100020E030E0A881B981A40FB51F8091D501FA
:100520009091D601FC01EE0FFF1FE80FF91FEE0FAF
:10053000FF1FE20FF31FE95EFE4F80818C932F5F58
:100540003F4F4F5F5F4F2630310521F76A5F7F4F86
:100550002091D5013091D6012F5F3F4F3093D601C6
:100560002093D5018091CB019091CC01A091CD0138
:10057000B091CE010196A11DB11D8093CB01909346
:10058000CC01A093CD01B093CE012E31310520F0E6
:100590001092D6011092D5012091CB013091CC015F
:1005A0004091CD015091CE018091CF019091D00129
:1005B000A091D101B091D201281739074A075B07F2
:1005C00020F46432710509F0A2CFEA81FB81862F05
:1005D0008F5F808380E88C832091CF013091D001A0
:1005E0004091D1015091D2018091CB019091CC01E9
:1005F000A091CD01B091CE01281739074A075B07BA
:1006000011F40E94BA05DF91CF910895129A119AC0
:1006100080E00E944E011092D6011092D5011092F6
:10062000D4011092D3011092CB011092CC01109200
:10063000CD011092CE011092CF011092D0011092F4
:10064000D1011092D2010E94F3050E94BA050895CB
:10065000119A0E94FF0580E00E94DC000895099A2B
:1006600011980A9A129A1092CF011092D00110920A
:10067000D1011092D2011092CB011092CC011092B4
:10068000CD011092CE011092D4011092D30110929C
:10069000D6011092D5010E94D90180E00E94A500E8
:1006A0008CE392E0909302018093010188E293E051
:1006B000909304018093030186E093E090930601F8
:1006C0008093050187E692E09093080180930701EB
:1006D0008DE392E090930A018093090181E091E01B
:1006E0000E940A0480E00E946A0080E00E946A0082
:1006F000789483B7817F83BF83B7816083BF8895F8
:1007000083B78E7F83BFF5CF1F920F920FB60F92E4
:1007100011242F933F934F935F936F937F938F9306
:100720009F93AF93BF93EF93FF938091D3019091E9
:10073000D401BC01660F771F680F791F660F771F02
:10074000695E7E4F80E00E948D018091D30190917F
:10075000D40101969093D4018093D3012091CF01CD
:100760003091D0014091D1015091D2012F5F3F4F84
:100770004F4F5F4F2093CF013093D0014093D10171
:100780005093D2014E9720F01092D4011092D301D1
:10079000809116018F5F80931601893210F01092BC
:1007A000160180911601863010F4129801C0129A39
:1007B0008091CB019091CC01A091CD01B091CE015F
:1007C000281739074A075B0711F00E94B805FF9107
:1007D000EF91BF91AF919F918F917F916F915F91B9
:1007E0004F913F912F910F900FBE0F901F90189532
:1007F0001F920F920FB60F9211248F9310920C013B
:10080000EA9881E080930B018F910F900FBE0F90BB
:100810001F9018952498269A279825980E9A169A2C
:100820002AEE2CBD9093120180931101E9E6F0E0CD
:1008300080818062808387E080930C01EA9A109225
:100840000B010895282F6E3691F16F3640F469360A
:1008500091F16D3669F0633609F087C011C06337D6
:10086000C9F0683709F47DC0623709F07EC049C01D
:10087000E0911101F09112010190F081E02D07C08B
:10088000E0911101F09112010280F381E02D822F9D
:1008900009956BC0169886E080930C01E0911101D8
:1008A000F09112010480F581E02D0995089581E011
:1008B0008EBD82E057C089E08093D70180E48093A9
:1008C000D8018093D90180E38093DA018093DB0122
:1008D00082E38093DC0187E38093DD018093DE0176
:1008E0008093DF018093E001E0910F01F0E0E95295
:1008F000FE4F80818EBD80910F0190E00A9754F1E8
:1009000026C0E0911101F09112010680F781E02DDF
:1009100087E292E0622F099580912B02807C2091E2
:10092000D7012F73822B8093D70110920F01E09192
:100930000F01F0E0E952FE4F20812EBD20910F0102
:1009400090E08F77907030E0821793071CF410923C
:100950000F010BC080910F018F5F80930F0183E027
:1009600001C084E080930C01089587E080930C011E
:10097000EA9A10920B010895982F40910C01433090
:10098000E1F1443030F44130A9F0423008F09EC02B
:100990000AC0453009F455C0453008F449C0473015
:1009A00009F094C00895823008F090C080930D0142
:1009B00081E089C080930E0187ED91E090932A0237
:1009C0008093290201969093280280932702109227
:1009D0002B028FEF91E090932F0280932E020196CD
:1009E00090932D0280932C021092300280910D0181
:1009F00060910E010E9422040895E0910F01F0E041
:100A0000E952FE4F80818EBD20910F018091D70168
:100A100090E08F77907030E0821793070CF44AC013
:100A200080910F018F5F80930F0140930C01089517
:100A30008093FF0181E0809310019923A1F085E06C
:100A400042C0E0911001F0E0E150FE4F80839091B0
:100A500010018091FF01981730F4809110018F5F91
:100A6000809310010895E0911101F091120100842A
:100A7000F185E02D87E292E06CE272E009958091C9
:100A80002B02807C2091D7012F73822B8093D7017A
:100A900010920F01E0910F01F0E0E952FE4F20812A
:100AA0002EBD20910F0190E08F77907030E082177B
:100AB00093071CF410920F0109C080910F018F5F02
:100AC00080930F0183E080930C01089587E0809369
:100AD0000C01EA9A10920B0108951F920F920FB623
:100AE0000F9211242F933F934F935F936F937F93B4
:100AF0008F939F93AF93BF93EF93FF938EB50E9415
:100B0000BC04FF91EF91BF91AF919F918F917F9125
:100B10006F915F914F913F912F910F900FBE0F906A
:100B20001F901895E0910F01F0E0E952FE4F80818F
:100B30008EBD20910F018091D70190E08F7790704A
:100B400030E0821793074CF410920F0187E08093F6
:100B50000C01EA9A10920B01089580910F018F5FAA
:100B600080930F0183E080930C0108958EBD08955A
:100B700016980895169A80910C01863031F487E01A
:100B800080930C01EA9A10920B01089590E08091F5
:100B90000C01873009F491E0892F08958EBD0DB4C2
:100BA00007FEFDCF8EB508951F920F920FB60F92DC
:100BB00011248F93809113018A3919F41092130133
:100BC00005C0809113018F5F809313018091130101
:100BD000823310F4119801C0119A8F910F900FBEBB
:100BE0000F901F90189585B5856085BD16BCEEE603
:100BF000F0E0808181608083109213010895129A41
:080C000015BC0895F894FFCF24
:00000001FF
