:020000021000EC
:10F8000011241FBECFEFD1E2DEBFCDBF12E0A0E0DA
:10F81000B2E0ECEDFEEF01E00BBF02C007900D92ED
:10F82000AC30B107D9F712E0ACE0B2E001C01D92F4
:10F83000A839B107E1F710921002809110028823D5
:10F8400021F40E94B9FE0E9406FD809110028130D1
:10F85000A1F70E945BFDF1CF3BB740E10C9441FC66
:10F860003BB70B0144270C9441FC3BB78BBFCB014A
:10F8700042E00C9441FC3BB78BBFCB0144E00C94BD
:10F8800041FCFC01416040935700E89511243BBFC7
:10F890000895CF93DF93C0E0D0E050E05093B200E2
:10F8A0005091B6005B71E1F721965091B200545629
:10F8B000DAF3CE01DF91CF910895869586958A95EA
:10F8C0008823E9F70895CF92DF92EF92FF920F938A
:10F8D0001F93DF93CF9300D0CDB7DEB701E112E0E5
:10F8E000C80161E00E9494FE809111028335B1F756
:10F8F00010921102F8018183C80161E00E9494FE18
:10F900008091110290911202F3E583339F0749F130
:10F9100023E58433920748F4E3E580339E0708F437
:10F9200068C082539345D0F016C023E58733920711
:10F93000C1F0E3E588339E0728F48553934509F029
:10F9400058C00CC023E58833920729F089539345AA
:10F9500009F04FC003C023E0D22E05C092E0D92E9B
:10F9600002C084E0D82ECE01019661E00E9494FE90
:10F97000C9802C2D30E08D2D90E08F579F4F82173E
:10F980009307BCF18C2D81508D1980939702FD2C2B
:10F99000EE24FA940F2D10E00D5E1D4FC80161E0BA
:10F9A0000E9494FEF8018081E80EFF2091F7FE2C62
:10F9B000FC0C89818D19898307E112E008C0C80118
:10F9C00061E00E9494FEF80181918F01F80E898117
:10F9D00081508983882399F7CE01029661E00E94C5
:10F9E00094FE90E08A81F80EFFEFFF1619F491E083
:10F9F00001C090E0892F0F900F90CF91DF911F9160
:10FA00000F91FF90EF90DF90CF900895EF92FF92CB
:10FA10000F931F93DF93CF9300D000D0CDB7DEB705
:10FA200019821A821B821C820FEF1FE344E0E42E2E
:10FA3000F12CEC0EFD1EC70160E00E9494FE8823AD
:10FA400039F189819A81AB81BC81823B25EA920799
:10FA500025E6A2072BE4B20799F489E693EDA2ED1F
:10FA6000B6E289839A83AB83BC8384E090E0BE01D5
:10FA70006F5F7F4F0E94A2FE81E08093100210C052
:10FA8000892F9A2FAB2FBB2789839A83AB83BC83A3
:10FA90000150104081F60E948BFE1CBEF8010995B2
:10FAA0000F900F900F900F90CF91DF911F910F91BA
:10FAB000FF90EF9008950E9463FC882309F460C0D2
:10FAC000809111029091120223E58033920709F48C
:10FAD00052C023E58533920709F44DC087539345FF
:10FAE000039790F40E9425FE0E9402FE84E090E0BD
:10FAF00060E072E00E94A2FE0E948BFE1CBEE091BC
:10FB00001302F0911402099520911302309114020E
:10FB100040911502509116028091080290910902BD
:10FB2000A0910A02B0910B0282179307A407B507B0
:10FB300011F1209308023093090240930A02509376
:10FB40000B022050304F4140504010F40E943EFEC6
:10FB50008091130290911402A0911502B0911602A7
:10FB600080509040A148B04080509041A040B040AB
:10FB700010F40E94C7FD84E090E060E072E004C0F1
:10FB800084E090E064E072E00E94A2FE94CFEF92E5
:10FB9000FF920F931F932091130230911402409112
:10FBA00015025091160240705070609197027901D1
:10FBB0008A01962FE7E1F2E074E00FC08081F2BC89
:10FBC000E1BC80BD7FBBF99AF999FECF31960894CC
:10FBD000E11CF11C011D111D9150992379F7260F8D
:10FBE000311D411D511D2093130230931402409387
:10FBF000150250931602109297021F910F91FF90D9
:10FC0000EF9008950895EF92FF920F931F93A0E055
:10FC1000B0E0EE24F82E092F1A2FC801B7010E9478
:10FC200035FC07B600FCFDCFC801B7010E943BFCC4
:10FC300007B600FCFDCF0E942CFC07B600FCFDCFF0
:10FC40001F910F91FF90EF90089580910C02909179
:10FC50000D020E9403FE089580FF0DC060930F0205
:10FC600060910E0270910F0201970E9430FC07B65E
:10FC700000FCFDCF089560930E020895EF92FF926D
:10FC80000F931F93CF93DF93C7E1D2E039C08091E8
:10FC9000130290911402A0911502B0911602E92E60
:10FCA000FA2E0B2F112780910C0290910D028E15C8
:10FCB0009F0531F00E9403FEF0920D02E0920C02CB
:10FCC0006991809113029091140290700E942CFE11
:10FCD0008091130290911402A0911502B091160226
:10FCE0000196A11DB11D8093130290931402A0935D
:10FCF0001502B0931602809197028150809397026B
:10FD000080919702882319F6DF91CF911F910F916F
:10FD1000FF90EF9008951092CC001092C8001092BE
:10FD2000CA001092C9000895FC018091C80087FFA5
:10FD300005C08091CE00808381E008956130A9F3F1
:10FD400080E008959C01FB01A8950FC080818093FD
:10FD5000CE008091C80086FFFCCF31968091C8000C
:10FD600080648093C800215030402115310571F71F
:10FD700008956F927F928F929F92AF92BF92CF928F
:10FD8000DF92EF92FF920F931F93CF93DF93A8958B
:10FD90008091600088618093600089E280936000B8
:10FDA0008091B60080628093B60081E08093B100BC
:10FDB000C0E0D0E088EC0E945DFC219683E1C83869
:10FDC000D807C1F789E0E0E0F0E080935700849124
:10FDD0008F70823009F068C000E810E0C1E9D1E01E
:10FDE00091E9C92E91E0D92EE12CF12C81E9A82EC0
:10FDF00081E0B82E0E9449FCBC0181E0623978079D
:10FE000018F19E0140E050E0CB01A0E0B0E0815944
:10FE10009140A040B040281739074A075B074CF4CF
:10FE2000123039F4809166008150809366000000A2
:10FE300036C0809166008150809366000000EB011F
:10FE4000C159D14011E028C081E06139780739F10A
:10FE5000CE01A0E0B0E09B0140E050E03601470158
:10FE6000621A730A840A950A86159705A805B905CA
:10FE70004CF4113039F4809166008F5F80936600F6
:10FE800000000DC0809166008F5F809366000000C7
:10FE9000E501C61BD70B12E0015009F0ABCF109261
:10FEA000B10087B3876087BB82E08093CC008093EA
:10FEB000C80086E08093CA0088E18093C900DF9182
:10FEC000CF911F910F91FF90EF90DF90CF90BF9057
:0CFED000AF909F908F907F906F900895EE
:0CFEDC004D5A9AB42D595AB2FFFFFFFF97
:040000031000F800F1
:00000001FF
