S0130000636F6F72645F77696C6D612E7372656381
S2840000000C9477020C94BD020C94BD020C94BD020C94BD020C9427BA0C9416AD0C94D4BB0C94A5BB0C94BD020C94BD020C94BD020C94BD020C94A8BD0C94BD020C94F2BD0C94BD020C94BD020C94BD020C94BD020C94BD020C94BD020C94BD020C94BD020C94BD020C94E8BA0C9448BB0C941ABB0C94BD020C948FBE0C947DBC0C94BD026F
S2840000800C94BD020C94BD020C94BD020C94BD020C945ABA0C94BABA0C948CBA0C9403BC0C94BD020C94BD020C946EB90C943EAD0C94BD020C94BD020C94BD020C94BD020C94BD020C94BD020C94BD02C728D428F8280A2911291E292A2935293D2951297D3EAC3E1241D63E45405B401241AA3FFC3F28402B403A40704012411241E4400F
S2840001004C4D794D794D794D514D664D5B4D604D7E4D564D6B4D6B4D704D794DB54DB84DBB4DBB4DBE4DCA4DC44DC74DDA4DC14DCD4DD04DD34DD64DE94EED4E0F4FF14EF54E0F4FF94E0F4F004F044F0C4FBB549955AC552D5438563856A755AC55AF550956DC5538563856095692540E56F874EC748D743B753B75D474E1743B753B750E
S2840001803B7500750F75AD74B9743B758A74958AF58A2C8B158B098B2C8B398B898B898B898B898B898B898B898B898B898B158B2C8B898B898A1E8B038BC98BCE8B638CB18CC78CB18DE38D958E958E958E958E958E958E958E958E958E898D728D958EB88B908D4F8CA59639961497149714973E964396BB9614974696499661966696FE
S284000200149769966C966F96149774967796BB967C969A96AE9614979D96A0963C96A396A396BB96BB96BB96BB96BB96BB96BB96BB96BB96BB96BB96BB96BB96BB96BB96BB96BB968196BB9614971497149714971497149714971497149714971497149714971497BB96B196B4964C984C974E984E984E98509757974E984E985E976297CA
S2840002807B9782974E9886978D9796974E989D97A1974E98A897C897D7974E98CC97D3974C984C984C98DF97DF97DF97DF97DF97DF97DF97DF97DF97DF97DF97DF97DF97DF97DF97DF97DF97AF97DF974E984E984E984E984E984E984E984E984E984E984E984E984E984E98DF97DB974C98CF99CD99CD99FC99039A169A1E9A219A249A9E
S284000300279A2A9A399B409B4F9B579B599B5B9B5D9B609B7EA381A384A387A38AA38DA390A393A396A399A39CA39FA3A2A3A5A3A8A3ABA3AEA3B1A3B6A3E3A4DFA471A5E7A488A46FA432A439A440A444A4AAA4B7A456A4EBA44DA471A571A571A571A5F8A4A1A4C0A4DBA405A50DA516A571A571A571A571A571A5D3A4D7A465A52FA518
S28400038036A53AA55AA541A54AA520A552A571A571A527A536A636A6A7A572A632A674A674A634A674A634A674A6B2A5B5A532A6B8A5BBA5D3A58CA591A598A54BA6ECA5F5A5F8A59EA585A501A603A672A672A6A9A59BA506A615A618A61DA623A632A632A634A634A636A638A63BA63EA651A655A658A678A65DA666A62AA66CA672A665
S28400040074A62FA676A6F70B3A4500003A1FBF1F9339392387807C727667B1664B3300003662AB78AD359C617B21C0296B7EBA80C06CC96600000000000069341D348C5F65620000E027F5359B5FB737872A892B5533C9803566C467C876F471FF79D1663E230000000002400305000000010864000C0164000000FFFFFFFFFFFFFFFFE818
S284000480030000362F2B2E2834F47800008C7091733D7C00000000170400100C001514001618001919001F1A00201B00231C00241D00311E00332F002F31003233002134001135001437002D3800123900133B000F3C002E440000FFFF004500111D01093C01F1B216B21AB2EDB21EB222B2112480916F17823141F084B78F7180936F1734
S28400050080FF05C081E001C081E180936F1714BE809160008861809360001092600011241FBECFEFD1E2DEBFCDBF13E0A0E0B2E0E0EEF3E801E00BBF02C007900D92A436B107D9F717E1A4E6B3E001C01D92AF36B107E1F70E948FAC0E940B3A2FB7F8948091F9069091FA0680619093FA068093F9062FBF0E94E03AFDCF0C9400007F9376
S2840005807FB7F8949D9AA5988AEF0E941E038AEF0E941E039D9886E40E941E0381E0959980E08F9380EF0E941E038F917FBF7F9108957F937FB7F8949D9AA59886E00E941E039D988AE00E941E03889495990894881F8F9384E60E941E038F917FBF7F9108959F937F9398E00E94D902879577959A959923C9F7872F7F919F9108957F932D
S2840006007FB7F894A5989D9A8F9386E00E941E038F91879508F49D988F9384E60E941E038F919D987FBF7F9108959F9398E00E94FF029A959923D9F79F91089500000000000000008A958823C9F708955F937F937FB7F894CF93DF93C0E0D0E07F935091B2007091B2007517E1F3739521965091B2005717D9F77F91CE01DF91CF917FBFDD
S2840006807F915F910895EF92FF920F93DF93CF93CDB7DEB760970FB6F894DEBF0FBECDBFA82F002309F461C07E010894E11CF11C88E0F70111928A95E9F729833A834B835C836D837E83AF83988780E2801BE82FFF27E7FDF0954D815E816F817885181684F01D861E861F86188A882799278E1B9F0B04C076956795579547958A95D2F738
S28400070028C0202F332727FD3095DB01CA01022E04C0B695A795979587950A94D2F78D879E87AF87B88B04C0440F551F661F771FEA95D2F789819A81AB81BC8104C0B695A795979587952A95D2F7482B592B6A2B7B2B49875A876B877C8729853A854B855C856D857E85AF8598898A2F60960FB6F894DEBF0FBECDBFCF91DF910F91FF90AB
S284000780EF900895EF92FF920F93DF93CF93CDB7DEB760970FB6F894DEBF0FBECDBFA82F002309F461C07E010894E11CF11C88E0F70111928A95E9F729833A834B835C836D837E83AF83988780E2801BE82FFF27E7FDF09549815A816B817C81181684F019861A861B861C86882799278E1B9F0B04C0440F551F661F771F8A95D2F728C0D5
S284000800202F332727FD3095DB01CA01022E04C0880F991FAA1FBB1F0A94D2F789879A87AB87BC8704C07695679557954795EA95D2F78D819E81AF81B88504C0880F991FAA1FBB1F2A95D2F7482B592B6A2B7B2B4D875E876F87788B29853A854B855C856D857E85AF8598898A2F60960FB6F894DEBF0FBECDBFCF91DF910F91FF90EF90D4
S2840008800895A0E0B0E0E7E4F4E00C94A0C1EC01A880B980CA80DB80A114B104C104D10441F484E2A82E89EDB82E8BE5C82E87E0D82EC601B5012DE133EF41E050E00E94D5C127EA31E440E050E00E9424C17B018C01C601B5012DE133EF41E050E00E94D5C1CA01B9012CEE34EF4FEF5FEF0E9424C16E0D7F1D801F911F97FF04C0615057
S284000900704080409048688379838A839B839B013F77C901CDB7DEB7EAE00C94BCC10E944104089580E693E00E9441040895A0E0B0E08093600390936103A0936203B09363030895FB01DC0102C005900D9241505040D8F70895FB01DC0104C08D910190801921F441505040C8F7881B990B0895FB01DC0102C001900D9241505040D8F75B
S2840009800895DC0101C06D9341505040E0F70895FB01DC0101900D920020E1F70895AEE0B0E0E5EDF4E00C94A6C10D891E8986E08C831A8309838FEF9FE79E838D839E01275E3F4FCE0101966F89788DA9010E94F3042F813885020F131FF80110822E96E4E00C94C2C1ABE0B0E0E9EFF4E00C9498C13C012B015A01FC01178216828381B5
S284000A0081FD03C06FEF7FEFC6C19AE0892E1E010894211C311CF3012381F20123FD859123FF81912F01882309F4B2C1853239F423FD859123FF81912F01853229F490E0B3010E94E606E7CF982FFF24EE249924FFE1FF15D0F09B3269F09C3228F4903259F0933291F40EC09D3249F0903369F441E024C052E0F52A84E0F82A28C098E069
S284000A80F92A25C0E0E1FE2A22C0F7FC29C0892F80538A3070F4F6FE05C0989C902C1124980E15C0E89CE02C1124E80EF0E2FF2A0EC09E3229F4F6FC6BC140E4F42A07C09C3619F450E8F52A02C0983649F4F20123FD959123FF91912F01992309F0B8CF892F8554833018F08052833038F444E050E0A40EB51E5FE359830FC0933631F00F
S284000B00933779F0933509F056C020C0F5018081898342E050E0A40EB51E610101E010E012C0F501C080D180F6FC03C06FEF7FEF02C0692D70E042E050E0A40EB51EC6010E94DB068C015FE7F52214C0F501C080D180F6FC03C06FEF7FEF02C0692D70E042E050E0A40EB51EC6010E94D0068C0150E8F52AF3FE07C01AC080E290E0B30156
S284000B800E94E606EA948E2D90E008171907A8F30EC0F601F7FC8591F7FE81916F0190E0B3010E94E606E110EA94015010400115110579F7EAC0943611F0993669F5F7FE08C0F501208131814281538184E090E00AC0F501808191819C01442737FD4095542F82E090E0A80EB91E9FE6F92257FF09C050954095309521953F4F4F4F5F4F95
S284000C00E0E8FE2ACA01B901A1012AE030E00E941207D82ED21840C0953729F41F2D1F7E2AE030E01DC01F2D197F9F3661F0903720F4983509F0ACC00FC0903739F0983709F0A6C004C028E030E00AC0106114FD146020E130E004C014FD166020E132E017FF08C0F501608171818281938144E050E008C0F50180819181BC0180E090E04B
S284000C8042E050E0A40EB51EA1010E941207D82ED2188FE7F82EF122F6FE0BC05EEFF522D91438F4F4FE07C0F2FC05C08FEEF82202C01D2D01C0192DF4FE0DC0FE01ED0DF11D8081803319F499EEF92208C01F5FF2FE05C003C08F2D867809F01F5F0F2DF3FC14C0F0FE0FC01E1510F09D2C0BC09D2C9E0C911A1E2D06C080E290E0B3017A
S284000D000E94E6061F5F1E15C0F304C01E1510F4E11A01C0EE2404FF0FC080E390E0B3010E94E60602FF1DC001FD03C088E790E00EC088E590E00BC0802F867891F001FF02C08BE201C080E2F7FC8DE290E0B3010E94E60606C080E390E0B3010E94E6069A94D914C0F3DA94F101ED0DF11D808190E0B3010E94E606DD20A9F706C080E2BB
S284000D8090E0B3010E94E606EA94EE20C1F743CEF30166817781CB012B96E2E10C94B4C1FC010590615070400110D8F7809590958E0F9F1F0895FC016150704001900110D8F7809590958E0F9F1F08950F931F93CF93DF938C01EB018B8181FF1BC082FF0DC02E813F818C819D812817390764F4E881F9810193F983E88306C0E885F985D3
S284000E00802F0995892B31F48E819F8101969F838E8302C00FEF1FEFC801DF91CF911F910F910895FA01AA27283051F1203181F1E8946F936E7F6E5F7F4F8F4F9F4FAF4FB1E03ED0B4E03CD0670F781F891F9A1FA11D680F791F8A1F911DA11D6A0F711D811D911DA11D20D009F468943F912AE0269F11243019305D3193DEF6CF010895C9
S284000E80462F4770405D4193B3E00FD0C9F7F6CF462F4F70405D4A3318F0495D31FD4052419302D0A9F7EACFB4E0A6959795879577956795BA95C9F700976105710508959B01AC010A2E06945795479537952795BA95C9F7620F731F841F951FA01D089508950895CF93DF93DC018BE780937C0330E02FC05D96ED91FC915E97EC0FFD1F3A
S284000F00E081E295EF708E2F90E00A971CF08E2F895C02C08E2F805DFE01EE0FFF1FE458FC4F81835D96ED91FC915E97EC0FFD1F2081822F90E08F7090702F700A9714F0295C01C0205DCC0FDD1FC258DC4F28833F5F5C968C915C97C32FD0E0381750F2CC0FDD1FDE01A458BC4F8DE711968C931197FE01E258FC4F8DE080838AE01396A6
S284000F808C93C058DC4F18828CE793E00E94090B2FB7F8948091F9069091FA0692609093FA068093F9062FBFDF91CF910895CF93DF93DC018CE38093E10330E02FC05D96ED91FC915E97EC0FFD1FE081E295EF708E2F90E00A971CF08E2F895C02C08E2F805DFE01EE0FFF1FEF51FC4F81835D96ED91FC915E97EC0FFD1F2081822F90E08B
S2840010008F7090702F700A9714F0295C01C0205DCC0FDD1FCD51DC4F28833F5F5C968C915C97C32FD0E0381750F2CC0FDD1FDE01AF51BC4F8EE311968C931197FE01ED51FC4F8DE080838AE013968C93CB51DC4F188281EE93E00E94090B2FB7F8948091F9069091FA0692609093FA068093F9062FBFDF91CF9108950F931F93CF93DF9337
S284001080DC012C91213909F474C0223938F42B3809F46CC0203909F086C006C0223949F0233909F080C041C080E092E00E94090B6DC000D000D000D0EDB7FEB7319605E613E0CDB7DEB71A8309838DE092E09383828311968D919C911297958384830E94CF048DB79EB706960FB6F8949EBF0FBE8DBFC8010E94090B88EE93E0A0E0B0E029
S28400110080935E0490935F04A0936004B09361041092620480E797E0909364048093630488E594E00E9431AE5FC000D000D000D0EDB7FEB7319605E613E0CDB7DEB71A83098381E292E09383828311968D919C911297958384830E94CF048DB79EB706960FB6F8949EBF0FBE8DBF3BC087E392E039C085E693E068E472E00E94C80485E6D4
S28400118093E00E94090B81E0809364032FB7F8948091F9069091FA0692609093FA068093F9062FBF21C000D000D000D0EDB7FEB7319605E613E0ADB7BEB712961C930E93119785E592E093838283248315820E94CF04CDB7DEB726960FB6F894DEBF0FBECDBFC8010E94090BDF91CF911F910F91089580916403882319F0813049F51EC06B
S2840012008EE499E00E94200B83E692E00E94090B0E94120A86E792E00E94090B81E0809364032FB7F8948091F9069091FA0692609093FA068093F9062FBF089589E299E0909357048093560486E494E00E94A83C0895FC018785882381F480E892E00E94090B0E94F10987ED97E062E777E00E94680982E08093640304C080E992E00E94BD
S284001280090B2FB7F8948091F9069091FA0692609093FA068093F9062FBF0895803399F4603319F484EA92E010C08093790360937A0310927B0389E793E062E047E050E00E94D209089584EB92E00E94090B089552E05093790420918D04246020938D04A1E0B0E0B0938804A093870441E040938404E0916C04F0916D0421813281309366
S2840013008604209385044093890410928E0425EB39E03093900420938F049093680480936704509398048091AC0484608093AC04B093A704A093A6045093A304E0917304F0917404818192819093A5048093A4045093A8041092AD043093AF042093AE04709366046093650408952FB7F8948091F9069091FA0692609093FA068093F90695
S2840013802FBF0895E0916704F0916804309709F009950895E0916504F0916604309709F009950895782F6133D8F450939A0440939904AAE2B5E09C01F90102C081918D938E2F871B8617D0F36093A9048AE295E09093AB048093AA0486E994E00E945518089584EC92E090936D0480936C0482EC99E090936F0480936E0489E694E00E9453
S2840014008C0C80ED92E090937404809373048AEC99E0909376048093750480E794E00E948C0C0895A4E0B0E0E8E1FAE00C94A8C180E16EED72E00E9424A485E166EE72E00E9424A481E16BE575E00E9424A489E16DE575E00E9424A484E16CED72E00E9424A48FE16DED72E00E9424A480E89DE8ABE5B0E089839A83AB83BC838EE1BE0196
S2840014806F5F7F4F0E9424A42496E2E00C94C4C140916505242F30E0F901EE0FFF1FE20FF31FEA57FA4F91838083628380916305873059F4463010F020E002C0242F2F5F209365052093640508958F5F80936305463010F020E002C0242F2F5F209365050895A6E0B0E0E7E7FAE00C94A8C130916405832F90E0FC01EE0FFF1FE80FF91F22
S284001500DE011196EA57FA4F23E001900D922150E1F729814A81FC01EE0FFF1FE80FF91FEA57FA4F1182108280916305882319F420E030E00EC0363010F090E002C0932F9F5F90936405815080936305822F942F9C013A832983DE011496FE01319683E001900D928150E1F76C817D818E8190E02696E2E00C94C4C1029799F486E695E037
S28400158060E675E042E050E00E9496B0E0915E05F0915F05309729F0809160056091610509950895A6E0B0E0E8EDFAE00C94A8C180916205882301F5809163058823E1F00E94710A6C837D838E83DE011196FE01349683E001900D928150E1F769817A816115710549F04B8186E695E050E00E94E7AF81E0809362052696E2E00C94C4C14F
S2840016001092620580916305882311F00E94D20A08959C0160E070E0F901E60FF71F8081882341F4662331F0C9010E94480A0E94D20A08956F5F7F4F6C33710569F7089528EC30E03093700520936F051092710529E130E0309373052093720526E020937405109275051092760510927E0510927D051092800510927F052CEB3AE03093C9
S2840016808205209381052BE935E030937A052093790528E230E030937C0520937B0520E03BE030938405209383051092850590935F0580935E0586E695E00E94F5B20895482FA091EA02B091EB0205C08C9111969C919C01D901109739F01396ED91FC9114978081481791F7CD0108958091EA029091EB020895E091C305F091C405208129
S2840017003181CF010296F90109950895009729F48AEE92E00E948C3A08950E94D63A0895CF93DF93EC011A829093C4058093C3050E94F91F833091F484E00E94F21F0E94A0ADC901BA012093CB059093CC054093CD057093CE050E94970E02C083EA8A831092C5051092C6051092C7051092C80580E00E942E208091C5059091C605A0910F
S284001780C705B091C80583608093C5059093C605A093C705B093C805DF91CF91089590E080959095AA2797FDA095BA2F2091C5053091C6054091C7055091C80582239323A423B5238093C5059093C605A093C705B093C8050097A105B10541F480E00E94201B85E00E94F21F0E947B0B08950E94F91F853021F00E94F91F843019F480E0F0
S2840018000E94CF0B0895CF93DF93EC011A820E94F91F823011F0853021F483E00E94F21F02C083EA8A830E94EF0DE881F981CE0102960995DF91CF9108950F931F938C019093CA058093C90581E00E94F21FF80180818093D10588E39CE09093D3058093D2058FEC95E00E94B0291F910F9108951F93CF93DF93EC01E091C905F091CA05A0
S28400188010810E94FC1F882311F00E945E14812F0E94FF1F1092C4051092C3051092C5051092C6051092C7051092C8050E944A200E943B4581E00E94201B812F0E94C01F812F0E94C045E091C905F091CA058081882311F083E001C082E00E94F21FE091C905F091CA058881838321813281CF010396F90109951092CA051092C905DF912C
S284001900CF911F9108950E949F298AEE92E00E94773A0E943B450895CF93DF93EC01EB81FC814081842F8150803FE0F4A091EA02B091EB0205C08C9111969C919C01D901109741F01396ED91FC9114978081481791F708C08A818E7F8A838AEE92E0BE010E947D3ADF91CF9108958091D80581508093D8050895EF92FF920F931F93E82E12
S2840019809091DF054091E4055091E50510E060E070E082C0FA0187814A5D5F4F9B012A5D3F4F882309F076C082E0E816E1F0E81620F084E0E81609F072C09091E3058091E105981708F06BC09F5F9093E3051382148215821682E091E405F091E505E60FF71F128644C09091E2058091E005981708F055C0F090DC05A091DD05B091DE05F4
S284001A0000E020E030E02DC0FD01E20FF31FA9014D5D5F4F808180FD22C09F5F9093E205808181608083E091DD05F091DE05E20FF31F110F110F80818370812B8083E091E405F091E505E60FF71F8091DD059091DE05820F931F4796938B828B04C00F5F9A010F1588F28091DC058017C1F0E091E405F091E505E60FF71F118681E087830E
S284001A80E086118210822091E4053091E505260F371F07C01F5FB901191708F47BCF20E030E0C9011F910F91FF90EF900895CF93DF932091E4053091E5058217930708F45DC0821B930B66E270E00E944FC18091DF05681708F052C086E2689FE0011124F901EC0FFD1F11868085823061F0823010F08430E1F58091E3058823C1F181503C
S284001B008093E30534C08091E205882319F081508093E2052091DD053091DE0582899389821B930B63E270E00E944FC18091E0056817A8F483E2689FB0011124F901E60FF71F808180FF0BC08E7F8083E091DD05F091DE05E60FF71F80818D7F8083E091E405F091E505EC0FFD1F138A128AE091E405F091E505EC0FFD1F1782DF91CF912B
S284001B800895FC01138A8091DB0581508093DB0521893289CF014396F90109950895FC01DA010097D9F0628F4115510551F08D919D910D90BC91A02D838F948FA58FB68F04C0138E148E158E168E208D318D2115310521F0CF014A96F90109950895A5E0B0E0E5EFFDE00C94A4C180E3BE016F5F7F4F0E9474A58E010E5F1F4F88E1B801FF
S284001C000E9474A52A813B814C815D81898190E0A0E0B0E082179307A407B50760F0220F331F441F551F2A833B834C835D8388E1B8010E9424A4898190E00796AA2797FDA095BA2F7C018D0124E0EE0CFF1C001F111F2A95D1F7E81AF90A0A0B1B0B8A819B81AC81BD81E80EF91E0A1F1B1FE0920306F092040600930506109306067091F3
S284001C80020660E020E030E040E050E00FC0D801C701062E04C0880F991FAA1FBB1F0A94D2F7280F391F4A1F5B1F6F5F671778F3CA01B90124EF31E040E050E00E9476C12E5F2093070686EE95E060E024EF31E040E050E00DE71EE00E949E2084EF95E060E02AE030E040E050E00BEB1FE00E949E202596E6E00C94C0C130910806E09176
S284001D00D505F091D60590E021E008C08381882319F08150838320E09F5F35969317B0F3222321F086EE95E00E949520089584EF95E00E94952086EE95E00E94952083E00E942E2008952091D8052F5F2093D8050E9472230895A1E0B0E0E1EBFEE00C94A3C17C018B018091DA05DB0154968C9354978F5F8093DA05F701878955968C93AE
S284001D805597DD24D3945796DC92579758961C92589789E398E15A969C938E935997838951968C9351978489958953969C938E93529782E2BE016F5F7F4F0E9474A589818823D9F582E0D8011E968C931E978DEF9FEF50969C938E931F9751968C915197875F51968C9351975296ED91FC91539739975396FC93EE93529756961C92D701E3
S284001E0013968D919C9114979283818350968D919C915197948383831E968D919C911F979683858352968C9187838091D90580878F5F8093D90583E035C0F801D686D70113968D919C911497908B878753968C915397885F818B5496ED91FC9155973897D8015396FC93EE9352978091F61156968C938FEF8183D70150968D919C91519784
S284001E80938382831E968D919C911F979583848352968C9186838091D90587838F5F8093D90580E0D8015296ED91FC915397880F880F8083C8010B960E94A30E80E02196E7E00C94BFC182E88093370680911F068093380680911B0690911C0690933A068093390680911D0690911E0690933C0680933B0680911A0680933D0680912006AB
S284001F0080933E0682E080933F068091160680934006809117068093410682E08093460687E396E0209118063091190630934806209347062BE02093490690934B0680934A062091DA0520934C062F5F2093DA0510924D0610924E0621E020934F061092500625EB3CE030935206209351060C960E94A30E0895DF92EF92FF920F931F939D
S284001F8001E010E0F6E2DF2EE3E0EE2E77E0F72E3AC01D9D90011124E091E405F091E505E20FF31F8781882369F18185823051F58085813011F0843029F583819481A581B6818A309105A105B10548F00A97A109B10983839483A583B68300E013C0E1861382148215821682E091E405F091E505E20FF31F8085843011F4F092DC0683E057
S2840020000E942E201F5F8091DF05181710F28091100690911106A0911206B09113060097A105B105E9F08A309105A105B10560F00A97A109B1098093100690931106A0931206B093130612C010921006109211061092120610921306109209060E94630F002321F084EF95E00E9495201F910F91FF90EF90DF900895CF93DF93EC01A091A2
S284002080D505B091D6059091080685E0989F900111242A0F3B1FE0E0F0E04DC013964C911397442309F440C08D919C9111978C179D07D1F512962C911297261B2830D0F414963C911497832F90E0022E02C0959587950A94E2F780FF02C081E03FC081E090E002C0880F991F2A95E2F7382B14963C9333C0219512966C931297283010F0EA
S28400210080E009C014968C91149790E002C0880F991F2A95E2F7816014968C9314978091070613968C9319C0309719F08381481708F4FD011596A217B30708F4AFCF309761F0D183C083628380910706838381E0848386EE95E00E94C02080E0DF91CF9108950F931F93CF93DF938C01C0E0D0E014C0EB81FC818081882379F08A8180FD16
S2840021800CC021813281F801808D918D2817390721F4ED81FE81C8010995CE010E94860BEC01009731F7DF91CF911F910F910895A7E2B0E0EEEDF0E10C94A1C18C01B62EDC011D968C91882329F18F3F19F10E94600B6C01009769F0DC011396ED91FC91149721813281F801868597852817390741F0D80156968C9182FF10C0B7EAEB2E08
S28400220006C0F601828180FF09C0A1EBEA2EFF24F39406C0EE24CC24DD2401C0EE24FF24BB2031F0C8016E2D40E050E00E94CF0DFF2009F06BC0D80112968C911297898315968C9115978C8316968C9116978D8317968C9117978E8318968C9118978F8319968C91199788871A968C911A9789871B968C911B978A871C968C911C978B8724
S2840022801D968C918C8787E1BE01605F7F4F0E9474A582E08D878091BE119091BF119F878E87F8018289888F868597859A8F898F808991899C8F8B8F83898D8F848995899F8F8E8F8FEA89A38FEF8AA31BA21CA21DA21EA28FA38C85882329F4CE0101960E94284213C0D8011D968C919E012F5F3F4F8F3F21F4C9010E94B11007C0D601D0
S2840023001596ED91FC911697C90109958E2DA796E9E00C94BDC1A0E0B0E0E1E9F1E10C94A3C1EC017B0182E0DB011E968C931E978B819C8150969C938E931F978E8983FF40C04B894D35E8F18091DA06282F30E08091DD0690E001972817390719F01CE5D12E0CC084EA9FEFFC012E9FC0012F9F900D3E9F900D1124D42ED80E0DE716E0D7
S2840023808CE590E0AC01249FC001259F900D349F900D11242C893D89280F391FC801B9014D2D50E00E94B8045AE0D50ED7015196DC9251970A50104053961C930E93529709C08B89885FF701818B8C899D890897938B828B8091DA05D70154968C9354978F5F8093DA058F8955968C93559756961C92569781E057968C93579758961C9238
S284002400589789E398E15A969C938E9359975296ED91FC9153972081822F8C7F80838B819C81207F875F9F4F08F0286020832081922F9F7D90838E8982FD03C02F79208315C09064908381E0D70119968C9319978E8983FF06C08B898D3518F08091DF0603C080910206D7011A968C938E8983FF17C08B898D35A0F08081806880839091F6
S284002480DA068085992339F48C7F816080878091DD06818708C08C7F82608087918703C080818F7780838D85818388899989938382838E859F85958384838A8986838E8983FF07C08B898D3520F08091DE06878306C08091D90587838F5F8093D905C7010B960E94A30E80E0CDB7DEB7E7E00C94BFC1FC0182818130B1F181E082838381E7
S284002500815083838091DA058F5F8093DA05815085878091D8058F5F8093D8058181813049F4CF0104960E94722384EF95E00E94C02008958430B9F48091DC068E7F8093DC068091DB068093DA068091DF0681508093DF06E091ED06F091EE0680819181BF010E948B1108950F931F93CF93DF930E94F91F843019F410E006E229C00E94E7
S284002580F91F8530C9F329C0109FE0011124E091E405F091E505EC0FFD1F87818823B9F080858130A1F481858250823080F48081918163EA40E050E00E94CF0D8091E4059091E5058C0F9D1F4B960E94570D1F5F8091DF051817C0F238C00E94F91F8330A1F510E006E22DC0109FE0011124E091E405F091E505EC0FFD1F8781882301F153
S28400260081858330E9F48085813011F08430C1F48285882329F0CF0107960E94791210C08081918167EA7F96AF010E94CF0D8091E4059091E5058C0F9D1F4B960E94570D1F5F8091DF05181778F2DF91CF911F910F910895A0E0B0E0E0E3F3E10C949FC16C01FC01C085D18510E086E2982E01E0A02EB12C06E00EC1199D70011124A0911F
S284002680E405B091E505AE0DBF1D17968C911797882309F4FEC019968C911997823009F0F8C018968C911897813009F055C052966C91529753967C9153974D915C911197F60125813681FA01838194812817390709F0DFC0FB019F818781981709F0D9C02C813D81848195812817390709F0D1C02A813B81828193812817390709F0C9C021
S28400270099818681981709F0C4C09E818181981709F0BFC088818370823021F45F96CA0160E00DC01A968C911A97882329F0CD0107960E947912B3C05F96CA0161EBAD010E94CF0D8091E4059091E5058E0D9F1D4B960E94570DA3C0843009F09AC052964C91529753965C9153978D919C911197F60125813681FC018381948128173907B3
S28400278009F087C0FA019F818781981709F081C02C813D81848195812817390709F079C02A813B81828193812817390709F071C099818681981709F06CC09E818181981709F067C049858091DB06481709F061C08A858F3F69F52091DA0630E08091DD0690E0019728173907B1F41092EE061092ED068D919C91119760E05F96AD010E946D
S284002800CF0D8091E4059091E5058E0D9F1D4B960E94570D3EC0942F9D5F9093DB06809102068093DF069093DA060093DC0628C0382F30953093DC0630FF05C020E080E090E010E00FC031FF05C021E081E090E011E008C032FD02C013E012C022E082E090E012E0240F2093DA06A50102C0440F551F8A95E2F7CA01809583238093DC064A
S284002880E091ED06F091EE0680819181BF010E948B111F5F8091DF05181708F4EDCECDB7DEB7EBE00C94BBC1E091ED06F091EE0680819181BF010E948B1108950F931F93CF93DF930AC08EEE92E00E94943ACE0163EA40E050E00E94CF0D8EEE92E00E948C3AEC01009779F731C086EF92E0BE010E94A93A2091E4053091E505CE01821BB8
S284002900930B66E270E00E944FC18091DF056817F0F4619FF0011124E20FF31F808191816085613051F0613018F0623081F40AC0AE014C5F5F4F6A8103C067EA40E050E00E94CF0DCE010E94570D01C016E286EF92E00E948C3AEC01009739F610E006E225C0109FC0011124E091E405F091E505E80FF91F87818823C1F0808191812085FE
S284002980213051F0213018F0223079F40AC06091020044E050E003C067EA40E050E00E94CF0D80E090E00E94570D1F5F8091DF051817B8F2DF91CF911F910F910895AAE0B0E0E5EEF4E10C949BC183E00E940E20782E0E94F91F8450823008F450C10E94CA209A838983B6E05B2EA3E08A2E912C8C0E9D1EF2E06F2E5E010894A11CB11C5D
S284002A002AC1772019F4E3EAFE2E1AC1F801868983FF1AC08091ED069091EE06892BA1F083898D3588F083E00E942E20C8010E94D63AFC018C01009709F43DC1868983FF03C083898D3590F7F8018689982F969596959695917011F082FF36C0F801868980FD32C081FD30C082958F7069F583898D3528F0992319F470EAF72EE1C0F80169
S284002A808289882329F00E94600B892B09F410C1F8012281223031F483819481885F9F4F18F406C0213021F4F801868982FD00C1822F8250823008F0EAC0F8018585815F8E3008F4F5C0E3C06AEAF62EB9C0F801868982FF07C083FF05C083898D3510F084E001C080E00E94BB0C7C015DEDC52E5AE1D52ED8C080E00E94BB0C7C014BEAD7
S284002B00C42E4EE0D42ECFC087E1B4010E9474A59B81F80185819817F1F49C8186819817D1F49D8187819817B1F49E818085981791F49F818185981771F498858285981751F499858385981731F49A858485981711F4F5010AC0C80105960E94DB22FC01009719F439EAF32E6BC080819181F801948383836282F8012381348189819A812F
S284002B802817390751F48EEE92E0B8010E94A93AC80161E00E94D8105EC0F801868982FF10C083FF05C083898D3510F084E001C081E00E94BB0C7C012BE8C22E21E1D22E72C080E0F6CF8EEE92E0B8010E94A93AF801868982FF2AC083FF28C083898D3528F1F092EE06E092ED061092DA061092DB06809102068093DF062389822F6CE569
S284002C000E9443C1382F8093DD06822F0E9443C1992319F03F5F3093DD065092DC068091D9058093DE068F5F8093D905F70111830083C801B701F6010995F82E882359F08EEE92E0B8010E94A93AC8016F2D40E050E00E94CF0D8EEE92E00E948C3A8C01009709F0CECE27C08EEE92E0B8010E94A93AC80163EA40E050E00E94CF0D8EEE43
S284002C8092E00E948C3A8C01009771F714C0213009F431CF213008F41ACF223009F46BCF233031F431CFE114F10409F08CCF03C096EAF92EC5CF2A96EFE00C94B7C1EF92FF920F931F93CF93DF93EC0189819A8160E070E00E94561F8C01009759F11B8660E00E94921FE82EFF2422C0C8016F2D0E94A51FFC0180810E94600BDC01009733
S284002D00B1F012968C91129780FD11C01396ED91FC91149721813281888D998D2817390731F41596ED91FC911697CE010995F394FE14E0F2CDB7DEB7E6E00C94C0C1A7E2B0E0E5EAF6E10C94A2C18C01C62EFC01E084F18485819681F70160850E943C10882309F056C081E08983F701818192819B838A8382E0D82EDD86F80185819681E2
S284002D800E94A422FC01009799F083E08D878081888B8181898B82818A8B83818B8B84818C8B85818D8B86818E8B87818F8B01C0DD86F801858196819F878E87F7018781888F858196819A8F898F838194819C8F8B8FF8012781822F89508D8F18A230E0281B310980859185820F931F9F8F8E8FC9A282858AA384859585A685B7858BA324
S284002E009CA3ADA3BEA383858FA3CE0101960E945F1681E0A796E8E00C94BEC1A0E0B0E0E4E1F7E10C94A2C17C01C62EFC0100851185F801808186FFCCC08370813019F097E0D92E02C0DD24D3945091DF05A091E405B091E50540E06D2D70E0E801C60FD71F21C017968C9117978130D1F418968C9118978230A9F4F701258136811F961E
S284002E808D919C9150972817390759F45296ED91FC915397E60FF71F98818081981709F496C04F5F96964517E8F299C0F701858196810E94DD24FC01009749F0828D80FF06C0EA89FB89779780818260808319821882AA89BB8982E08E87F70185819681988B8F878091DA058F5F8093DA0581508C8B1D8A1E8A81E08F8B188E89E398E120
S284002F009A8F898F8C91CC2019F48C7F826001C083608C93F80190819C708C91837F892B8C93908190718F7E892B982F9F799C93908190788F71892B8C9380812D2D30E084FF0BC0F70180859185820F931FFC01808111968C9382E02CC088E0898BF801868111968C9311978281938113969C938E9312978481958115969C938E931497EB
S284002F80818116968C931697F70180859185820F931FFC01808117968C931797F801808187FF11C08085837031F418961C9289898F5F898B08C089898D5F898BF8018085837018968C93CE010B960E94A30E81E001C080E0CDB7DEB7E8E00C94BEC182E00E94BB0CEC01009709F060CFF2CFFC010097A9F0808191810E94DD24DC0100973A
S28400300081F05A968C915A9780FD09C03091DC05E091DD05F091DE0520E090E00BC0A0E0B0E060E00BC0808180FD02C081FD9F5F2F5FB3962317B8F3632F691B5091E2058091DF0590E04091E305252F30E0240F311D281739075CF48091E005581738F4AB2B19F080E0623018F081E0089580E00895BC018091D80581508093D80586EF79
S28400308092E00E947D3A83E00E942E200895BC0182EF92E00E947D3A83E00E942E208091DB058F5F8093DB050895BC018EEE92E00E947D3A83E00E942E200895A2E0B0E0E4E6F8E10C9499C17C018B0180E1BE016F5F7F4F0E9474A3E981FA813080418052806380748085809680C780F5E0AF2EB12CAE0CBF1CE8EADE2ED80193968D91B1
S2840031009C91949795966C910E94A545F80185A38F3F09F4CDC0A3A1B4A190E09C0173E0220F331F7A95E1F7880F991F280F391FA20FB31FFD013C961C968C91D70115968C931597818116968C931697828117968C931797838118968C931897848119968C93199785811A968C931A9786811B968C931B9787811C968C93D8019396ED91B2
S284003180FC91949795968C91959790E09C0153E0220F331F5A95E1F7880F991F280F391FE20FF31F8489F70185871183008393962D913C91949795964C91842F90E0FC0173E0EE0FFF1F7A95E1F7880F991FE80FF91FE20FF31F8385833009F059C0842F90E0FC0153E0EE0FFF1F5A95E1F7880F991FE80FF91FE20FF31FDF011C96848550
S284003200831599F511968C911197841571F512968C911297851549F513968C911397861521F514968C9114978715F9F415968C9115978815D1F416968C9116978915A9F417968C918C1589F4C70160E00E94D810D82E90E0882309F491E0D80195968C9195978F5F95968C9319C0C5010E94DB22FC01009719F429EAD22E0FC0808191816D
S284003280F70194838383C701B8010E948B1104C0C701B8010E94AB0ED82E91E0D80195968C9195978F5F95968C93992309F425CF8D2D2296E1E10C94B5C1A3E0B0E0E3E6F9E10C9499C10E94F91F782E882309F470C142E0841709F46CC186EF92E00E948C3A9B838A830E94D63A4C0186E2382E572D54505983B1E04B2E512CA2E06A2EA6
S28400330053C1E091E405F091E5058A819B818E1B9F0B66E270E00E944FC18091DF05681708F031C1639D50011124EA0DFB1D00811181E085E130A9F1E13038F0E23009F418C1E43009F01FC183C08981823008F482C093E0791609F016C186EF92E06A817B810E94A93AF8018281882389F4EA81FB818281882361F46091E4057091E50552
S2840033806A0D7B1DC8010E945E18883A09F0FBC04A815B814C5F5F4FC801EA81FB81628166C0F981F23008F456C043E0741609F0EAC086EF92E06A817B810E94A93AC090E405D090E505CA0CDB1CF6018185813009F0D9C06091020670E02285621B7109A20102C0440F551F6A95E2F7BA01882777FD8095982F20910306309104064091CD
S2840034000506509106060E9424C17B018C01EA81FB818281882331F4F601E382F482058316830FC00E949204A0E0B0E0BC01CD01A80197010E9476C1F6016383748385839683E091E405F091E505EA0DFB1D8BC0F981F23078F486EF92E06A817B810E94A93A4A815B814C5F5F4FC80163EA0E94CF0D85C043E0741609F085C086EF92E03C
S2840034806A817B810E94A93AA091E405B091E505F501EA0FFB1F8185813009F074C02091DA0630E08091DD0690E001972817390739F14091DC0640FF03C020E030E00CC041FF03C021E030E007C042FD03C083E090E018C022E030E08091DB06820F8093DA06C20102C0880F991F2A95E2F7809584238093DC0680EE96E00E9431AE43C0BD
S28400350080E090E00091ED061091EE066091020670E026E230E0F9018E9F90018F9F300D9E9F300D1124A20FB31F1A962C91621B7109A20102C0440F551F6A95E2F7BA01882777FD8095982F209103063091040640910506509106060E9424C1F8016383748385839683618684EF95E00E94C0200AC086EF92E06A817B810E94A93A8A8140
S2840035809B810E94570D8114910419F4382D292D05C0C4010E94D63A382F292F9B828A82832F922F9C0149014A815B81452B09F0A8CE2396E1E10C94B5C1ADE0B0E0E3EEFAE10C94A4C18C017B0180E1BE016F5F7F4F0E9474A3E981FA8180818B8381818C8382818D8383818E8384818F83858188878681898787818A87F80182898B8732
S284003600808991899D878C87CE0103960E944445F70194A383A3892B11F418EA09C0F70115A2C801B7010E945E18182F882319F0C7010E94570D812F2D96E6E00C94C0C1882359F01092DA051092D9051092D8051092DB0583E0809302061092D7058EEE92E00E94773A82EF92E00E94773A86EF92E00E94773A8AEF92E00E94773A8AE0C9
S2840036806CED75E00E9474A584E06DED75E00E9474A320E043E250E014C0822F90E0BC01649FC001659F900D749F900D1124E091DD05F091DE05E80FF91F80818E7F80832F5F8091DC05281740F388E06FED75E00E9474A583E064EE75E00E9474A39091DF05E091E405F091E50580E003C017828F5FB6968917D8F38091DC058093E005CA
S28400370091509093E1051092E2051092E3058AE168E076E00E9474A587E065ED75E00E9474A32091080685E0289F900111248091D5059091D60560E070E0A9010E94C10482E16AE076E00E9474A388E36EE076E00E9474A520910E068CE5289F9001112480910A0690910B06820F931F90930D0680930C068AE090E0A0E0B0E08093E60660
S2840037809093E706A093E806B093E90684E594E19093EC068093EB0681E08093EA060E94EF0D08951092170610922006109214061092150610921C0610921B061092160610921A0610921E0610921D06109219061092180610921F06109209061092100610921106109212061092130610920F06E7E3F6E08BE0DF011D928A95E9F73C9638
S28400380088E1DF011D928A95E9F720910E068DE5289F90011124F9978081918160E070E0A9010E94C1040895A0E0B0E0EAE1FCE10C94A2C17C01FC01C085D1854781D98490910E06992309F43BC126EFC22EC40E80910906813009F443C0813038F0823009F42EC1833009F02DC13AC08885182F1370113009F024C18695869509F020C10F
S2840038809D1508F41DC1FCE5FC1508F419C10E94D21B10930906898580931406F701858196819093190680931806898180931A068A819B8190931C0680931B068C819D8190931E0680931D068E8180931F068F81809320061092160688EF80931706DD2488858370823019F0DD2009F0E9C088858695869509F0E4C0809114068D1508F4ED
S284003900DFC02091180630911906F701858196812817390709F0D4C090911A068981981709F0CEC020911B0630911C068A819B812817390709F0C4C020911D0630911E068C819D812817390709F0BAC090911F068E81981709F0B4C0909120068F81981709F0AEC00D2D10E08091160690E002968017910724F482E080930906A1C08CE5CA
S28400398090E09C01029FC001039F900D129F900D112420910A0630910B06280F391FF70140855185465F5F4FC901BA014C2D50E00E94B804E0910C06F0910D06E00FF11FC082809115068F5F80931506809116068D1569F48F5F8093150688EF8093170680910906833019F481E0809309068D2D63E00E9443C1C92FD0E081E090E00C2EB5
S284003A0002C0880F991F0A94E2F720911706282B209317066091020670E080E090E0209103063091040640910506509106062C5E3F4F4F4F5F4F0E9424C16093100670931106809312069093130684EF95E00E94C0208091140690E098012F5F3F4F82179307F9F48091160690E00196801791076CF021968FEF90E002C0880F991FCA953E
S284003A80E2F720911706282B209317060E94630F809117068F3FB1F483E08093090682E012C08091160690E002968017910751F40E94630F809116068D5F8093160602C081E001C080E0CDB7DEB7E8E00C94BEC1A7E2B0E0EEE6FDE10C94A1C17C01B62EDC0118960D911C911997F8019181892F81508E3F18F0CC24DD2404C0892F0E9414
S284003B00600B6C01D80111968C9181508E3F20F4C114D10421F435C0C114D10469F0D6011396ED91FC91149721813281F801848195812817390729F5D8019C91892F869586958370823011F496FD1BC0F801208126FF19C0D70115968D919C911697885F9F4F78F427FD0FC0C114D10421F0F601828180FD06C0C70160E00E940E17982F45
S284003B8003C090E001C091E0D8018C9187FF15C018968C91837089F0C7010E94141C823009F0EBC0109209061092100610921106109212061092130603C0992309F4DDC0F70185819681D80117966C910E943C10882309F0D2C0F801818181508E3F20F4C114D10409F4C9C0D70112968C91129713962D913C911497813009F082E089835D
S284003C003B832A83F80181818C87D70115968D919C9116970E94A422FC01009799F083E08D878081888B8181898B82818A8B83818B8B84818C8B85818D8B86818E8B87818F8B02C082E08D87F701858196819F878E87D80116968C911697888F14968D919C9115979A8F898F12968D919C9113979C8F8B8F27812A502D8F265F18A28C918B
S284003C8087FD04C028502D8F285F09C082EA88A3F8018085837019F429502D8F275F30E08D8D281B3109D70118968D919C911997820F931F9F8F8E8FB9A21A968C911A978AA31C968D919D910D90BC91A02D8BA39CA3ADA3BEA3F70183858FA3D8018C9187FF27C018968C918370823011F580911406682F70E040910C0650910D0620E020
S284003D0030E00BC0FA01E20FF31F808190910F06890F80930F062F5F3F4F2617370794F380910F068D8F80910A0690910B069F8F8E8FC114D10449F0D6011596ED91FC911697CE010196099518C0F7018281813029F4CE0101960E945F160FC0D80111968C919E012F5F3F4F8F3F21F4C9010E94B11003C0C9010E942842A796E9E00C94BB
S284003D80BDC1FC01A085B1858C91282F269526952370213051F185FF2AC027C08370823021F1223011F1233001F16F3A19F4808981116CEA8281813069F08230B1F48C91837090E0009721F00297029770F40AC0233021F0CF010E94681D07C0CF010E949F1603C0CF010E942A1381E0089586FFDCCFD4CF0F931F93CF93DF930BC00E947F
S284003E00F91F182F82EF92E00E94943A812F8450823010F401E022C0133031F0E885F985808183708130D1F4E885F985E081E295E695E695E17041F0E13059F4CE0105960E94F717882329F0CE016FEA0E94C11E082F002319F0CE010E94C10D82EF92E00E948C3AEC01009751F6DF91CF911F910F9108950E945D190E94FA1E0E94DF14D9
S284003E800E94B4120E94F91F843021F48091D805882339F08091D705882339F01092D705089583E00E94CF0BF5CF0895CF93DF93EC01DB01E091F306F091F4066091EF062091F1063091F206220F331F220F331F40E05FEF12C08081882349F0818192818C179D0739F4109779F04C930DC05F3F09F4542FE20FF31F4F5F461760F3109795
S284003F0009F05C93E0E0F0E0CF01DF91CF91089560E070E00E94561F20E0892B09F021E0822F08954091F00620E009C0FC01E20FF11D3381631739F0332319F02F5F2417A8F361112FEF822F0895DC01009799F08C91882381F08091F006681760F470E0FD01E60FF71F8381882329F06D5F7F4F6A0F7B1F02C060E070E0CB01089508952A
S284003F801F93182F8CE160EF76E00E9474A58DE16FEE76E00E9474A589E063EF76E00E9474A38091F006482F50E04D5F5F4F5093F2064093F106112399F48091EF0690E0489F9001499F300D589F300D11248091F3069091F40660E070E0A9010E94C1041F9108959091F5069093F6068093F50608958091F50608958091F60608959091F9
S284004000F506882331F09093F60683E08093F50608959093F6061092F5060895282F9091F506923069F0933018F4992331F012C0933091F0953071F408C0813059F40CC0813051F0843031F407C080E0213029F481E0089580E0089581E00895482F3091F706332361F42FB7F8948091F9069091FA0680629093FA068093F9062FBF81E0A0
S28400408090E002C0880F991F4A95E2F7382B3093F70608951092F7060895A2E0B0E0E3E5F0E20C94A8C14091F7064423D1F160E0242F30E001C06F5FC901062E02C0959587950A94E2F780FFF6CF81E090E0062E02C0880F991F0A94E2F7809584238093F70670E0660F771F6A5F7B4FCE01019642E050E00E94A2048091F706882361F096
S2840041002FB7F8948091F9069091FA0680629093FA068093F9062FBFE981FA81309709F009952296E2E00C94C4C1FC018081813021F41192CF010E94C7AD08959F92AF92BF92CF92DF92EF92FF920F931F937C01962E59016A010E949520F70110829386A782B086C186D286158704871F910F91FF90EF90DF90CF90BF90AF909F90089520
S284004180FC018081882329F481E08193CF010E9431AE08958091590F90915A0F0895482F6091710F8091550F82958F702091720F841718F440E050E034C0260F613071F490E0841B910930E0829FA001839F500D929F500D11244F5F5F4F23C0841B41E050E070E009C0FA01E69FA001E79F500DF69F500D112481508823A9F730E0615029
S2840042007040CB01821B930BF9014E9F90014F9F300D5E9F300D1124820F931F0E944FC1AB01CA010895FF920F931F93CF93DF939091530F95FD59C09695969593709230D9F410916E104FEF683F740710F4EB0103C00E949204EC011F5F5FEFC83FD50710F0C1E0D0E0CE010E94DD24892BA9F11150C9F12196F1CF9923A9F5882361F099
S284004280F090710F0091770F1091780FC091590FD0915A0F219625C0F090720FC091590FD0915A0F21968091710F90E02091770F3091780FAC01429FC001439F900D529F900D1124C80FD91F01E010E00AC0CE010E94DD24FA94892B11F4BE0106C0C00FD11FFF20A1F76FEF7FEFCB01CDB7DEB7E5E00C94C1C186E261E570E10E9474A59F
S2840043008BE063E570E10E9474A381EA809350101092521020E04BE050E014C0822F90E0BC01649FC001659F900D749F900D1124E0915310F0915410E80FF91F80818E7F80832F5F80915110281740F3109259108FEA91E290935B1080935A1008956091511050E07BE01BC0579FC0011124E0915310F0915410E80FF91F408140FF0EC01E
S2840043802091571030915810818192812817390719F44E7F408302C041FD652F5F5F80915110581708F36817F0F4262F30E08BE090E0AC01249FC001259F900D349F900D1124E0915310F0915410E80FF91F81819281909358108093571085E590E10E940B6187E601C081EA809350100895BF92CF92DF92EF92FF920F931F93DC01F22E44
S284004400E32ED42E8FEFA83FB80708F095C0CC2440E08BE0B82E4CC04B9D90011124E0915310F0915410E20FF31F808180FF3FC08381801791F58481811779F585818F1561F586818E1549F587818D1531F58085851719F58185861701F582858717E9F403831483F582E682D782508761877287E0915310F0915410E20FF31FB283A1838D
S284004480808181608083E0915310F0915410E20FF31F80818D7F80834FC081819281A817B90729F4808182608083CC24C3944F5F80915110481708F4AFCFCC2081F080915010813AC9F5B0935810A093571085E590E10E940B6187E6809350102DC0209152108BE0289F90011124E0915310F0915410E20FF31F03831483F582E682D782C2
S284004500508761877287B283A183808181608083E0915310F0915410E20FF31F80818D7F80838091521090E060915110019670E00E9463C1809352101F910F91FF90EF90DF90CF90BF900895AC0130915110E0915310F091541020E00EC0808180FF09C0818192814817590721F49F012D5F3F4F20C02F5F3B96231780F3CA010E94DD2469
S284004580FC010097A1F080859185892B9285892B9385892B9485892B9585892B9685892B9785892B21F09F01285F3F4F02C020E030E0C9010895FC0130915110A0915310B091541020E039C08C9180FF34C0908113968C911397981771F5918114968C911497981741F5928115968C911597981711F5938116968C9116979817E1F49481B3
S28400460017968C9117979817B1F4958118968C911897981781F4968119968C911997981751F497811A968C911A97981721F49D012F5F3F4F1CC02F5F1B96231728F2208131814281538164817581868197810E94FA24FC01009749F084819581885F9F4F20F49F012C5F3F4F02C020E030E0C90108958AE190E10E94773A08950F931F9324
S2840046808AE190E10E948C3A8C018AE190E10E94943A8AE190E10E94943AD8011E96ED91FC911F97C801409609958AE190E10E948C3A892B19F08EE00E9465361F910F910895FC01628B8185838B148A158A168A178A8AE190E1BF010E947D3A8EE00E9465360895FF920F931F93CF93DF938C018091510F80FD03C0C80162EC72C0F80136
S2840047008381813019F098E0F92E02C089E0F82EF801C781D085CF19D109CE010E946724F8018485882321F088818F7380648883F801848195819B838A838091550F82958F709285992321F0880F8917E0F19E83F80183819981813011F591609983848195810E94881F9885882329F09C7F9160988721E003C09C7F988720E0F801838559
S2840047808770880F880F9885937E982B988783858295880F807E9F71982B988703C09E7F998320E0F8018381813081F084819581FFEF883F9F0750F02FEF8F3F920741F00596039728F0C80161EC0BC0222361F08C819D816F810E94CF61823029F4C80162ED0E94612305C0F801F282C8010E948A39CDB7DEB7E5E00C94C1C1CF93DF9360
S284004800EC01DB019C01285F3F4F19963C932E931897898183FF0AC011963C932E93285F3F4F19963C932E93189703C011961C921E92898184FF0EC018968D919C91199713969C938E931297089619969C938E93189704C013961C921E921297898180FF0EC018968D919C91199715969C938E931497019619969C938E93189704C01596B2
S2840048801C921E921497898182FF14C01896ED91FC9119971796FC93EE931697808190E00196880F991FE80FF91F1996FC93EE93189704C017961C921E92169718968C9118978C1B1A968C93DF91CF910895FC01118210829081892F8C7F80838091540F82958F70880F880F907C982B9083138212828091590F90915A0F958384838091DC
S284004900550F82958F7090E0880F991F86838091560F87838F5F8093560F0895582FE0916A10F0916B1040E076E06BE18081882311F4552311F070834F5F7B9620916E10269F9001112480916A1090916B10820F931FE817F90750F3442319F480E090E009C090E08091710F882309F491E081E09827892F982F9170990F990F8091C80FFC
S2840049808B7F892B8093C80F442319F480E090E009C090E08091720F882309F491E081E09827892F982F9795992797958091C80F8F77892B8093C80F0895AC01E0916A10F0916B1090916E108BE1989F900111242E0F3F1F8081863029F0848195814817590731F07B96E217F307A0F3E0E0F0E0CF0108950F931F938901382F292FE0915E
S284004A006A10F0916B1090916E108BE1989FD0011124AE0FBF1F80818630C1F080858017A9F48185811791F48285841779F48385851761F48485861749F48585871731F48685831719F48785821731F07B96EA17FB0708F3E0E0F0E0CF011F910F910895009779F0FC017B9680916E102BE1829FC001112420916A1030916B10280F391FD2
S284004A8013C0E0916A10F0916B10EECF8081813011F0853041F4828D80FF05C0848195816817790731F47B96E217F30778F3E0E0F0E0CF010895282F80916E10962F861708F4982F891B982F281708F4922F382F391B19F480E090E009C090E08091710F681708F091E081E09827892F982F9170990F990F8091C80F8B7F892B8093C80F63
S284004B00332319F480E090E009C090E08091720F281708F091E081E09827892F982F9795992797958091C80F8F77892B8093C80F089520916A1030916B1090916E108BE1989FA0011124420F531FF90130E020E08081863051F0813011F0853031F48181823011F43F5F01C02F5F7B96E417F50778F3892F291708F4822F981B892F391761
S284004B8008F4932F482F491B19F480E090E009C090E08091710F281708F091E081E09827892F982F9170990F990F8091C80F8B7F892B8093C80F442319F480E090E009C090E08091720F381708F091E081E09827892F982F9795992797958091C80F8F77892B8093C80F089520916A1030916B10821B930B23E13AEDF9018E9F90018F9FEE
S284004C00300D9E9F300D1124C901880F991F880F991F820F931FE0916C10F0916D10E80FF91F43838281882341F08695962F96959695682F6695680F690F6283AEEFB2E090E08C91681720F49F5F11969630C9F79F5F9770990F990F990F8481877C892B84830895FC018081813011F0853061F48181823021F48091C80F806803C080915F
S284004C80C80F84608093C80F86E080830895282FEEEFF2E090E08081281720F49F5F31969630C9F7892F8F5F08958AE690E1089520916A1030916B10821B930B23E13AEDA901849F9001859F300D949F300D1124C901880F991F880F991F820F931FE0916C10F0916D10E80FF91F82810895A9E0B0E0EDE7F6E20C949EC16C01A0906C10DB
S284004D00B0906D1080906A1090906B10FC0181818E010F5F1F4F823009F58EE1BE016E5F7F4F0E9474A588E1BE016A5F7F4F0E9474A58BE2B8010E9474A5698170E080E090E02E813F8148855985EA80FB800C811D812E0D3F1D401F511F0CC08AE2B8010E9474A5698170E080E090E028E93AE340E050E00E9424C1AB01BC01C818D908D4
S284004D8083E19AEDC89E9001C99E300DD89E300D1124C901880F991F880F991F820F931FA80EB91EEBE07695679557954795EA95D1F7F501518340832996ECE00C94BAC1CF93DF93FC01C0916A10D0916B1090916E108BE1989F900111242C0F3D1F8881863029F08C819D81E817F90729F06B96C217D307A0F308C0209731F0CE010E946A
S284004E00F425CE010E947726DF91CF910895AC01662321F00E94881F982F2EC08091590F90915A0F4817590721F1E0916A10F0916B1090916E108BE1989F900111242E0F3F1F6081663029F0848195814817590729F07B96E217F307A0F30DC0309759F0613011F0653039F4828D982F917080FF03C091E001C090E0892F089587E597E2B6
S284004E8090937B1080937A1080E098E0A0E0B0E08093751090937610A0937710B0937810109279108FE690E10E9431AE0895FF920F931F93CF93DF93C0916A10D0916B1003E11AEDBBE1FB2E8881863051F180916A1090916B109E01281B390BC901809F9001819F300D909F300D1124C901880F991F880F991F820F931FE0916C10F09196
S284004F006D10E80FF91F80819181009719F001979183808380819181892B19F4CE010E94DD786B9620916E102F9D9001112480916A1090916B10820F931FC817D90720F2CDB7DEB7E5E00C94C1C11F93CF93DF93182F80E06EE670E10E9474A580E06AE670E10E9474A38FE06CE670E10E9474A31123D9F0C0916A10D0916B101BE18881EC
S284004F80863019F0CE010E9477266B9620916E10219F9001112480916A1090916B10820F931FC817D90758F303C081E00E948E248FE690E10E94C7ADDF91CF911F910895CF93DF938091D70F823CD1F588ED9FE00E948C3AEC0188ED9FE00E94943A8A818823F1F08091650F9091660F892B9091670F892B9091680F892B9091690F892BDE
S28400500090916A0F892B90916B0F892B90916C0F892B31F08FEF9DEF9093520F8093510FEB81FC81CE010596099588ED9FE00E948C3A892B11F081EC01C089E18093D70F8091D70F813C81F481E08093DF0F8BE498E29093E10F8093E00F8CED9FE00E94104D83EC8093D70FDF91CF910895FF920F931F938C01F62E01960E948C3AFC01A2
S284005080F58280E00E94653682ECF80180831F910F91FF900895A2E0B0E0E1E5F8E20C94A1C1FC01B080BB2009F04AC088ED9FE00E948C3A7C01FC0182810E94536C00E114E06E010894C11CD11CC601B80142E050E00E94A204E981FA81309709F009950E5F1F4FF4E004341F0779F70E94873680E09FE19093520F8093510FF701828103
S2840051008823F1F081E169E57FE00E9474A583E58093DF0F8091590F90915A0F9093E10F8093E00F80EB98E29093E90F8093E80F8CED9FE00E94E64C85EC8093D70F05C087ED9FE06B2D0E9437282296E9E00C94BDC1FC0187ED9FE060810E9437280895FC016081662329F087ED9FE00E94372808958091D70F90E0FC01E55CF040EA30B4
S284005180F10508F0B8C0EA59FF4F0C94CFC18BE48093DF0F80916D0F90916E0F9093E10F8093E00F86EC70C08AE48093DF0F80916D0F90916E0F0E94DD24FC0180858093E00F81858093E10F82858093E20F83858093E30F84858093E40F85858093E50F86858093E60F87858093E70F87EC4CC08FE26BE57FE00E9474A580E58093DF0FC7
S28400520080915B0F90915C0F9093E10F8093E00F88EC3AC086E58093DF0F1092E00F89EC33C08EE268E57FE00E9474A51092DF0F8091580F8093E00F8AEC26C082E58093DF0F90E08091750F83FD91E09093E00F8BEC1AC085E48093DF0F86EC9FE09093E10F8093E00F8CEC0FC086E48093DF0F8FE08093E00F8DEC07C081E48093DF0F03
S28400528081E08093E00F8EEC8093D70F80EB98E29093E90F8093E80F8CED9FE00E94E64C2AC080915B0F90915C0F9093E00F8093DF0F8091580F8093E10F8091570F8093E20F20E08091590F90915A0F892B09F421E02093E30F1092E40F8CE799E29093E60F8093E50F8CED9FE00E94DF4C8FEC8093D70F08950895FC0160816623D1F468
S2840053008FEF9FEFAFEFB0E08093DF0F9093E00FA093E10FB093E20F89EA98E29093E40F8093E30F8CED9FE00E94F44C84EC8093D70F089587ED9FE00E9437280895E7EDFFE085E1DF011D928A95E9F789E18093D70FCF0101960E94773A0E9487360895BC0188ED9FE00E947D3A8091D70F893131F480E00E94653681EC8093D70F0895CB
S2840053800E94E2328FE391E10E94773A10924F1110924E1110925111109250111092521180913E118C7F80933E1186E591E10E94C7AD80ED97E0A0E0B0E080935C1190935D11A0935E11B0935F1181E0809360118FE39AE2909362118093611188E263E571E10E9474A58DE064E571E10E9474A320E037E011C0239FC0011124E0915411AE
S284005400F0915511E80FF91F12821182108213821482158216822F5F80915311281758F30895A0E0B0E0E7E1FAE20C94A3C17C01C0915411D09155119091531187E0989F800111240C0F1D1F82E0D82E10C08881813061F4E981FA81838194818E159F0529F4D882118684E00E9465362796C017D10768F3CDB7DEB7E7E00C94BFC1FF927F
S2840054800F931F9380913E118D7F80933E1110E097E0F92E02E02BC01F9DC0011124E0915411F0915511E80FF91F80818130F1F483819481A581B681803D27E0920720E0A20720E0B20728F4008384E00E9465360DC0805D9740A040B04083839483A583B68380913E11826080933E111F5F80915311181788F280913E1181FF04C086E582
S28400550091E10E9431AE1F910F91FF900895A0E0B0E0EDE8FAE20C949AC110E067E0562E50ED452E42E0742E6624639430EA832E3FE0932EA12CB12CDEC0159DC0011124C0905411D0905511C80ED91ED6018C91882309F0B3C08FE391E10E948C3AF60192838183009709F4C5C08FE391E10E94943AD6011196ED91FC91129741862381F7
S284005580348160E08281813009F461E0C9010E947A327C01009779F0FC019081892F8770813009F476C08823D9F08430C9F0987F9160908315C00E9413327C01009709F4A0C0DC018C91887F81608C93D6011196ED91FC91129783819481F701928381830E94F331EC01009759F4D7019C91892F8770813009F085C0987F93609C9381C04F
S2840056000E94A0AD2A960AE00E94430386E691E1BE012A97A9010E946C61D6011196ED91FC9112978281813021F4F701808180688083D6011196ED91FC9112978281882329F4F7018081877C88618083CE01B7010E94B9300E94823088838091590F90915A0F9A8389838091590F90915A0F9C838B831D821E828091550F82958F7090E062
S284005680880F991F89878F8181608F8385E00E946536D6016C9280913E1181FD09C086E591E10E9431AE80913E11826080933E11F60183829482A582B6821CC0D6018C918230C1F41196ED91FC91129727813085CF010996F9010995F601128211821082D60113961D921D921D921C92169784E00E9465361F5F80915311181708F41DCF79
S28400570003C0F6017082DACFCDB7DEB7E0E10C94B6C180913E1180FD72C08EE491E160E571E10E94893080914E1190914F11892B09F465C0E0915011F0915111309709F45EC0878181FF22C087E08093451186E59CE2909349118093481189E09CE290934B1180934A118DE19CE290934D1180934C1180913E11816080933E1187818D7F27
S284005780878383E491E10E94B562089580FF37C086E080934511218132818091590F90915A0F2817390719F488E08093451180EC809346118FE7809347118AEA9EE2909349118093481185E99EE290934B1180934A118AE99EE290934D1180934C1180913E11816080933E11E0915011F091511187818E7F878383E491E10E94B562089578
S284005800BC018FE391E10E947D3A84E00E9465360895DC018091521154968C935497E0915011F0915111838194811D969C938E931C9781E058968C9308958091530F84FF25C0E0915011F09151118181928160E00E947A32DC01009729F40E941332DC010097A1F08C91887F8C93E0915011F09151118181928112969C938E9311978381B6
S284005880948114969C938E9313971C9280913E118E7F80933E11E0915011F091511187818D7F878385E00E9465360895FF920F931F93CF93DF938C01E0915011F09151116381748180E090E00E940131F82E882311F487E0F82EC8010E946724E0914E11F0914F1121813281D80115963C932E9314978C918C7F81608C9311964C91119771
S284005900842F806111968C931197E0915011F09151118181928113969C938E931297E0914E11F0914F11808187FDC9C0486111964C93C9010E94A422FC0180915D0FD80150968C93509780915E0F51968C93519780915F0F52968C9352978091600F53968C9353978091610F54968C9354978091620F55968C9355978091630F56968C938D
S28400598056978091640F57968C935797309701F1808150968C935097818151968C935197828152968C935297838153968C935397848154968C935497858155968C935597868156968C935697878157968C9309C0F801108A118A128A138A148A158A168A178AE0915011F0915111838194810E94A422FC01009709F18081D80118968C9397
S284005A001897818119968C93199782811A968C931A9783811B968C931B9784811C968C931C9785811D968C931D9786811E968C931E9787811F968C9309C0F8011086118612861386148615861686178682E0D80158968C935897E8016996F801118EE0914E11F0914F11818192819D838C8380E259968C93E0914E11F0914F1181819281F9
S284005A800E94A422FC01009789F080818F878181888B8281898B83818A8B84818B8B85818C8B86818D8B87818E8B69C01F86188A198A1A8A1B8A1C8A1D8A1E8A60C0C9010E94A422FC0180915D0FD80150968C93509780915E0F51968C93519780915F0F52968C9352978091600F53968C9353978091610F54968C9354978091620F559647
S284005B008C9355978091630F56968C9356978091640F57968C935797309701F1808118968C931897818119968C93199782811A968C931A9783811B968C931B9784811C968C931C9785811D968C931D9786811E968C931E9787811F968C9309C0F8011086118612861386148615861686178682E0D80150968C93E8016196F801118A90E02B
S284005B80E0914E11F0914F11808187FD91E09295990F990F907C48814F7B492B4883E0915011F091511180818983A0915011B091511111968D919C9112979B838A83E0914E11F0914F11218132813D832C8316962C912F0D2E83406148830E94A422FC01009789F080818F83818188878281898783818A8784818B8785818C8786818D87A4
S284005C0087818E8708C01F82188619861A861B861C861D861E8688E280935211888184FD03C080E280935211888185FD05C080915211885080935211D80111968C9183FF05C080915211885F80935211CDB7DEB7E5E00C94C1C1AF92BF92CF92DF92EF92FF920F93CF93DF935A017C01FC012481358160E0808186FD61E0C9010E947A322D
S284005C806C01009709F446C0F7014281538161810E943C32EC010097E9F10E94A0AD2A960AE00E94430386E691E1BE012A97A9010E946C61F60180818770813039F09E81F7018681891710F09923F9F4F6018081887F8083F50184859585F60194838383F70186818E8329813A8160E0F601808187FD61E0C9010E940727882331F48F8176
S284005D0082608F8385E00E946536F701848195810E94112A81E0DF91CF910F91FF90EF90DF90CF90BF90AF90089520915211FC01248B089580913E118E7F80933E11E0915011F091511187818E7F878385E00E9465360895CF93DF93EC010E94672488818C7F816088838981806189838DEF9FEF9B838A83E0915011F091511181858E839B
S284005D80E0915011F0915111818192819D838C830E94A422FC01009789F0808188878181898782818A8783818B8784818C8785818D8786818E8787818F8708C0188619861A861B861C861D861E861F8681E0888BDE015196198AE0914E11F0914F11E0818E2F8295837061F0E3FD02C091E001C092E0990F990F990F8C91877E892B8C936A
S284005E0090E0E0914E11F0914F11808187FD91E09295990F990F907C8C918F7B892B8C93E0915011F0915111808111968C931197E0914E11F0914F118181928113969C938E931297E0915011F0915111858114968C9314978EE1809352118C9185FD03C086E180935211DF91CF9108958F929F92AF92BF92CF92DF92EF92FF920F93CF9371
S284005E80DF93082FD92E5B014A01DA0112968D919C911397892B09F425C1FB018481958160E00E940727882309F01CC1E02EFD2CD70112962D913C91139760E08C9186FD61E0C9010E947A326C01F40164857585D50114968D919C9115970E940131082F882309F407E0C114D10431F40E9413326C01009709F4F6C0F50144815581C6014F
S284005F00D70111966C910E943C32EC01009729F50E94F331EC01009799F4F7012281338160E0808186FD61E0C9010E940727882309F4D8C00E947531EC01009709F4D2C0D6018C91982F977009F4D9C0943009F4D6C0887F81608C93D2C0F701248130E0200F311D8D8190E0281739070CF0BAC0D70112968D919C911397F6019283818324
S284005F8090E08C9186FD91E0979599279795D6018C918F77892B8C93CE01B6010E94B930F70181818883D50116968C911697898714968D919C9115979A838983F401848595859C838B83D70114968C91800F8D830E94A0AD2A960AE00E94430386E691E1BE012A97A9010E946C61F7018081869586958695837009F457C0D6019C919F7C0F
S284006000292F20652C9380818695869586958370823019F498659C9303C0277FF6012083D50114968D919C91159760E00E947A32FC01009729F40E941332FC010097A1F18081887F8083D50114968D919C91159792838183D4011C968D919C911D979483838320E0D7018C9186FD21E027952227279590819F74922B892F80658083D701B8
S2840060808C918695869586958370823011F498659083D7018C918695869586958370813019F48081877F8083F7012281338160E0D6018C9187FD61E0C9010E940727882329F08F8182608F831E8209C090E0F5018681811191E08F818E7F892B8F8385E00E94653680E0DF91CF910F91FF90EF90DF90CF90BF90AF909F908F90089520978E
S28400610089F336CF80916F118F5F80936F1181500895CF93DF93EC01DB011982188211961C921E9220916511E0916311F091641190E01AC0828587FD15C0878180FD02C081FF10C0ED93FC93808527E0829FC001112420916C1130916D11280F391F3983288304C09F5F3B96921720F3DF91CF91089520916C1130916D11621B730B27EB34
S2840061803DE6A901649F9001659F300D749F300D1124FC0120870895AC0120E037E010C0239FC0011124E0916C11F0916D11E80FF91F838194814817590709F415822F5F80916E11281760F30895AC0120E037E013C0239FC0011124E0916C11F0916D11E80FF91F818192814817590721F48081887F836080832F5F80916E11281748F377
S2840062000895CB010E94DD24AC01009711F450E02CC080916A1090916B10481B590B83E19AED489F9001499F300D589F300D1124C901880F991F880F991F820F931FE0916C10F0916D10E80FF91F8481582F5770482F4695469546954770242F30E0852F90E0821793070CF4542F852F0895EF92FF920F931F93CF93DF937C0110E007E0F6
S2840062802BC0109FE0011124E0916C11F0916D11EC0FFD1F83819481E816F906E1F485818F5F858381508430B0F0C7010E94DD24FC01009731F0828D80FF03C0CF010E94DD78E0916C11F0916D11EC0FFD1F8081887F836080831F5F80916E11181788F2CDB7DEB7E6E00C94C0C186E691E10E944B61FC013A9731F08BE0DF011D928A95C4
S284006300E9F71286CF010895FF920F931F93CF93DF930E94A0AD0AE00E944303122F032F86E691E1612F702F0E94326180E791E1612F702F0E94326150E08BE0F82EA0EBB4E007E01FEF45C05F9DB0011124E0916311F0916411E60FF71F4285842F90E02091740F30E0E901CA9F9001CB9F300DDA9F300D1124232F3327269526958217C6
S284006380930710F040684287E0916311F0916411E60FF71F828587FF1BC080858F3FC1F0809FC0011124E0916C11F0916D11E80FF91F9081892F8770813019F4987F93609083E0916311F0916411E60FF71F10875F5F80916511581708F4B6CFCDB7DEB7E5E00C94C1C10E94843140916511209163113091641190E007C0F901255F3F4F21
S284006400828587FD06C09F5F9417B8F3E0E0F0E008C0309731F08BE0DF011D928A95E9F71286CF0108950E94843140916E1120916C1130916D1190E008C0F901295F3F4F80818770833021F09F5F9417B0F302C0309739F480E791E10E944B61FC01369749F087E0DF011D928A95E9F78081887F83608083CF010895FF920F931F93CF9359
S284006480DF938C01F62EEA010E9484315091651180916C1190916D11081B190B87EB9DE6089FB001099F700D189F700D1124E0916311F091641140E013C09F01828587FD0DC0818192818C179D0741F480818F1529F4808590E08617970731F04F5F3B96451758F320E030E0C901CDB7DEB7E5E00C94C1C11F93CF93DF93EC01162F0E9448
S2840065008431A0916E11E0916C11F0916D1150E0612F70E019C09F014081842F8770833089F0818192818C179D0761F44423842F992787FD90958827990F881F99278617970731F05F5F37965A1728F320E030E0C901DF91CF911F910895EF92FF920F931F93CF93DF938C01EB01E42EF22ECB01642F0E947A32FC01009779F083819481A0
S2840065800817190711F4168218C0FF20B1F087E0DF011D928A95E9F705C00E941332FC01009759F08081887F8083D283C18314830383EE2011F080688083CDB7DEB7E6E00C94C0C185E26EE671E10E9474A58AE06CE671E10E9474A387E265E671E10E9474A58CE063E671E10E9474A340E015C0242F30E0C90153E0880F991F5A95E1F76E
S284006600821B930BE0916C11F0916D11E80FF91F8081887F836080834F5F80916E11481738F36091631170916411AB014B5E5F4F86E691E1665F7F4F209165110E941B6120E04BE050E03FEF12C0822F90E0BC01649FC001659F900D749F900D1124E0916311F0916411E80FF91F30872F5F80916511281750F360916C1170916D11AB0140
S284006680435F5F4F80E791E16A5F7F4F20916E110E941B6108958AE98093AB108CEA90E10E94773A1092B0100895CF93DF938091AB10853469F58CEA90E10E948C3AFC018091530F83708130F1F48091510F9091520F96FF18C080915B0F90915C0F968385838091580F87838091570F8087118612868CEB93E394878387CF0102960E949E
S284006700DF4C86E434C082EC808B87E48093AB108091AB10873469F58CEA90E10E948C3AEC0180E00E948E248CEA90E10E94943A8889882349F48091B010882311F40E943E2781E08093B010EE85FF85CE01409609958CEA90E10E948C3A892B39F085E48093AB1086E00E94653603C08AE98093AB10DF91CF9108950F931F938C018CEAF0
S28400678090E10E948C3AF8012081FC01208B87E48093AB1086E00E9465361F910F910895BC018CEA90E10E947D3A8091AB108A3931F485E48093AB1086E00E94653608958AE6809376110895A3E0B0E0EAEEF3E30C94A8C19C018091530F8370823049F43A83298383E18B83CE0101960E94C83B03C0C9010E94CC302396E2E00C94C4C174
S284006800A3E0B0E0E6E0F4E30C94A6C18C018091530F8370823011F489E004C0C8010E94373180E01A8309838B83CE0101960E94C83B2396E4E00C94C2C189E0E6E7F1E1DF011D928A95E9F78AE6809376110895FA01908521858091510F84FF2DC08385843051F5E92FF22F8081882349F4828193812FEF883F9207F8F40E94E5301CC064
S2840068808D30D1F4809176118A36B1F481E080937B118281938190937A118093791180EE93E390937D1180937C1187E791E10E940B618EED8093761181E0089520918F11FC01248B82E280937F11089510929011089588E780937F1180E891E10E94773A86E080938611109287118FE3809388118CEB94E390938A11809389118EE594E311
S28400690090938C1180938B118FE894E390938E1180938D1110928F11109290110895EF92FF921F93182F80E891E10E948C3A7C0180E891E10E94943AD70119961C9319971796ED91FC911897C7010996099580E891E10E948C3A892B41F080E280937F1184E891E10E94B56203C088E780937F111F91FF90EF9008950F931F93CF93DF939F
S284006980EC0180E891E10E948C3A8C01CE010E94672488818C7F81608883D80113968D919C9114979B838A8389818061898313968D919C911497BFEF883F9B07A0F50E94A422FC01009779F189818860898380915D0F888B80915E0F898B80915F0F8A8B8091600F8B8B8091610F8C8B8091620F8D8B8091630F8E8B8091640F8F8B8081D8
S284006A0088878181898782818A8783818B8784818C8785818D8786818E8787818F87FE01789688E11EC08981877F898380915D0F888780915E0F898780915F0F8A878091600F8B878091610F8C878091620F8D878091630F8E878091640F8F87FE01709680E180938F1183E08083D80112968C911297818315968D919C91169793838283CA
S284006A8080918F118C5F80938F1181E280937F11DF91CF911F910F910895BC0180E891E10E947D3A80917F11883739F480E280937F1184E891E10E94B5620895CF93DF939C01EB018FEF683F7807F0F4809190118823B9F481E080939011109293113093951120939411709397116093961186E694E3909399118093981181E991E10E948F
S284006B004D35CE010E94E530DF91CF9108950F931F93CF93DF93EC018881823029F48B819C810E94DD240AC02B813C814D815E816F81788589859A850E94FA248C01009739F06B854D850E94F425C8010E947726DF91CF911F910F91089581E380939B1110929C118DE991E10E94773A80EC95E39093B0118093AF1182E08093A41108958A
S284006B800F931F938C018DE991E10E948C3AFC01D8010C91013EF9F420919C112430D8F480915B0F90915C0F9093A6118093A51180916D0F90916E0F9093A8118093A71184EA80939B112F5F20939C1181EA91E10E94D84C07C0058385EA80939B1181E00E9465361F910F9108950F931F9380919B11833A91F58DE991E10E948C3AFC015F
S284006C0015828091510F81FD02C082EC85838281882311F081EC858385818823D9F480915B0F90915C0F9093A6118093A51180916D0F90916E0F9093A8118093A71184EA80939B1181E080939C1181EA91E10E94D84C28C085EA80939B1180919B11853A09F58DE991E10E948C3A8C018DE991E10E94943AD8011396ED91FC911497C8017C
S284006C80059609958DE991E10E948C3A892B39F083EA80939B1181E00E94653603C081E380939B111F910F910895BC018DE991E10E947D3A80919B11813331F483EA80939B1181E00E946536089521E030E040E050E004C0220F331F441F551F8A95D2F78091D50F9091D60F822B932B9093D60F8093D50F2FB7F8948091F9069091FA0622
S284006D0088609093FA068093F9062FBF08951092D60F1092D50F1092F80681E090E090930503809304030895A2E0B0E0EAE9F6E30C94A8C1E091D50FF091D60F20910403309105036091F80640E06F5F220F331F6F3018F021E030E060E0C9018E239F23892BD9F020930403309305036093F8062E273F273093D60F2093D50F70E0660FBC
S284006D80771F6C5B7B4FCE01019642E050E00E94A204E981FA81099509C04F5F4F30A9F630930503209304036093F8068091D50F9091D60F892B61F02FB7F8948091F9069091FA0688609093FA068093F9062FBF2296E2E00C94C4C120E04FE235E010C0249FC0011124E091FD0FF091FE0FE80FF91F8081882319F08B3009F030832F5FF9
S284006E008091FF0F281760F30E94C02983E00E946536089520E04FE234E00EC0249FC0011124E091FD0FF091FE0FE80FF91F80818D3009F430832F5F8091FF0F281770F383E00E946536809101108D7F809301100895DC01FC01B09785E08083858D82FD17C0848181508483882391F011968C911197813E11F484E0808311968C91893E46
S284006E8011F486E08083818183FF02C086E080838081853059F482819381892B39F08181877F818381E0848384E0808383E00E9465360895A1E0B0E0E0E6F7E30C94A6C18C01DC015A96ED91FC915B971982818180FF08C081E0898380858370813011F483E0898382819381BE016F5F7F4F0E942D81F801928B818B898182FF03C0858DA0
S284006F008460858FD80151968D919C9152978F5F9F4F29F4F80181818860818307C0D8015D968C915D9781605D968C932196E4E00C94C2C1CF93DF93FC01EC01AD978081882359F4CE010E945A3789899A898E5F9F4F19F083E0888305C080ED89A385E0888383E00E946536DF91CF910895A0E0B0E0EDEBF7E30C9498C1EE2455E0C52EB7
S284006F80FF24F3944AE0242E47E3342E3BE0832E912CA12CB12C22E0D22E9EEF692E9FEF792E8AE9482E87E3582E98C12FE2E29EC0011124C091FD0FD091FE0FC80FD91F8881833009F4BDC0843030F4882371F0813009F082C13AC0853009F4E9C0853008F4C7C0863009F078C132C189EF9FE00E948C3A009749F0F8829BA38AA389816C
S2840070008460898389EF9FE01EC081EF9FE00E948C3A009749F0F8829BA38AA389818160898381EF9FE00FC085EF9FE00E948C3A009709F452C1F8829BA38AA389818260898385EF9FE00E94943AF882898180FF0CC0EAA1FBA182819681890F898F828107811085081B110906C0EAA1FBA18681898F0481158189E297E39F8F8E8F1B8F25
S2840070800A8FDE867A8A698ADD8680915B0F90915C0F988B8F871C8E1D8E898182FF20C0EAA1FBA10280F381E02D87819085892BB9F0F0930A11E0930911EAA1FBA10280F381E02D0780F085E02DCE0105960995EAA1FBA10280F381E02D828186958C8389899A898E5F9F4F51F5CE010E945A3789899A898E5F9F4F11F5F8018081829554
S284007100869586958370B9F0818180FF02C0FEA201C0DEA2F8018281938198A78FA3868189A7FAA65CA64BA6F9E0F883CE0184960E94002CD2C021ED29A3C88285C083E0888389818F7D89831B821A8283FF0FC0EA8DFB8D828193818F5F9F4F41F46481758180E090E00E9430259B838A8384E08883AA81BB811097A1F0898183FD11C04C
S28400718014968D919C9115979A8B898BCD8EEA8DFB8D64817581CD010E9430259B838A8319A2CE0105960E94D14C9BE0988395C089A129893A89882379F0C9010E940034898181FF0CC0EA8DFB8D62817381848195810E945E3503C0C9010E94E433898180FF16C0EAA1FBA18185838BEAA1FBA189A1828BEAA1FBA1148A158A168A178A0A
S284007200EAA1FBA126853785CF014096F9010995898181FF04C08AA19BA10E94AC80898182FF05C08AA19BA169A10E946A62809100108C838981807E89831B821A8218821D8E83E00E94653683E00E94653645C08091011081FD3FC00E9492049C01898182FF10C0EAA1FBA10280F381E02D848190E0282339238381280F311DC901A0E09C
S284007280B0E009C083FF10C0C901A0E0B0E08F739070A070B0708093081090930910A0930A10B0930B1008C08092081090920910A0920A10B0920B10F0920C1030920E1020920D108091011082608093011082E090E10E9431AEEDE0E883E3948091FF0FE81608F463CECDB7DEB7E2E10C94B4C1BC0189EF9FE00E947D3A83E00E9465368A
S2840073000895BC0185EF9FE00E947D3A83E00E9465360895BC0181EF9FE00E947D3A83E00E94653608950F931F9383E08093001086E06FEF7FE00E9474A581E06DEF7FE00E9474A382E090E10E94C7AD809101108C7F8093011010E00FE217C0109FC0011124E091FD0FF091FE0FE80FF91F8091001084838181807E8183138212821082BE
S284007380158E83E00E9465361F5F8091FF0F181728F381EF9FE00E94773A85EF9FE00E94773A89EF9FE00E94773A1F910F910895A1E0B0E0EEEDF9E30C94A8C119820E94D7AC823051F0833018F4882391F014C0833039F0843081F408C08981887F82600EC08981887F83600AC08981887F846006C08981887F03C08981887F8160898383
S28400740069816F7C6061698383E00E946B3A2196E2E00C94C4C10E94CAAC8FEF0E94E8AC8FEF0E94E8AC0E94C8AC86E00E94E8AC0E94C6AC82E068E00E946B3A8FEF0E94E8AC8FEF0E94E8AC81E00E945D3A8F718830D1F70E94D8398EE060E00E946B3A0E949AAD0E94BDAC0E94C0AC08951F93CF93DF93EC01162F289880E60E94A8AC69
S28400748004C089910E94A8AC11501123D1F7289ADF91CF911F9108951F93CF93DF93EC01162F05C080E20E94A8AC899311501123C9F7DF91CF911F9108951F932898182F1F731068812F0E94A8AC812F0E94A8AC289A1F9108951F93162F2898806C0E94A8AC812F0E94A8AC289A1F910895FC0111821082938382830895CF93DF93FB01FE
S284007500EC01AA81BB816D937C937B836A8311821082DF91CF910895FC01808191810895FC01808191810895FC01A081B181109711F480E008958D919C9191838083892B11F081E0089511821082F383E28381E00895CF93DF93EC01A881B981109719F1CB01A617B70759F48D919C9199838883892BC9F419821882DB83CA8314C09D0122
S2840075800D90BC91A02DA817B907C9F7F9018D919C911197918380838A819B818A179B0711F43B832A83DF91CF910895FC01009719F420E030E002C020813181C9010895E0E0F0E021E030E0B9010E2E02C0660F771F0A94E2F78091F9069091FA0686239723892BC9F04FB7F8942091F9063091FA06CB0180959095822393239093FA06B5
S2840076008093F9064FBFEE0FFF1FEA5FFC4F0190F081E02D099504C03196EB30F105A1F68091F9069091FA0620E0892B09F021E0822F08950E94E03A08951092D2130895A8E0B0E0E6E2FBE30C94A8C190934F1480934E1483E190E09093DA138093D9138DEF9FEF9093DD138093DC1387E1BE016F5F7F4F0E9474A58981809309148A8125
