:100000000C943A030C9480030C9480030C948003AA
:100010000C9480030C9415BF0C941DB20C94E1C099
:100020000C94B2C00C9480030C9480030C94800355
:100030000C9480030C94BEC20C9480030C9408C3EF
:100040000C9480030C9480030C9480030C94800324
:100050000C9480030C9480030C9480030C94800314
:100060000C9480030C94D6BF0C9436C00C9408C03A
:100070000C9480030C94ACC30C9493C10C94800337
:100080000C9480030C9480030C9480030C948003E4
:100090000C9448BF0C94A8BF0C947ABF0C9419C15F
:1000A0000C9480030C9480030C945CBE0C9445B2B9
:1000B0000C9480030C9480030C9480030C948003B4
:1000C0000C9480030C9480030C9480037929862976
:1000D000AA29BC29C329D029DC29E729EF29032A29
:1000E00060418F41F543B94128433E43F5438D427A
:1000F000DF420B430E431D435343F543F543C743D0
:1001000032505F505F505F5037504C504150465016
:1001100064503C505150515056505F509B509E502F
:10012000A150A150A450B050AA50AD50C050A750FB
:10013000B350B650B950BC50CF51D351F551D751EF
:10014000DB51F551DF51F551E651EA51F251A1571A
:100150007F58925813571E591E598D5892589558CA
:10016000EF58C2581E591E59EF587857F458DE7789
:10017000D277737721782178BA77C7772178217879
:100180002178E677F57793779F77217870771B8DC5
:100190007B8DB28D9B8D8F8DB28DBF8D0F8E0F8E0F
:1001A0000F8E0F8E0F8E0F8E0F8E0F8E0F8E9B8DDC
:1001B000B28D0F8E0F8DA48D898D4F8E548EE98E4A
:1001C000378F4D8F379069901B911B911B911B911D
:1001D0001B911B911B911B911B910F90F88F1B91F1
:1001E0003E8E1690D58EA7973B9716981698169820
:1001F00040974597BD97169848974B976397689790
:1002000016986B976E977197169876977997BD9712
:100210007E979C97B09716989F97A2973E97A59721
:10022000A597BD97BD97BD97BD97BD97BD97BD9746
:10023000BD97BD97BD97BD97BD97BD97BD97BD971E
:10024000BD97BD978397BD971698169816981698E0
:10025000169816981698169816981698169816982E
:1002600016981698BD97B397B6974E994E98509991
:10027000509950995298599850995099609864980B
:100280007D988498509988988F98989850999F98BD
:10029000A3985099AA98CA98D9985099CE98D59869
:1002A0004E994E994E99E198E198E198E198E1983C
:1002B000E198E198E198E198E198E198E198E19876
:1002C000E198E198E198E198B198E19850995099B6
:1002D00050995099509950995099509950995099D6
:1002E0005099509950995099E198DD984E99D19A2A
:1002F000CF9ACF9AFE9A059B189B209B239B269B07
:10030000299B2C9B3B9C429C519C599C5B9C5D9CDB
:100310005F9C629C70A473A476A479A47CA47FA43F
:1003200082A485A488A48BA48EA491A494A497A449
:100330009AA49DA4A0A4A3A4A8A4D5A5D1A563A66E
:10034000D9A57AA561A524A52BA532A536A59CA57E
:10035000A9A548A5DDA53FA563A663A663A663A6D8
:10036000EAA593A5B2A5CDA5F7A5FFA508A663A606
:1003700063A663A663A663A6C5A5C9A557A621A6BD
:1003800028A62CA64CA633A63CA612A644A663A675
:1003900063A619A628A728A728A766A7A8A666A7C0
:1003A00026A726A766A726A766A7A2A6A5A6A8A6EB
:1003B000AAA6ADA6C5A67EA683A68AA63DA7DEA64A
:1003C000E7A6EAA690A677A628A7F3A664A764A73F
:1003D00099A68DA6F6A605A708A70DA713A722A77D
:1003E00066A724A726A728A72AA72DA730A743A733
:1003F00047A74AA76AA74FA758A71AA75EA764A747
:1004000066A71FA768A78A0C1D480000CD1F5220B1
:10041000C53ACC236D8362755C6A97697D340000B0
:100420001C65917BDF3682640E22722A5181A08383
:10043000A66FAF690000000000009B354F35726267
:100440004B650000922827378162E938392B3B2C15
:100450008734AF831B69AA6AAE79DA74E57CB76921
:10046000D1230000000002400305000000010864E1
:10047000000C0164000000FFFFFFFFFFFFFFFFE82B
:10048000030000E82FDD2E5A35DA7B000072737707
:1004900076237F00000000170400100C00151400E4
:1004A0001618001919001F1A00201B00231C002415
:1004B0001D00311E00332F002F3100323300213454
:1004C000001135001437002D3800123900133B009D
:1004D0000F3C002E440000FFFF004500111D0109E4
:1004E0003C01646464646464646464646464646457
:1004F00063636363636363636363636363626262CF
:10050000626262626161616161606060605F5F5FE1
:100510005E5E5D5D5D5C5C5B5B5A59595857575632
:100520005554535251504F4E4D4B4A494745444202
:10053000403E3C3A383634312F2C2A2928282727A8
:100540002626252525242424232323232222222270
:100550002121212120202020201F1F1F1F1F1E1EA0
:100560001E1E1E000001000200030004000500061C
:10057000000700080009000A000B000C000D000E27
:10058000000F00100012001400160018001A001CC2
:10059000001E00200022002400260028002A002C33
:1005A000002E003100350039003D00410045004972
:1005B000004D005100550059005D00610065006963
:1005C000006D0073007B0083008B0093009B00A3F1
:1005D00000AB00B300BB00C300CB00D300DB00E3E3
:1005E00000EB00F70007011701270137014701570A
:1005F000016701770187019701A701B701C701D7FB
:1006000001E701FF011F023F025F027F029F02BF5D
:1006100002DF02FF021F033F035F037F039F03BF4D
:1006200003DF030F044F048F04CF040F054F058F22
:1006300005CF050F064F068F06CF060F074F078F12
:1006400007CF072F08AF082F09AF092F0AAF0A2FCE
:100650000BAF0B2F0CAF0C2F0DAF0D2F0EAF0E2FBE
:100660000FAF0F07B72CB630B603B734B638B603A2
:1006700004050607112480914518823141F084B7A2
:100680008F718093451880FF05C081E001C081E132
:100690008093451814BE809160008861809360004B
:1006A0001092600011241FBECFEFD1E2DEBFCDBF9C
:1006B00012E0A0E0B2E0EAEAFEE801E00BBF02C00F
:1006C00007900D92A638B107D9F718E1A6E8B2E075
:1006D00001C01D92A534B107E1F70E9496B10E94B6
:1006E0003D3B2FB7F89480919506909196068061D6
:1006F00090939606809395062FBF0E94123CFDCFE3
:100700000C9400007F937FB7F8949D9AA5988AEF88
:100710000E94E1038AEF0E94E1039D9886E40E9413
:10072000E10381E0959980E08F9380EF0E94E103DF
:100730008F917FBF7F9108957F937FB7F8949D9AA3
:10074000A59886E00E94E1039D988AE00E94E1035B
:10075000889495990894881F8F9384E60E94E103FA
:100760008F917FBF7F9108959F937F9398E00E9420
:100770009C03879577959A959923C9F7872F7F9141
:100780009F9108957F937FB7F894A5989D9A8F9332
:1007900086E00E94E1038F91879508F49D988F93DE
:1007A00084E60E94E1038F919D987FBF7F91089519
:1007B0009F9398E00E94C2039A959923D9F79F913D
:1007C000089500000000000000008A958823C9F702
:1007D00008955F937F937FB7F894CF93DF93C0E042
:1007E000D0E07F935091B2007091B2007517E1F3A1
:1007F000739521965091B2005717D9F77F91CE018A
:10080000DF91CF917FBF7F915F910895EF92FF922B
:100810000F93DF93CF93CDB7DEB760970FB6F89401
:10082000DEBF0FBECDBFA82F002309F461C07E013B
:100830000894E11CF11C88E0F70111928A95E9F710
:1008400029833A834B835C836D837E83AF83988750
:1008500080E2801BE82FFF27E7FDF0954D815E8148
:100860006F817885181684F01D861E861F86188A6B
:10087000882799278E1B9F0B04C0769567955795FF
:1008800047958A95D2F728C0202F332727FD30952A
:10089000DB01CA01022E04C0B695A79597958795EE
:1008A0000A94D2F78D879E87AF87B88B04C0440F18
:1008B000551F661F771FEA95D2F789819A81AB8110
:1008C000BC8104C0B695A795979587952A95D2F7D0
:1008D000482B592B6A2B7B2B49875A876B877C8740
:1008E00029853A854B855C856D857E85AF859889A0
:1008F0008A2F60960FB6F894DEBF0FBECDBFCF91A2
:10090000DF910F91FF90EF900895EF92FF920F9378
:10091000DF93CF93CDB7DEB760970FB6F894DEBF05
:100920000FBECDBFA82F002309F461C07E0108943B
:10093000E11CF11C88E0F70111928A95E9F72983FF
:100940003A834B835C836D837E83AF83988780E299
:10095000801BE82FFF27E7FDF09549815A816B81C5
:100960007C81181684F019861A861B861C868827B7
:1009700099278E1B9F0B04C0440F551F661F771FBE
:100980008A95D2F728C0202F332727FD3095DB0129
:10099000CA01022E04C0880F991FAA1FBB1F0A9408
:1009A000D2F789879A87AB87BC8704C0769567950D
:1009B00057954795EA95D2F78D819E81AF81B8858D
:1009C00004C0880F991FAA1FBB1F2A95D2F7482B76
:1009D000592B6A2B7B2B4D875E876F87788B2985F8
:1009E0003A854B855C856D857E85AF8598898A2F94
:1009F00060960FB6F894DEBF0FBECDBFCF91DF91EA
:100A00000F91FF90EF900895A0E0B0E0EAE0F5E0EC
:100A10000C9405C7EC01A880B980CA80DB80A114C2
:100A2000B104C104D10441F484E2A82E89EDB82EAA
:100A30008BE5C82E87E0D82EC601B5012DE133EF36
:100A400041E050E00E943AC727EA31E440E050E03C
:100A50000E9489C67B018C01C601B5012DE133EFEF
:100A600041E050E00E943AC7CA01B9012CEE34EFD0
:100A70004FEF5FEF0E9489C66E0D7F1D801F911F93
:100A800097FF04C06150704080409048688379832C
:100A90008A839B839B013F77C901CDB7DEB7EAE02C
:100AA0000C9421C70E940405089581E892E00E94F9
:100AB00004050895A0E0B0E0809381029093820243
:100AC000A0938302B09384020895FB01DC0102C06D
:100AD00005900D9241505040D8F70895FB01DC017C
:100AE00004C08D910190801921F441505040C8F705
:100AF000881B990B0895FB01DC0102C001900D9247
:100B000041505040D8F70895DC0101C06D93415029
:100B10005040E0F708950F931F938C010E94CF0B74
:100B2000F801858D968D0E94D70A1F910F91089527
:100B3000109287020E940E060895909187029230CB
:100B400071F0933030F49923E1F1913009F059C0FC
:100B50001BC0943019F1953009F053C02DC0882383
:100B600021F0853009F04DC009C00E942F060E9477
:100B7000CF0A88E096E00E94850A089581E080937C
:100B800087020E94C80A1AC08823D9F50E94CB0B9D
:100B90008EED9FE00E94D70A84E00BC0882319F0F5
:100BA000883079F505C08FEA9FE00E9438B3089538
:100BB00082E08093870202C0109287020E940E0694
:100BC00008958823F1F48FEA9FE00E94CEB280E17D
:100BD00097E2A0E0B0E08093B50F9093B60FA0939A
:100BE000B70FB093B80F81E08093B90F82E096E021
:100BF0009093BB0F8093BA0F82E0809387020E948C
:100C00000E06089588E060E070E00E949D0508955A
:100C100085E060E070E00E949D0508952FB7F8948C
:100C20008091950690919606926090939606809397
:100C300095062FBF089580918602823079F483E073
:100C4000809386022FB7F89480919506909196062E
:100C5000926090939606809395062FBF0895A4E026
:100C6000B0E0E5E3F6E00C940DC78091F50F9091AC
:100C7000F60F9A838983CE0101960E94523C8B81A4
:100C80008093F70F8C818093F80F2496E2E00C9408
:100C900029C780918602823029F487E060E070E005
:100CA0000E94B40808950E94E90B0895882361F416
:100CB00080918902882381F484EA92E00E9438B30B
:100CC00081E0809389020895813031F41092890285
:100CD00084EA92E00E94CEB2089580918A0288232D
:100CE00011F40E94980580918A02813011F40E94CB
:100CF0008A0980918A02823011F40E94A70808951F
:100D0000AAE0B0E0E6E8F6E00C9409C7F82E8B0103
:100D1000EE24E394E98280918602823081F0833070
:100D200038F4882309F45AC0813009F0F6C10AC1A9
:100D3000833009F470C1843009F0EFC1BDC1FF20D8
:100D400029F082E0F81609F0E8C11CC080918A02FF
:100D5000882321F460E070E00E949D0580918A0262
:100D6000813029F480E060E070E00E949709809172
:100D70008A02823009F0D1C180E060E070E00E9418
:100D8000B408CBC1FB018081803909F491C181395C
:100D900020F48E3808F4C1C10AC0813909F0BDC100
:100DA000E09286020E94D70B10928802AAC1FB0132
:100DB000868197819093E90F8093E80F83819481D6
:100DC0009093F30F8093F20F818192819093F60FAD
:100DD0008093F50F85818093F40F9FC1FF2009F068
:100DE0009CC10E94BE0B8091DF0F882311F40E94EA
:100DF000730B87E3BE016E5F7F4F0E9466A68A81F8
:100E0000882381F080E090E060E070E00E9469ACAF
:100E10000E9480AB80FF04C00E9474A70E949CB90E
:100E20000E9451AC80E092E09093A1028093A002D6
:100E30000E947FAF80FF05C01092DF0F8BE895E026
:100E40000DC081FF06C081E08093DF0F89E899E043
:100E500005C082E08093DF0F86EA98E09093A302BA
:100E60008093A20287E1BE016D5F7F4F0E9466A65C
:100E70008B818093E00F8C818093E10F8D81809333
:100E8000E20F8E818093E30F8F818093E40F88853A
:100E90008093E50F89858093E60F8A858093E70F1D
:100EA0008DE992E00E941F0D8091DF0F80938A02EE
:100EB00089E16AE872E00E9416A58091DF0FBE0109
:100EC0006F5F7F4F823011F4198202C081E0898305
:100ED0008FE10E9416A521E02093DE0F80E090E8CC
:100EE000A0E0B0E08093EE0F9093EF0FA093F00F8F
:100EF000B093F10F80E091E0A1E0B1E08093EA0FC0
:100F00009093EB0FA093EC0FB093ED0F2093F90F9C
:100F10008CE08093FA0F84EF91E0A0E0B0E0809342
:100F2000AA029093AB02A093AC02B093AD021092D0
:100F3000AE0283E596E09093B0028093AF022093D7
:100F40008602DFC0F1E0FF16C9F0FF1628F082E04C
:100F5000F81609F0E2C038C080E00E9456060E94F0
:100F6000E90B109288028BE998E090939C028093A1
:100F70009B028BE892E00E948B3FCFC081E00E94F1
:100F80005606F8018785882309F0BBC082E080936C
:100F90008602109288020E94DF0BF80183819481FF
:100FA0009093F30F8093F20F818192819093E90FD8
:100FB0008093E80F858596859093F60F8093F50FC3
:100FC00080818093F40F24C0FB0180818F3809F069
:100FD000A4C0FB01838194819093F30F8093F20F5F
:100FE000868197819093E90F8093E80F81819281A8
:100FF0009093F60F8093F50F85818093F40F81E035
:101000000E945606F0928602109288020E94DF0B20
:101010000E946D0682C0F2E0FF1609F442C083E030
:10102000F816B9F1FF2009F078C00E94DB0B86E9C1
:1010300098E090932D0380932C0384E390E09093A9
:10104000B8028093B702E092B9028AEB92E0109264
:10105000BA021092BB021092BC021092BD02109212
:10106000BE021092BF021092C0021092C102FC0197
:10107000BB961092E50211821282138214821582AD
:101080001682178220E42093ED0209970E943247CE
:1010900044C0FB0182858823A1F584E08093860209
:1010A00030C0FB016081603919F06139B1F527C0AA
:1010B00084E08093860231C0F2E0FF1671F5FB01F7
:1010C00080818F3819F0813941F519C0F09286027C
:1010D000FB01868197819093E90F8093E80F8381CC
:1010E00094819093F30F8093F20F8181928190937A
:1010F000F60F8093F50F85818093F40F02C0E09284
:1011000086022FB7F894809195069091960692608A
:1011100090939606809395062FBF2A96E6E00C944E
:1011200025C7BC0182E00E9480060895BC0183E0CF
:101130000E9480060895BC0181E00E948006089507
:1011400080E060E070E00E9480060895089580913C
:101150008702853021F487E08093870208951092FA
:1011600087020E940E060895FB019091870293303A
:1011700009F458C0943030F4913009F446C09230EC
:10118000A8F572C0963009F45FC0973009F4AAC080
:10119000953009F0ADC0853031F18630E9F084300A
:1011A00009F0A6C08081882329F40E94D30B1092F5
:1011B000880217C0809188028F5F809388028530F3
:1011C00038F010928702109288020E941B06089540
:1011D00081E08093870283C08081882311F483E0BB
:1011E0001EC083E0F6CF0E94C80AF2CF882309F020
:1011F0007FC00E94CF0A0E942F0685E0809387025D
:1012000083E899E00E94850A0895882309F070C058
:101210000E94C70B88E090E10E94E81885E0809367
:1012200087020895882321F0873009F061C008C043
:101230000E94BB0B0E94B80B892B71F486E0C9CFCA
:101240000E94C10B82E0C5CF882309F051C00E94E3
:10125000B80B892B09F443C085E0809387028EE7A1
:1012600093E00E940E3F0895882309F041C08EE765
:1012700099E09093800380937F0380910102909185
:101280000202909317108093161032E030930A10E8
:1012900010920C1010920B1021E02093151081E099
:1012A00090E0909319108093181020931A1089E2FF
:1012B00080931B108EED9FE090931D1080931C1067
:1012C00080911E10846080931E1010921F1089E779
:1012D00099E09093211080932010309387020E9410
:1012E0000E060895882321F0109287020E940E06B0
:1012F0000895BC0184E00E94B4080895BC0186E012
:101300000E94B408089585E060E070E00E94B4088F
:101310000895089580918702853021F487E08093B5
:1013200087020895109287020E940E0608951F9367
:10133000182FFB0180918702823009F44AC0833064
:1013400038F4882309F469C0813009F0BAC050C06C
:10135000853039F0873009F4AEC0843009F0B1C06F
:1013600051C0153031F0183081F1143009F0A9C0A6
:1013700006C081E0809387020E94C80AA0C08081D5
:10138000882389F40E94D30B1092880280E090E0B9
:101390000E946D349093F60F8093F50F0E942F06F4
:1013A000109387028CC081E080938702809188022D
:1013B0008F5F80938802853008F481C01092870285
:1013C000109288020E941B067CC082E080938702F4
:1013D00076C0112309F075C00E942F060E94CF0A23
:1013E00085E0809387028EE69AE00E94850A69C0B4
:1013F000112309F066C00E94C70B88E090E10E94AB
:10140000E81807C0112309F05CC08FEA9FE00E9432
:1014100038B385E08093870254C0112309F051C08E
:101420008FEA9FE00E94CEB280E197E2A0E0B0E0B8
:101430008093B50F9093B60FA093B70FB093B80FEA
:1014400021E02093B90F88E69AE09093BB0F809338
:10145000BA0F80910102909102029093171080932D
:10146000161032E030930A1010920C1010920B10EC
:101470002093151081E090E090931910809318103C
:1014800020931A1089E280931B108EED9FE09093B9
:101490001D1080931C1080911E10846080931E107C
:1014A00010921F1083E69AE09093211080932010F1
:1014B0003093870204C0112321F0109287020E940A
:1014C0000E061F910895BC0184E00E9497090895BB
:1014D00088E060E070E00E949709089585E060E090
:1014E00070E00E949709089590E0A0E0B0E080933A
:1014F000FB0F9093FC0FA093FD0FB093FE0FE091B4
:101500008103F0918203099508959093820380935B
:1015100081038EE89AE00E94D0AF0895882371F08D
:10152000CB01AA2797FDA095BA2F8093FF0F909328
:101530000010A0930110B093021008C01092FF0F8A
:101540001092001010920110109202108BEA9AE093
:101550000E94B5AF0895882371F0CB01AA2797FDAB
:10156000A095BA2F8093031090930410A0930510B8
:10157000B093061008C0109203101092041010923D
:1015800005101092061084E79AE00E949AAF089521
:101590000E94D3AF0E94B8AF0E949DAF08950E94F1
:1015A000DFAF0E94C4AF0E94A9AF08950895CF9302
:1015B000DF93682F80913E058530F0F58F5F809333
:1015C0003E0520913D0588E5289FA00111244D5737
:1015D0005C4F822F8F5F80933D05853018F024503B
:1015E00020933D05262F392FC901EC01FA0180E136
:1015F000819382E0DA0111968C93DF01119690E0DD
:1016000020E08881803111F48D93905F8881980F5C
:101610008D932F5F293211F02196F3CFFD0180E1E8
:10162000819383E011968C939B5D9183DA01A95A93
:10163000BF4F3296E41BEC9380913B058823E9F081
:1016400080913E058823C9F080913C0590E028E513
:1016500030E0829FF001839FF00D929FF00D1124E6
:10166000ED57FC4FE95AFF4F4081E755F0408FE3BB
:1016700095E0BF0150E00E94EEB4DF91CF91089554
:1016800080913E05882371F0815080933E059091B2
:101690003C05892F8F5F80933C05853018F094506E
:1016A00090933C0581E080933B0580913E05882323
:1016B000C9F080913C0590E028E530E0829FF00180
:1016C000839FF00D929FF00D1124ED57FC4FE95AC6
:1016D000FF4F4081E755F0408FE395E0BF0150E0B8
:1016E0000E94EEB4089588EC90E0909349058093B1
:1016F000480510924A0510925E0589E190E09093AA
:101700004C0580934B0586E080934D0510924E0565
:1017100010924F05109253051092520510925505E4
:1017200010925405109257051092560510925905C3
:101730001092580586ED9AE090935B0580935A05C8
:1017400080E49BE090935D0580935C058FE395E0DA
:101750000E940BB78CEB91E0E3E8F3E0DF019C0122
:101760001D9221503040E1F781E080933B050895C0
:1017700081E090E008950E9410AB08950E941BAB99
:1017800008950E941BAB80E00E94E2AA089582E0C7
:101790000E94E2AA089582E00E94FCAA089581E0D6
:1017A0000E94FCAA089582E00E94EFAA089582E0B8
:1017B0000E94EFAA089582E00E94EFAA089580E0B7
:1017C0000E94E2AA81E00E94EFAA82E00E94EFAAB2
:1017D000089580E00E94FCAA81E00E94EFAA82E0C6
:1017E0000E94EFAA0895482FA0910C02B0910D021B
:1017F00005C08C9111969C919C01D901109739F0EC
:101800001396ED91FC9114978081481791F7CD01C3
:10181000089580910C0290910D020895E0915F056A
:10182000F091600520813181CF010296F90109957F
:101830000895009729F48CE092E00E94BE3B089541
:101840000E94083C0895CF93DF93EC011A82909395
:10185000600580935F050E948C20833091F484E0C2
:101860000E9485200E94A7B2C901BA012093670592
:10187000909368054093690570936A050E942A0F4A
:1018800002C083EA8A831092610510926205109269
:1018900063051092640580E00E94C120809161057B
:1018A00090916205A0916305B09164058360809377
:1018B000610590936205A0936305B0936405DF9181
:1018C000CF91089590E080959095AA2797FDA095D7
:1018D000BA2F2091610530916205409163055091C6
:1018E000640582239323A423B523809361059093F9
:1018F0006205A0936305B09364050097A105B10547
:1019000041F480E00E94B31B85E00E9485200E9484
:101910000E0C08950E948C20853021F00E948C20AE
:10192000843019F480E00E94620C0895CF93DF9315
:10193000EC011A820E948C20823011F0853021F453
:1019400083E00E94852002C083EA8A830E94820E7F
:10195000E881F981CE0102960995DF91CF91089532
:101960000F931F938C01909366058093650581E02A
:101970000E948520F801808180936D058BEC9CE0AE
:1019800090936F0580936E058BE695E00E94622A26
:101990001F910F9108951F93CF93DF93EC01E09176
:1019A0006505F091660510810E948F20882311F053
:1019B0000E94F114812F0E949220109260051092D3
:1019C0005F051092610510926205109263051092F6
:1019D00064050E94DD200E941E4881E00E94B31B26
:1019E000812F0E945320812F0E94A348E09165051A
:1019F000F09166058081882311F083E001C082E0C8
:101A00000E948520E0916505F091660588818383B9
:101A100021813281CF010396F90109951092660563
:101A200010926505DF91CF911F9108950E94512A70
:101A30008CE092E00E94A93B0E941E480895CF933B
:101A4000DF93EC01EB81FC814081842F8150803F4A
:101A5000E0F4A0910C02B0910D0205C08C9111969A
:101A60009C919C01D901109741F01396ED91FC9146
:101A700014978081481791F708C08A818E7F8A83E6
:101A80008CE092E0BE010E94AF3BDF91CF910895C0
:101A9000809174058150809374050895EF92FF92B0
:101AA0000F931F93E82E90917B05409180055091F4
:101AB000810510E060E070E082C0FA0187814A5D34
:101AC0005F4F9B012A5D3F4F882309F076C082E07B
:101AD000E816E1F0E81620F084E0E81609F072C09C
:101AE00090917F0580917D05981708F06BC09F5FEE
:101AF00090937F051382148215821682E0918005EF
:101B0000F0918105E60FF71F128644C090917E0583
:101B100080917C05981708F055C0F0907805A09149
:101B20007905B0917A0500E020E030E02DC0FD019C
:101B3000E20FF31FA9014D5D5F4F808180FD22C040
:101B40009F5F90937E05808181608083E09179051D
:101B5000F0917A05E20FF31F110F110F808183704E
:101B6000812B8083E0918005F0918105E60FF71FBE
:101B70008091790590917A05820F931F4796938BF8
:101B8000828B04C00F5F9A010F1588F2809178054F
:101B90008017C1F0E0918005F0918105E60FF71FF5
:101BA000118681E08783E086118210822091800572
:101BB00030918105260F371F07C01F5FB901191724
:101BC00008F47BCF20E030E0C9011F910F91FF9016
:101BD000EF900895CF93DF93209180053091810598
:101BE0008217930708F45DC0821B930B66E270E0D6
:101BF0000E94B4C680917B05681708F052C086E247
:101C0000689FE0011124F901EC0FFD1F118680850A
:101C1000823061F0823010F08430E1F580917F05F0
:101C20008823C1F1815080937F0534C080917E0567
:101C3000882319F0815080937E0520917905309199
:101C40007A0582899389821B930B63E270E00E947C
:101C5000B4C680917C056817A8F483E2689FB00140
:101C60001124F901E60FF71F808180FF0BC08E7FE2
:101C70008083E0917905F0917A05E60FF71F808166
:101C80008D7F8083E0918005F0918105EC0FFD1F31
:101C9000138A128AE0918005F0918105EC0FFD1FF7
:101CA0001782DF91CF910895FC01138A8091770507
:101CB00081508093770521893289CF014396F901BC
:101CC00009950895FC01DA010097D9F0628F41155A
:101CD000510551F08D919D910D90BC91A02D838F58
:101CE000948FA58FB68F04C0138E148E158E168E0A
:101CF000208D318D2115310521F0CF014A96F90152
:101D000009950895A5E0B0E0E8E8FEE00C9409C765
:101D100080E3BE016F5F7F4F0E9466A68E010E5F5B
:101D20001F4F88E1B8010E9466A62A813B814C8141
:101D30005D81898190E0A0E0B0E082179307A4075D
:101D4000B50760F0220F331F441F551F2A833B83C2
:101D50004C835D8388E1B8010E9416A5898190E0DB
:101D60000796AA2797FDA095BA2F7C018D0124E044
:101D7000EE0CFF1C001F111F2A95D1F7E81AF90A73
:101D80000A0B1B0B8A819B81AC81BD81E80EF91E79
:101D90000A1F1B1FE0929F05F092A0050093A1056A
:101DA0001093A20570919E0560E020E030E040E0D5
:101DB00050E00FC0D801C701062E04C0880F991F3C
:101DC000AA1FBB1F0A94D2F7280F391F4A1F5B1F97
:101DD0006F5F671778F3CA01B90124EF31E040E083
:101DE00050E00E94DBC62E5F2093A30582E895E0B9
:101DF00060E024EF31E040E050E000E11FE00E94AD
:101E0000312180E995E060E02AE030E040E050E0F8
:101E10000EE410E10E9431212596E6E00C9425C7DE
:101E20003091A405E0917105F091720590E021E0F8
:101E300008C08381882319F08150838320E09F5F4D
:101E400035969317B0F3222321F082E895E00E94A3
:101E50002821089580E995E00E94282182E895E0F4
:101E60000E94282183E00E94C120089520917405DA
:101E70002F5F209374050E9405240895A1E0B0E02F
:101E8000E4E4FFE00C9408C77C018B0180917605A7
:101E9000DB0154968C9354978F5F80937605F701FE
:101EA000878955968C935597DD24D3945796DC9269
:101EB000579758961C9258978CEC98E15A969C9399
:101EC0008E935997838951968C93519784899589DC
:101ED00053969C938E93529782E2BE016F5F7F4F21
:101EE0000E9466A689818823D9F582E0D8011E96D2
:101EF0008C931E978DEF9FEF50969C938E931F9718
:101F000051968C915197875F51968C935197529629
:101F1000ED91FC91539739975396FC93EE9352971A
:101F200056961C92D70113968D919C91149792838B
:101F3000818350968D919C915197948383831E96B3
:101F40008D919C911F979683858352968C91878360
:101F50008091750580878F5F8093750583E035C01C
:101F6000F801D686D70113968D919C911497908B8A
:101F7000878753968C915397885F818B5496ED9108
:101F8000FC9155973897D8015396FC93EE9352974E
:101F90008091CC1256968C938FEF8183D701509607
:101FA0008D919C915197938382831E968D919C91E4
:101FB0001F979583848352968C91868380917505B3
:101FC00087838F5F8093750580E0D8015296ED91ED
:101FD000FC915397880F880F8083C8010B960E944D
:101FE000360F80E02196E7E00C9424C782E88093C6
:101FF000D3058091BB058093D4058091B70590915E
:10200000B8059093D6058093D5058091B905909138
:10201000BA059093D8058093D7058091B605809333
:10202000D9058091BC058093DA0582E08093DB05B9
:102030008091B2058093DC058091B3058093DD0526
:1020400082E08093E20583ED95E02091B405309124
:10205000B5053093E4052093E3052BE02093E505D7
:102060009093E7058093E605209176052093E80597
:102070002F5F209376051092E9051092EA0521E082
:102080002093EB051092EC0528E43DE03093EE053B
:102090002093ED050C960E94360F0895DF92EF9283
:1020A000FF920F931F9301E010E0F6E2DF2EE3E0D2
:1020B000EE2E77E0F72E3AC01D9D90011124E0919D
:1020C0008005F0918105E20FF31F8781882369F174
:1020D0008185823051F58085813011F0843029F579
:1020E00083819481A581B6818A309105A105B105CE
:1020F00048F00A97A109B10983839483A583B68325
:1021000000E013C0E1861382148215821682E091EA
:102110008005F0918105E20FF31F8085843011F472
:10212000F092780683E00E94C1201F5F80917B05BA
:10213000181710F28091AC059091AD05A091AE05F5
:10214000B091AF050097A105B105E9F08A3091057E
:10215000A105B10560F00A97A109B1098093AC050A
:102160009093AD05A093AE05B093AF0512C0109249
:10217000AC051092AD051092AE051092AF0510920D
:10218000A5050E94F60F002321F080E995E00E944A
:1021900028211F910F91FF90EF90DF900895CF932A
:1021A000DF93EC01A0917105B09172059091A405A7
:1021B00085E0989F900111242A0F3B1FE0E0F0E09A
:1021C0004DC013964C911397442309F440C08D9150
:1021D0009C9111978C179D07D1F512962C9112970F
:1021E000261B2830D0F414963C911497832F90E04E
:1021F000022E02C0959587950A94E2F780FF02C0EF
:1022000081E03FC081E090E002C0880F991F2A95CD
:10221000E2F7382B14963C9333C0219512966C93B9
:102220001297283010F080E009C014968C91149712
:1022300090E002C0880F991F2A95E2F781601496FA
:102240008C9314978091A30513968C9319C03097A3
:1022500019F08381481708F4FD011596A217B307FA
:1022600008F4AFCF309761F0D183C083628380914F
:10227000A305838381E0848382E895E00E94532153
:1022800080E0DF91CF9108950F931F93CF93DF9359
:102290008C01C0E0D0E014C0EB81FC8180818823F8
:1022A00079F08A8180FD0CC021813281F801808D16
:1022B000918D2817390721F4ED81FE81C801099518
:1022C000CE010E94190CEC01009731F7DF91CF91FC
:1022D0001F910F910895A7E2B0E0E1E7F1E10C94BE
:1022E00006C78C01B62EDC011D968C91882329F13E
:1022F0008F3F19F10E94F30B6C01009769F0DC012C
:102300001396ED91FC91149721813281F801868515
:1023100097852817390741F0D80156968C9182FF8E
:1023200010C0B7EAEB2E06C0F601828180FF09C01B
:10233000A1EBEA2EFF24F39406C0EE24CC24DD2486
:1023400001C0EE24FF24BB2031F0C8016E2D40E017
:1023500050E00E94620EFF2009F06BC0D801129677
:102360008C911297898315968C9115978C8316966C
:102370008C9116978D8317968C9117978E8318964C
:102380008C9118978F8319968C91199788871A9634
:102390008C911A9789871B968C911B978A871C961C
:1023A0008C911C978B871D968C918C8787E1BE0141
:1023B000605F7F4F0E9466A682E08D8780919412B5
:1023C000909195129F878E87F8018289888F8685E4
:1023D00097859A8F898F808991899C8F8B8F83892C
:1023E0008D8F848995899F8F8E8F8FEA89A38FEF38
:1023F0008AA31BA21CA21DA21EA28FA38C858823C8
:1024000029F4CE0101960E940B4513C0D8011D96F8
:102410008C919E012F5F3F4F8F3F21F4C9010E9495
:10242000441107C0D6011596ED91FC911697C9018C
:1024300009958E2DA796E9E00C9422C7A0E0B0E0A4
:10244000E4E2F2E10C9408C7EC017B0182E0DB01DD
:102450001E968C931E978B819C8150969C938E9395
:102460001F978E8983FF40C04B894D35E8F18091DD
:102470007606282F30E08091790690E001972817A2
:10248000390719F01CE5D12E0CC084EA9FEFFC013E
:102490002E9FC0012F9F900D3E9F900D1124D42E92
:1024A000D80E09E116E08CE590E0AC01249FC00154
:1024B000259F900D349F900D11242C893D89280F64
:1024C000391FC801B9014D2D50E00E947B055AE02B
:1024D000D50ED7015196DC9251970A501040539671
:1024E0001C930E93529709C08B89885FF701818BEB
:1024F0008C899D890897938B828B80917605D70173
:1025000054968C9354978F5F809376058F89559658
:102510008C93559756961C92569781E057968C93BC
:10252000579758961C9258978CEC98E15A969C9322
:102530008E9359975296ED91FC9153972081822F5B
:102540008C7F80838B819C81207F875F9F4F08F0E9
:10255000286020832081922F9F7D90838E8982FD29
:1025600003C02F79208315C09064908381E0D70148
:1025700019968C9319978E8983FF06C08B898D35A8
:1025800018F080917B0603C080919E05D7011A96B2
:102590008C938E8983FF17C08B898D35A0F0808145
:1025A00080688083909176068085992339F48C7FAA
:1025B0008160808780917906818708C08C7F8260E6
:1025C0008087918703C080818F7780838D85818309
:1025D00088899989938382838E859F859583848357
:1025E0008A8986838E8983FF07C08B898D3520F089
:1025F00080917A06878306C08091750587838F5FF7
:1026000080937505C7010B960E94360F80E0CDB709
:10261000DEB7E7E00C9424C7FC0182818130B1F180
:1026200081E08283838181508383809176058F5FEF
:102630008093760581508587809174058F5F8093A4
:1026400074058181813049F4CF0104960E940524EC
:1026500080E995E00E94532108958430B9F4809177
:1026600078068E7F80937806809177068093760631
:1026700080917B06815080937B06E0918906F091E2
:102680008A0680819181BF010E941E1208950F93D6
:102690001F93CF93DF930E948C20843019F410E0B5
:1026A00006E229C00E948C208530C9F329C0109F02
:1026B000E0011124E0918005F0918105EC0FFD1FF0
:1026C00087818823B9F080858130A1F4818582508B
:1026D000823080F48081918163EA40E050E00E9482
:1026E000620E80918005909181058C0F9D1F4B9605
:1026F0000E94EA0D1F5F80917B051817C0F238C059
:102700000E948C208330A1F510E006E22DC0109FBE
:10271000E0011124E0918005F0918105EC0FFD1F8F
:102720008781882301F181858330E9F480858130B8
:1027300011F08430C1F48285882329F0CF010796F7
:102740000E940C1310C08081918167EA7F96AF01CF
:102750000E94620E80918005909181058C0F9D1FD3
:102760004B960E94EA0D1F5F80917B05181778F247
:10277000DF91CF911F910F910895A0E0B0E0E3ECBD
:10278000F3E10C9404C76C01FC01C085D18510E015
:1027900086E2982E01E0A02EB12C06E00EC1199D14
:1027A00070011124A0918005B0918105AE0DBF1D6F
:1027B00017968C911797882309F4FEC019968C916F
:1027C0001997823009F0F8C018968C9118978130CB
:1027D00009F055C052966C91529753967C9153973D
:1027E0004D915C911197F60125813681FA01838123
:1027F00094812817390709F0DFC0FB019F81878189
:10280000981709F0D9C02C813D81848195812817C2
:10281000390709F0D1C02A813B8182819381281731
:10282000390709F0C9C099818681981709F0C4C099
:102830009E818181981709F0BFC0888183708230A2
:1028400021F45F96CA0160E00DC01A968C911A9728
:10285000882329F0CD0107960E940C13B3C05F9620
:10286000CA0161EBAD010E94620E809180059091DA
:1028700081058E0D9F1D4B960E94EA0DA3C08430EA
:1028800009F09AC052964C91529753965C91539787
:102890008D919C911197F60125813681FC018381F0
:1028A00094812817390709F087C0FA019F81878131
:1028B000981709F081C02C813D818481958128176A
:1028C000390709F079C02A813B81828193812817D9
:1028D000390709F071C099818681981709F06CC099
:1028E0009E818181981709F067C04985809177069C
:1028F000481709F061C08A858F3F69F520917606F7
:1029000030E08091790690E0019728173907B1F4FB
:1029100010928A06109289068D919C91119760E021
:102920005F96AD010E94620E8091800590918105B5
:102930008E0D9F1D4B960E94EA0D3EC0942F9D5F09
:102940009093770680919E0580937B069093760600
:102950000093780628C0382F30953093780630FFE2
:1029600005C020E080E090E010E00FC031FF05C01E
:1029700021E081E090E011E008C032FD02C013E0E8
:1029800012C022E082E090E012E0240F209376064D
:10299000A50102C0440F551F8A95E2F7CA01809530
:1029A000832380937806E0918906F0918A068081DE
:1029B0009181BF010E941E121F5F80917B05181735
:1029C00008F4EDCECDB7DEB7EBE00C9420C7E09174
:1029D0008906F0918A0680819181BF010E941E12B2
:1029E00008950F931F93CF93DF930AC080E192E085
:1029F0000E94C63BCE0163EA40E050E00E94620EB6
:102A000080E192E00E94BE3BEC01009779F731C073
:102A100088E192E0BE010E94DB3B2091800530916D
:102A20008105CE01821B930B66E270E00E94B4C662
:102A300080917B056817F0F4619FF0011124E20F8B
:102A4000F31F808191816085613051F0613018F011
:102A5000623081F40AC0AE014C5F5F4F6A8103C0EF
:102A600067EA40E050E00E94620ECE010E94EA0D4B
:102A700001C016E288E192E00E94BE3BEC010097A3
:102A800039F610E006E225C0109FC0011124E09144
:102A90008005F0918105E80FF91F87818823C1F037
:102AA000808191812085213051F0213018F0223031
:102AB00079F40AC06091020044E050E003C067EA84
:102AC00040E050E00E94620E80E090E00E94EA0D3B
:102AD0001F5F80917B051817B8F2DF91CF911F918E
:102AE0000F910895AAE0B0E0E8E7F5E10C9400C783
:102AF00083E00E94A120782E0E948C208450823096
:102B000008F450C10E945D219A838983B6E05B2E50
:102B1000A3E08A2E912C8C0E9D1EF2E06F2E5E019A
:102B20000894A11CB11C2AC1772019F4E3EAFE2EF7
:102B30001AC1F801868983FF1AC080918906909195
:102B40008A06892BA1F083898D3588F083E00E9465
:102B5000C120C8010E94083CFC018C01009709F4C7
:102B60003DC1868983FF03C083898D3590F7F801C5
:102B70008689982F969596959695917011F082FF7B
:102B800036C0F801868980FD32C081FD30C0829553
:102B90008F7069F583898D3528F0992319F470EACF
:102BA000F72EE1C0F8018289882329F00E94F30BF7
:102BB000892B09F410C1F8012281223031F483817C
:102BC0009481885F9F4F18F406C0213021F4F801EA
:102BD000868982FD00C1822F8250823008F0EAC0CF
:102BE000F8018585815F8E3008F4F5C0E3C06AEA9C
:102BF000F62EB9C0F801868982FF07C083FF05C0A1
:102C000083898D3510F084E001C080E00E944E0D74
:102C10007C0150E7C52E5BE1D52ED8C080E00E9434
:102C20004E0D7C014EE3C42E4FE0D42ECFC087E181
:102C3000B4010E9466A69B81F80185819817F1F482
:102C40009C8186819817D1F49D8187819817B1F472
:102C50009E818085981791F49F818185981771F4E2
:102C600098858285981751F499858385981731F452
:102C70009A858485981711F4F5010AC0C801059654
:102C80000E946E23FC01009719F439EAF32E6BC001
:102C900080819181F801948383836282F80123818A
:102CA000348189819A812817390751F480E192E0B3
:102CB000B8010E94DB3BC80161E00E946B115EC05D
:102CC000F801868982FF10C083FF05C083898D3596
:102CD00010F084E001C081E00E944E0D7C012EE1E5
:102CE000C22E22E1D22E72C080E0F6CF80E192E0C7
:102CF000B8010E94DB3BF801868982FF2AC083FF6E
:102D000028C083898D3528F1F0928A06E0928906E1
:102D1000109276061092770680919E0580937B062E
:102D20002389822F6CE50E94A8C6382F80937906EC
:102D3000822F0E94A8C6992319F03F5F309379062D
:102D4000509278068091750580937A068F5F809304
:102D50007505F70111830083C801B701F6010995D4
:102D6000F82E882359F080E192E0B8010E94DB3B05
:102D7000C8016F2D40E050E00E94620E80E192E0B9
:102D80000E94BE3B8C01009709F0CECE27C080E1A7
:102D900092E0B8010E94DB3BC80163EA40E050E0EA
:102DA0000E94620E80E192E00E94BE3B8C0100977F
:102DB00071F714C0213009F431CF213008F41ACF53
:102DC000223009F46BCF233031F431CFE114F10418
:102DD00009F08CCF03C096EAF92EC5CF2A96EFE012
:102DE0000C941CC7EF92FF920F931F93CF93DF9326
:102DF000EC0189819A8160E070E00E94E91F8C01FA
:102E0000009759F11B8660E00E942520E82EFF24E0
:102E100022C0C8016F2D0E943820FC0180810E94D1
:102E2000F30BDC010097B1F012968C91129780FDA4
:102E300011C01396ED91FC91149721813281888DF8
:102E4000998D2817390731F41596ED91FC91169755
:102E5000CE010995F394FE14E0F2CDB7DEB7E6E0BB
:102E60000C9425C7A7E2B0E0E8E3F7E10C9407C7AC
:102E70008C01C62EFC01E084F18485819681F701E6
:102E800060850E94CF10882309F056C081E08983B5
:102E9000F701818192819B838A8382E0D82EDD862F
:102EA000F801858196810E943723FC01009799F0F3
:102EB00083E08D878081888B8181898B82818A8B59
:102EC00083818B8B84818C8B85818D8B86818E8B8E
:102ED00087818F8B01C0DD86F801858196819F8770
:102EE0008E87F7018781888F858196819A8F898F58
:102EF000838194819C8F8B8FF8012781822F895049
:102F00008D8F18A230E0281B310980859185820FB2
:102F1000931F9F8F8E8FC9A282858AA384859585F2
:102F2000A685B7858BA39CA3ADA3BEA383858FA3E2
:102F3000CE0101960E94F21681E0A796E8E00C947B
:102F400023C7A0E0B0E0E7EAF7E10C9407C77C01F3
:102F5000C62EFC0100851185F801808186FFCCC05A
:102F60008370813019F097E0D92E02C0DD24D3940C
:102F700050917B05A0918005B091810540E06D2DB9
:102F800070E0E801C60FD71F21C017968C911797E4
:102F90008130D1F418968C9118978230A9F4F701FA
:102FA000258136811F968D919C915097281739075E
:102FB00059F45296ED91FC915397E60FF71F9881C3
:102FC0008081981709F496C04F5F96964517E8F2EE
:102FD00099C0F701858196810E947025FC010097B8
:102FE00049F0828D80FF06C0EA89FB89779780814E
:102FF0008260808319821882AA89BB8982E08E87C9
:10300000F70185819681988B8F87809176058F5FF8
:103010008093760581508C8B1D8A1E8A81E08F8B70
:10302000188E8CEC98E19A8F898F8C91CC2019F4B2
:103030008C7F826001C083608C93F80190819C70CA
:103040008C91837F892B8C93908190718F7E892BBB
:10305000982F9F799C93908190788F71892B8C9376
:1030600080812D2D30E084FF0BC0F7018085918594
:10307000820F931FFC01808111968C9382E02CC0FB
:1030800088E0898BF801868111968C931197828153
:10309000938113969C938E931297848195811596B4
:1030A0009C938E931497818116968C931697F701B3
:1030B00080859185820F931FFC01808117968C93E8
:1030C0001797F801808187FF11C08085837031F4E4
:1030D00018961C9289898F5F898B08C089898D5FBA
:1030E000898BF8018085837018968C93CE010B969E
:1030F0000E94360F81E001C080E0CDB7DEB7E8E086
:103100000C9423C782E00E944E0DEC01009709F059
:1031100060CFF2CFFC010097A9F0808191810E94DD
:103120007025DC01009781F05A968C915A9780FDAA
:1031300009C030917805E0917905F0917A0520E099
:1031400090E00BC0A0E0B0E060E00BC0808180FDAB
:1031500002C081FD9F5F2F5FB3962317B8F3632FE3
:10316000691B50917E0580917B0590E040917F0521
:10317000252F30E0240F311D281739075CF480918A
:103180007C05581738F4AB2B19F080E0623018F04A
:1031900081E0089580E00895BC018091740581501C
:1031A0008093740588E192E00E94AF3B83E00E9427
:1031B000C1200895BC0184E192E00E94AF3B83E00E
:1031C0000E94C120809177058F5F809377050895D5
:1031D000BC0180E192E00E94AF3B83E00E94C120ED
:1031E0000895A2E0B0E0E7EFF8E10C94FEC67C01A0
:1031F0008B0180E1BE016F5F7F4F0E9466A4E98171
:10320000FA8130804180528063807480858096800E
:10321000C780F5E0AF2EB12CAE0CBF1CE8EADE2E65
:10322000D80193968D919C91949795966C910E945C
:103230008848F80185A38F3F09F4CDC0A3A1B4A1AC
:1032400090E09C0173E0220F331F7A95E1F7880F1D
:10325000991F280F391FA20FB31FFD013C961C9622
:103260008C91D70115968C931597818116968C9326
:103270001697828117968C931797838118968C9353
:103280001897848119968C93199785811A968C9337
:103290001A9786811B968C931B9787811C968C931B
:1032A000D8019396ED91FC91949795968C91959772
:1032B00090E09C0153E0220F331F5A95E1F7880FED
:1032C000991F280F391FE20FF31F8489F7018587A3
:1032D0001183008393962D913C91949795964C91F0
:1032E000842F90E0FC0173E0EE0FFF1F7A95E1F769
:1032F000880F991FE80FF91FE20FF31F83858330B2
:1033000009F059C0842F90E0FC0153E0EE0FFF1F3D
:103310005A95E1F7880F991FE80FF91FE20FF31F85
:10332000DF011C968485831599F511968C91119770
:10333000841571F512968C911297851549F513969F
:103340008C911397861521F514968C9114978715F7
:10335000F9F415968C9115978815D1F416968C91E1
:1033600016978915A9F417968C918C1589F4C701C5
:1033700060E00E946B11D82E90E0882309F491E060
:10338000D80195968C9195978F5F95968C9319C0DF
:10339000C5010E946E23FC01009719F429EAD22E80
:1033A0000FC080819181F70194838383C701B801A5
:1033B0000E941E1204C0C701B8010E943E0FD82E01
:1033C00091E0D80195968C9195978F5F95968C9307
:1033D000992309F425CF8D2D2296E1E10C941AC78B
:1033E000A3E0B0E0E6EFF9E10C94FEC60E948C2069
:1033F000782E882309F470C142E0841709F46CC167
:1034000088E192E00E94BE3B9B838A830E94083C35
:103410004C0186E2382E572D54505983B1E04B2E83
:10342000512CA2E06A2E53C1E0918005F0918105F4
:103430008A819B818E1B9F0B66E270E00E94B4C65E
:1034400080917B05681708F031C1639D50011124FC
:10345000EA0DFB1D00811181E085E130A9F1E13029
:1034600038F0E23009F418C1E43009F01FC183C01C
:103470008981823008F482C093E0791609F016C180
:1034800088E192E06A817B810E94DB3BF8018281C6
:10349000882389F4EA81FB818281882361F4609129
:1034A0008005709181056A0D7B1DC8010E94F1188D
:1034B000883A09F0FBC04A815B814C5F5F4FC801CD
:1034C000EA81FB81628166C0F981F23008F456C05E
:1034D00043E0741609F0EAC088E192E06A817B81DA
:1034E0000E94DB3BC0908005D0908105CA0CDB1C9C
:1034F000F6018185813009F0D9C060919E0570E0A8
:103500002285621B7109A20102C0440F551F6A95F2
:10351000E2F7BA01882777FD8095982F20919F05C3
:103520003091A0054091A1055091A2050E9489C645
:103530007B018C01EA81FB818281882331F4F601D1
:10354000E382F482058316830FC00E945505A0E034
:10355000B0E0BC01CD01A80197010E94DBC6F601D5
:103560006383748385839683E0918005F091810560
:10357000EA0DFB1D8BC0F981F23078F488E192E00E
:103580006A817B810E94DB3B4A815B814C5F5F4F9C
:10359000C80163EA0E94620E85C043E0741609F018
:1035A00085C088E192E06A817B810E94DB3BA0912B
:1035B0008005B0918105F501EA0FFB1F81858130FF
:1035C00009F074C02091760630E08091790690E091
:1035D00001972817390739F14091780640FF03C059
:1035E00020E030E00CC041FF03C021E030E007C024
:1035F00042FD03C083E090E018C022E030E08091FB
:103600007706820F80937606C20102C0880F991F49
:103610002A95E2F780958423809378068CE796E0DC
:103620000E9438B343C080E090E000918906109179
:103630008A0660919E0570E026E230E0F9018E9FD7
:1036400090018F9F300D9E9F300D1124A20FB31F4C
:103650001A962C91621B7109A20102C0440F551FDA
:103660006A95E2F7BA01882777FD8095982F209117
:103670009F053091A0054091A1055091A2050E949F
:1036800089C6F8016383748385839683618680E9A4
:1036900095E00E9453210AC088E192E06A817B8113
:1036A0000E94DB3B8A819B810E94EA0D8114910478
:1036B00019F4382D292D05C0C4010E94083C382F6B
:1036C000292F9B828A82832F922F9C0149014A8154
:1036D0005B81452B09F0A8CE2396E1E10C941AC733
:1036E000ADE0B0E0E6E7FBE10C9409C78C017B019B
:1036F00080E1BE016F5F7F4F0E9466A4E981FA817D
:1037000080818B8381818C8382818D8383818E8371
:1037100084818F83858188878681898787818A874D
:10372000F80182898B87808991899D878C87CE015A
:1037300003960E942748F70194A383A3892B11F4D1
:1037400018EA09C0F70115A2C801B7010E94F118D3
:10375000182F882319F0C7010E94EA0D812F2D969A
:10376000E6E00C9425C7882359F010927605109254
:103770007505109274051092770583E080939E057D
:103780001092730580E192E00E94A93B84E192E0EF
:103790000E94A93B88E192E00E94A93B8CE192E063
:1037A0000E94A93B8AE068E775E00E9466A684E073
:1037B00069E775E00E9466A420E043E250E014C08F
:1037C000822F90E0BC01649FC001659F900D749FA3
:1037D000900D1124E0917905F0917A05E80FF91F19
:1037E00080818E7F80832F5F80917805281740F33A
:1037F00088E06BE775E00E9466A683E060E875E00C
:103800000E9466A490917B05E0918005F09181056E
:1038100080E003C017828F5FB6968917D8F3809136
:10382000780580937C05915090937D0510927E05DC
:1038300010927F058AE164EA75E00E9466A687E03F
:1038400061E775E00E9466A42091A40585E0289FA9
:1038500090011124809171059091720560E070E0F3
:10386000A9010E94840582E166EA75E00E9466A4CF
:1038700088E36AEA75E00E9466A62091AA058CE5B5
:10388000289F900111248091A6059091A705820F91
:10389000931F9093A9058093A8058AE090E0A0E08B
:1038A000B0E08093820690938306A0938406B09341
:1038B000850687EE94E1909388068093870681E0E1
:1038C000809386060E94820E08951092B30510928E
:1038D000BC051092B0051092B1051092B805109277
:1038E000B7051092B2051092B6051092BA05109263
:1038F000B9051092B5051092B4051092BB0510924F
:10390000A5051092AC051092AD051092AE0510926F
:10391000AF051092AB05E3EDF5E08BE0DF011D9202
:103920008A95E9F73C9688E1DF011D928A95E9F7CF
:103930002091AA058DE5289F90011124F997808197
:10394000918160E070E0A9010E9484050895A0E0E3
:10395000B0E0EDEAFCE10C9407C77C01FC01C085F6
:10396000D1854781D9849091AA05992309F43BC157
:1039700026EFC22EC40E8091A505813009F443C004
:10398000813038F0823009F42EC1833009F02DC126
:103990003AC08885182F1370113009F024C186951C
:1039A000869509F020C19D1508F41DC1FCE5FC15A4
:1039B00008F419C10E94651C1093A50589858093A0
:1039C000B005F701858196819093B5058093B40584
:1039D00089818093B6058A819B819093B8058093F5
:1039E000B7058C819D819093BA058093B9058E812E
:1039F0008093BB058F818093BC051092B20588EF40
:103A00008093B305DD2488858370823019F0DD2032
:103A100009F0E9C088858695869509F0E4C0809113
:103A2000B0058D1508F4DFC02091B4053091B505BF
:103A3000F701858196812817390709F0D4C0909144
:103A4000B6058981981709F0CEC02091B70530914D
:103A5000B8058A819B812817390709F0C4C02091D5
:103A6000B9053091BA058C819D812817390709F075
:103A7000BAC09091BB058E81981709F0B4C090919F
:103A8000BC058F81981709F0AEC00D2D10E0809114
:103A9000B20590E002968017910724F482E08093AB
:103AA000A505A1C08CE590E09C01029FC001039F89
:103AB000900D129F900D11242091A6053091A7051D
:103AC000280F391FF70140855185465F5F4FC901B7
:103AD000BA014C2D50E00E947B05E091A805F091C1
:103AE000A905E00FF11FC0828091B1058F5F80931F
:103AF000B1058091B2058D1569F48F5F8093B10592
:103B000088EF8093B3058091A505833019F481E097
:103B10008093A5058D2D63E00E94A8C6C92FD0E033
:103B200081E090E00C2E02C0880F991F0A94E2F702
:103B30002091B305282B2093B30560919E0570E07A
:103B400080E090E020919F053091A0054091A10573
:103B50005091A2052C5E3F4F4F4F5F4F0E9489C688
:103B60006093AC057093AD058093AE059093AF055F
:103B700080E995E00E9453218091B00590E0980182
:103B80002F5F3F4F82179307F9F48091B20590E0C1
:103B90000196801791076CF021968FEF90E002C09C
:103BA000880F991FCA95E2F72091B305282B20931F
:103BB000B3050E94F60F8091B3058F3FB1F483E007
:103BC0008093A50582E012C08091B20590E0029634
:103BD0008017910751F40E94F60F8091B2058D5F16
:103BE0008093B20502C081E001C080E0CDB7DEB7AE
:103BF000E8E00C9423C7A7E2B0E0E1E0FEE10C941A
:103C000006C77C01B62EDC0118960D911C91199700
:103C1000F8019181892F81508E3F18F0CC24DD244A
:103C200004C0892F0E94F30B6C01D80111968C916E
:103C300081508E3F20F4C114D10421F435C0C11449
:103C4000D10469F0D6011396ED91FC91149721816E
:103C50003281F801848195812817390729F5D80127
:103C60009C91892F869586958370823011F496FDFC
:103C70001BC0F801208126FF19C0D70115968D9130
:103C80009C911697885F9F4F78F427FD0FC0C11451
:103C9000D10421F0F601828180FD06C0C70160E0F9
:103CA0000E94A117982F03C090E001C091E0D801B5
:103CB0008C9187FF15C018968C91837089F0C7018D
:103CC0000E94A71C823009F0EBC01092A50510924B
:103CD000AC051092AD051092AE051092AF0503C071
:103CE000992309F4DDC0F70185819681D8011796E3
:103CF0006C910E94CF10882309F0D2C0F801818115
:103D000081508E3F20F4C114D10409F4C9C0D701F9
:103D100012968C91129713962D913C9114978130A5
:103D200009F082E089833B832A83F80181818C87B3
:103D3000D70115968D919C9116970E943723FC010F
:103D4000009799F083E08D878081888B8181898BB2
:103D500082818A8B83818B8B84818C8B85818D8BF7
:103D600086818E8B87818F8B02C082E08D87F701E1
:103D7000858196819F878E87D80116968C9116979C
:103D8000888F14968D919C9115979A8F898F129692
:103D90008D919C9113979C8F8B8F27812A502D8F0B
:103DA000265F18A28C9187FD04C028502D8F285FB4
:103DB00009C082EA88A3F8018085837019F429502C
:103DC0002D8F275F30E08D8D281B3109D701189684
:103DD0008D919C911997820F931F9F8F8E8FB9A2FF
:103DE0001A968C911A978AA31C968D919D910D908D
:103DF000BC91A02D8BA39CA3ADA3BEA3F70183858B
:103E00008FA3D8018C9187FF27C018968C9183705F
:103E1000823011F58091B005682F70E04091A805BF
:103E20005091A90520E030E00BC0FA01E20FF31F2A
:103E300080819091AB05890F8093AB052F5F3F4F39
:103E40002617370794F38091AB058D8F8091A605D7
:103E50009091A7059F8F8E8FC114D10449F0D60190
:103E60001596ED91FC911697CE010196099518C013
:103E7000F7018281813029F4CE0101960E94F21669
:103E80000FC0D80111968C919E012F5F3F4F8F3F3D
:103E900021F4C9010E94441103C0C9010E940B45CD
:103EA000A796E9E00C9422C7FC01A085B1858C910E
:103EB000282F269526952370213051F185FF2AC0A1
:103EC00027C08370823021F1223011F1233001F1BB
:103ED0006F3A19F4808981116CEA8281813069F02E
:103EE0008230B1F48C91837090E0009721F00297BA
:103EF000029770F40AC0233021F0CF010E94FB1D0D
:103F000007C0CF010E94321703C0CF010E94BD132A
:103F100081E0089586FFDCCFD4CF0F931F93CF931A
:103F2000DF930BC00E948C20182F84E192E00E9446
:103F3000C63B812F8450823010F401E022C0133040
:103F400031F0E885F985808183708130D1F4E8858E
:103F5000F985E081E295E695E695E17041F0E13082
:103F600059F4CE0105960E948A18882329F0CE01C3
:103F70006FEA0E94541F082F002319F0CE010E94FF
:103F8000540E84E192E00E94BE3BEC01009751F692
:103F9000DF91CF911F910F9108950E94F0190E9417
:103FA0008D1F0E9472150E9447130E948C2084303E
:103FB00021F480917405882339F08091730588235A
:103FC00039F010927305089583E00E94620CF5CFDA
:103FD0000895CF93DF93EC01DB01E0918F06F09120
:103FE000900660918B0620918D0630918E06220FEF
:103FF000331F220F331F40E05FEF12C08081882300
:1040000049F0818192818C179D0739F4109779F0DE
:104010004C930DC05F3F09F4542FE20FF31F4F5F25
:10402000461760F3109709F05C93E0E0F0E0CF01F1
:10403000DF91CF91089560E070E00E94E91F20E0D9
:10404000892B09F021E0822F089540918C0620E011
:1040500009C0FC01E20FF11D3381631739F03323EE
:1040600019F02F5F2417A8F361112FEF822F089505
:10407000DC01009799F08C91882381F080918C0667
:10408000681760F470E0FD01E60FF71F8381882355
:1040900029F06D5F7F4F6A0F7B1F02C060E070E008
:1040A000CB01089508951F93182F8CE16CE876E0FA
:1040B0000E9466A68DE16BE876E00E9466A689E024
:1040C0006FE876E00E9466A480918C06482F50E04D
:1040D0004D5F5F4F50938E0640938D06112399F4E8
:1040E00080918B0690E0489F9001499F300D589F2A
:1040F000300D112480918F069091900660E070E061
:10410000A9010E9484051F910895909191069093B2
:10411000920680939106089580919106089580916A
:104120009206089590919106882331F0909392061B
:1041300083E08093910608959093920610929106E1
:104140000895282F90919106923069F0933018F4D9
:10415000992331F012C0933091F0953071F408C07A
:10416000813059F40CC0813051F0843031F407C0F3
:1041700080E0213029F481E0089580E0089581E015
:104180000895482F30919306332361F42FB7F894A4
:104190008091950690919606806290939606809302
:1041A00095062FBF81E090E002C0880F991F4A95C5
:1041B000E2F7382B309393060895109293060895F2
:1041C000A2E0B0E0E6EEF0E20C940DC74091930659
:1041D0004423D1F160E0242F30E001C06F5FC901BA
:1041E000062E02C0959587950A94E2F780FFF6CFD8
:1041F00081E090E0062E02C0880F991F0A94E2F732
:10420000809584238093930670E0660F771F6A5F22
:104210007B4FCE01019642E050E00E9465058091FF
:104220009306882361F02FB7F894809195069091BA
:104230009606806290939606809395062FBFE9813B
:10424000FA81309709F009952296E2E00C9429C78B
:10425000FC018081813021F41192CF010E94CEB205
:1042600008959F92AF92BF92CF92DF92EF92FF920A
:104270000F931F937C01962E59016A010E942821F9
:10428000F70110829386A782B086C186D2861587F1
:1042900004871F910F91FF90EF90DF90CF90BF9018
:1042A000AF909F900895FC018081882329F481E0DC
:1042B0008193CF010E9438B3089580912F1090917F
:1042C00030100895482F6091471080912B108295EF
:1042D0008F7020914810841718F440E050E034C0EB
:1042E000260F613071F490E0841B910930E0829FC9
:1042F000A001839F500D929F500D11244F5F5F4F7F
:1043000023C0841B41E050E070E009C0FA01E69F41
:10431000A001E79F500DF69F500D11248150882376
:10432000A9F730E061507040CB01821B930BF9017B
:104330004E9F90014F9F300D5E9F300D1124820FD4
:10434000931F0E94B4C6AB01CA010895FF920F9358
:104350001F93CF93DF939091291095FD59C09695A7
:10436000969593709230D9F4109144114FEF683FB5
:10437000740710F4EB0103C00E945505EC011F5FA8
:104380005FEFC83FD50710F0C1E0D0E0CE010E943A
:104390007025892BA9F11150C9F12196F1CF9923EC
:1043A000A9F5882361F0F090471000914D1010910D
:1043B0004E10C0912F10D0913010219625C0F09052
:1043C0004810C0912F10D091301021968091471045
:1043D00090E020914D1030914E10AC01429FC001F1
:1043E000439F900D529F900D1124C80FD91F01E0DB
:1043F00010E00AC0CE010E947025FA94892B11F4B6
:10440000BE0106C0C00FD11FFF20A1F76FEF7FEFE5
:10441000CB01CDB7DEB7E5E00C9426C786E267E2B4
:1044200071E10E9466A68BE069E271E10E9466A4D8
:1044300081EA809326111092281120E04BE050E091
:1044400014C0822F90E0BC01649FC001659F900D55
:10445000749F900D1124E0912911F0912A11E80F19
:10446000F91F80818E7F80832F5F8091271128170D
:1044700040F310922F1182E492E2909331118093D5
:10448000301108956091271150E07BE01BC0579FC9
:10449000C0011124E0912911F0912A11E80FF91FB0
:1044A000408140FF0EC020912D1130912E1181814D
:1044B00092812817390719F44E7F408302C041FDCD
:1044C000652F5F5F80912711581708F36817F0F484
:1044D000262F30E08BE090E0AC01249FC001259FA7
:1044E000900D349F900D1124E0912911F0912A1123
:1044F000E80FF91F8181928190932E1180932D11E5
:104500008BE291E10E94F16387E601C081EA80932A
:1045100026110895BF92CF92DF92EF92FF920F93F0
:104520001F93DC01F22EE32ED42E8FEFA83FB807A5
:1045300008F095C0CC2440E08BE0B82E4CC04B9DD9
:1045400090011124E0912911F0912A11E20FF31F3B
:10455000808180FF3FC08381801791F5848181171E
:1045600079F585818F1561F586818E1549F58781ED
:104570008D1531F58085851719F58185861701F52B
:1045800082858717E9F403831483F582E682D78254
:10459000508761877287E0912911F0912A11E20F0B
:1045A000F31FB283A183808181608083E091291110
:1045B000F0912A11E20FF31F80818D7F80834FC01D
:1045C00081819281A817B90729F480818260808354
:1045D000CC24C3944F5F80912711481708F4AFCFC4
:1045E000CC2081F080912611813AC9F5B0932E112B
:1045F000A0932D118BE291E10E94F16387E68093F5
:1046000026112DC0209128118BE0289F90011124A4
:10461000E0912911F0912A11E20FF31F0383148313
:10462000F582E682D782508761877287B283A18341
:10463000808181608083E0912911F0912A11E20F3D
:10464000F31F80818D7F80838091281190E060919D
:104650002711019670E00E94C8C6809328111F910F
:104660000F91FF90EF90DF90CF90BF900895AC0135
:1046700030912711E0912911F0912A1120E00EC00C
:10468000808180FF09C0818192814817590721F4F8
:104690009F012D5F3F4F20C02F5F3B96231780F374
:1046A000CA010E947025FC010097A1F080859185C8
:1046B000892B9285892B9385892B9485892B9585C8
:1046C000892B9685892B9785892B21F09F01285F5F
:1046D0003F4F02C020E030E0C9010895FC01309155
:1046E0002711A0912911B0912A1120E039C08C9195
:1046F00080FF34C0908113968C911397981771F5B1
:10470000918114968C911497981741F59281159682
:104710008C911597981711F5938116968C91169791
:104720009817E1F4948117968C9117979817B1F424
:10473000958118968C911897981781F496811996FF
:104740008C911997981751F497811A968C911A9712
:10475000981721F49D012F5F3F4F1CC02F5F1B96C0
:10476000231728F220813181428153816481758130
:10477000868197810E948D25FC01009749F08481F4
:104780009581885F9F4F20F49F012C5F3F4F02C0AF
:1047900020E030E0C901089580EF90E10E94A93B3C
:1047A00008950F931F9380EF90E10E94BE3B8C0110
:1047B00080EF90E10E94C63B80EF90E10E94C63BF3
:1047C000D8011E96ED91FC911F97C801409609955E
:1047D00080EF90E10E94BE3B892B19F08EE00E9491
:1047E00097371F910F910895FC01628B8185838B10
:1047F000148A158A168A178A80EF90E1BF010E94F9
:10480000AF3B8EE00E9497370895FF920F931F935E
:10481000CF93DF938C018091271080FD03C0C801E6
:1048200062EC72C0F8018381813019F098E0F92EB2
:1048300002C089E0F82EF801C781D085CF19D109CF
:10484000CE010E94FA24F8018485882321F0888112
:104850008F7380648883F801848195819B838A8328
:1048600080912B1082958F709285992321F0880F6B
:104870008917E0F19E83F80183819981813011F5D8
:1048800091609983848195810E941B20988588235B
:1048900029F09C7F9160988721E003C09C7F9887D6
:1048A00020E0F80183858770880F880F9885937EB4
:1048B000982B988783858295880F807E9F71982B8F
:1048C000988703C09E7F998320E0F801838181301F
:1048D00081F084819581FFEF883F9F0750F02FEF93
:1048E0008F3F920741F00596039728F0C80161ECCD
:1048F0000BC0222361F08C819D816F810E94B56481
:10490000823029F4C80162ED0E94F42305C0F80149
:10491000F282C8010E94BC3ACDB7DEB7E5E00C9444
:1049200026C7CF93DF93EC01DB019C01285F3F4F4B
:1049300019963C932E931897898183FF0AC011968C
:104940003C932E93285F3F4F19963C932E931897D4
:1049500003C011961C921E92898184FF0EC0189686
:104960008D919C91199713969C938E93129708960C
:1049700019969C938E93189704C013961C921E92BE
:104980001297898180FF0EC018968D919C9119977E
:1049900015969C938E931497019619969C938E93DB
:1049A000189704C015961C921E921497898182FF55
:1049B00014C01896ED91FC9119971796FC93EE93FD
:1049C0001697808190E00196880F991FE80FF91FD4
:1049D0001996FC93EE93189704C017961C921E929A
:1049E000169718968C9118978C1B1A968C93DF91BA
:1049F000CF910895FC01118210829081892F8C7FC4
:104A0000808380912A1082958F70880F880F907C08
:104A1000982B90831382128280912F1090913010E6
:104A20009583848380912B1082958F7090E0880FFE
:104A3000991F868380912C1087838F5F80932C1021
:104A40000895582FE0914011F091411140E076E037
:104A50006BE18081882311F4552311F070834F5F3F
:104A60007B9620914411269F900111248091401142
:104A700090914111820F931FE817F90750F34423D7
:104A800019F480E090E009C090E0809147108823FD
:104A900009F491E081E09827892F982F9170990F60
:104AA000990F80919E108B7F892B80939E104423B9
:104AB00019F480E090E009C090E0809148108823CC
:104AC00009F491E081E09827892F982F97959927ED
:104AD000979580919E108F77892B80939E100895D3
:104AE000AC01E0914011F0914111909144118BE1A2
:104AF000989F900111242E0F3F1F8081863029F04E
:104B0000848195814817590731F07B96E217F307A6
:104B1000A0F3E0E0F0E0CF0108950F931F93890127
:104B2000382F292FE0914011F091411190914411BB
:104B30008BE1989FD0011124AE0FBF1F808186307A
:104B4000C1F080858017A9F48185811791F4828551
:104B5000841779F48385851761F48485861749F471
:104B60008585871731F48685831719F48785821721
:104B700031F07B96EA17FB0708F3E0E0F0E0CF01A5
:104B80001F910F910895009779F0FC017B96809119
:104B900044112BE1829FC0011124209140113091DA
:104BA0004111280F391F13C0E0914011F0914111BC
:104BB000EECF8081813011F0853041F4828D80FF0D
:104BC00005C0848195816817790731F47B96E217D7
:104BD000F30778F3E0E0F0E0CF010895282F80910B
:104BE0004411962F861708F4982F891B982F2817A1
:104BF00008F4922F382F391B19F480E090E009C097
:104C000090E080914710681708F091E081E09827C4
:104C1000892F982F9170990F990F80919E108B7FFB
:104C2000892B80939E10332319F480E090E009C013
:104C300090E080914810281708F091E081E09827D3
:104C4000892F982F97959927979580919E108F7708
:104C5000892B80939E10089520914011309141112D
:104C6000909144118BE1989FA0011124420F531F92
:104C7000F90130E020E08081863051F0813011F080
:104C8000853031F48181823011F43F5F01C02F5FA4
:104C90007B96E417F50778F3892F291708F4822FFC
:104CA000981B892F391708F4932F482F491B19F4A3
:104CB00080E090E009C090E080914710281708F04C
:104CC00091E081E09827892F982F9170990F990F83
:104CD00080919E108B7F892B80939E10442319F422
:104CE00080E090E009C090E080914810381708F00B
:104CF00091E081E09827892F982F9795992797958C
:104D000080919E108F77892B80939E10089520911B
:104D1000401130914111821B930B23E13AEDF901CF
:104D20008E9F90018F9F300D9E9F300D1124C901E1
:104D3000880F991F880F991F820F931FE0914211CE
:104D4000F0914311E80FF91F43838281882341F0DA
:104D50008695962F96959695682F6695680F690F9C
:104D60006283A0E2B2E090E08C91681720F49F5F2C
:104D700011969630C9F79F5F9770990F990F990F09
:104D80008481877C892B84830895FC018081813014
:104D900011F0853061F48181823021F480919E1080
:104DA000806803C080919E10846080939E1086E08E
:104DB00080830895282FE0E2F2E090E080812817B8
:104DC00020F49F5F31969630C9F7892F8F5F089541
:104DD00080E491E108952091401130914111821BAE
:104DE000930B23E13AEDA901849F9001859F300D3B
:104DF000949F300D1124C901880F991F880F991FA6
:104E0000820F931FE0914211F0914311E80FF91FB7
:104E1000828108952091401130914111821B930BA2
:104E200023E13AEDA901849F9001859F300D949F65
:104E3000300D1124C901880F991F880F991F820F07
:104E4000931FE0914211F0914311E80FF91F838104
:104E50000895A9E0B0E0EFE2F7E20C9403C76C011B
:104E6000A0904211B0904311809040119090411158
:104E7000FC0181818E010F5F1F4F823009F58EE1A9
:104E8000BE016E5F7F4F0E9466A688E1BE016A5F29
:104E90007F4F0E9466A68BE2B8010E9466A66981D8
:104EA00070E080E090E02E813F8148855985EA805E
:104EB000FB800C811D812E0D3F1D401F511F0CC01A
:104EC0008AE2B8010E9466A6698170E080E090E005
:104ED00028E93AE340E050E00E9489C6AB01BC01FA
:104EE000C818D90883E19AEDC89E9001C99E300D7B
:104EF000D89E300D1124C901880F991F880F991F62
:104F0000820F931FA80EB91EEBE076956795579513
:104F10004795EA95D1F7F501518340832996ECE056
:104F20000C941FC7CF93DF93FC01C0914011D09127
:104F30004111909144118BE1989F900111242C0F05
:104F40003D1F8881863029F08C819D81E817F90703
:104F500029F06B96C217D307A0F308C0209731F051
:104F6000CE010E948726CE010E942927DF91CF9192
:104F70000895AC01662321F00E941B20982F2EC0BB
:104F800080912F10909130104817590721F1E0912E
:104F90004011F0914111909144118BE1989F900143
:104FA00011242E0F3F1F6081663029F08481958186
:104FB0004817590729F07B96E217F307A0F30DC0B5
:104FC000309759F0613011F0653039F4828D982FA7
:104FD000917080FF03C091E001C090E0892F089597
:104FE00089E098E2909351118093501180E098E00D
:104FF000A0E0B0E080934B1190934C11A0934D1121
:10500000B0934E1110924F1185E491E10E9438B394
:105010000895FF920F931F93CF93DF93C091401198
:10502000D091411103E11AEDBBE1FB2E888186305E
:1050300051F180914011909141119E01281B390B33
:10504000C901809F9001819F300D909F300D1124E8
:10505000C901880F991F880F991F820F931FE09134
:105060004211F0914311E80FF91F8081918100975F
:1050700019F001979183808380819181892B19F4A4
:10508000CE010E94C37B6B96209144112F9D90010D
:1050900011248091401190914111820F931FC817E4
:1050A000D90720F2CDB7DEB7E5E00C9426C71F93F1
:1050B000CF93DF93182F80E064E471E10E9466A62D
:1050C00080E060E471E10E9466A48FE062E471E137
:1050D0000E9466A41123D9F0C0914011D0914111D2
:1050E0001BE18881863019F0CE010E9429276B963A
:1050F00020914411219F90011124809140119091A1
:105100004111820F931FC817D90758F303C081E0DC
:105110000E94212585E491E10E94CEB2DF91CF91DA
:105120001F910895CF93DF938091AD10823CD1F50C
:105130008EEA90E10E94BE3BEC018EEA90E10E9473
:10514000C63B8A818823F1F080913B1090913C10FE
:10515000892B90913D10892B90913E10892B909135
:105160003F10892B90914010892B90914110892BF1
:1051700090914210892B31F08FEF9DEF9093281082
:1051800080932710EB81FC81CE01059609958EEA6C
:1051900090E10E94BE3B892B11F081EC01C089E1B6
:1051A0008093AD108091AD10813C81F481E08093BB
:1051B000B5108DEF98E29093B7108093B61082EB04
:1051C00090E10E94F64F83EC8093AD10DF91CF9178
:1051D0000895FF920F931F938C01F62E01960E9463
:1051E000BE3BFC01F58280E00E94973782ECF8011B
:1051F00080831F910F91FF900895A2E0B0E0E3E05B
:10520000F9E20C9406C7FC01B080BB2009F04AC04B
:105210008EEA90E10E94BE3B7C01FC0182810E94EB
:10522000396F00E114E06E010894C11CD11CC60165
:10523000B80142E050E00E946505E981FA813097AB
:1052400009F009950E5F1F4FF4E004341F0779F74A
:105250000E94B93780E09FE1909328108093271037
:10526000F70182818823F1F081E16FE270E10E9411
:1052700066A683E58093B51080912F109091301031
:105280009093B7108093B61082E699E29093BF1086
:105290008093BE1082EB90E10E94CC4F85EC80930E
:1052A000AD1005C08DEA90E16B2D0E94E928229691
:1052B000E9E00C9422C7FC018DEA90E160810E9434
:1052C000E9280895FC016081662329F08DEA90E1C8
:1052D0000E94E92808958091AD1090E0FC01E55C02
:1052E000F040EA30F10508F0B8C0EA59FF4F0C94DD
:1052F00034C78BE48093B510809143109091441093
:105300009093B7108093B61086EC70C08AE48093B7
:10531000B51080914310909144100E947025FC01BB
:1053200080858093B61081858093B71082858093A5
:10533000B81083858093B91084858093BA108585D1
:105340008093BB1086858093BC1087858093BD10A9
:1053500087EC4CC08FE261E370E10E9466A680E5B5
:105360008093B51080913110909132109093B710C6
:105370008093B61088EC3AC086E58093B510109201
:10538000B61089EC33C08EE26EE270E10E9466A630
:105390001092B51080912E108093B6108AEC26C022
:1053A00082E58093B51090E080914B1083FD91E0F1
:1053B0009093B6108BEC1AC085E48093B5108CE9FD
:1053C00090E19093B7108093B6108CEC0FC086E4F8
:1053D0008093B5108FE08093B6108DEC07C081E408
:1053E0008093B51081E08093B6108EEC8093AD1061
:1053F00082E699E29093BF108093BE1082EB90E119
:105400000E94CC4F2AC0809131109091321090931D
:10541000B6108093B51080912E108093B7108091B4
:105420002D108093B81020E080912F1090913010B3
:10543000892B09F421E02093B9101092BA108EE262
:105440009AE29093BC108093BB1082EB90E10E9493
:10545000C54F8FEC8093AD1008950895FC016081D5
:105460006623D1F48FEF9FEFAFEFB0E08093B510DC
:105470009093B610A093B710B093B8108BE599E253
:105480009093BA108093B91082EB90E10E94DA4FAA
:1054900084EC8093AD1008958DEA90E10E94E92894
:1054A0000895EDEAF0E185E1DF011D928A95E9F7C3
:1054B00089E18093AD10CF0101960E94A93B0E9423
:1054C000B9370895BC018EEA90E10E94AF3B80910C
:1054D000AD10893131F480E00E94973781EC8093E0
:1054E000AD1008950E94943385E192E10E94A93B9A
:1054F0001092251210922412109227121092261246
:1055000010922812809114128C7F809314128CE2D6
:1055100092E10E94CEB280ED97E0A0E0B0E08093EF
:10552000321290933312A0933412B093351281E06B
:105530008093361281EF9AE290933812809337125B
:1055400088E269E272E10E9466A68DE06AE272E199
:105550000E9466A420E037E011C0239FC0011124FF
:10556000E0912A12F0912B12E80FF91F128211829A
:10557000108213821482158216822F5F8091291265
:10558000281758F30895A0E0B0E0E9ECFAE20C9493
:1055900008C77C01C0912A12D0912B129091291238
:1055A00087E0989F800111240C0F1D1F82E0D82EE8
:1055B00010C08881813061F4E981FA81838194810E
:1055C0008E159F0529F4D882118684E00E949737B2
:1055D0002796C017D10768F3CDB7DEB7E7E00C9484
:1055E00024C7FF920F931F93809114128D7F809395
:1055F000141210E097E0F92E02E02BC01F9DC001AD
:105600001124E0912A12F0912B12E80FF91F8081EA
:105610008130F1F483819481A581B681803D27E0BA
:10562000920720E0A20720E0B20728F4008384E07C
:105630000E9497370DC0805D9740A040B0408383A3
:105640009483A583B6838091141282608093141290
:105650001F5F80912912181788F28091141281FF20
:1056600004C08CE292E10E9438B31F910F91FF9029
:105670000895A0E0B0E0EFE3FBE20C94FFC610E079
:1056800067E0562E50ED452E42E0742E662463945A
:1056900030EA832E3FE0932EA12CB12CDEC0159D65
:1056A000C0011124C0902A12D0902B12C80ED91E0E
:1056B000D6018C91882309F0B3C085E192E10E9464
:1056C000BE3BF60192838183009709F4C5C085E152
:1056D00092E10E94C63BD6011196ED91FC91129782
:1056E00041862381348160E08281813009F461E068
:1056F000C9010E942C337C01009779F0FC01908154
:10570000892F8770813009F476C08823D9F08430DE
:10571000C9F0987F9160908315C00E94C5327C01CA
:10572000009709F4A0C0DC018C91887F81608C9384
:10573000D6011196ED91FC91129783819481F70126
:10574000928381830E94A532EC01009759F4D7011E
:105750009C91892F8770813009F085C0987F936074
:105760009C9381C00E94A7B22A960AE00E94060478
:105770008CE392E1BE012A97A9010E945264D601EE
:105780001196ED91FC9112978281813021F4F701FD
:10579000808180688083D6011196ED91FC911297EB
:1057A0008281882329F4F7018081877C8861808346
:1057B000CE01B7010E946B310E9434318883809101
:1057C0002F10909130109A83898380912F1090919F
:1057D00030109C838B831D821E8280912B108295BA
:1057E0008F7090E0880F991F89878F8181608F83E8
:1057F00085E00E949737D6016C928091141281FD4A
:1058000009C08CE292E10E9438B380911412826048
:1058100080931412F60183829482A582B6821CC002
:10582000D6018C918230C1F41196ED91FC911297C2
:1058300027813085CF010996F9010995F601128279
:1058400011821082D60113961D921D921D921C92F8
:10585000169784E00E9497371F5F809129121817CE
:1058600008F41DCF03C0F6017082DACFCDB7DEB7E2
:10587000E0E10C941BC78091141280FD72C084E299
:1058800092E166E272E10E943B3180912412909194
:105890002512892B09F465C0E0912612F091271298
:1058A000309709F45EC0878181FF22C087E0809332
:1058B0001B1288E09DE290931F1280931E128BEBC7
:1058C0009CE290932112809320128FEC9CE29093A3
:1058D00023128093221280911412816080931412FB
:1058E00087818D7F878389E192E10E949B6508957E
:1058F00080FF37C086E080931B1221813281809126
:105900002F10909130102817390719F488E08093F0
:105910001B1280EC80931C128FE780931D128CE584
:105920009FE290931F1280931E1287E49FE2909350
:105930002112809320128CE49FE290932312809393
:10594000221280911412816080931412E091261229
:10595000F091271287818E7F878389E192E10E94EF
:105960009B650895BC0185E192E10E94AF3B84E014
:105970000E9497370895DC018091281254968C93E9
:105980005497E0912612F0912712838194811D96FD
:105990009C938E931C9781E058968C9308958091E8
:1059A000291084FF25C0E0912612F09127128181F1
:1059B000928160E00E942C33DC01009729F40E9460
:1059C000C532DC010097A1F08C91887F8C93E09127
:1059D0002612F09127128181928112969C938E93C8
:1059E00011978381948114969C938E9313971C92A4
:1059F000809114128E7F80931412E0912612F09100
:105A0000271287818D7F878385E00E9497370895CD
:105A1000FF920F931F93CF93DF938C01E091261297
:105A2000F09127126381748180E090E00E94B3318D
:105A3000F82E882311F487E0F82EC8010E94FA247A
:105A4000E0912412F091251221813281D80115961E
:105A50003C932E9314978C918C7F81608C9311963C
:105A60004C911197842F806111968C931197E0913E
:105A70002612F09127128181928113969C938E9326
:105A80001297E0912412F0912512808187FDC9C000
:105A9000486111964C93C9010E943723FC01809103
:105AA0003310D80150968C935097809134105196B2
:105AB0008C9351978091351052968C935297809188
:105AC000361053968C9353978091371054968C933D
:105AD00054978091381055968C9355978091391032
