:100000000C9444070C948A070C948A070C948A0772
:100010000C948A070C946A230C9431E10C9403E449
:100020000C94D4E30C948A070C948A070C948A07E6
:100030000C948A070C94A7170C948A070C94F11758
:100040000C948A070C948A070C948A070C948A07EC
:100050000C948A070C948A070C948A070C948A07DC
:100060000C948A070C942B240C948B240C945D2400
:100070000C948A070C942B250C947C160C948A07FC
:100080000C948A070C948A070C948A070C948A07AC
:100090000C949D230C94FD230C94CF230C94B92431
:1000A0000C948A070C948A070C9447160C9459E117
:1000B0000C948A070C948A070C948A070C948A077C
:1000C0000C948A070C948A070C948A07E00CE30CC2
:1000D000E60CE90CEC0CEF0CF20CF50CF80CFB0C3C
:1000E000FE0C010D040D070D0A0D0D0D100D130D65
:1000F000180D440E400ED20E480EE90DD00D930D92
:100100009A0DA10DA50D0B0E180EB70D4C0EAE0DD0
:10011000D20ED20ED20ED20E590E020E210E3C0E6F
:10012000660E6E0E770ED20ED20ED20ED20ED20EFA
:10013000340E380EC60E900E970E9B0EBB0EA20EFE
:10014000AB0E810EB30ED20ED20E880E990F990F00
:10015000080FD70F620FD70F970F970F970F970FB3
:10016000970F130F160F620F190F1C0F340FED0EA0
:10017000F20EF90EAE0F4D0F560F590FFF0EE60E91
:10018000620F640FD50FD50F0A0FFC0E670F760FA5
:10019000790F7E0F840F950F930F950F970F990F7F
:1001A0009B0F9E0FA10FB40FB80FBB0FDB0FC00F3B
:1001B000C90F8B0FCF0FD50FD70F900FD90F30442A
:1001C0005D445D445D4435444A443F444444624494
:1001D0003A444F444F4454445D4499449C449F44A2
:1001E0009F44A244AE44A844AB44BE44A544B14499
:1001F000B444B744BA44CD45D145F345D545D94576
:10020000F345DD45F345E445E845F0459F4B7D4C1E
:10021000904C114B1C4D1C4D8B4C904C934CED4C09
:10022000C04C1C4D1C4DED4C764BF24C0B756B7558
:10023000A2758B757F75A275AF75FF75FF75FF751C
:10024000FF75FF75FF75FF75FF75FF758B75A275DF
:10025000FF75FF74947579753F764476D976277764
:100260003D77277859780B790B790B790B790B79D6
:100270000B790B790B790B79FF77E8770B792E7671
:100280000678C5767583A4830A86CE833D8553851B
:100290000A86A284F48420852385328568850A86AF
:1002A0000A86DC856F8C038CDE8CDE8CDE8C088C01
:1002B0000D8C858CDE8C108C138C2B8C308CDE8C12
:1002C000338C368C398CDE8C3E8C418C858C468C04
:1002D000648C788CDE8C678C6A8C068C6D8C6D8C53
:1002E000858C858C858C858C858C858C858C858C86
:1002F000858C858C858C858C858C858C858C858C76
:10030000858C4B8C858CDE8CDE8CDE8CDE8CDE8CE2
:10031000DE8CDE8CDE8CDE8CDE8CDE8CDE8CDE8C8D
:10032000DE8C858C7B8C7E8C168E168D188E188EAE
:10033000188E1A8D218D188E188E288D2C8D458D36
:100340004C8D188E508D578D608D188E678D6B8DEE
:10035000188E728D928DA18D188E968D9D8D168E14
:10036000168E168EA98DA98DA98DA98DA98DA98D01
:10037000A98DA98DA98DA98DA98DA98DA98DA98DCD
:10038000A98DA98DA98D798DA98D188E188E188E9D
:10039000188E188E188E188E188E188E188E188E2D
:1003A000188E188E188EA98DA58D168E998F978F01
:1003B000978FC68FCD8FE08FE88FEB8FEE8FF18F09
:1003C000F48F03910A9119912191239125912791FD
:1003D0002A91FAA1EEA18FA13DA23DA2D6A1E3A14F
:1003E0003DA23DA23DA202A211A2AFA1BBA13DA28E
:1003F0008CA116AF23AF47AF59AF60AF6DAF79AFE8
:1004000084AF8CAFA0AF49C61BC753C6A5C869C887
:1004100043C61BC71BC71BC727CA6AC673C619CAF0
:10042000C5C6FEC6E5C6EFC6B3C8B3C894C71BC7EA
:100430001BC75EC95EC95EC91BC75EC957C957C91C
:1004400002C91BC71BC71BC7F4C643CA48CA4DC94C
:1004500051C931C83FC85BC84DC8E5C700C8DBC734
:10046000CAC7E8C91BC718C820C829C81BC749C6BE
:100470001BC753C66AC61DC773C673C6C5C6EFC6BB
:10048000E5C6DBC71BC71BC794C7FEC6A1C71BC7F2
:100490001BC71BC71BC7B5C7B5C7B5C7B5C7B5C74A
:1004A000B5C7B5C7B5C7B5C7C3C7C3C7C3C7C3C734
:1004B000C3C7C3C7C3C7C3C7C3C722C722C722C7CF
:1004C00055C755C755C770C770C770C7E0DDE8DDB1
:1004D000F9DDF4DFF4DFF4DF90DEF5DEA4DFF4DF36
:1004E000FDDD00DEF4DF1CDE79DE26DE2ADEF4DF51
:1004F000F4DF70DD74DE39DEF4DFF4DFF4DFF4DF27
:10050000F4DFF4DFF4DFF4DF84DE87DE8ADE7DDE15
:10051000F4DFE0DFF4DFF4DF61DD67DD64DD6ADD99
:10052000B2DDC9DDF4DFF4DFF4DF52DD55DD58DD87
:100530005EDDE4DDE0DDE8DDF9DDFDDD6DDD12DE53
:1005400017DE1CDE2ADE26DE35DE39DE74DE70DDE7
:1005500079DE9EDDA1DDA1DDA1DDA1DD8CDD8CDDFF
:100560008CDD8CDD8CDD8CDD8CDD8CDD8CDD95DD3A
:1005700095DD95DD95DD95DD95DD95DD95DD95DDEB
:1005800075DD75DD75DD7ADD7ADD7ADD83DD83DDB0
:1005900083DD18E0F5E01AE0F5E0F5E0F5E0F5E0E0
:1005A000F5E0F5E0C0E010E027E0F5E033E0B2E090
:1005B00042E049E0B2E0B2E050E0F5E0F5E0A2E070
:1005C000AAE0B7E0F5E0B2E0F5E0F5E09FE0F5E0A5
:1005D000F5E0F5E0AFE0F5E0EFE0F5E0F5E010E0A4
:1005E00010E010E09CE082E07CE010E068E075E064
:1005F000F5E013E013E013E0F5E018E0F5E01AE0B1
:1006000010E010E027E027E033E049E042E010E0AE
:10061000F5E0F5E050E0B2E065E0F5E0F5E0F5E0AA
:10062000F5E057E057E057E057E057E057E057E074
:1006300057E057E010E010E010E010E010E010E0AC
:1006400010E010E010E057E057E057E05BE05BE0BF
:100650005BE060E060E060E0170400100C0015143F
:10066000001618001919001F1A00201B00231C0077
:10067000241D00311E00332F002F310032330021A2
:1006800034001135001437002D3800123900133BA7
:10069000000F3C002E440000FFFF004500111D012B
:1006A000093C018B1FB01EB41E871FB81EBC1E0361
:1006B00004050607278AE6860000DE3C633D2FAE70
:1006C000326AF896F56BD6B0D8B114BACBADF35CFC
:1006D000979ACAA3736301A7A499E4580000000085
:1006E00002400305000000010864000C01640000E2
:1006F00000FFFFFFFFFFFFFFFFE803000085B57A63
:10070000B4F7BAF6A500000B6293A03FA900000061
:1007100000D16DDF5889AD7E9F499A6F5D0ABA009E
:1007200000EC98ADA5EA691CBF21570FB06DABBCBA
:10073000AD3F5E9C9900000000000038BBECBAE9B8
:10074000961B990000010100000D00000000000050
:10075000000000000000000000020102000A00008A
:100760000000000000000000000000000003010481
:100770000008000000000000000000000000000071
:10078000000401060001000000000000000000005D
:10079000000000000005010800000000000000004B
:1007A00000000000000000000006010A0001000037
:1007B0000000000000000000000000000007010C25
:1007C0000001000000000000000000000000000028
:1007D0000008010E000300000000000000000000FF
:1007E00000000000000901100000000000000000EF
:1007F0000000000000000000000A011200000000DC
:10080000000000000000000000000000000B0214C7
:10081000008813000000000000000000000000003D
:10082000000C0117000000000000000000000000A4
:1008300000000000000D041900000000000000008E
:100840000000000000000000000E012F000000006A
:10085000000000000000000000000000000F013157
:100860000002000000000000000000000000000086
:100870000010013300020000000000000000000032
:10088000000000000011013500020000000000001F
:10089000000000000000000000120137000200000C
:1008A00000000000000000000000000000130139FB
:1008B0000002000000000000000000000000000036
:1008C0000014013B000200000000000000000000D6
:1008D000000000000015013D0002000000000000C3
:1008E00000000000000000000016013F00020000B0
:1008F000000000000000000000000000001701419F
:1009000000020000000000000000000000000000E5
:100910000018044400000000000000000000000077
:1009200000000000001904490064000000000000FD
:100930000000000000000000001A044E000000004B
:10094000000000000000000000000000002500057D
:100950002500062500073400003400013400022B76
:1009600000062B00072E00032B5750414E49440030
:100970002B574348414E002B5743484D41534B00A2
:100980002B574C45415645002B574A4F494E002B9B
:10099000574E574B002B57504152454E54002B5742
:1009A0004348494C4452454E002B574E4253495AF6
:1009B00045002B574E42002B574155544F4E45543E
:1009C000002B57505752002B57534C454550002B86
:1009D00057524F4C45002B57535243002B575359F6
:1009E0004E43505244002B575458505752002B57E7
:1009F0004C5149002B5752535349002B5754494DE2
:100A0000454F5554002B575245545259002B5757B8
:100A10004149540044004455004453004452002BC3
:100A20005750494E470026480025480049002B47AB
:100A30004D49002B474D4D002B474D52002B47533E
:100A40004E002B5743414C494252415445002B57CD
:100A50004143414C494252415445005A0026460008
:100A600045005100560058002B495052002B494672
:100A700043002644002B5750415353574F524400D4
:100A80005200533000533300533400533500533277
:100A9000300053323100533232005332330053327C
:100AA0003400533330005333310053333200533367
:100AB000330053333400533337005335300053354C
:100AC000310053353200533533005335350053313F
:100AD0003030005331303100533130320053313037
:100AE000330053313034005331323000533132311E
:100AF000005331323200533132330053313234003B
:100B000053313235005331323600533132370053CE
:100B100031323800533133300053313331005331E7
:100B200033320053313333005331333400533133D4
:100B300035005331333600533133370053313338B6
:100B400000533134300053313431005331343200EA
:100B5000533134330053313434005331343500537E
:100B600031343600533134370053313438000068A3
:100B70000902050000E0017009030600002000776B
:100B80000904040000E0018009050000001000884D
:100B9000090600000010008F0907000000100095F2
:100BA000090800000020009E09090000002000A99B
:100BB000090A0000002000B2090B2E00001001B746
:100BC000090C060000E001C1090D090000E002C7A0
:100BD000090E0000001000CF090F060000E001D64A
:100BE0000910030000E001DC0911010000E001E64A
:100BF0000912020000E001EE09130300001001F4E5
:100C000009140300001001FB091701000020010571
:100C10000A1606000020010D0A15010000E0011966
:100C20000A1A5900001002160A1901000010001FCC
:100C30000A1C0300001001140A184B000010015B8D
:100C40000A2600000010005D0A2700000010006066
:100C50000A280600001000620A290600001000643D
:100C60000A2A0600001000660A2B06000010006821
:100C70000A2C010000E0016D0A2D360000E003722D
:100C80000A2E0600001001260A1D0000001000298F
:100C90000A1E00000010002C0A1F06000010002E83
:100CA0000A200700002000330A2107000020003836
:100CB0000A2207000020003D0A23050000600142CF
:100CC0000A2400000010004E0A25010000E0017512
:100CD0000A2F0400001001800A30E301001007828F
:100CE0000A310600002001850A32010000600188F7
:100CF0000A3301000060018B0A3401000060018E9C
:100D00000A350500002001920A36050000600196B0
:100D10000A3706000020019A0A3804000060019E8C
:100D20000A390600006001A20A3A0600006001A626
:100D30000A3B0100006001AA0A3C0100006001AE0C
:100D40000A3D0600006001B20A3E0200006001B6E2
:100D50000A3F0100006001BA0A400600006001BEBF
:100D60000A410100002001C20A420600002001C61B
:100D70000A430100006001CA0A440300006001CE7A
:100D80000A450600006001D30A460100002001D890
:100D90000A470100002001DD0A480100002001E2AD
:100DA0000A490100002001E70A4A0600006001EC40
:100DB0000A4B0600006001F10A4C0600006001F6D3
:100DC0000A4D0600006001FB0A4E060000600100AB
:100DD0000B4F0600006001050B5006000060010A81
:100DE0000B5106000060010F0B5206000060011459
:100DF0000B530600006001190B5406000060011E31
:100E00000B550600006001230B5606000060012808
:100E10000B5706000060012D0B58060000600132E0
:100E20000B590600006001370B5A06000060013CB8
:100E30000B5B0600006001410B5C06000060014690
:100E40000B5D06000060014B0B5E06000060015068
:100E50000B5F0100006001550B6001000060015A4A
:100E60000B6101000060015F0B6201000060016422
:100E70000B630100006001690B6401000060016EFA
:100E80000B0000000000000011248091BB1C823187
:100E900041F084B78F718093BB1C80FF05C081E057
:100EA00001C081E18093BB1C14BE80916000886109
:100EB000809360001092600011241FBECFEFD1E23A
:100EC000DEBFCDBF13E0A0E0B2E0EAEFFDEC01E051
:100ED0000BBF02C007900D92A438B107D9F71CE1EF
:100EE000A4E8B3E001C01D92AB3BB107E1F70E945B
:100EF000F8E00E9464262FB7F8948091A80D909195
:100F0000A90D80619093A90D8093A80D2FBF0E9419
:100F1000D026FDCF0C9400007F937FB7F8949D9A64
:100F2000A5988AEF0E94EB078AEF0E94EB079D9835
:100F300086E40E94EB0781E0959980E08F9380EF33
:100F40000E94EB078F917FBF7F9108957F937FB7BA
:100F5000F8949D9AA59886E00E94EB079D988AE0F8
:100F60000E94EB07889495990894881F8F9384E6D4
:100F70000E94EB078F917FBF7F9108959F937F938E
:100F800098E00E94A607879577959A959923C9F7C7
:100F9000872F7F919F9108957F937FB7F894A598AD
:100FA0009D9A8F9386E00E94EB078F91879508F4B6
:100FB0009D988F9384E60E94EB078F919D987FBF49
:100FC0007F9108959F9398E00E94CC079A9599236A
:100FD000D9F79F91089500000000000000008A9555
:100FE0008823C9F708955F937F937FB7F894CF93D1
:100FF000DF93C0E0D0E07F935091B2007091B200D7
:101000007517E1F3739521965091B2005717D9F7F0
:101010007F91CE01DF91CF917FBF7F915F91089546
:10102000EF92FF920F93DF93CF93CDB7DEB7609728
:101030000FB6F894DEBF0FBECDBFA82F002309F472
:1010400061C07E010894E11CF11C88E0F701119257
:101050008A95E9F729833A834B835C836D837E838A
:10106000AF83988780E2801BE82FFF27E7FDF0958C
:101070004D815E816F817885181684F01D861E86ED
:101080001F86188A882799278E1B9F0B04C0769588
:101090006795579547958A95D2F728C0202F332713
:1010A00027FD3095DB01CA01022E04C0B695A79535
:1010B000979587950A94D2F78D879E87AF87B88BCF
:1010C00004C0440F551F661F771FEA95D2F7898128
:1010D0009A81AB81BC8104C0B695A79597958795F9
:1010E0002A95D2F7482B592B6A2B7B2B49875A8795
:1010F0006B877C8729853A854B855C856D857E85E8
:10110000AF8598898A2F60960FB6F894DEBF0FBE20
:10111000CDBFCF91DF910F91FF90EF900895EF92A7
:10112000FF920F93DF93CF93CDB7DEB760970FB6E3
:10113000F894DEBF0FBECDBFA82F002309F461C015
:101140007E010894E11CF11C88E0F70111928A9558
:10115000E9F729833A834B835C836D837E83AF8376
:10116000988780E2801BE82FFF27E7FDF0954981F3
:101170005A816B817C81181684F019861A861B8629
:101180001C86882799278E1B9F0B04C0440F551F70
:10119000661F771F8A95D2F728C0202F332727FD97
:1011A0003095DB01CA01022E04C0880F991FAA1FC7
:1011B000BB1F0A94D2F789879A87AB87BC8704C084
:1011C0007695679557954795EA95D2F78D819E81DB
:1011D000AF81B88504C0880F991FAA1FBB1F2A952D
:1011E000D2F7482B592B6A2B7B2B4D875E876F8755
:1011F000788B29853A854B855C856D857E85AF85A5
:1012000098898A2F60960FB6F894DEBF0FBECDBFC7
:10121000CF91DF910F91FF90EF900895A0E0B0E0A3
:10122000E4E1F9E00C94A5E6EC01A880B980CA805D
:10123000DB80A114B104C104D10441F484E2A82EDE
:1012400089EDB82E8BE5C82E87E0D82EC601B501F2
:101250002DE133EF41E050E00E94E2E627EA31E47D
:1012600040E050E00E9429E67B018C01C601B501F7
:101270002DE133EF41E050E00E94E2E6CA01B901FE
:101280002CEE34EF4FEF5FEF0E9429E66E0D7F1DCD
:10129000801F911F97FF04C06150704080409048AC
:1012A000688379838A839B839B013F77C901CDB78C
:1012B000DEB7EAE00C94C1E60E940E0908958FE7BC
:1012C00093E00E940E090895A0E0B0E080937F03B0
:1012D00090938003A0938103B09382030895FB0150
:1012E000DC0102C005900D9241505040D8F708959E
:1012F000FB01DC0105900D920020E1F70895FC014F
:1013000005900020E9F7809590958E0F9F1F089516
:10131000FB01DC014150504030F08D910590801967
:1013200019F40020B9F7881B990B0895FB01DC0123
:1013300004C08D910190801921F441505040C8F7AC
:10134000881B990B0895FB01DC0102C001900D92EE
:1013500041505040D8F70895DC0101C06D934150D1
:101360005040E0F70895FB01DC010D900020E9F703
:10137000119701900D920020E1F70895FB01DC0127
:1013800001900D920020E1F70895FB01DC010D9022
:101390000020E9F711974150504028F001900020BB
:1013A0000D92C9F708951C920895FB01DC0141508C
:1013B000504048F001900D920020C9F701C01D92E5
:1013C00041505040E0F70895FB0151915523A9F099
:1013D000BF01DC014D9145174111E1F759F4CD01F1
:1013E0000190002049F04D9140154111C9F3FB01D6
:1013F0004111EFCF81E090E001970895AEE0B0E0B9
:10140000E4E0FAE00C94ABE60D891E8986E08C835B
:101410001A8309838FEF9FE79E838D839E01275E4A
:101420003F4FCE0101966F89788DA9010E94220A53
:101430002F813885020F131FF80110822E96E4E0E9
:101440000C94C7E6ABE0B0E0E8E2FAE00C949DE66D
:101450003C012B015A01FC0117821682838181FD18
:1014600003C06FEF7FEFC6C19AE0892E1E0108947A
:10147000211C311CF3012381F20123FD859123FFFF
:1014800081912F01882309F4B2C1853239F423FDFB
:10149000859123FF81912F01853229F490E0B301DA
:1014A0000E94150CE7CF982FFF24EE249924FFE12A
:1014B000FF15D0F09B3269F09C3228F4903259F03D
:1014C000933291F40EC09D3249F0903369F441E0BB
:1014D00024C052E0F52A84E0F82A28C098E0F92ACE
:1014E00025C0E0E1FE2A22C0F7FC29C0892F8053E5
:1014F0008A3070F4F6FE05C0989C902C1124980E4A
:1015000015C0E89CE02C1124E80EF0E2FF2A0EC082
:101510009E3229F4F6FC6BC140E4F42A07C09C36E5
:1015200019F450E8F52A02C0983649F4F20123FD77
:10153000959123FF91912F01992309F0B8CF892F1D
:101540008554833018F08052833038F444E050E002
:10155000A40EB51E5FE359830FC0933631F0933765
:1015600079F0933509F056C020C0F5018081898358
:1015700042E050E0A40EB51E610101E010E012C08F
:10158000F501C080D180F6FC03C06FEF7FEF02C091
:10159000692D70E042E050E0A40EB51EC6010E9425
:1015A0000A0C8C015FE7F52214C0F501C080D180E0
:1015B000F6FC03C06FEF7FEF02C0692D70E042E0E0
:1015C00050E0A40EB51EC6010E94FF0B8C0150E82E
:1015D000F52AF3FE07C01AC080E290E0B3010E9432
:1015E000150CEA948E2D90E008171907A8F30EC089
:1015F000F601F7FC8591F7FE81916F0190E0B30150
:101600000E94150CE110EA940150104001151105DB
:1016100079F7EAC0943611F0993669F5F7FE08C0FB
:10162000F501208131814281538184E090E00AC03C
:10163000F501808191819C01442737FD4095542F0D
:1016400082E090E0A80EB91E9FE6F92257FF09C07C
:1016500050954095309521953F4F4F4F5F4FE0E8B3
:10166000FE2ACA01B901A1012AE030E00E94410C22
:10167000D82ED21840C0953729F41F2D1F7E2AE09E
:1016800030E01DC01F2D197F9F3661F0903720F488
:10169000983509F0ACC00FC0903739F0983709F091
:1016A000A6C004C028E030E00AC0106114FD146038
:1016B00020E130E004C014FD166020E132E017FFA5
:1016C00008C0F501608171818281938144E050E01E
:1016D00008C0F50180819181BC0180E090E042E08A
:1016E00050E0A40EB51EA1010E94410CD82ED218C4
:1016F0008FE7F82EF122F6FE0BC05EEFF522D9142B
:1017000038F4F4FE07C0F2FC05C08FEEF82202C0E8
:101710001D2D01C0192DF4FE0DC0FE01ED0DF11DB2
:101720008081803319F499EEF92208C01F5FF2FE20
:1017300005C003C08F2D867809F01F5F0F2DF3FCC5
:1017400014C0F0FE0FC01E1510F09D2C0BC09D2C78
:101750009E0C911A1E2D06C080E290E0B3010E94FB
:10176000150C1F5F1E15C0F304C01E1510F4E11AFE
:1017700001C0EE2404FF0FC080E390E0B3010E949B
:10178000150C02FF1DC001FD03C088E790E00EC0EC
:1017900088E590E00BC0802F867891F001FF02C0B1
:1017A0008BE201C080E2F7FC8DE290E0B3010E9481
:1017B000150C06C080E390E0B3010E94150C9A94CA
:1017C000D914C0F3DA94F101ED0DF11D808190E0A0
:1017D000B3010E94150CDD20A9F706C080E290E05D
:1017E000B3010E94150CEA94EE20C1F743CEF30139
:1017F00066817781CB012B96E2E10C94B9E6FC017E
:101800000590615070400110D8F7809590958E0F2B
:101810009F1F0895FC016150704001900110D8F79E
:10182000809590958E0F9F1F08950F931F93CF93D0
:10183000DF938C01EB018B8181FF1BC082FF0DC008
:101840002E813F818C819D812817390764F4E881BE
:10185000F9810193F983E88306C0E885F985802F33
:101860000995892B31F48E819F8101969F838E8308
:1018700002C00FEF1FEFC801DF91CF911F910F91B1
:101880000895FA01AA27283051F1203181F1E89416
:101890006F936E7F6E5F7F4F8F4F9F4FAF4FB1E063
:1018A0003ED0B4E03CD0670F781F891F9A1FA11D5E
:1018B000680F791F8A1F911DA11D6A0F711D811D5F
:1018C000911DA11D20D009F468943F912AE0269F24
:1018D00011243019305D3193DEF6CF010895462F83
:1018E0004770405D4193B3E00FD0C9F7F6CF462F64
:1018F0004F70405D4A3318F0495D31FD40524193CD
:1019000002D0A9F7EACFB4E0A69597958795779589
:101910006795BA95C9F700976105710508959B0110
:10192000AC010A2E06945795479537952795BA9599
:10193000C9F7620F731F841F951FA01D0895089596
:101940000E9442BF089523E134E03093980320932E
:10195000970320E530E030939A032093990324EA1B
:1019600033E030939C0320939B032FE630E03093C9
:101970009E0320939D031092A00310929F03109248
:10198000A2031092A10360E0823009F461E084E8D0
:1019900093E00E9445BF089580E090E00895089587
:1019A00084E0089584E0089584E00895DB0190E0E8
:1019B00083319105E8F58A599F4FFC010C94D4E6D8
:1019C0008EE794E032C08EE795E02FC08AE396E080
:1019D0002CC08AED98E029C082E799E026C08EEFFE
:1019E00099E023C08EEA9AE020C08EE59BE01DC0FE
:1019F00087E79BE01AC08AEF9BE017C08EEF9BE061
:101A000014C08FE29CE011C08DE99CE00EC08AEE0C
:101A10009CE00BC086E09DE008C086E595E005C02F
:101A200083E794E002C086E29DE08D939C93089545
:101A30001D921C92089510926304109264041092F7
:101A40006504109266041092670410926804109264
:101A5000690410926A0410926B0410926C04109244
:101A60006D0410926E0410926F0410927004109224
:101A70007104109272048FEF9FEF90930402809391
:101A8000030280E098E0A0E0B0E08093050290932C
:101A90000602A0930702B0930802109273041092FA
:101AA00074041092750410927604109277041092C8
:101AB00078041092790410927A04E1E0F2E09291B5
:101AC000916088E08093010280910202807F1092F1
:101AD0007B049579908380688093020210927C0445
:101AE00084E392E190930A02809309028CE090E1F2
:101AF00090930C0280930B0283E080930D028093FD
:101B00000E0208950E9434120895CF93DF93EB01E3
:101B100090E00B978D32910508F044C187589F4F94
:101B2000FC010C94D4E688819981909304028093FF
:101B3000030238C1888199819093100280930F022B
:101B400031C1888180937D042DC198819170990F56
:101B5000990F990F80910002877F59C098819370E7
:101B6000990F990F990F80910102877E66C0888135
:101B7000809373048981809374048A8180937504AF
:101B80008B81809376048C81809377048D81809300
:101B900078048E81809379048F8180937A0402C1C6
:101BA000888180936B04898180936C048A818093FF
:101BB0006D048B8180936E048C8180936F048D8182
:101BC000809370048E81809371048F81809372045E
:101BD000E9C08881809363048981809364048A8149
:101BE000809365048B81809366048C818093670465
:101BF0008D81809368048E81809369048F818093A6
:101C00006A04D0C098819170809100028E7F892BE8
:101C100080930002C7C088819981AA81BB8180938B
:101C2000050290930602A0930702B0930802BAC07F
:101C30009881977080910102887F892B809301029F
:101C4000B1C098819295990F907E809101028F7119
:101C5000892B8093010298819695969596959F7011
:101C600080910202807F8EC0888180930D029AC08D
:101C7000888180930E0296C0888180937B0492C0F5
:101C80008881809311028EC08881809312028AC05D
:101C900088818093130286C088819981AA81BB8143
:101CA0008093140290931502A0931602B09317022A
:101CB00079C088819981AA81BB8180931802909311
:101CC0001902A0931A02B0931B026CC09881917004
:101CD0009295907F809100028F7E99CF988191702C
:101CE0009295990F907E809100028F7D90CF988180
:101CF00091709295990F990F907C809100028F7B43
:101D000086CF8881998190930C0280930B024AC000
:101D10009881979599279795809100028F7777CF33
:101D200098819170990F809100028D7F70CF88818A
:101D300080937C0437C08881998190930A028093B4
:101D4000090230C0A5E4BDE0FB0181E101900D92E4
:101D50008150E1F727C098819170990F990F809178
:101D600000028B7F54CF9881979599279795809102
:101D700002028F7707C0988197709295907F80912B
:101D800002028F78892B809302020CC0888199818E
:101D9000AA81BB8180931C0290931D02A0931E0216
:101DA000B0931F02DF91CF910895CF93DF93EB01A2
:101DB0006115710509F405C190E08933910508F0BA
:101DC00000C18A559F4FFC010C94D4E6809101021A
:101DD0008695869586958370F3C0809103029091D5
:101DE000040204C080910F029091100299838883AD
:101DF000E8C080917D04E4C080910002CEC0809153
:101E0000140290911502A0911602B0911702A1C080
:101E100086E0D6C08091180290911902A0911A0212
:101E2000B0911B0296C080911202CAC0809111022B
:101E3000C7C080911302C4C08091630488838091DD
:101E400064048983809165048A83809166048B830E
:101E5000809167048C83809168048D8380916904EC
:101E60008E8380916A0417C080916B04888380916F
:101E70006C04898380916D048A8380916E048B83C6
:101E800080916F048C83809170048D8380917104A4
:101E90008E83809172048F8394C08091050290910B
:101EA0000602A0910702B091080253C0809101027E
:101EB00086C0DB01E3E7F4E088E001900D928150F9
:101EC000E1F77FC085E07CC083E890E08FCF909100
:101ED0000102929596959770809102028F70880FFB
:101EE000880F880F892B880F85956AC080917B04A5
:101EF00067C08091000282958F704FC08091000270
:101F000082958695877049C080910002829586955A
:101F10008695837042C080910B0290910C0266CF2F
:101F2000809100023EC08AE04BC087E049C084E057
:101F300047C088E045C080910D0242C080910E02EA
:101F40003FC080911C0290911D02A0911E02B09191
:101F50001F0288839983AA83BB8333C080910002C8
:101F600086958695869519C080910002869515C044
:101F700080917C0425C08091090290910A0236CF9D
:101F8000DB01E5E4FDE081E101900D928150E1F794
:101F900018C08091000286958695817011C080914D
:101FA0000202881F8827881F0BC081E009C082E0D9
:101FB00007C0188206C08091020282958F708770D8
:101FC0008883DF91CF91089502C00E940A270E9462
:101FD000F1148823D1F70895A6E0B0E0E2EFFFE026
:101FE0000C94A3E68C010097E9F1E0902102F090B7
:101FF0002202FA82E98281E090E09E838D8348018B
:102000008AE0C82ED12CCE0CDF1C5E010894A11CE6
:10201000B11C1FC08B829C820E94E40FC50160E04E
:1020200070E00E948F148F5F9F4F21F481E0F801D0
:10203000838318C00E94E40FF801808129813A81CE
:102040008F3F19F0328321830CC02F5F3F4F3A83BB
:10205000298389819A818C159D05E0F2F801F2822D
:10206000E18213822696ECE00C94BFE6A7E0B0E094
:10207000ECE3F0E10C94A5E68C010097E1F1198204
:10208000FC01108284E090E09B838A8381E090E0F1
:102090009F838E83E0902102F09022025E010894DB
:1020A000A11CB11C92E0C92ED12CCC0EDD1E1CC08F
:1020B000BD82AC820E94E40FC60160E070E00E9425
:1020C0008F148F5F9F4F21F481E0F801838313C049
:1020D0000E94E40FF80180819981890F80838A81B1
:1020E0009B8101969B838A838A819B818E159F05A4
:1020F000F8F2F80113822796EAE00C94C1E6AFE00B
:10210000B0E0E5E8F0E10C94ADE68FEF8983CE0115
:1021100002960E94EC0F8D81813009F44CC0CE01F3
:1021200006960E9436108985813009F444C09E814C
:102130008A81890F09F440C091959E838B819C818F
:102140009B878A87CE0101969D878C8781E090E0EE
:102150009F878E870E94E40FCE010A9660EE70E1A1
:102160000E942B158F5F9F4F31F10E94E40F8A85EB
:102170009B8501969B878A8740912102509122027C
:102180009A01265F3F4F8217930710F05B874A87BB
:10219000CE0106969D878C870E94E40FCE010A9699
:1021A00060EE70E10E942B158F5F9F4F21F00E941F
:1021B000E40F80E001C081E02F96E2E00C94C9E6D4
:1021C0000895A6E0B0E0E7EEF0E10C94ABE68901FB
:1021D0002091210230912202265F3F4F280F391FA4
:1021E0003A8329835E834D837C836B8302C00E9484
:1021F0000A278091560D8130D1F30115110511F494
:1022000000EE10E10E94E40FCE010196B8010E9499
:102210002B158F5F9F4F11F481E007C080E1003ED6
:10222000180711F40E94E40F80E02696E4E00C9475
:10223000C7E6A6E0B0E0EFE1F1E10C94ABE689017E
:102240002091210230912202265F3F4F280F391F33
:102250003A8329835E834D837C836B8302C00E9413
:102260000A278091560D8130D1F30115110511F423
:1022700000EE10E10E94E40FCE010196B8010E9429
:102280008F148F5F9F4F11F481E007C080E1003E03
:10229000180711F40E94E40F80E02696E4E00C9405
:1022A000C7E68091560D882349F483E090E10E94AF
:1022B000FC130E94BB1302C00E940A278091560D96
:1022C0008130D1F30895A5E1B0E0E9E6F1E10C94A5
:1022D000A9E60E941B0DFF248E010B5F1F4F8F2D5F
:1022E0000E946112809112108823C9F4809110100D
:1022F000B8010E94D50E10931610009315100E947D
:10230000E40F83E190E160EE70E10E942B158F5F96
:102310009F4F09F454C00E94E40FF394E0CFC8012A
:102320006FEF70E04AE050E00E94AC091093161085
:1023300000931510009121021091220210931410A5
:10234000009313108AE090E0909318108093171078
:102350000E94E40F83E190E160EE70E10E942B1592
:102360008F5F9F4F61F10E94E40F7E010894E11C92
:10237000F11CC7010E9436108C81813001F18981E6
:10238000819589831093141000931310F092161006
:10239000E092151081E090E0909318108093171050
:1023A0000E94E40F83E190E160EE70E10E942B1542
:1023B0008F5F9F4F21F00E94E40F80E001C081E019
:1023C0006596E6E00C94C5E6A1E1B0E0EAEEF1E145
:1023D0000C94A8E6109211100091200210E0DD2468
:1023E000D3947E010894E11CF11C37C0812F0E9418
:1023F000611280911210882331F0D09211101F5F6A
:10240000812F0E94611280911110882329F4F0928B
:102410001610E092151008C0813031F48091101030
:1024200065E170E10E94D60C0E94E40F83E190E127
:1024300060E070E00E948F148F5F9F4F11F481E085
:102440000FC00E94E40F80911110882329F480911D
:102450001010B7010E94850D1F5F101738F280E041
:102460006196E7E00C94C4E6A8E0B0E0EAE3F2E1AC
:102470000C94ADE6CE0105960E9436108885813019
:10248000D9F0CE0101960E94EC0F8C818130A1F031
:1024900089819D81890F41F40E94E411813061F0AE
:1024A0000E94B31380E009C00E946311813021F0C3
:1024B0000E94B31382E001C081E02896E2E00C9410
:1024C000C9E6A6E0B0E0E7E6F2E10C94A7E6D82E74
:1024D000082F10E07801EE0CFF1CE00EF11EB70192
:1024E000685A794FCE01019643E050E00E946F098F
:1024F0008981809310102A813B813093141020939E
:102500001310882319F080E090E008C080E090E08C
:102510004FEF2F3F340711F481E090E080931210C9
:1025200088E1D81619F480E491E027C034E0C32E86
:10253000D12CCC0EDD1EC8010196BC01660F771FA1
:10254000680F791F685A794FC60143E050E00E9436
:102550006F098C81882369F48D819E818F5F9F4FE5
:1025600041F4B701625A794FC60143E050E00E943E
:102570006F098D819E812A813B81821B930B9093F1
:102580001810809317102696E8E00C94C3E6A3E099
:10259000B0E0EDECF2E10C94A7E6CE010196909349
:1025A000161080931510E0901710F0901810C0903E
:1025B0001310D090141081E090E090931810809345
:1025C000171080911010BE016E5F7F4F0E94D60CD5
:1025D00000E010E032C00E94E40F83E190E160E08F
:1025E00070E00E948F140E94E40F2A813B81F90160
:1025F000E00FF11F908189819817A1F03093161098
:1026000020931510F0921810E0921710D092141029
:10261000C092131083E190E16BEB73E10E942B15E4
:1026200081E00FC080911310909114100196909347
:102630001410809313100F5F1F4F0E151F0558F2D3
:1026400080E02396E8E00C94C3E6A1E1B0E0EBE281
:10265000F3E10C94A9E68E010F5F1F4F1093161043
:102660000093151058E5E52E5DE0F52E80911010D1
:10267000B7010E94D50E0E94E40F83E190E160E073
:1026800070E00E948F140E94E40F40911710509147
:102690001810C701B8010E949609009711F480E054
:1026A0000BC0F0921610E092151083E190E16BEBF5
:1026B00073E10E942B1581E06196E6E00C94C5E67B
:1026C0008091570D0E94611280911210882351F061
:1026D00081E0809311108091570D8F5F8093570D8B
:1026E0000E94611280911110882321F40E94251309
:1026F0008823C1F480911110813021F40E94C71207
:10270000882381F48091570D8F5F8093570D893115
:1027100011F080E008951092570D82E0809311101F
:1027200081E0089581E0089590930F1080930E103A
:10273000662329F480EE93E9A4E0B0E004C082E3CC
:1027400090E0A0E0B0E08093091090930A10A0936D
:102750000B10B0930C1081E080930D1083E090E19A
:102760000E9466140895109211108BEB93E160E0C3
:102770000E949413089581E08093560D0E94601387
:102780008823E1F380911110823071F40E947F1050
:10279000813031F48BEB93E161E00E949413089552
:1027A0000E94B3131092560D08958F929F92AF928C
:1027B000BF92CF92DF92EF92FF920F930E94251764
:1027C0004B015C012091720D30E040E050E060E090
:1027D00070E080E090E000E20E948F08282939290B
:1027E0004A295B290F91FF90EF90DF90CF90BF9027
:1027F000AF909F908F900895CF93DF93EC01009757
:10280000D1F08091690D90916A0D8C179D0719F494
:1028100060E070E008C089E69DE0BE010E94CE1530
:10282000BC01009741F089E69DE0AE010E94B01521
:1028300020E030E002C02FEF3FEFC901DF91CF91E0
:102840000895A0E0B0E0E7E2F4E10C94A7E6C091BF
:10285000690DD0916A0D6E0132C00E94F0157B01A6
:102860008C018A819B81AC81BD81A8019701281BC5
:10287000390B4A0B5B0B8E819F81A885B985281780
:1028800039074A075B07B0F08A85813039F489E659
:102890009DE0B601AE010E94B01504C0EA82FB8241
:1028A0000C831D83EB85FC850995C091690DD09142
:1028B0006A0D05C06E01888199819C01E90120970C
:1028C00061F6CDB7DEB7E8E00C94C3E6CF93DF93B3
:1028D000EC01009771F0E091690DF0916A0D06C06E
:1028E000EC17FD07C9F00190F081E02D3097C1F79A
:1028F00006C02FEF3FEFC901DF91CF9108950E94ED
:10290000F015198218826A837B838C839D8389E604
:102910009DE0BE010E94A41520E030E0ECCFFC0158
:1029200080916B0D882319F02EEF3FEF58C0309740
:1029300009F453C08481958120813181820F931FD6
:102940008150904108F049C081E080936B0D7093F5
:10295000201060931F10A9E1B0E186E001900D9274
:102960008150E1F7F999FECF20E030E017C0E09107
:102970001B10F0911C10E20FF31F80911910909121
:102980001A10019690931A1080931910019792BD16
:1029900081BDF89A80B580832F5F3F4F80911D10D5
:1029A00090911E102817390710F310921E101092E4
:1029B0001D108091830D80618093830D2FB7F89453
:1029C0008091A80D9091A90D82609093A90D80939C
:1029D000A80D2FBF20E030E002C02FEF3FEFC9016C
:1029E000089590E080916B0D813009F491E0892F7A
:1029F000089580911D1090911E10892B51F4109212
:102A00006B0DE0911F10F0912010309719F109958E
:102A100008956091191070911A106F5F7F4F709335
:102A20001A106093191061507040E0911B10F091E2
:102A30001C104191F0931C10E0931B108CE00E943D
:102A40006D1680911D1090911E10019790931E108D
:102A500080931D100895CF93DF93FC0180916B0D3F
:102A6000882319F02EEF3FEF6BC0309709F466C052
:102A70008481958120813181820F931F8150904103
:102A800008F05CC081E080936B0DA9E1B0E186E0C5
:102A900001900D928150E1F77093201060931F1008
:102AA000672B19F4C0E0D0E03BC060911910709121
:102AB0001A106F5F7F4F70931A1060931910615056
:102AC0007040E0911B10F0911C104191F0931C108C
:102AD000E0931B108CE00E946D1680911D10909168
:102AE0001E10019790931E1080931D1024C06091BA
:102AF000191070911A106F5F7F4F70931A106093C6
:102B0000191061507040E0911B10F0911C10419120
:102B1000F0931C10E0931B1084E00E946D16219628
:102B200080911D1090911E10C817D90700F3F999D4
:102B3000FECF10926B0D20E030E002C02FEF3FEF90
:102B4000C901DF91CF910895DC01FB018D919C912A
:102B50001197009711F091838083ED93FC93089572
:102B6000CF93DF93EC01DB01FA018881998148174B
:102B7000590739F480819181118210828883998369
:102B80000AC08081918111969C938E93118210824C
:102B90008C9111969C91DF91CF910895FC01019049
:102BA000F081E02D06C0808191818617970719F08A
:102BB000FC013097C1F7CF01089580E197E290932F
:102BC000A9008093A800E1EAF0E088E0808380819A
:102BD00082608083E2E7F0E08081826080830895F4
:102BE0002FB7F89460916D0D10926D0D2FBF70E0AE
:102BF00080E090E02AE030E040E050E00E9429E6EA
:102C000020916E0D30916F0D4091700D5091710DAE
:102C1000260F371F481F591F20936E0D30936F0DDD
:102C20004093700D5093710D2617370748075907C9
:102C300028F480916C0D8F5F80936C0DB901CA01EF
:102C4000089520916E0D30916F0D4091700D50914F
:102C5000710D260F371F481F591F20936E0D30939B
:102C60006F0D4093700D5093710D8091840D8068AD
:102C70008093840D2FB7F8948091A80D9091A90DA1
:102C800082609093A90D8093A80D2FBF08951F9285
:102C90000F920FB60F9211242F938F939F938091D1
:102CA0006D0D8F5F80936D0D8091840D8068809392
:102CB000840D2FB7F8948091A80D9091A90D826092
:102CC0009093A90D8093A80D2FBF9F918F912F9165
:102CD0000F900FBE0F901F901895982FF999FECF67
:102CE00007B600FCFDCF72BD61BD40BD8FB7F89443
:102CF0009FBBF99A8FBF08951F920F920FB60F9244
:102D000011242F938F939F93FB988091830D806163
:102D10008093830D2FB7F8948091A80D9091A90D01
:102D200082609093A90D8093A80D2FBF9F918F91E2
:102D30002F910F900FBE0F901F90189580917000EB
:102D40008C7F809370008091B60080628093B60083
:102D50001092B2001092B0001092B1001092B30025
:102D60008091B60090E08F719070892BC9F783E055
:102D700087BB87E08093B100809170008160809371
:102D8000700008958091B60090E08F719070892B4B
:102D9000C9F7809170008C7F809370008091B100A2
:102DA000887F8093B10083B5826083BD8091B60037
:102DB00090E08F719070892BC9F78091B6008F7D5C
:102DC0008093B6000895EF92FF920F931F937B01BB
:102DD0008C016091B200862F90E0809590959C01C7
:102DE000442737FD4095542F3070407050702E1599
:102DF0003F054007510798F4D801C701821B930B88
:102E0000A40BB50B9C01AD01BB27A52F942F832FDD
:102E10009093790D8093780D20937A0D11C0809155
:102E2000B60090E08F719070892BC9F76E0D60939A
:102E3000B30082E087BB8091700082608093700055
:102E40001F910F91FF90EF900895EF92FF920F93D3
:102E50001F932FB7F8943091730D8091B20084E4E2
:102E60008093B4008091B60090E08F719070892BB0
:102E7000C9F7B89B02C08091B2002FBF8FEF389F77
:102E8000C0011124AA2797FDA095BA2F9C01AD017E
:102E900075E0220F331F441F551F7A95D1F77C012F
:102EA0008D0162E016950795F794E7946A95D1F73E
:102EB0002E0D3F1D401F511FE090740DF090750DB9
:102EC0000091760D1091770D2E0D3F1D401F511F63
:102ED000281B390B4A0B5B0BB901CA011F910F91DB
:102EE000FF90EF90089560E270E080E090E0089538
:102EF0002FB7F8946091730D1092730D2FBF70E08F
:102F000080E090E020E43FE140E050E00E9429E6CC
:102F10002091740D3091750D4091760D5091770D83
:102F2000260F371F481F591F2093740D3093750DBE
:102F30004093760D5093770D2617370748075907AA
:102F400028F48091720D8F5F8093720D08951F9207
:102F50000F920FB60F920BB60F9211242F933F933F
:102F60004F935F936F937F938F939F93AF93BF9391
:102F7000EF93FF93809170008D7F8093700010928B
:102F80007A0D80917B0D813011F40E94221980917D
:102F90009D0D90919E0D892B89F08091800D81600F
:102FA0008093800D2FB7F8948091A80D9091A90D72
:102FB00082609093A90D8093A80D2FBFFF91EF9190
:102FC000BF91AF919F918F917F916F915F914F9141
:102FD0003F912F910F900BBE0F900FBE0F901F903F
:102FE00018951F920F920FB60F920BB60F921124E5
:102FF0002F933F934F935F936F937F938F939F9301
:10300000AF93BF93EF93FF938091780D9091790DDB
:10301000892BA9F580917A0D8823F1F480917B0D9D
:10302000813011F40E94221980919D0D90919E0D86
:10303000892BA1F18091800D81608093800D2FB745
:10304000F8948091A80D9091A90D82609093A90D9C
:103050008093A80D2FBF22C08091B60090E08F71A1
:103060009070892BC9F780917A0D8093B30082E02C
:1030700087BB8091700082608093700009C080914E
:10308000780D9091790D01979093790D8093780D3B
:1030900080917B0D813011F40E94AE188091730DE8
:1030A0008F5F8093730D8091800D82608093800D7F
:1030B0002FB7F8948091A80D9091A90D82609093FC
:1030C000A90D8093A80D2FBFFF91EF91BF91AF91F4
:1030D0009F918F917F916F915F914F913F912F9130
:1030E0000F900BBE0F900FBE0F901F901895809100
:1030F0007B0D813091F40E942219809170008D7FA8
:10310000809370008FB7F89410927A0D1092790D19
:103110001092780D8FBF0E940C2208950E942517EF
:1031200020917C0D30917D0D40917E0D50917F0D51
:10313000621B730B840B950B10927C0D10927D0D0E
:1031400010927E0D10927F0D0E942116E1EAF0E0B0
:103150008081826080830E94551A08950E94D72240
:10316000882309F450C080919D0D90919E0D892B6C
:1031700019F42FEF3FEF64C024982C988091B6008B
:1031800090E08F719070892BC9F78091700081FD5C
:103190000AC08FEF8093B3008091B60090E08F71EA
:1031A0009070892BC9F78091B000806C8093B0003B
:1031B0008091B60090E08F719070892BC9F7809153
:1031C000B10080688093B1008091B60090E08F716B
:1031D0009070892BC9F78091B0008F738093B000F5
:1031E0008091B60090E08F719070892BC9F7809123
:1031F000B00080688093B0008091B60090E08F713D
:103200009070892BC9F781E080937B0D8091B60087
:1032100090E08F719070892BC9F78091850D80683F
:103220008093850D2FB7F8948091A80D9091A90DEA
:1032300082609093A90D8093A80D2FBF20E030E00D
:10324000C901089580917B0D813041F510927B0D6D
:103250000E94D722882311F42C980EC024982C9811
:103260008091B0008F738093B0008091B60090E0A1
:103270008F719070892BC9F7249A8091840D846096
:103280008093840D2FB7F8948091A80D9091A90D8B
:1032900082609093A90D8093A80D2FBF089580910F
:1032A0007B0D813009F05EC08091A1008D7F8093FD
:1032B000A10080917C0D90917D0DA0917E0DB0912B
:1032C0007F0D0097A105B10551F40E942517609369
:1032D0007C0D70937D0D80937E0D90937F0D80917A
:1032E0008A0D8111EC9AF999FECF0E94D72288238A
:1032F000C1F42C9A249A80919D0D90919E0D892B5A
:1033000029F087E083BF889513BE22C00E94C216B1
:1033100085E083BF889513BE0E949E160E94281ADE
:1033200017C0909172002091BC0030917A001092E9
:1033300072001092BC0010927A00249A87E083BF3A
:10334000889513BE909372002093BC0030937A004E
:1033500084E48093B4008091B60090E08F71907007
:10336000892BC9F70895A0E0B0E0E9EBF9E10C94EE
:10337000A1E600E8C2E8DBE810E092E8C92E9BE88D
:10338000D92EE12CF12C82E8A82E8BE8B82E0E94D1
:10339000F307BC018BE86338780718F19E0140E021
:1033A00050E0CB01A0E0B0E082589B48A040B04084
:1033B000281739074A075B074CF4123039F480911B
:1033C0006600815080936600000036C080916600E0
:1033D0008150809366000000EB01C258DB4811E089
:1033E00028C08BE86238780739F1CE01A0E0B0E060
:1033F0009B0140E050E036014701621A730A840ADB
:10340000950A86159705A805B9054CF4113039F4CD
:10341000809166008F5F8093660000000DC08091F0
:1034200066008F5F809366000000E501C61BD70B26
:1034300012E0015009F0ABCFCDB7DEB7EEE00C944F
:10344000BDE60E94D722882311F40E94B319089583
:10345000CF93DF93C0E0D0E088EC0E94EB07219689
:1034600083E1C838D807C1F70E94211ADF91CF91B4
:10347000089580E28CBB0895ED9A08958DB3ED9880
:1034800080720895179A0895179808952C98249A91
:10349000179A0F9A6D9875980895EAE6F0E0808182
:1034A0008C608083089584E008951F9310E028982D
:1034B00081E80E941C26812F0E941C26182F289A22
:1034C0008830A9F71F9108950E94EB070895809115
:1034D000800D80FF0BC09FB7F8948091800D8E7F88
:1034E0008093800D9FBF0E94112277C08091800D34
:1034F00081FF0BC09FB7F8948091800D8D7F8093E2
:10350000800D9FBF0E94781768C08091820D87FF51
:103510000BC09FB7F8948091820D8F778093820DB6
:103520009FBF0E94362059C08091830D83FF0BC03E
:103530009FB7F8948091830D877F8093830D9FBF01
:103540000E9471224AC08091830D84FF0BC09FB7F7
:10355000F8948091830D8F7E8093830D9FBF0E948E
:10356000F9143BC08091840D82FF0BC09FB7F89483
:103570008091840D8B7F8093840D9FBF0E948E1855
:103580002CC08091840D85FF0BC09FB7F89480916B
:10359000840D8F7D8093840D9FBF0E94F0211DC0FC
:1035A0008091840D87FF0BC09FB7F8948091840DA4
:1035B0008F778093840D9FBF0E9421140EC080914D
:1035C000850D87FF0AC09FB7F8948091850D8F778E
:1035D0008093850D9FBF0E944F198091800D882395
:1035E000A1F48091810D882381F48091820D88233C
:1035F00061F48091830D882341F48091840D8823A8
:1036000021F48091850D882361F02FB7F894809183
:10361000A80D9091A90D82609093A90D8093A80D9B
:103620002FBF089590918E0D21E030E002C0220F4F
:10363000331F8A95E2F7922B90938E0D8091820D25
:1036400080688093820D2FB7F8948091A80D909197
:10365000A90D82609093A90D8093A80D2FBF0895A6
:10366000CF93DF93782F282F30E0A091860DB09173
:10367000870D109749F019968D919C911A97821792
:10368000930711F480E010C0A091880DB091890DCE
:10369000109709F4A6C019968D919C911A978217DC
:1036A000930709F09EC081E0482F552747FD5095AC
:1036B000FA01EE0FFF1FEA57F24FA081B181109778
:1036C00031F4E72FF0E081818F7781838AC05F96A4
:1036D0008C915F9783FD85C05F968C915F97539621
:1036E000CD91DC91549784FF0AC068830190F081EA
:1036F000E02D838994890196948B838B72C0CD2BA6
:1037000009F46FC01696CD91DC91179716968D919E
:103710009C911797019617969C938E9316971696E1
:103720002D913C91179755968D919C9156972817FE
:10373000390721F417961C921E92169716962D9112
:103740003C91179714968D919C91159728173907DE
:1037500029F41796DC93CE93169743C05396ED91B8
:10376000FC915497EC0FFD1F6083440F551F4A577F
:10377000524FEA01E881F981878D80FF32C081854F
:103780009285883C910569F516962D913C91179785
:1037900014968D919C9115978217930748F416966D
:1037A0004D915C91179714968D919C9115970CC033
:1037B0002589368916964D915C91179714968D91AF
:1037C0009C911597420F531F481B590B2589368929
:1037D00080918D0D241B350B90E02817390708F4D4
:1037E0005D9ADF91CF910895DC010097E1F1199680
:1037F0008D919C911A97803C910519F0883C910518
:1038000091F58091860D9091870D8A179B0711F491
:10381000E0E008C08091880D9091890D8A179B0780
:1038200011F5E1E0FF27E7FDF095EE0FFF1FEA57E6
:10383000F24F118210821996ED91FC911A97F0E0E7
:1038400011825F968C915F9781FF02C06C9874988B
:103850005F968C9180FF04C055985D9854985C9851
:1038600020E030E002C02FEF3FEFC9010895A0E053
:10387000B0E0EDE3FCE10C94A2E6DC016B017A011F
:10388000009709F49BC019968D919C911A97803CE2
:10389000910521F0883C910509F090C0C114D10434
:1038A00009F48CC0E114F10409F488C08091860DFC
:1038B0009091870D8A179B0711F4E0E009C0809171
:1038C000880D9091890D8A179B0709F077C0E1E078
:1038D0004E2F552747FD5095FA01EE0FFF1FEA576F
:1038E000F24FC081D18159968D919C915A978A80CF
:1038F0009B80A880B980892BA1F48A149B0409F0CD
:103900005DC0D88ECF8AFB82EA821982188219960E
:10391000ED91FC911A97F0E0818180628183A7018B
:103920004FC07FB6F89400E010E0BA01660F771F31
:103930006A57724F2BC0AA81BB81CD0101969B8330
:103940008A83FB0120813181F901218D328D82171B
:10395000930711F41B821A822A813B818881998105
:103960002817390719F4BB83AA8313C0FB01808190
:103970009181FC012789308D2A0F3B1FD601A00FB2
:10398000B11F8C91D9018C930F5F1F4F0E151F052E
:1039900090F28A149B0479F41886440F551F4A57F5
:1039A000524FDA01ED91FC910184F285E02DF0E0B7
:1039B0008181806281837FBEA80102C04FEF5FEFEB
:1039C000CA01CDB7DEB7EDE00C94BEE66F927F92F0
:1039D0009F92AF92BF92CF92DF92EF92FF920F939E
:1039E0001F93CF93DF938C015B016A01009709F469
:1039F000AEC0DC0119968D919C911A97803C91057F
:103A000021F0883C910509F0A2C0A114B10409F489
:103A10009EC0C114D10409F49AC08091860D909182
:103A2000870D8017910711F4E0E009C08091880D9F
:103A30009091890D8017910709F089C0E1E06E2F00
:103A4000772767FD7095FB01EE0FFF1FEA57F24FD6
:103A5000C081D1819FB6F894EE24FF24AB01440FBE
:103A6000551F4A57524F26C08C819D8135016E0CDF
:103A70007F1CFA0120813181D9015396ED91FC918F
:103A80005497E80FF91F8081F30180838C819D8119
:103A900001969D838C832C813D81DA01ED91FC910F
:103AA000858996892817390711F41D821C8208948C
:103AB000E11CF11C2C813D818E819F8128173907E3
:103AC00019F0EC14FD0480F2F80181859285883CA0
:103AD0009105D1F5878D80FF37C02E813F818C8184
:103AE0009D812817390779F12E813F818C819D8135
:103AF0008217930728F44E815F818C819D8110C0CD
:103B0000FB01EE0FFF1FEA57F24F0190F081E02D0D
:103B1000258936894E815F818C819D81420F531F9B
:103B2000481B590B660F771F6A57724FDB01ED91E7
:103B3000FC912589368980918D0D241B350B90E0F1
:103B40002817390708F05D989FBE970102C02FEF34
:103B50003FEFC901DF91CF911F910F91FF90EF903F
:103B6000DF90CF90BF90AF909F907F906F9008951F
:103B7000FC01009761F081859285883C910539F4BC
:103B8000878D80FF04C05D9A20E030E002C02FEFF7
:103B90003FEFC9010895FC01009761F0818592858E
:103BA000883C910539F4878D80FF04C05D9820E042
:103BB00030E002C02FEF3FEFC9010895282F30E019
:103BC000E091860DF091870D309739F081859285CF
:103BD0008217930711F4E0E00CC0E091880DF0919A
:103BE000890D309739F1818592858217930711F5F8
:103BF000E1E0FF27E7FDF095EE0FFF1FEA57F24FD8
:103C00000190F081E02D3097A9F0228133818081ED
:103C100091812817390711F481E08087818D928D79
:103C2000892B11F4108E178A058CF68DE02D3097B4
:103C300009F009950895282F30E0E091860DF09164
:103C4000870D309739F0818592858217930711F49B
:103C5000E0E00CC0E091880DF091890D3097E1F122
:103C60008185928582179307B9F5E1E0FF27E7FD8B
:103C7000F095EE0FFF1FEA57F24F0190F081E02D13
:103C8000309751F1878D887139F52681378184818C
:103C900095812817390701F16FB7F894268137818C
:103CA000848195818217930728F446815781848106
:103CB000958108C0258936894681578184819581FF
:103CC000420F531F481B590B6FBF038CF48DE02D1F
:103CD000309711F0CA010995089590938C0D809347
:103CE0008B0D81E080938A0D089510928A0D0895BE
:103CF000FC01009789F181859285803C910519F03E
:103D0000883C910549F58091860D9091870D8E171D
:103D10009F0711F4E0E008C08091880D9091890D13
:103D20008E179F07C9F4E1E0FF27E7FDF095EE0F3E
:103D3000FF1FEA57F24F0190F081E02D228133817D
:103D4000808191812817390719F0E0E0F0E006C082
:103D50008085E82FF0E002C0EFEFFFEFCF0108957C
:103D600080EC0E94DE1D089580EC0E941B1E0895C9
:103D700088EC0E94DE1D089588EC0E941B1E0895A9
:103D8000CF93DF93682F282F30E0E091860DF091DC
:103D9000870D309739F0818592858217930711F44A
:103DA000E0E00EC0E091880DF091890D309709F4A4
:103DB000A7C0818592858217930709F0A1C0E1E031
:103DC0004E2F552747FD5095FA01EE0FFF1FEA577A
:103DD000F24FA081B181683C09F061C05F968C917F
:103DE0005F9781FD02C020E01BC01097B1F01996CB
:103DF0008D919C911A97883C910579F45F968C91EE
:103E00005F9781FF0AC08CB190E074E0969587952A
:103E10007A95E1F78170907002C08FEF9FEF282FA5
:103E20005F968C915F9780FD02C080E01AC010976A
:103E3000B1F019968D919C911A97883C910579F46F
:103E40005F968C915F9780FF0AC089B190E034E063
:103E5000969587953A95E1F78170907002C08FEF43
:103E60009FEF222311F48823D1F08AE090E0A0E0B4
:103E7000B0E08093950D9093960DA093970DB0931D
:103E8000980D81E08093990D83E89FE190939B0DBD
:103E900080939A0D8FE89DE00E94661431C02D91A9
:103EA0003C91119712968D919C911397C62FD0E05B
:103EB0008217930711F15796ED91FC915897E20FF5
:103EC000F31F80818E832D913C9111972F5F3F4F7F
:103ED00011963C932E93440F551F4A57524FFA01A7
:103EE00080819181FC01818D928D2817390711F411
:103EF0001D921C928981806202C0898180648983BD
:103F0000DF91CF91089588EC0E94C01E089588EC3F
:103F10000E94C01E089580EC0E94C01E0895CF9399
:103F2000DF93EC01009709F49BC089859A85803C5A
:103F3000910521F0883C910509F092C08F8D80FD9C
:103F400010C02091860D3091870D2C173D0709F484
:103F500087C08091880D9091890D8C179D0741F441
:103F60007FC089859A85883C910509F079C0E9CFA1
:103F7000232B11F4E0E004C0892B09F071C0E1E0CB
:103F8000FF27E7FDF095EE0FFF1FEA57F24FD183B1
:103F9000C08389859A85883C910519F58F8D81FFAD
:103FA00002C06C9874988F8D80FF1BC0559A5498EE
:103FB0005C988B899C89892B11F45D9A12C08D893C
:103FC0009E89089728F08D899E899695879506C0C9
:103FD0008D899E89969587959695879580938D0D69
:103FE0005D988B85803401F58A89882369F48985F9
:103FF0009A85803C910521F0883C9105A9F402C086
:104000006A9A12C0559A10C089859A85803C91059C
:1040100021F0883C910541F404C06A987298729A24
:1040200003C055985D985D9A198218821B821A8286
:104030008B899C89892B11F41E8A1D8A8F89988D02
:10404000892B11F41A8E198E1D821C821F821E82EA
:1040500081E08887CE010E94002329853A8502C02D
:104060002FEF3FEFC901DF91CF910895CF92DF92FB
:10407000FF920F931F93DF93CF9300D00F92CDB792
:10408000DEB781E08983FF2400E010E052E0C52E16
:10409000D12CCC0EDD1E90918E0D89818923B9F033
:1040A0002FB7F89490918E0D8981892780938E0D7A
:1040B0002FBF6F2D70E0660F771F6D55794FC601CA
:1040C00042E050E00E946F09EA81FB810995F39478
:1040D0008981880F89830F5F1F4F06301105D9F63C
:1040E0000F900F900F90CF91DF911F910F91FF9044
:1040F000DF90CF90089587E080939C0D80E98093B6
:10410000BC008091840D80628093840D2FB7F89459
:104110008091A80D9091A90D82609093A90D809334
:10412000A80D2FBF089580919C0D823041F08091A1
:104130009C0D833021F080919C0D843021F480917E
:104140002510880F08C080919C0D853051F4809116
:104150002510880F8F5F8093BB0085E88093BC009B
:10416000089587E080939C0D80E98093BC00809146
:10417000840D80628093840D2FB7F8948091A80DF0
:104180009091A90D82609093A90D8093A80D2FBFE7
:1041900008959091241080912310981790F48091A5
:1041A0002410E0912110F0912210E80FF11D908170
:1041B0008F5F809324109093BB0085E88093BC00B0
:1041C000089586E080939C0D84E98093BC008091E3
:1041D000840D80628093840D2FB7F8948091A80D90
:1041E0009091A90D82609093A90D8093A80D2FBF87
:1041F000089580919C0D843019F40E94C92008957F
:1042000080919C0D823021F080919C0D833049F586
:104210008091261090912710A0912810B09129101C
:10422000209124102150209324102091241004C0A8
:10423000B695A795979587952A95D2F78093BB0059
:1042400085E88093BC0080912410882349F58091F3
:104250009C0D823011F484E001C085E080939C0DB8
:10426000089580919C0D853021F485EA8093BC00EF
:10427000089587E080939C0D80E98093BC00809135
:10428000840D80628093840D2FB7F8948091A80DDF
:104290009091A90D82609093A90D8093A80D2FBFD6
:1042A000089580919C0D853099F480912310813080
:1042B00021F48091BC008F7B03C08091BC0080649E
:1042C0008093BC008091BC0085688093BC000895F9
:1042D00087E080939C0D80E98093BC008091840DE1
:1042E00080628093840D2FB7F8948091A80D9091EF
:1042F000A90D82609093A90D8093A80D2FBF0895FA
:10430000982F80919C0D853029F580912410E091A3
:104310002110F0912210E80FF11D90838F5F8093A0
:104320002410209124108091231030E090E0019718
:104330002817390724F48091BC00806403C0809161
:10434000BC008F7B8093BC008091BC00856880930B
:10435000BC00089587E080939C0D80E98093BC00A9
:104360008091840D80628093840D2FB7F8948091A2
:10437000A80D9091A90D82609093A90D8093A80D2E
:104380002FBF0895982F80919C0D853089F48091DE
:104390002410E0912110F0912210E80FF11D90837C
:1043A0008F5F8093241086E080939C0D84E904C085
:1043B00087E080939C0D80E98093BC008091840D00
:1043C00080628093840D2FB7F8948091A80D90910E
:1043D000A90D82609093A90D8093A80D2FBF089519
:1043E000E0912A10F0912B10309791F080919C0D64
:1043F000863041F48091BC0084FDFCCF81E0809345
:104400009C0D04C081E080939C0D80E00995089587
:1044100081E080939C0D089510929E0D10929D0D49
:104420000895E0919D0DF0919E0D309711F18285D8
:104430008823A9F483859485892B21F00384F4854E
:10444000E02D0995E0919D0DF0919E0D309789F03A
:1044500066817781808591850E94E31608950384A3
:10446000F485E02D10929E0D10929D0D309709F06D
:1044700009950895EF92FF920F931F93CF93DF93C7
:10448000EC010E9473172E813F8148855985209742
:1044900001F10E9429E628EE33E040E050E00E945E
:1044A0007BE679018A01E114F1040105110589F027
:1044B00080919D0D90919E0D892B59F4C801B701F3
:1044C0000E94E316D0939E0DC0939D0D20E030E036
:1044D00002C02FEF3FEFC901CDB7DEB7E6E00C9485
:1044E000C5E680919F0D813051F482E080939F0D4D
:1044F000E0912C10F0912D10309709F00995089556
:1045000080919F0D882319F42FEF3FEF06C0109282
:104510009F0D0E94242520E030E0C9010895982FC6
:1045200080919F0D823079F4892F8450843058F027
:10453000903148F481E080939F0D892F0E9490254F
:1045400020E030E002C02FEF3FEFC9010895CF9384
:10455000DF93EC0180919F0D882319F5209709F1D5
:104560008B819C81892BE9F028812230D0F48A81CB
:1045700090E08F739070892BA1F4213019F4898118
:10458000833078F082E080939F0DCE010E94DD257C
:104590008F81988590932D1080932C1020E030E02F
:1045A00002C02FEF3FEFC901DF91CF9108958091B5
:1045B000A00D0895F999FECF9FB7F89489E0E0E047
:1045C000F0E08093570084919FBF8F70823019F480
:1045D0001092A00D03C081E08093A00D8091A00DEA
:1045E000882369F48FB7F8945F9350E85093610083
:1045F00050E0509361005F918FBF0E94281A089588
:10460000DC011996ED91FC911A9711821996ED91A2
:10461000FC911A971C968C911C9784831B968C9105
:104620001B97882361F41996ED91FC911A9782E00B
:1046300080831996ED91FC911A9712820DC01996FC
:10464000ED91FC911A9710821996ED91FC911A97B1
:1046500051968C91519782831996ED91FC911A97FE
:1046600082811B969C911B97892B82831996ED91D1
:10467000FC911A9782811E969C911E97892B8283AA
:104680001996ED91FC911A9782811F969C911F9724
:10469000892B82831996ED91FC911A97828150960D
:1046A0009C915097892B82831996ED91FC911A97D2
:1046B0008081806880831996ED91FC911A978181A1
:1046C000886181831996ED91FC911A9781818068A8
:1046D000818308951F920F920FB60F920BB60F921F
:1046E00011242F933F934F935F936F937F938F93F7
:1046F0009F93AF93BF93EF93FF930E94771880919E
:104700008A0D8111EC98E0918B0DF0918C0D309712
:1047100009F00995FF91EF91BF91AF919F918F9112
:104720007F916F915F914F913F912F910F900BBEB1
:104730000F900FBE0F901F9018951F920F920FB6FB
:104740000F920BB60F9211242F933F934F935F93C9
:104750006F937F938F939F93AF93BF93EF93FF9349
:104760008091C8006091CE008C7131F488EC0E9479
:10477000301B85E00E94121BFF91EF91BF91AF911A
:104780009F918F917F916F915F914F913F912F9169
:104790000F900BBE0F900FBE0F901F9018951F9299
:1047A0000F920FB60F920BB60F9211242F933F93D7
:1047B0004F935F936F937F938F939F93AF93BF9329
:1047C000EF93FF93E9ECF0E080818F7B808384E0BE
:1047D0000E94121BFF91EF91BF91AF919F918F911A
:1047E0007F916F915F914F913F912F910F900BBEF1
:1047F0000F900FBE0F901F9018951F920F920FB63B
:104800000F920BB60F9211242F933F934F935F9308
:104810006F937F938F939F93AF93BF93EF93FF9388
:10482000E9ECF0E080818F7D808383E00E94121BA1
:10483000FF91EF91BF91AF919F918F917F916F9178
:104840005F914F913F912F910F900BBE0F900FBE34
:104850000F901F9018951F920F920FB60F920BB6E4
:104860000F9211242F933F934F935F936F937F93F6
:104870008F939F93AF93BF93EF93FF938091C0006B
:104880006091C6008C7131F480EC0E94301B82E094
:104890000E94121BFF91EF91BF91AF919F918F9159
:1048A0007F916F915F914F913F912F910F900BBE30
:1048B0000F900FBE0F901F9018951F920F920FB67A
:1048C0000F920BB60F9211242F933F934F935F9348
:1048D0006F937F938F939F93AF93BF93EF93FF93C8
:1048E000E1ECF0E080818F7B808381E00E94121BED
:1048F000FF91EF91BF91AF919F918F917F916F91B8
:104900005F914F913F912F910F900BBE0F900FBE73
:104910000F901F9018951F920F920FB60F920BB623
:104920000F9211242F933F934F935F936F937F9335
:104930008F939F93AF93BF93EF93FF93E1ECF0E0DE
:1049400080818F7D808380E00E94121BFF91EF9118
:10495000BF91AF919F918F917F916F915F914F9197
:104960003F912F910F900BBE0F900FBE0F901F9095
:1049700018951F920F920FB60F920BB60F9211243B
:104980002F933F934F935F936F937F938F939F9357
:10499000AF93BF93EF93FF938091B90090E0887F2E
:1049A00090708832910559F1893291058CF48031EB
:1049B000910511F1813191052CF4009719F10897B7
:1049C00081F51AC088319105D1F0809751F51AC050
:1049D00088349105B9F0893491053CF48033910510
:1049E00089F080349105E9F410C08035910581F09B
:1049F00088359105B1F411C00E94932012C00E9425
:104A0000F9200FC00E947B200CC00E94512109C0D8
:104A10008091BB000E94802104C08091BB000E9455
:104A2000C221FF91EF91BF91AF919F918F917F91A3
:104A30006F915F914F913F912F910F900BBE0F900F
:104A40000FBE0F901F90189510927C0010927A0064
:104A500010927E0008951F920F920FB60F920BB620
:104A60000F9211242F933F934F935F938F939F93B4
:104A7000EF93FF938091A10DE091A20DF091A30D12
:104A8000882351F48091A40D9091A50D2091790077
:104A9000E80FF91F20830FC08091A40D9091A50D00
:104AA00040917800509179009C01220F331FE20F52
:104AB000F31F5183408301969093A50D8093A40D1D
:104AC0002091A40D3091A50D8091A60D9091A70D78
:104AD00028173907B1F480917A00877F80937A0094
:104AE0008091830D88608093830D2FB7F894809117
:104AF000A80D9091A90D82609093A90D8093A80DA7
:104B00002FBFFF91EF919F918F915F914F913F91B7
:104B10002F910F900BBE0F900FBE0F901F90189506
:104B2000282F1092A50D1092A40D843048F481E036
:104B300090E0022E02C0880F991F0A94E2F717C076
:104B4000883011F08A3011F481E011C0893011F001
:104B50008B3011F483E00BC08C3011F08E3011F4E7
:104B600084E005C08D3011F08F3019F48CE0809313
:104B70007E0080917C0090917C00907E90937C00E0
:104B800090917C00922B90937C008F71821729F07A
:104B9000243018F08DE70E94EB078091A60D9091CC
:104BA000A70D029720F080917A00886603C080915B
:104BB0007A00886480937A000895A1E0B0E0E3EE83
:104BC000F5E20C94ADE6FC01858196819093A70DEA
:104BD0008093A60D80818093A10D83819481909311
:104BE000A30D8093A20D828180937C008091A10D02
:104BF000882329F480917C00806280937C0061810D
:104C000070E06155794FCE01019641E050E00E947D
:104C10006F098981806880937A002196E2E00C9484
:104C2000C9E6289A23982B98229A219A209A80E5FF
:104C30008CBD81E08DBD08958EBD00000000000098
:104C40000000000000000000000000000000000064
:104C50000000000000000000000000008DB58EB5CF
:104C60000895A1E0B0E0E7E3F6E20C94ADE6198226
:104C70000E94531A823051F0833018F4882391F047
:104C800014C0833039F0843081F408C08981887F72
:104C900082600EC08981887F83600AC08981887F95
:104CA000846006C08981887F03C08981887F816094
:104CB000898369816F7C6061698383E00E94C42677
:104CC0002196E2E00C94C9E60E94461A8FEF0E94FA
:104CD000641A8FEF0E94641A0E94441A86E00E94B0
:104CE000641A0E94421A82E068E00E94C4268FEF94
:104CF0000E94641A8FEF0E94641A81E00E94B62617
:104D00008F718830D1F70E9431268EE060E00E94DA
:104D1000C4260E94B5E10E94391A0E943C1A0895E7
:104D20001F93CF93DF93EC01162F289880E60E9403
:104D30001C2604C089910E941C2611501123D1F712
:104D4000289ADF91CF911F9108951F93CF93DF93FE
:104D5000EC01162F05C080E20E941C268993115099
:104D60001123C9F7DF91CF911F9108951F932898C0
:104D7000182F1F731068812F0E941C26812F0E94FC
:104D80001C26289A1F9108951F93162F2898806C2F
:104D90000E941C26812F0E941C26289A1F9108958C
:104DA000E0E0F0E021E030E0B9010E2E02C0660F35
:104DB000771F0A94E2F78091A80D9091A90D8623A0
:104DC0009723892BC9F04FB7F8942091A80D309103
:104DD000A90DCB0180959095822393239093A90DE3
:104DE0008093A80D4FBFEE0FFF1FED5DFD4F0190AB
:104DF000F081E02D099504C03196EB30F105A1F664
:104E00008091A80D9091A90D20E0892B09F021E057
:104E1000822F08950E94D026089521E030E002C03C
:104E2000220F331F8A95E2F78091490290914A023E
:104E3000822B932B90934A02809349022FB7F894C8
:104E40008091A80D9091A90D80619093A90D8093F8
:104E5000A80D2FBF08952091490230914A022115D3
:104E60003105A9F1E0E0F0E061E070E0AB010E2E69
:104E700002C0440F551F0A94E2F7CA01822393230C
:104E8000892B09F12427352730934A0220934902C0
:104E9000EE0FFF1FE75CFD4F0190F081E02D0995BB
:104EA0008091490290914A02892B89F02FB7F8949A
:104EB0008091A80D9091A90D80619093A90D809388
:104EC000A80D2FBF08953196E031F10579F60895C8
:104ED0001092B0151092AF151092B11587E2E2ED65
:104EE000F5E1DF011D928A95E9F7E9EFF5E18CE53F
:104EF000DF011D928A95E9F7F093F015E093EF1525
:104F00001092D11508958093D115882319F482E069
:104F10000E940D2708959093B0158093AF1582E0FD
:104F20000E940D2708958093B115882361F483E3CF
:104F300095E10E940171892B19F083E00E940D27F1
:104F400082E00E940D270895DC01E091AF15F091F9
:104F5000B015E957FF4F8C918083E091AF15F09128
:104F6000B0158481833071F0863039F0823061F47D
:104F70008C91882339F484E006C08C91882311F445
:104F800085E001C087E084831092B0151092AF15C0
:104F900080E00E94932708950F931F93CF93DF9390
:104FA000EC018A8D9B8D97FF69C08853904809F466
:104FB00065C083E395E10E9401715BC0ED8DFE8DBC
:104FC000908115968C911597981709F04FC01496FB
:104FD0008C911497823039F416968D919C91179785
:104FE000069769F46FC0843009F040C016968D9121
:104FF0009C911797069709F463C087E001C083E08E
:1050000014968C931497A358BF4F8C858C93AD57EF
:10501000B040823051F4A258BF4F8D859E851196C5
:105020009C938E93AE57B04015C0833099F4FD0128
:10503000E258FF4F8F8580838889818389898283A5
:105040008A8983838B8984838C8985838D898683F0
:105050008E8987839D012A573F4F4C8D6D8D7E8DA4
:10506000C90150E00E94A30983E027C0CD010E943E
:105070000571DC01009709F0A1CF26C08091D11500
:10508000882311F509EF15E14C8D6D8D7E8DC801DA
:1050900050E00E94A309D8019797FE0187E2019092
:1050A0000D928150E1F789EF95E19093F01580938F
:1050B000EF1581E00E94832782E00E940D2704C043
:1050C00085E09ECF86E09CCFDF91CF911F910F911D
:1050D00008952091EC153091ED153F772F31310572
:1050E00018F40E9403760895C90180970B9718F46D
:1050F0000E94DF710895205330402930310510F4AB
:105100000E94387B08958091B115823041F483E08C
:105110000E94932782EB95E10E94F9350895882338
:1051200009F09BC08091D115813099F40E9493279A
:105130008FE1E2EBF5E1DF011D928A95E9F70E942C
:1051400069288091B115823009F087C00E940D272F
:1051500008958091AF159091B015892B09F47DC009
:1051600081E00E9493278FE1E2EBF5E1DF011D92E0
:105170008A95E9F784EA97E29093CB158093CA1554
:1051800082E00E949327E091AF15F091B015E957A6
:10519000FF4F1082E091AF15F091B0152681378155
:1051A0003F772F31310518F40E94E8740EC0C90111
:1051B00080970B9718F40E94557107C02053304018
:1051C0002930310510F40E94B779E091AF15F091C4
:1051D000B015868197818331910531F0883391052F
:1051E00019F08853904811F483E001C082E0848371
:1051F0008091C515E091AF15F091B015882351F459
:1052000087E084831092B0151092AF1580E00E9461
:10521000932720C0868197819093C3158093C215F0
:105220008091AE1583AB8F5F8093AE15E091AF1583
:10523000F091B01583A985838091C5158F5F809308
:10524000C5158091AF159091B015C3969093C71571
:105250008093C61582E00E940D270895EF92FF9279
:105260000F931F93CF93DF9383E395E10E94017126
:10527000EC0192E0E92E84E0F82E17E001E075C021
:105280008C81873028F4853010F5882329F069C097
:10529000873009F066C02DC083E00E94EE7388233A
:1052A00061F08091AF159091B015892B09F059C02C
:1052B0000C83CE010E948B2754C01C83C957DF4F3B
:1052C0001883C758D04083E00E940D274AC085301C
:1052D00011F4FC8201C0EC82C558DF4FE881F981EE
:1052E000CB57D0403097E9F1CE0183589F4F0995B5
:1052F00038C083E395E1BE010E941E718E819F81BB
:105300000197C9F4C957DF4F8881C758D040882317
:1053100091F4DE01A057BF4FFE01E857FF4F008117
:1053200011812281338144815581668177818D91FC
:105330009C910E949D57C558DF4FE881F981CB575A
:10534000D040309721F0CE0183589F4F099583E3D9
:1053500095E10E940171892B59F083E00E940D278D
:1053600007C0CE010E940571EC01209709F088CF9B
:10537000CDB7DEB7E6E00C94C5E6FF920F931F931E
:10538000CF93DF9383E395E10E940171EC0127E065
:10539000F22E0BE81DE020C02C818A819B810097B2
:1053A00089F42430A9F48E819F81FE01E957FF4FD3
:1053B000069711F4108301C00083FC8283E00E94F1
:1053C0000D2706C02250233018F401979B838A834F
:1053D000CE010E940571EC012097F1F6CDB7DEB742
:1053E000E5E00C94C6E6A8E0B0E0E9EFF9E20C9441
:1053F000ABE68C0188E1BE016F5F7F4F0E94D50E46
:105400008EE1BE016B5F7F4F0E94D50E89819A812C
:10541000AB81BC81880F991FAA1FBB1F2D813E81C4
:105420004F815885820F931FA41FB51F37E0B69593
:10543000A795979587953A95D1F789839A83AB83FA
:10544000BC83F80193838283148283E395E1B801DE
:105450000E94F27083E00E940D272896E4E00C94ED
:10546000C7E60F931F9303E315E1C8010E94EC7098
:105470000E9468270C5F1F4FC8010E94FC13109206
:1054800041158DEB99E2909343158093421580E886
:1054900090E0A0E0B0E080933D1590933E15A0937E
:1054A0003F15B0934015C8010E9466141F910F91DB
:1054B00008958091AD0D81508093AD0D0895EF92C8
:1054C000FF920F931F93E82E9091B40D4091B90D68
:1054D0005091BA0D10E060E070E082C0FA0187815F
:1054E0004A5D5F4F9B012A5D3F4F882309F076C0DC
:1054F00082E0E816E1F0E81620F084E0E81609F012
:1055000072C09091B80D8091B60D981708F06BC0DD
:105510009F5F9093B80D1382148215821682E091DA
:10552000B90DF091BA0DE60FF71F128644C09091A5
:10553000B70D8091B50D981708F055C0F090B10DDA
:10554000A091B20DB091B30D00E020E030E02DC08D
:10555000FD01E20FF31FA9014D5D5F4F808180FDCA
:1055600022C09F5F9093B70D808181608083E0911E
:10557000B20DF091B30DE20FF31F110F110F8081E7
:105580008370812B8083E091B90DF091BA0DE60F05
:10559000F71F8091B20D9091B30D820F931F479624
:1055A000938B828B04C00F5F9A010F1588F2809154
:1055B000B10D8017C1F0E091B90DF091BA0DE60F71
:1055C000F71F118681E08783E08611821082209187
:1055D000B90D3091BA0D260F371F07C01F5FB901F3
:1055E000191708F47BCF20E030E0C9011F910F911B
:1055F000FF90EF900895CF93DF932091B90D3091F4
:10560000BA0D8217930708F45DC0821B930B66E204
:1056100070E00E9454E68091B40D681708F052C003
:1056200086E2689FE0011124F901EC0FFD1F11864D
:105630008085823061F0823010F08430E1F5809115
:10564000B80D8823C1F181508093B80D34C080918A
:10565000B70D882319F081508093B70D2091B20DBA
:105660003091B30D82899389821B930B63E270E0C2
:105670000E9454E68091B50D6817A8F483E2689FF4
:10568000B0011124F901E60FF71F808180FF0BC0E4
:105690008E7F8083E091B20DF091B30DE60FF71F7E
:1056A00080818D7F8083E091B90DF091BA0DEC0F70
:1056B000FD1F138A128AE091B90DF091BA0DEC0F1B
:1056C000FD1F1782DF91CF910895FC01138A80910D
:1056D000B00D81508093B00D21893289CF0143965E
:1056E000F90109950895FC01DA010097D9F0628F5C
:1056F0004115510551F08D919D910D90BC91A02DBA
:10570000838F948FA58FB68F04C0138E148E158E41
:10571000168E208D318D2115310521F0CF014A964D
:10572000F90109950895A5E0B0E0E9E9FBE20C94E0
:10573000A9E680E3BE016F5F7F4F0E94D50E8E0108
:105740000E5F1F4F88E1B8010E94D50E2A813B8170
:105750004C815D81898190E0A0E0B0E082179307E1
:10576000A407B50760F0220F331F441F551F2A837B
:105770003B834C835D8388E1B8010E94850D89815C
:1057800090E00796AA2797FDA095BA2F7C018D017E
:1057900024E0EE0CFF1C001F111F2A95D1F7E81A18
:1057A000F90A0A0B1B0B8A819B81AC81BD81E80E33
:1057B000F91E0A1F1B1FE092D80DF092D90D00931D
:1057C000DA0D1093DB0D7091D70D60E020E030E032
:1057D00040E050E00FC0D801C701062E04C0880F7A
:1057E000991FAA1FBB1F0A94D2F7280F391F4A1FFF
:1057F0005B1F6F5F671778F3CA01B90124EF31E0CF
:1058000040E050E00E947BE62E5F2093DC0D8BEBA6
:105810009DE060E024EF31E040E050E001E21CE276
:105820000E94423E89EC9DE060E02AE030E040E0EA
:1058300050E00FE51DE20E94423E2596E6E00C9402
:10584000C5E63091DD0DE091AA0DF091AB0D90E031
:1058500021E008C08381882319F08150838320E0F0
:105860009F5F35969317B0F3222321F08BEB9DE0D9
:105870000E94393E089589EC9DE00E94393E8BEBF1
:105880009DE00E94393E83E00E94D23D0895209120
:10589000AD0D2F5F2093AD0D0E9418590895A1E022
:1058A000B0E0E5E5FCE20C94A8E67C018B01809178
:1058B000AF0DDB0154968C9354978F5F8093AF0D9F
:1058C000F701878955968C935597DD24D394579685
:1058D000DC92579758961C9258978DED95E35A96FF
:1058E0009C938E935997838951968C935197848971
:1058F000958953969C938E93529782E2BE016F5F77
:105900007F4F0E94D50E89818823D9F582E0D80186
:105910001E968C931E978DEF9FEF50969C938E93BF
:105920001F9751968C915197875F51968C93519701
:105930005296ED91FC91539739975396FC93EE93C1
:10594000529756961C92D70113968D919C9114975D
:105950009283818350968D919C91519794838383F8
:105960001E968D919C911F979683858352968C915C
:1059700087838091AE0D80878F5F8093AE0D83E02B
:1059800035C0F801D686D70113968D919C91149756
:10599000908B878753968C915397885F818B549611
:1059A000ED91FC9155973897D8015396FC93EE935F
:1059B00052978091991656968C938FEF8183D701D9
:1059C00050968D919C915197938382831E968D91D1
:1059D0009C911F979583848352968C9186838091A6
:1059E000AE0D87838F5F8093AE0D80E0D801529615
:1059F000ED91FC915397880F880F8083C8010B9617
:105A00000E94472C80E02196E7E00C94C4E682E8EF
:105A100080930C0E8091F40D80930D0E8091F00D0B
:105A20009091F10D90930F0E80930E0E8091F20DD8
:105A30009091F30D9093110E8093100E8091EF0DC5
:105A40008093120E8091F50D8093130E82E0809367
:105A5000140E8091EB0D8093150E8091EC0D8093C8
:105A6000160E82E080931B0E8CE09EE02091ED0DDF
:105A70003091EE0D30931D0E20931C0E2BE02093E1
:105A80001E0E9093200E80931F0E2091AF0D209339
:105A9000210E2F5F2093AF0D1092220E1092230E35
:105AA00021E02093240E1092250E29E53AE230934E
:105AB000270E2093260E0C960E94472C0895DF9205
:105AC000EF92FF920F931F9301E010E0F6E2DF2EBA
:105AD000E3E0EE2E77E0F72E3AC01D9D90011124F1
